{
	"compilerInput": "{\"language\":\"Solidity\",\"sources\":{\"contracts/test.sol\":{\"content\":\"// SPDX-License-Identifier: MIT\\npragma solidity ^0.8.0;\\n\\n// Define a contract named Marketplace\\ncontract Marketplace {\\n    // A struct named Item to hold details about an item\\n    struct Item {\\n        uint id;\\n        address payable seller;\\n        string title;\\n        string description;\\n        uint price;\\n        bool sold;\\n    }\\n\\n    // Array to store all items in the marketplace\\n    Item[] public items;\\n    // Variable to keep track of the next item ID\\n    uint public nextItemId;\\n\\n    // Events to log actions on the blockchain\\n    event ItemListed(\\n        uint id,\\n        address indexed seller,\\n        string title,\\n        string description,\\n        uint price\\n    );\\n\\n    event ItemPurchased(\\n        uint id,\\n        address indexed buyer,\\n        uint price\\n    );\\n\\n    event ItemCancelled(\\n        uint id,\\n        address indexed seller\\n    );\\n\\n    // Modifier to check that the message sender is the seller of the item\\n    modifier onlySeller(uint _itemId) {\\n        require(items[_itemId].seller == msg.sender, \\\"Only the seller can perform this action\\\");\\n        _;\\n    }\\n\\n    // Modifier to prevent reentrancy attacks\\n    modifier noReentrancy() {\\n        require(!locked, \\\"No reentrancy allowed!\\\");\\n        locked = true;\\n        _;\\n        locked = false;\\n    }\\n\\n    // Boolean variable to lock state transitions to prevent reentrancy\\n    bool private locked;\\n\\n    // Function to list a new item for sale\\n    function listItem(string memory _title, string memory _description, uint _price) public {\\n        require(_price > 0, \\\"Price must be greater than zero\\\"); // Ensure the price is greater than zero\\n\\n        // Add the new item to the items array\\n        items.push(Item({\\n            id: nextItemId,\\n            seller: payable(msg.sender),\\n            title: _title,\\n            description: _description,\\n            price: _price,\\n            sold: false\\n        }));\\n\\n        // Emit an event for the listed item\\n        emit ItemListed(nextItemId, msg.sender, _title, _description, _price);\\n        nextItemId++; // Increment the item ID for the next item\\n    }\\n\\n    // Function to buy an item\\n    function buyItem(uint _id) public payable noReentrancy {\\n        require(_id < items.length && items[_id].id == _id, \\\"Item does not exist\\\"); // Check if the item exists\\n        Item storage item = items[_id];\\n        require(!item.sold, \\\"Item already sold\\\"); // Check if the item is not already sold\\n        require(msg.value >= item.price, \\\"Not enough ether sent\\\"); // Check if enough Ether was sent\\n\\n        item.seller.transfer(item.price); // Transfer the item price to the seller\\n        item.sold = true; // Mark the item as sold\\n\\n        if (msg.value > item.price) {\\n            payable(msg.sender).transfer(msg.value - item.price); // Refund any excess Ether\\n        }\\n\\n        emit ItemPurchased(_id, msg.sender, item.price); // Emit an event for the purchase\\n    }\\n\\n    // Function to cancel an item listing\\n    function cancelListing(uint _id) public onlySeller(_id) {\\n        require(!items[_id].sold, \\\"Cannot cancel, item already sold\\\"); // Check if the item is not sold\\n        items[_id].sold = true; // Mark the item as sold\\n        emit ItemCancelled(_id, msg.sender); // Emit an event for the cancellation\\n    }\\n\\n    // Function to retrieve details about a specific item\\n    function getItem(uint _id) public view returns (uint, string memory, string memory, uint, bool) {\\n        require(_id < items.length && items[_id].id == _id, \\\"Item does not exist\\\"); // Check if the item exists\\n        Item storage item = items[_id];\\n        return (item.id, item.title, item.description, item.price, item.sold); // Return item details\\n    }\\n\\n    // Function to retrieve all items\\n    function getAllItems() public view returns (Item[] memory) {\\n        return items; // Return the array of all items\\n    }\\n}\\n\"}},\"settings\":{\"optimizer\":{\"enabled\":false,\"runs\":200},\"outputSelection\":{\"*\":{\"\":[\"ast\"],\"*\":[\"abi\",\"metadata\",\"devdoc\",\"userdoc\",\"storageLayout\",\"evm.legacyAssembly\",\"evm.bytecode\",\"evm.deployedBytecode\",\"evm.methodIdentifiers\",\"evm.gasEstimates\",\"evm.assembly\"]}},\"remappings\":[]}}",
	"name": "Marketplace",
	"bytecode": {
		"linkReferences": {},
		"object": "6080604052348015600e575f80fd5b50611a7d8061001c5f395ff3fe60806040526004361061006f575f3560e01c80634ba1d6aa1161004d5780634ba1d6aa146101035780636a8689741461012d578063bfb231d214610157578063e7fb74c7146101985761006f565b80630562021c14610073578063305a67a81461009b5780633129e773146100c3575b5f80fd5b34801561007e575f80fd5b5061009960048036038101906100949190610ef7565b6101b4565b005b3480156100a6575f80fd5b506100c160048036038101906100bc9190610f7f565b61037b565b005b3480156100ce575f80fd5b506100e960048036038101906100e49190610f7f565b610526565b6040516100fa959493929190611033565b60405180910390f35b34801561010e575f80fd5b5061011761070a565b604051610124919061127f565b60405180910390f35b348015610138575f80fd5b50610141610907565b60405161014e919061129f565b60405180910390f35b348015610162575f80fd5b5061017d60048036038101906101789190610f7f565b61090d565b60405161018f969594939291906112c7565b60405180910390f35b6101b260048036038101906101ad9190610f7f565b610a8a565b005b5f81116101f6576040517f08c379a00000000000000000000000000000000000000000000000000000000081526004016101ed9061137e565b60405180910390fd5b5f6040518060c0016040528060015481526020013373ffffffffffffffffffffffffffffffffffffffff1681526020018581526020018481526020018381526020015f1515815250908060018154018082558091505060019003905f5260205f2090600602015f909190919091505f820151815f01556020820151816001015f6101000a81548173ffffffffffffffffffffffffffffffffffffffff021916908373ffffffffffffffffffffffffffffffffffffffff16021790555060408201518160020190816102c79190611596565b5060608201518160030190816102dd9190611596565b506080820151816004015560a0820151816005015f6101000a81548160ff02191690831515021790555050503373ffffffffffffffffffffffffffffffffffffffff167fc5036ec8a366a93fde59354bd719ea6e26d1e7a0916e0ef35f50e4ea1244f1a66001548585856040516103579493929190611665565b60405180910390a260015f815480929190610371906116e3565b9190505550505050565b803373ffffffffffffffffffffffffffffffffffffffff165f82815481106103a6576103a561172a565b5b905f5260205f2090600602016001015f9054906101000a900473ffffffffffffffffffffffffffffffffffffffff1673ffffffffffffffffffffffffffffffffffffffff161461042b576040517f08c379a0000000000000000000000000000000000000000000000000000000008152600401610422906117c7565b60405180910390fd5b5f828154811061043e5761043d61172a565b5b905f5260205f2090600602016005015f9054906101000a900460ff161561049a576040517f08c379a00000000000000000000000000000000000000000000000000000000081526004016104919061182f565b60405180910390fd5b60015f83815481106104af576104ae61172a565b5b905f5260205f2090600602016005015f6101000a81548160ff0219169083151502179055503373ffffffffffffffffffffffffffffffffffffffff167ff69c7ea3f71dad86e17ba97a88b7e8f1708c0946bd98c7584e9942f60da8728e8360405161051a919061129f565b60405180910390a25050565b5f6060805f805f805490508610801561055f5750855f878154811061054e5761054d61172a565b5b905f5260205f2090600602015f0154145b61059e576040517f08c379a000000000000000000000000000000000000000000000000000000000815260040161059590611897565b60405180910390fd5b5f8087815481106105b2576105b161172a565b5b905f5260205f2090600602019050805f015481600201826003018360040154846005015f9054906101000a900460ff168380546105ee906113c9565b80601f016020809104026020016040519081016040528092919081815260200182805461061a906113c9565b80156106655780601f1061063c57610100808354040283529160200191610665565b820191905f5260205f20905b81548152906001019060200180831161064857829003601f168201915b50505050509350828054610678906113c9565b80601f01602080910402602001604051908101604052809291908181526020018280546106a4906113c9565b80156106ef5780601f106106c6576101008083540402835291602001916106ef565b820191905f5260205f20905b8154815290600101906020018083116106d257829003601f168201915b50505050509250955095509550955095505091939590929450565b60605f805480602002602001604051908101604052809291908181526020015f905b828210156108fe578382905f5260205f2090600602016040518060c00160405290815f8201548152602001600182015f9054906101000a900473ffffffffffffffffffffffffffffffffffffffff1673ffffffffffffffffffffffffffffffffffffffff1673ffffffffffffffffffffffffffffffffffffffff1681526020016002820180546107bb906113c9565b80601f01602080910402602001604051908101604052809291908181526020018280546107e7906113c9565b80156108325780601f1061080957610100808354040283529160200191610832565b820191905f5260205f20905b81548152906001019060200180831161081557829003601f168201915b5050505050815260200160038201805461084b906113c9565b80601f0160208091040260200160405190810160405280929190818152602001828054610877906113c9565b80156108c25780601f10610899576101008083540402835291602001916108c2565b820191905f5260205f20905b8154815290600101906020018083116108a557829003601f168201915b5050505050815260200160048201548152602001600582015f9054906101000a900460ff1615151515815250508152602001906001019061072c565b50505050905090565b60015481565b5f818154811061091b575f80fd5b905f5260205f2090600602015f91509050805f015490806001015f9054906101000a900473ffffffffffffffffffffffffffffffffffffffff1690806002018054610965906113c9565b80601f0160208091040260200160405190810160405280929190818152602001828054610991906113c9565b80156109dc5780601f106109b3576101008083540402835291602001916109dc565b820191905f5260205f20905b8154815290600101906020018083116109bf57829003601f168201915b5050505050908060030180546109f1906113c9565b80601f0160208091040260200160405190810160405280929190818152602001828054610a1d906113c9565b8015610a685780601f10610a3f57610100808354040283529160200191610a68565b820191905f5260205f20905b815481529060010190602001808311610a4b57829003601f168201915b505050505090806004015490806005015f9054906101000a900460ff16905086565b60025f9054906101000a900460ff1615610ad9576040517f08c379a0000000000000000000000000000000000000000000000000000000008152600401610ad0906118ff565b60405180910390fd5b600160025f6101000a81548160ff0219169083151502179055505f8054905081108015610b265750805f8281548110610b1557610b1461172a565b5b905f5260205f2090600602015f0154145b610b65576040517f08c379a0000000000000000000000000000000000000000000000000000000008152600401610b5c90611897565b60405180910390fd5b5f808281548110610b7957610b7861172a565b5b905f5260205f2090600602019050806005015f9054906101000a900460ff1615610bd8576040517f08c379a0000000000000000000000000000000000000000000000000000000008152600401610bcf90611967565b60405180910390fd5b8060040154341015610c1f576040517f08c379a0000000000000000000000000000000000000000000000000000000008152600401610c16906119cf565b60405180910390fd5b806001015f9054906101000a900473ffffffffffffffffffffffffffffffffffffffff1673ffffffffffffffffffffffffffffffffffffffff166108fc826004015490811502906040515f60405180830381858888f19350505050158015610c89573d5f803e3d5ffd5b506001816005015f6101000a81548160ff0219169083151502179055508060040154341115610d06573373ffffffffffffffffffffffffffffffffffffffff166108fc826004015434610cdc91906119ed565b90811502906040515f60405180830381858888f19350505050158015610d04573d5f803e3d5ffd5b505b3373ffffffffffffffffffffffffffffffffffffffff167f78a0660bbda86d17037943644187f6f1f73f2f20a3240bf4cf4a56c2a96bcf84838360040154604051610d52929190611a20565b60405180910390a2505f60025f6101000a81548160ff02191690831515021790555050565b5f604051905090565b5f80fd5b5f80fd5b5f80fd5b5f80fd5b5f601f19601f8301169050919050565b7f4e487b71000000000000000000000000000000000000000000000000000000005f52604160045260245ffd5b610dd682610d90565b810181811067ffffffffffffffff82111715610df557610df4610da0565b5b80604052505050565b5f610e07610d77565b9050610e138282610dcd565b919050565b5f67ffffffffffffffff821115610e3257610e31610da0565b5b610e3b82610d90565b9050602081019050919050565b828183375f83830152505050565b5f610e68610e6384610e18565b610dfe565b905082815260208101848484011115610e8457610e83610d8c565b5b610e8f848285610e48565b509392505050565b5f82601f830112610eab57610eaa610d88565b5b8135610ebb848260208601610e56565b91505092915050565b5f819050919050565b610ed681610ec4565b8114610ee0575f80fd5b50565b5f81359050610ef181610ecd565b92915050565b5f805f60608486031215610f0e57610f0d610d80565b5b5f84013567ffffffffffffffff811115610f2b57610f2a610d84565b5b610f3786828701610e97565b935050602084013567ffffffffffffffff811115610f5857610f57610d84565b5b610f6486828701610e97565b9250506040610f7586828701610ee3565b9150509250925092565b5f60208284031215610f9457610f93610d80565b5b5f610fa184828501610ee3565b91505092915050565b610fb381610ec4565b82525050565b5f81519050919050565b5f82825260208201905092915050565b8281835e5f83830152505050565b5f610feb82610fb9565b610ff58185610fc3565b9350611005818560208601610fd3565b61100e81610d90565b840191505092915050565b5f8115159050919050565b61102d81611019565b82525050565b5f60a0820190506110465f830188610faa565b81810360208301526110588187610fe1565b9050818103604083015261106c8186610fe1565b905061107b6060830185610faa565b6110886080830184611024565b9695505050505050565b5f81519050919050565b5f82825260208201905092915050565b5f819050602082019050919050565b6110c481610ec4565b82525050565b5f73ffffffffffffffffffffffffffffffffffffffff82169050919050565b5f6110f3826110ca565b9050919050565b611103816110e9565b82525050565b5f82825260208201905092915050565b5f61112382610fb9565b61112d8185611109565b935061113d818560208601610fd3565b61114681610d90565b840191505092915050565b61115a81611019565b82525050565b5f60c083015f8301516111755f8601826110bb565b50602083015161118860208601826110fa565b50604083015184820360408601526111a08282611119565b915050606083015184820360608601526111ba8282611119565b91505060808301516111cf60808601826110bb565b5060a08301516111e260a0860182611151565b508091505092915050565b5f6111f88383611160565b905092915050565b5f602082019050919050565b5f61121682611092565b611220818561109c565b935083602082028501611232856110ac565b805f5b8581101561126d578484038952815161124e85826111ed565b945061125983611200565b925060208a01995050600181019050611235565b50829750879550505050505092915050565b5f6020820190508181035f830152611297818461120c565b905092915050565b5f6020820190506112b25f830184610faa565b92915050565b6112c1816110e9565b82525050565b5f60c0820190506112da5f830189610faa565b6112e760208301886112b8565b81810360408301526112f98187610fe1565b9050818103606083015261130d8186610fe1565b905061131c6080830185610faa565b61132960a0830184611024565b979650505050505050565b7f5072696365206d7573742062652067726561746572207468616e207a65726f005f82015250565b5f611368601f83610fc3565b915061137382611334565b602082019050919050565b5f6020820190508181035f8301526113958161135c565b9050919050565b7f4e487b71000000000000000000000000000000000000000000000000000000005f52602260045260245ffd5b5f60028204905060018216806113e057607f821691505b6020821081036113f3576113f261139c565b5b50919050565b5f819050815f5260205f209050919050565b5f6020601f8301049050919050565b5f82821b905092915050565b5f600883026114557fffffffffffffffffffffffffffffffffffffffffffffffffffffffffffffffff8261141a565b61145f868361141a565b95508019841693508086168417925050509392505050565b5f819050919050565b5f61149a61149561149084610ec4565b611477565b610ec4565b9050919050565b5f819050919050565b6114b383611480565b6114c76114bf826114a1565b848454611426565b825550505050565b5f90565b6114db6114cf565b6114e68184846114aa565b505050565b5b81811015611509576114fe5f826114d3565b6001810190506114ec565b5050565b601f82111561154e5761151f816113f9565b6115288461140b565b81016020851015611537578190505b61154b6115438561140b565b8301826114eb565b50505b505050565b5f82821c905092915050565b5f61156e5f1984600802611553565b1980831691505092915050565b5f611586838361155f565b9150826002028217905092915050565b61159f82610fb9565b67ffffffffffffffff8111156115b8576115b7610da0565b5b6115c282546113c9565b6115cd82828561150d565b5f60209050601f8311600181146115fe575f84156115ec578287015190505b6115f6858261157b565b86555061165d565b601f19841661160c866113f9565b5f5b828110156116335784890151825560018201915060208501945060208101905061160e565b86831015611650578489015161164c601f89168261155f565b8355505b6001600288020188555050505b505050505050565b5f6080820190506116785f830187610faa565b818103602083015261168a8186610fe1565b9050818103604083015261169e8185610fe1565b90506116ad6060830184610faa565b95945050505050565b7f4e487b71000000000000000000000000000000000000000000000000000000005f52601160045260245ffd5b5f6116ed82610ec4565b91507fffffffffffffffffffffffffffffffffffffffffffffffffffffffffffffffff820361171f5761171e6116b6565b5b600182019050919050565b7f4e487b71000000000000000000000000000000000000000000000000000000005f52603260045260245ffd5b7f4f6e6c79207468652073656c6c65722063616e20706572666f726d20746869735f8201527f20616374696f6e00000000000000000000000000000000000000000000000000602082015250565b5f6117b1602783610fc3565b91506117bc82611757565b604082019050919050565b5f6020820190508181035f8301526117de816117a5565b9050919050565b7f43616e6e6f742063616e63656c2c206974656d20616c726561647920736f6c645f82015250565b5f611819602083610fc3565b9150611824826117e5565b602082019050919050565b5f6020820190508181035f8301526118468161180d565b9050919050565b7f4974656d20646f6573206e6f74206578697374000000000000000000000000005f82015250565b5f611881601383610fc3565b915061188c8261184d565b602082019050919050565b5f6020820190508181035f8301526118ae81611875565b9050919050565b7f4e6f207265656e7472616e637920616c6c6f77656421000000000000000000005f82015250565b5f6118e9601683610fc3565b91506118f4826118b5565b602082019050919050565b5f6020820190508181035f830152611916816118dd565b9050919050565b7f4974656d20616c726561647920736f6c640000000000000000000000000000005f82015250565b5f611951601183610fc3565b915061195c8261191d565b602082019050919050565b5f6020820190508181035f83015261197e81611945565b9050919050565b7f4e6f7420656e6f7567682065746865722073656e7400000000000000000000005f82015250565b5f6119b9601583610fc3565b91506119c482611985565b602082019050919050565b5f6020820190508181035f8301526119e6816119ad565b9050919050565b5f6119f782610ec4565b9150611a0283610ec4565b9250828203905081811115611a1a57611a196116b6565b5b92915050565b5f604082019050611a335f830185610faa565b611a406020830184610faa565b939250505056fea2646970667358221220d965854aa3d964f65d017a67f3264bc14b1674894e1fcac738d0cab5f2c46d0864736f6c63430008190033",
		"opcodes": "PUSH1 0x80 PUSH1 0x40 MSTORE CALLVALUE DUP1 ISZERO PUSH1 0xE JUMPI PUSH0 DUP1 REVERT JUMPDEST POP PUSH2 0x1A7D DUP1 PUSH2 0x1C PUSH0 CODECOPY PUSH0 RETURN INVALID PUSH1 0x80 PUSH1 0x40 MSTORE PUSH1 0x4 CALLDATASIZE LT PUSH2 0x6F JUMPI PUSH0 CALLDATALOAD PUSH1 0xE0 SHR DUP1 PUSH4 0x4BA1D6AA GT PUSH2 0x4D JUMPI DUP1 PUSH4 0x4BA1D6AA EQ PUSH2 0x103 JUMPI DUP1 PUSH4 0x6A868974 EQ PUSH2 0x12D JUMPI DUP1 PUSH4 0xBFB231D2 EQ PUSH2 0x157 JUMPI DUP1 PUSH4 0xE7FB74C7 EQ PUSH2 0x198 JUMPI PUSH2 0x6F JUMP JUMPDEST DUP1 PUSH4 0x562021C EQ PUSH2 0x73 JUMPI DUP1 PUSH4 0x305A67A8 EQ PUSH2 0x9B JUMPI DUP1 PUSH4 0x3129E773 EQ PUSH2 0xC3 JUMPI JUMPDEST PUSH0 DUP1 REVERT JUMPDEST CALLVALUE DUP1 ISZERO PUSH2 0x7E JUMPI PUSH0 DUP1 REVERT JUMPDEST POP PUSH2 0x99 PUSH1 0x4 DUP1 CALLDATASIZE SUB DUP2 ADD SWAP1 PUSH2 0x94 SWAP2 SWAP1 PUSH2 0xEF7 JUMP JUMPDEST PUSH2 0x1B4 JUMP JUMPDEST STOP JUMPDEST CALLVALUE DUP1 ISZERO PUSH2 0xA6 JUMPI PUSH0 DUP1 REVERT JUMPDEST POP PUSH2 0xC1 PUSH1 0x4 DUP1 CALLDATASIZE SUB DUP2 ADD SWAP1 PUSH2 0xBC SWAP2 SWAP1 PUSH2 0xF7F JUMP JUMPDEST PUSH2 0x37B JUMP JUMPDEST STOP JUMPDEST CALLVALUE DUP1 ISZERO PUSH2 0xCE JUMPI PUSH0 DUP1 REVERT JUMPDEST POP PUSH2 0xE9 PUSH1 0x4 DUP1 CALLDATASIZE SUB DUP2 ADD SWAP1 PUSH2 0xE4 SWAP2 SWAP1 PUSH2 0xF7F JUMP JUMPDEST PUSH2 0x526 JUMP JUMPDEST PUSH1 0x40 MLOAD PUSH2 0xFA SWAP6 SWAP5 SWAP4 SWAP3 SWAP2 SWAP1 PUSH2 0x1033 JUMP JUMPDEST PUSH1 0x40 MLOAD DUP1 SWAP2 SUB SWAP1 RETURN JUMPDEST CALLVALUE DUP1 ISZERO PUSH2 0x10E JUMPI PUSH0 DUP1 REVERT JUMPDEST POP PUSH2 0x117 PUSH2 0x70A JUMP JUMPDEST PUSH1 0x40 MLOAD PUSH2 0x124 SWAP2 SWAP1 PUSH2 0x127F JUMP JUMPDEST PUSH1 0x40 MLOAD DUP1 SWAP2 SUB SWAP1 RETURN JUMPDEST CALLVALUE DUP1 ISZERO PUSH2 0x138 JUMPI PUSH0 DUP1 REVERT JUMPDEST POP PUSH2 0x141 PUSH2 0x907 JUMP JUMPDEST PUSH1 0x40 MLOAD PUSH2 0x14E SWAP2 SWAP1 PUSH2 0x129F JUMP JUMPDEST PUSH1 0x40 MLOAD DUP1 SWAP2 SUB SWAP1 RETURN JUMPDEST CALLVALUE DUP1 ISZERO PUSH2 0x162 JUMPI PUSH0 DUP1 REVERT JUMPDEST POP PUSH2 0x17D PUSH1 0x4 DUP1 CALLDATASIZE SUB DUP2 ADD SWAP1 PUSH2 0x178 SWAP2 SWAP1 PUSH2 0xF7F JUMP JUMPDEST PUSH2 0x90D JUMP JUMPDEST PUSH1 0x40 MLOAD PUSH2 0x18F SWAP7 SWAP6 SWAP5 SWAP4 SWAP3 SWAP2 SWAP1 PUSH2 0x12C7 JUMP JUMPDEST PUSH1 0x40 MLOAD DUP1 SWAP2 SUB SWAP1 RETURN JUMPDEST PUSH2 0x1B2 PUSH1 0x4 DUP1 CALLDATASIZE SUB DUP2 ADD SWAP1 PUSH2 0x1AD SWAP2 SWAP1 PUSH2 0xF7F JUMP JUMPDEST PUSH2 0xA8A JUMP JUMPDEST STOP JUMPDEST PUSH0 DUP2 GT PUSH2 0x1F6 JUMPI PUSH1 0x40 MLOAD PUSH32 0x8C379A000000000000000000000000000000000000000000000000000000000 DUP2 MSTORE PUSH1 0x4 ADD PUSH2 0x1ED SWAP1 PUSH2 0x137E JUMP JUMPDEST PUSH1 0x40 MLOAD DUP1 SWAP2 SUB SWAP1 REVERT JUMPDEST PUSH0 PUSH1 0x40 MLOAD DUP1 PUSH1 0xC0 ADD PUSH1 0x40 MSTORE DUP1 PUSH1 0x1 SLOAD DUP2 MSTORE PUSH1 0x20 ADD CALLER PUSH20 0xFFFFFFFFFFFFFFFFFFFFFFFFFFFFFFFFFFFFFFFF AND DUP2 MSTORE PUSH1 0x20 ADD DUP6 DUP2 MSTORE PUSH1 0x20 ADD DUP5 DUP2 MSTORE PUSH1 0x20 ADD DUP4 DUP2 MSTORE PUSH1 0x20 ADD PUSH0 ISZERO ISZERO DUP2 MSTORE POP SWAP1 DUP1 PUSH1 0x1 DUP2 SLOAD ADD DUP1 DUP3 SSTORE DUP1 SWAP2 POP POP PUSH1 0x1 SWAP1 SUB SWAP1 PUSH0 MSTORE PUSH1 0x20 PUSH0 KECCAK256 SWAP1 PUSH1 0x6 MUL ADD PUSH0 SWAP1 SWAP2 SWAP1 SWAP2 SWAP1 SWAP2 POP PUSH0 DUP3 ADD MLOAD DUP2 PUSH0 ADD SSTORE PUSH1 0x20 DUP3 ADD MLOAD DUP2 PUSH1 0x1 ADD PUSH0 PUSH2 0x100 EXP DUP2 SLOAD DUP2 PUSH20 0xFFFFFFFFFFFFFFFFFFFFFFFFFFFFFFFFFFFFFFFF MUL NOT AND SWAP1 DUP4 PUSH20 0xFFFFFFFFFFFFFFFFFFFFFFFFFFFFFFFFFFFFFFFF AND MUL OR SWAP1 SSTORE POP PUSH1 0x40 DUP3 ADD MLOAD DUP2 PUSH1 0x2 ADD SWAP1 DUP2 PUSH2 0x2C7 SWAP2 SWAP1 PUSH2 0x1596 JUMP JUMPDEST POP PUSH1 0x60 DUP3 ADD MLOAD DUP2 PUSH1 0x3 ADD SWAP1 DUP2 PUSH2 0x2DD SWAP2 SWAP1 PUSH2 0x1596 JUMP JUMPDEST POP PUSH1 0x80 DUP3 ADD MLOAD DUP2 PUSH1 0x4 ADD SSTORE PUSH1 0xA0 DUP3 ADD MLOAD DUP2 PUSH1 0x5 ADD PUSH0 PUSH2 0x100 EXP DUP2 SLOAD DUP2 PUSH1 0xFF MUL NOT AND SWAP1 DUP4 ISZERO ISZERO MUL OR SWAP1 SSTORE POP POP POP CALLER PUSH20 0xFFFFFFFFFFFFFFFFFFFFFFFFFFFFFFFFFFFFFFFF AND PUSH32 0xC5036EC8A366A93FDE59354BD719EA6E26D1E7A0916E0EF35F50E4EA1244F1A6 PUSH1 0x1 SLOAD DUP6 DUP6 DUP6 PUSH1 0x40 MLOAD PUSH2 0x357 SWAP5 SWAP4 SWAP3 SWAP2 SWAP1 PUSH2 0x1665 JUMP JUMPDEST PUSH1 0x40 MLOAD DUP1 SWAP2 SUB SWAP1 LOG2 PUSH1 0x1 PUSH0 DUP2 SLOAD DUP1 SWAP3 SWAP2 SWAP1 PUSH2 0x371 SWAP1 PUSH2 0x16E3 JUMP JUMPDEST SWAP2 SWAP1 POP SSTORE POP POP POP POP JUMP JUMPDEST DUP1 CALLER PUSH20 0xFFFFFFFFFFFFFFFFFFFFFFFFFFFFFFFFFFFFFFFF AND PUSH0 DUP3 DUP2 SLOAD DUP2 LT PUSH2 0x3A6 JUMPI PUSH2 0x3A5 PUSH2 0x172A JUMP JUMPDEST JUMPDEST SWAP1 PUSH0 MSTORE PUSH1 0x20 PUSH0 KECCAK256 SWAP1 PUSH1 0x6 MUL ADD PUSH1 0x1 ADD PUSH0 SWAP1 SLOAD SWAP1 PUSH2 0x100 EXP SWAP1 DIV PUSH20 0xFFFFFFFFFFFFFFFFFFFFFFFFFFFFFFFFFFFFFFFF AND PUSH20 0xFFFFFFFFFFFFFFFFFFFFFFFFFFFFFFFFFFFFFFFF AND EQ PUSH2 0x42B JUMPI PUSH1 0x40 MLOAD PUSH32 0x8C379A000000000000000000000000000000000000000000000000000000000 DUP2 MSTORE PUSH1 0x4 ADD PUSH2 0x422 SWAP1 PUSH2 0x17C7 JUMP JUMPDEST PUSH1 0x40 MLOAD DUP1 SWAP2 SUB SWAP1 REVERT JUMPDEST PUSH0 DUP3 DUP2 SLOAD DUP2 LT PUSH2 0x43E JUMPI PUSH2 0x43D PUSH2 0x172A JUMP JUMPDEST JUMPDEST SWAP1 PUSH0 MSTORE PUSH1 0x20 PUSH0 KECCAK256 SWAP1 PUSH1 0x6 MUL ADD PUSH1 0x5 ADD PUSH0 SWAP1 SLOAD SWAP1 PUSH2 0x100 EXP SWAP1 DIV PUSH1 0xFF AND ISZERO PUSH2 0x49A JUMPI PUSH1 0x40 MLOAD PUSH32 0x8C379A000000000000000000000000000000000000000000000000000000000 DUP2 MSTORE PUSH1 0x4 ADD PUSH2 0x491 SWAP1 PUSH2 0x182F JUMP JUMPDEST PUSH1 0x40 MLOAD DUP1 SWAP2 SUB SWAP1 REVERT JUMPDEST PUSH1 0x1 PUSH0 DUP4 DUP2 SLOAD DUP2 LT PUSH2 0x4AF JUMPI PUSH2 0x4AE PUSH2 0x172A JUMP JUMPDEST JUMPDEST SWAP1 PUSH0 MSTORE PUSH1 0x20 PUSH0 KECCAK256 SWAP1 PUSH1 0x6 MUL ADD PUSH1 0x5 ADD PUSH0 PUSH2 0x100 EXP DUP2 SLOAD DUP2 PUSH1 0xFF MUL NOT AND SWAP1 DUP4 ISZERO ISZERO MUL OR SWAP1 SSTORE POP CALLER PUSH20 0xFFFFFFFFFFFFFFFFFFFFFFFFFFFFFFFFFFFFFFFF AND PUSH32 0xF69C7EA3F71DAD86E17BA97A88B7E8F1708C0946BD98C7584E9942F60DA8728E DUP4 PUSH1 0x40 MLOAD PUSH2 0x51A SWAP2 SWAP1 PUSH2 0x129F JUMP JUMPDEST PUSH1 0x40 MLOAD DUP1 SWAP2 SUB SWAP1 LOG2 POP POP JUMP JUMPDEST PUSH0 PUSH1 0x60 DUP1 PUSH0 DUP1 PUSH0 DUP1 SLOAD SWAP1 POP DUP7 LT DUP1 ISZERO PUSH2 0x55F JUMPI POP DUP6 PUSH0 DUP8 DUP2 SLOAD DUP2 LT PUSH2 0x54E JUMPI PUSH2 0x54D PUSH2 0x172A JUMP JUMPDEST JUMPDEST SWAP1 PUSH0 MSTORE PUSH1 0x20 PUSH0 KECCAK256 SWAP1 PUSH1 0x6 MUL ADD PUSH0 ADD SLOAD EQ JUMPDEST PUSH2 0x59E JUMPI PUSH1 0x40 MLOAD PUSH32 0x8C379A000000000000000000000000000000000000000000000000000000000 DUP2 MSTORE PUSH1 0x4 ADD PUSH2 0x595 SWAP1 PUSH2 0x1897 JUMP JUMPDEST PUSH1 0x40 MLOAD DUP1 SWAP2 SUB SWAP1 REVERT JUMPDEST PUSH0 DUP1 DUP8 DUP2 SLOAD DUP2 LT PUSH2 0x5B2 JUMPI PUSH2 0x5B1 PUSH2 0x172A JUMP JUMPDEST JUMPDEST SWAP1 PUSH0 MSTORE PUSH1 0x20 PUSH0 KECCAK256 SWAP1 PUSH1 0x6 MUL ADD SWAP1 POP DUP1 PUSH0 ADD SLOAD DUP2 PUSH1 0x2 ADD DUP3 PUSH1 0x3 ADD DUP4 PUSH1 0x4 ADD SLOAD DUP5 PUSH1 0x5 ADD PUSH0 SWAP1 SLOAD SWAP1 PUSH2 0x100 EXP SWAP1 DIV PUSH1 0xFF AND DUP4 DUP1 SLOAD PUSH2 0x5EE SWAP1 PUSH2 0x13C9 JUMP JUMPDEST DUP1 PUSH1 0x1F ADD PUSH1 0x20 DUP1 SWAP2 DIV MUL PUSH1 0x20 ADD PUSH1 0x40 MLOAD SWAP1 DUP2 ADD PUSH1 0x40 MSTORE DUP1 SWAP3 SWAP2 SWAP1 DUP2 DUP2 MSTORE PUSH1 0x20 ADD DUP3 DUP1 SLOAD PUSH2 0x61A SWAP1 PUSH2 0x13C9 JUMP JUMPDEST DUP1 ISZERO PUSH2 0x665 JUMPI DUP1 PUSH1 0x1F LT PUSH2 0x63C JUMPI PUSH2 0x100 DUP1 DUP4 SLOAD DIV MUL DUP4 MSTORE SWAP2 PUSH1 0x20 ADD SWAP2 PUSH2 0x665 JUMP JUMPDEST DUP3 ADD SWAP2 SWAP1 PUSH0 MSTORE PUSH1 0x20 PUSH0 KECCAK256 SWAP1 JUMPDEST DUP2 SLOAD DUP2 MSTORE SWAP1 PUSH1 0x1 ADD SWAP1 PUSH1 0x20 ADD DUP1 DUP4 GT PUSH2 0x648 JUMPI DUP3 SWAP1 SUB PUSH1 0x1F AND DUP3 ADD SWAP2 JUMPDEST POP POP POP POP POP SWAP4 POP DUP3 DUP1 SLOAD PUSH2 0x678 SWAP1 PUSH2 0x13C9 JUMP JUMPDEST DUP1 PUSH1 0x1F ADD PUSH1 0x20 DUP1 SWAP2 DIV MUL PUSH1 0x20 ADD PUSH1 0x40 MLOAD SWAP1 DUP2 ADD PUSH1 0x40 MSTORE DUP1 SWAP3 SWAP2 SWAP1 DUP2 DUP2 MSTORE PUSH1 0x20 ADD DUP3 DUP1 SLOAD PUSH2 0x6A4 SWAP1 PUSH2 0x13C9 JUMP JUMPDEST DUP1 ISZERO PUSH2 0x6EF JUMPI DUP1 PUSH1 0x1F LT PUSH2 0x6C6 JUMPI PUSH2 0x100 DUP1 DUP4 SLOAD DIV MUL DUP4 MSTORE SWAP2 PUSH1 0x20 ADD SWAP2 PUSH2 0x6EF JUMP JUMPDEST DUP3 ADD SWAP2 SWAP1 PUSH0 MSTORE PUSH1 0x20 PUSH0 KECCAK256 SWAP1 JUMPDEST DUP2 SLOAD DUP2 MSTORE SWAP1 PUSH1 0x1 ADD SWAP1 PUSH1 0x20 ADD DUP1 DUP4 GT PUSH2 0x6D2 JUMPI DUP3 SWAP1 SUB PUSH1 0x1F AND DUP3 ADD SWAP2 JUMPDEST POP POP POP POP POP SWAP3 POP SWAP6 POP SWAP6 POP SWAP6 POP SWAP6 POP SWAP6 POP POP SWAP2 SWAP4 SWAP6 SWAP1 SWAP3 SWAP5 POP JUMP JUMPDEST PUSH1 0x60 PUSH0 DUP1 SLOAD DUP1 PUSH1 0x20 MUL PUSH1 0x20 ADD PUSH1 0x40 MLOAD SWAP1 DUP2 ADD PUSH1 0x40 MSTORE DUP1 SWAP3 SWAP2 SWAP1 DUP2 DUP2 MSTORE PUSH1 0x20 ADD PUSH0 SWAP1 JUMPDEST DUP3 DUP3 LT ISZERO PUSH2 0x8FE JUMPI DUP4 DUP3 SWAP1 PUSH0 MSTORE PUSH1 0x20 PUSH0 KECCAK256 SWAP1 PUSH1 0x6 MUL ADD PUSH1 0x40 MLOAD DUP1 PUSH1 0xC0 ADD PUSH1 0x40 MSTORE SWAP1 DUP2 PUSH0 DUP3 ADD SLOAD DUP2 MSTORE PUSH1 0x20 ADD PUSH1 0x1 DUP3 ADD PUSH0 SWAP1 SLOAD SWAP1 PUSH2 0x100 EXP SWAP1 DIV PUSH20 0xFFFFFFFFFFFFFFFFFFFFFFFFFFFFFFFFFFFFFFFF AND PUSH20 0xFFFFFFFFFFFFFFFFFFFFFFFFFFFFFFFFFFFFFFFF AND PUSH20 0xFFFFFFFFFFFFFFFFFFFFFFFFFFFFFFFFFFFFFFFF AND DUP2 MSTORE PUSH1 0x20 ADD PUSH1 0x2 DUP3 ADD DUP1 SLOAD PUSH2 0x7BB SWAP1 PUSH2 0x13C9 JUMP JUMPDEST DUP1 PUSH1 0x1F ADD PUSH1 0x20 DUP1 SWAP2 DIV MUL PUSH1 0x20 ADD PUSH1 0x40 MLOAD SWAP1 DUP2 ADD PUSH1 0x40 MSTORE DUP1 SWAP3 SWAP2 SWAP1 DUP2 DUP2 MSTORE PUSH1 0x20 ADD DUP3 DUP1 SLOAD PUSH2 0x7E7 SWAP1 PUSH2 0x13C9 JUMP JUMPDEST DUP1 ISZERO PUSH2 0x832 JUMPI DUP1 PUSH1 0x1F LT PUSH2 0x809 JUMPI PUSH2 0x100 DUP1 DUP4 SLOAD DIV MUL DUP4 MSTORE SWAP2 PUSH1 0x20 ADD SWAP2 PUSH2 0x832 JUMP JUMPDEST DUP3 ADD SWAP2 SWAP1 PUSH0 MSTORE PUSH1 0x20 PUSH0 KECCAK256 SWAP1 JUMPDEST DUP2 SLOAD DUP2 MSTORE SWAP1 PUSH1 0x1 ADD SWAP1 PUSH1 0x20 ADD DUP1 DUP4 GT PUSH2 0x815 JUMPI DUP3 SWAP1 SUB PUSH1 0x1F AND DUP3 ADD SWAP2 JUMPDEST POP POP POP POP POP DUP2 MSTORE PUSH1 0x20 ADD PUSH1 0x3 DUP3 ADD DUP1 SLOAD PUSH2 0x84B SWAP1 PUSH2 0x13C9 JUMP JUMPDEST DUP1 PUSH1 0x1F ADD PUSH1 0x20 DUP1 SWAP2 DIV MUL PUSH1 0x20 ADD PUSH1 0x40 MLOAD SWAP1 DUP2 ADD PUSH1 0x40 MSTORE DUP1 SWAP3 SWAP2 SWAP1 DUP2 DUP2 MSTORE PUSH1 0x20 ADD DUP3 DUP1 SLOAD PUSH2 0x877 SWAP1 PUSH2 0x13C9 JUMP JUMPDEST DUP1 ISZERO PUSH2 0x8C2 JUMPI DUP1 PUSH1 0x1F LT PUSH2 0x899 JUMPI PUSH2 0x100 DUP1 DUP4 SLOAD DIV MUL DUP4 MSTORE SWAP2 PUSH1 0x20 ADD SWAP2 PUSH2 0x8C2 JUMP JUMPDEST DUP3 ADD SWAP2 SWAP1 PUSH0 MSTORE PUSH1 0x20 PUSH0 KECCAK256 SWAP1 JUMPDEST DUP2 SLOAD DUP2 MSTORE SWAP1 PUSH1 0x1 ADD SWAP1 PUSH1 0x20 ADD DUP1 DUP4 GT PUSH2 0x8A5 JUMPI DUP3 SWAP1 SUB PUSH1 0x1F AND DUP3 ADD SWAP2 JUMPDEST POP POP POP POP POP DUP2 MSTORE PUSH1 0x20 ADD PUSH1 0x4 DUP3 ADD SLOAD DUP2 MSTORE PUSH1 0x20 ADD PUSH1 0x5 DUP3 ADD PUSH0 SWAP1 SLOAD SWAP1 PUSH2 0x100 EXP SWAP1 DIV PUSH1 0xFF AND ISZERO ISZERO ISZERO ISZERO DUP2 MSTORE POP POP DUP2 MSTORE PUSH1 0x20 ADD SWAP1 PUSH1 0x1 ADD SWAP1 PUSH2 0x72C JUMP JUMPDEST POP POP POP POP SWAP1 POP SWAP1 JUMP JUMPDEST PUSH1 0x1 SLOAD DUP2 JUMP JUMPDEST PUSH0 DUP2 DUP2 SLOAD DUP2 LT PUSH2 0x91B JUMPI PUSH0 DUP1 REVERT JUMPDEST SWAP1 PUSH0 MSTORE PUSH1 0x20 PUSH0 KECCAK256 SWAP1 PUSH1 0x6 MUL ADD PUSH0 SWAP2 POP SWAP1 POP DUP1 PUSH0 ADD SLOAD SWAP1 DUP1 PUSH1 0x1 ADD PUSH0 SWAP1 SLOAD SWAP1 PUSH2 0x100 EXP SWAP1 DIV PUSH20 0xFFFFFFFFFFFFFFFFFFFFFFFFFFFFFFFFFFFFFFFF AND SWAP1 DUP1 PUSH1 0x2 ADD DUP1 SLOAD PUSH2 0x965 SWAP1 PUSH2 0x13C9 JUMP JUMPDEST DUP1 PUSH1 0x1F ADD PUSH1 0x20 DUP1 SWAP2 DIV MUL PUSH1 0x20 ADD PUSH1 0x40 MLOAD SWAP1 DUP2 ADD PUSH1 0x40 MSTORE DUP1 SWAP3 SWAP2 SWAP1 DUP2 DUP2 MSTORE PUSH1 0x20 ADD DUP3 DUP1 SLOAD PUSH2 0x991 SWAP1 PUSH2 0x13C9 JUMP JUMPDEST DUP1 ISZERO PUSH2 0x9DC JUMPI DUP1 PUSH1 0x1F LT PUSH2 0x9B3 JUMPI PUSH2 0x100 DUP1 DUP4 SLOAD DIV MUL DUP4 MSTORE SWAP2 PUSH1 0x20 ADD SWAP2 PUSH2 0x9DC JUMP JUMPDEST DUP3 ADD SWAP2 SWAP1 PUSH0 MSTORE PUSH1 0x20 PUSH0 KECCAK256 SWAP1 JUMPDEST DUP2 SLOAD DUP2 MSTORE SWAP1 PUSH1 0x1 ADD SWAP1 PUSH1 0x20 ADD DUP1 DUP4 GT PUSH2 0x9BF JUMPI DUP3 SWAP1 SUB PUSH1 0x1F AND DUP3 ADD SWAP2 JUMPDEST POP POP POP POP POP SWAP1 DUP1 PUSH1 0x3 ADD DUP1 SLOAD PUSH2 0x9F1 SWAP1 PUSH2 0x13C9 JUMP JUMPDEST DUP1 PUSH1 0x1F ADD PUSH1 0x20 DUP1 SWAP2 DIV MUL PUSH1 0x20 ADD PUSH1 0x40 MLOAD SWAP1 DUP2 ADD PUSH1 0x40 MSTORE DUP1 SWAP3 SWAP2 SWAP1 DUP2 DUP2 MSTORE PUSH1 0x20 ADD DUP3 DUP1 SLOAD PUSH2 0xA1D SWAP1 PUSH2 0x13C9 JUMP JUMPDEST DUP1 ISZERO PUSH2 0xA68 JUMPI DUP1 PUSH1 0x1F LT PUSH2 0xA3F JUMPI PUSH2 0x100 DUP1 DUP4 SLOAD DIV MUL DUP4 MSTORE SWAP2 PUSH1 0x20 ADD SWAP2 PUSH2 0xA68 JUMP JUMPDEST DUP3 ADD SWAP2 SWAP1 PUSH0 MSTORE PUSH1 0x20 PUSH0 KECCAK256 SWAP1 JUMPDEST DUP2 SLOAD DUP2 MSTORE SWAP1 PUSH1 0x1 ADD SWAP1 PUSH1 0x20 ADD DUP1 DUP4 GT PUSH2 0xA4B JUMPI DUP3 SWAP1 SUB PUSH1 0x1F AND DUP3 ADD SWAP2 JUMPDEST POP POP POP POP POP SWAP1 DUP1 PUSH1 0x4 ADD SLOAD SWAP1 DUP1 PUSH1 0x5 ADD PUSH0 SWAP1 SLOAD SWAP1 PUSH2 0x100 EXP SWAP1 DIV PUSH1 0xFF AND SWAP1 POP DUP7 JUMP JUMPDEST PUSH1 0x2 PUSH0 SWAP1 SLOAD SWAP1 PUSH2 0x100 EXP SWAP1 DIV PUSH1 0xFF AND ISZERO PUSH2 0xAD9 JUMPI PUSH1 0x40 MLOAD PUSH32 0x8C379A000000000000000000000000000000000000000000000000000000000 DUP2 MSTORE PUSH1 0x4 ADD PUSH2 0xAD0 SWAP1 PUSH2 0x18FF JUMP JUMPDEST PUSH1 0x40 MLOAD DUP1 SWAP2 SUB SWAP1 REVERT JUMPDEST PUSH1 0x1 PUSH1 0x2 PUSH0 PUSH2 0x100 EXP DUP2 SLOAD DUP2 PUSH1 0xFF MUL NOT AND SWAP1 DUP4 ISZERO ISZERO MUL OR SWAP1 SSTORE POP PUSH0 DUP1 SLOAD SWAP1 POP DUP2 LT DUP1 ISZERO PUSH2 0xB26 JUMPI POP DUP1 PUSH0 DUP3 DUP2 SLOAD DUP2 LT PUSH2 0xB15 JUMPI PUSH2 0xB14 PUSH2 0x172A JUMP JUMPDEST JUMPDEST SWAP1 PUSH0 MSTORE PUSH1 0x20 PUSH0 KECCAK256 SWAP1 PUSH1 0x6 MUL ADD PUSH0 ADD SLOAD EQ JUMPDEST PUSH2 0xB65 JUMPI PUSH1 0x40 MLOAD PUSH32 0x8C379A000000000000000000000000000000000000000000000000000000000 DUP2 MSTORE PUSH1 0x4 ADD PUSH2 0xB5C SWAP1 PUSH2 0x1897 JUMP JUMPDEST PUSH1 0x40 MLOAD DUP1 SWAP2 SUB SWAP1 REVERT JUMPDEST PUSH0 DUP1 DUP3 DUP2 SLOAD DUP2 LT PUSH2 0xB79 JUMPI PUSH2 0xB78 PUSH2 0x172A JUMP JUMPDEST JUMPDEST SWAP1 PUSH0 MSTORE PUSH1 0x20 PUSH0 KECCAK256 SWAP1 PUSH1 0x6 MUL ADD SWAP1 POP DUP1 PUSH1 0x5 ADD PUSH0 SWAP1 SLOAD SWAP1 PUSH2 0x100 EXP SWAP1 DIV PUSH1 0xFF AND ISZERO PUSH2 0xBD8 JUMPI PUSH1 0x40 MLOAD PUSH32 0x8C379A000000000000000000000000000000000000000000000000000000000 DUP2 MSTORE PUSH1 0x4 ADD PUSH2 0xBCF SWAP1 PUSH2 0x1967 JUMP JUMPDEST PUSH1 0x40 MLOAD DUP1 SWAP2 SUB SWAP1 REVERT JUMPDEST DUP1 PUSH1 0x4 ADD SLOAD CALLVALUE LT ISZERO PUSH2 0xC1F JUMPI PUSH1 0x40 MLOAD PUSH32 0x8C379A000000000000000000000000000000000000000000000000000000000 DUP2 MSTORE PUSH1 0x4 ADD PUSH2 0xC16 SWAP1 PUSH2 0x19CF JUMP JUMPDEST PUSH1 0x40 MLOAD DUP1 SWAP2 SUB SWAP1 REVERT JUMPDEST DUP1 PUSH1 0x1 ADD PUSH0 SWAP1 SLOAD SWAP1 PUSH2 0x100 EXP SWAP1 DIV PUSH20 0xFFFFFFFFFFFFFFFFFFFFFFFFFFFFFFFFFFFFFFFF AND PUSH20 0xFFFFFFFFFFFFFFFFFFFFFFFFFFFFFFFFFFFFFFFF AND PUSH2 0x8FC DUP3 PUSH1 0x4 ADD SLOAD SWAP1 DUP2 ISZERO MUL SWAP1 PUSH1 0x40 MLOAD PUSH0 PUSH1 0x40 MLOAD DUP1 DUP4 SUB DUP2 DUP6 DUP9 DUP9 CALL SWAP4 POP POP POP POP ISZERO DUP1 ISZERO PUSH2 0xC89 JUMPI RETURNDATASIZE PUSH0 DUP1 RETURNDATACOPY RETURNDATASIZE PUSH0 REVERT JUMPDEST POP PUSH1 0x1 DUP2 PUSH1 0x5 ADD PUSH0 PUSH2 0x100 EXP DUP2 SLOAD DUP2 PUSH1 0xFF MUL NOT AND SWAP1 DUP4 ISZERO ISZERO MUL OR SWAP1 SSTORE POP DUP1 PUSH1 0x4 ADD SLOAD CALLVALUE GT ISZERO PUSH2 0xD06 JUMPI CALLER PUSH20 0xFFFFFFFFFFFFFFFFFFFFFFFFFFFFFFFFFFFFFFFF AND PUSH2 0x8FC DUP3 PUSH1 0x4 ADD SLOAD CALLVALUE PUSH2 0xCDC SWAP2 SWAP1 PUSH2 0x19ED JUMP JUMPDEST SWAP1 DUP2 ISZERO MUL SWAP1 PUSH1 0x40 MLOAD PUSH0 PUSH1 0x40 MLOAD DUP1 DUP4 SUB DUP2 DUP6 DUP9 DUP9 CALL SWAP4 POP POP POP POP ISZERO DUP1 ISZERO PUSH2 0xD04 JUMPI RETURNDATASIZE PUSH0 DUP1 RETURNDATACOPY RETURNDATASIZE PUSH0 REVERT JUMPDEST POP JUMPDEST CALLER PUSH20 0xFFFFFFFFFFFFFFFFFFFFFFFFFFFFFFFFFFFFFFFF AND PUSH32 0x78A0660BBDA86D17037943644187F6F1F73F2F20A3240BF4CF4A56C2A96BCF84 DUP4 DUP4 PUSH1 0x4 ADD SLOAD PUSH1 0x40 MLOAD PUSH2 0xD52 SWAP3 SWAP2 SWAP1 PUSH2 0x1A20 JUMP JUMPDEST PUSH1 0x40 MLOAD DUP1 SWAP2 SUB SWAP1 LOG2 POP PUSH0 PUSH1 0x2 PUSH0 PUSH2 0x100 EXP DUP2 SLOAD DUP2 PUSH1 0xFF MUL NOT AND SWAP1 DUP4 ISZERO ISZERO MUL OR SWAP1 SSTORE POP POP JUMP JUMPDEST PUSH0 PUSH1 0x40 MLOAD SWAP1 POP SWAP1 JUMP JUMPDEST PUSH0 DUP1 REVERT JUMPDEST PUSH0 DUP1 REVERT JUMPDEST PUSH0 DUP1 REVERT JUMPDEST PUSH0 DUP1 REVERT JUMPDEST PUSH0 PUSH1 0x1F NOT PUSH1 0x1F DUP4 ADD AND SWAP1 POP SWAP2 SWAP1 POP JUMP JUMPDEST PUSH32 0x4E487B7100000000000000000000000000000000000000000000000000000000 PUSH0 MSTORE PUSH1 0x41 PUSH1 0x4 MSTORE PUSH1 0x24 PUSH0 REVERT JUMPDEST PUSH2 0xDD6 DUP3 PUSH2 0xD90 JUMP JUMPDEST DUP2 ADD DUP2 DUP2 LT PUSH8 0xFFFFFFFFFFFFFFFF DUP3 GT OR ISZERO PUSH2 0xDF5 JUMPI PUSH2 0xDF4 PUSH2 0xDA0 JUMP JUMPDEST JUMPDEST DUP1 PUSH1 0x40 MSTORE POP POP POP JUMP JUMPDEST PUSH0 PUSH2 0xE07 PUSH2 0xD77 JUMP JUMPDEST SWAP1 POP PUSH2 0xE13 DUP3 DUP3 PUSH2 0xDCD JUMP JUMPDEST SWAP2 SWAP1 POP JUMP JUMPDEST PUSH0 PUSH8 0xFFFFFFFFFFFFFFFF DUP3 GT ISZERO PUSH2 0xE32 JUMPI PUSH2 0xE31 PUSH2 0xDA0 JUMP JUMPDEST JUMPDEST PUSH2 0xE3B DUP3 PUSH2 0xD90 JUMP JUMPDEST SWAP1 POP PUSH1 0x20 DUP2 ADD SWAP1 POP SWAP2 SWAP1 POP JUMP JUMPDEST DUP3 DUP2 DUP4 CALLDATACOPY PUSH0 DUP4 DUP4 ADD MSTORE POP POP POP JUMP JUMPDEST PUSH0 PUSH2 0xE68 PUSH2 0xE63 DUP5 PUSH2 0xE18 JUMP JUMPDEST PUSH2 0xDFE JUMP JUMPDEST SWAP1 POP DUP3 DUP2 MSTORE PUSH1 0x20 DUP2 ADD DUP5 DUP5 DUP5 ADD GT ISZERO PUSH2 0xE84 JUMPI PUSH2 0xE83 PUSH2 0xD8C JUMP JUMPDEST JUMPDEST PUSH2 0xE8F DUP5 DUP3 DUP6 PUSH2 0xE48 JUMP JUMPDEST POP SWAP4 SWAP3 POP POP POP JUMP JUMPDEST PUSH0 DUP3 PUSH1 0x1F DUP4 ADD SLT PUSH2 0xEAB JUMPI PUSH2 0xEAA PUSH2 0xD88 JUMP JUMPDEST JUMPDEST DUP2 CALLDATALOAD PUSH2 0xEBB DUP5 DUP3 PUSH1 0x20 DUP7 ADD PUSH2 0xE56 JUMP JUMPDEST SWAP2 POP POP SWAP3 SWAP2 POP POP JUMP JUMPDEST PUSH0 DUP2 SWAP1 POP SWAP2 SWAP1 POP JUMP JUMPDEST PUSH2 0xED6 DUP2 PUSH2 0xEC4 JUMP JUMPDEST DUP2 EQ PUSH2 0xEE0 JUMPI PUSH0 DUP1 REVERT JUMPDEST POP JUMP JUMPDEST PUSH0 DUP2 CALLDATALOAD SWAP1 POP PUSH2 0xEF1 DUP2 PUSH2 0xECD JUMP JUMPDEST SWAP3 SWAP2 POP POP JUMP JUMPDEST PUSH0 DUP1 PUSH0 PUSH1 0x60 DUP5 DUP7 SUB SLT ISZERO PUSH2 0xF0E JUMPI PUSH2 0xF0D PUSH2 0xD80 JUMP JUMPDEST JUMPDEST PUSH0 DUP5 ADD CALLDATALOAD PUSH8 0xFFFFFFFFFFFFFFFF DUP2 GT ISZERO PUSH2 0xF2B JUMPI PUSH2 0xF2A PUSH2 0xD84 JUMP JUMPDEST JUMPDEST PUSH2 0xF37 DUP7 DUP3 DUP8 ADD PUSH2 0xE97 JUMP JUMPDEST SWAP4 POP POP PUSH1 0x20 DUP5 ADD CALLDATALOAD PUSH8 0xFFFFFFFFFFFFFFFF DUP2 GT ISZERO PUSH2 0xF58 JUMPI PUSH2 0xF57 PUSH2 0xD84 JUMP JUMPDEST JUMPDEST PUSH2 0xF64 DUP7 DUP3 DUP8 ADD PUSH2 0xE97 JUMP JUMPDEST SWAP3 POP POP PUSH1 0x40 PUSH2 0xF75 DUP7 DUP3 DUP8 ADD PUSH2 0xEE3 JUMP JUMPDEST SWAP2 POP POP SWAP3 POP SWAP3 POP SWAP3 JUMP JUMPDEST PUSH0 PUSH1 0x20 DUP3 DUP5 SUB SLT ISZERO PUSH2 0xF94 JUMPI PUSH2 0xF93 PUSH2 0xD80 JUMP JUMPDEST JUMPDEST PUSH0 PUSH2 0xFA1 DUP5 DUP3 DUP6 ADD PUSH2 0xEE3 JUMP JUMPDEST SWAP2 POP POP SWAP3 SWAP2 POP POP JUMP JUMPDEST PUSH2 0xFB3 DUP2 PUSH2 0xEC4 JUMP JUMPDEST DUP3 MSTORE POP POP JUMP JUMPDEST PUSH0 DUP2 MLOAD SWAP1 POP SWAP2 SWAP1 POP JUMP JUMPDEST PUSH0 DUP3 DUP3 MSTORE PUSH1 0x20 DUP3 ADD SWAP1 POP SWAP3 SWAP2 POP POP JUMP JUMPDEST DUP3 DUP2 DUP4 MCOPY PUSH0 DUP4 DUP4 ADD MSTORE POP POP POP JUMP JUMPDEST PUSH0 PUSH2 0xFEB DUP3 PUSH2 0xFB9 JUMP JUMPDEST PUSH2 0xFF5 DUP2 DUP6 PUSH2 0xFC3 JUMP JUMPDEST SWAP4 POP PUSH2 0x1005 DUP2 DUP6 PUSH1 0x20 DUP7 ADD PUSH2 0xFD3 JUMP JUMPDEST PUSH2 0x100E DUP2 PUSH2 0xD90 JUMP JUMPDEST DUP5 ADD SWAP2 POP POP SWAP3 SWAP2 POP POP JUMP JUMPDEST PUSH0 DUP2 ISZERO ISZERO SWAP1 POP SWAP2 SWAP1 POP JUMP JUMPDEST PUSH2 0x102D DUP2 PUSH2 0x1019 JUMP JUMPDEST DUP3 MSTORE POP POP JUMP JUMPDEST PUSH0 PUSH1 0xA0 DUP3 ADD SWAP1 POP PUSH2 0x1046 PUSH0 DUP4 ADD DUP9 PUSH2 0xFAA JUMP JUMPDEST DUP2 DUP2 SUB PUSH1 0x20 DUP4 ADD MSTORE PUSH2 0x1058 DUP2 DUP8 PUSH2 0xFE1 JUMP JUMPDEST SWAP1 POP DUP2 DUP2 SUB PUSH1 0x40 DUP4 ADD MSTORE PUSH2 0x106C DUP2 DUP7 PUSH2 0xFE1 JUMP JUMPDEST SWAP1 POP PUSH2 0x107B PUSH1 0x60 DUP4 ADD DUP6 PUSH2 0xFAA JUMP JUMPDEST PUSH2 0x1088 PUSH1 0x80 DUP4 ADD DUP5 PUSH2 0x1024 JUMP JUMPDEST SWAP7 SWAP6 POP POP POP POP POP POP JUMP JUMPDEST PUSH0 DUP2 MLOAD SWAP1 POP SWAP2 SWAP1 POP JUMP JUMPDEST PUSH0 DUP3 DUP3 MSTORE PUSH1 0x20 DUP3 ADD SWAP1 POP SWAP3 SWAP2 POP POP JUMP JUMPDEST PUSH0 DUP2 SWAP1 POP PUSH1 0x20 DUP3 ADD SWAP1 POP SWAP2 SWAP1 POP JUMP JUMPDEST PUSH2 0x10C4 DUP2 PUSH2 0xEC4 JUMP JUMPDEST DUP3 MSTORE POP POP JUMP JUMPDEST PUSH0 PUSH20 0xFFFFFFFFFFFFFFFFFFFFFFFFFFFFFFFFFFFFFFFF DUP3 AND SWAP1 POP SWAP2 SWAP1 POP JUMP JUMPDEST PUSH0 PUSH2 0x10F3 DUP3 PUSH2 0x10CA JUMP JUMPDEST SWAP1 POP SWAP2 SWAP1 POP JUMP JUMPDEST PUSH2 0x1103 DUP2 PUSH2 0x10E9 JUMP JUMPDEST DUP3 MSTORE POP POP JUMP JUMPDEST PUSH0 DUP3 DUP3 MSTORE PUSH1 0x20 DUP3 ADD SWAP1 POP SWAP3 SWAP2 POP POP JUMP JUMPDEST PUSH0 PUSH2 0x1123 DUP3 PUSH2 0xFB9 JUMP JUMPDEST PUSH2 0x112D DUP2 DUP6 PUSH2 0x1109 JUMP JUMPDEST SWAP4 POP PUSH2 0x113D DUP2 DUP6 PUSH1 0x20 DUP7 ADD PUSH2 0xFD3 JUMP JUMPDEST PUSH2 0x1146 DUP2 PUSH2 0xD90 JUMP JUMPDEST DUP5 ADD SWAP2 POP POP SWAP3 SWAP2 POP POP JUMP JUMPDEST PUSH2 0x115A DUP2 PUSH2 0x1019 JUMP JUMPDEST DUP3 MSTORE POP POP JUMP JUMPDEST PUSH0 PUSH1 0xC0 DUP4 ADD PUSH0 DUP4 ADD MLOAD PUSH2 0x1175 PUSH0 DUP7 ADD DUP3 PUSH2 0x10BB JUMP JUMPDEST POP PUSH1 0x20 DUP4 ADD MLOAD PUSH2 0x1188 PUSH1 0x20 DUP7 ADD DUP3 PUSH2 0x10FA JUMP JUMPDEST POP PUSH1 0x40 DUP4 ADD MLOAD DUP5 DUP3 SUB PUSH1 0x40 DUP7 ADD MSTORE PUSH2 0x11A0 DUP3 DUP3 PUSH2 0x1119 JUMP JUMPDEST SWAP2 POP POP PUSH1 0x60 DUP4 ADD MLOAD DUP5 DUP3 SUB PUSH1 0x60 DUP7 ADD MSTORE PUSH2 0x11BA DUP3 DUP3 PUSH2 0x1119 JUMP JUMPDEST SWAP2 POP POP PUSH1 0x80 DUP4 ADD MLOAD PUSH2 0x11CF PUSH1 0x80 DUP7 ADD DUP3 PUSH2 0x10BB JUMP JUMPDEST POP PUSH1 0xA0 DUP4 ADD MLOAD PUSH2 0x11E2 PUSH1 0xA0 DUP7 ADD DUP3 PUSH2 0x1151 JUMP JUMPDEST POP DUP1 SWAP2 POP POP SWAP3 SWAP2 POP POP JUMP JUMPDEST PUSH0 PUSH2 0x11F8 DUP4 DUP4 PUSH2 0x1160 JUMP JUMPDEST SWAP1 POP SWAP3 SWAP2 POP POP JUMP JUMPDEST PUSH0 PUSH1 0x20 DUP3 ADD SWAP1 POP SWAP2 SWAP1 POP JUMP JUMPDEST PUSH0 PUSH2 0x1216 DUP3 PUSH2 0x1092 JUMP JUMPDEST PUSH2 0x1220 DUP2 DUP6 PUSH2 0x109C JUMP JUMPDEST SWAP4 POP DUP4 PUSH1 0x20 DUP3 MUL DUP6 ADD PUSH2 0x1232 DUP6 PUSH2 0x10AC JUMP JUMPDEST DUP1 PUSH0 JUMPDEST DUP6 DUP2 LT ISZERO PUSH2 0x126D JUMPI DUP5 DUP5 SUB DUP10 MSTORE DUP2 MLOAD PUSH2 0x124E DUP6 DUP3 PUSH2 0x11ED JUMP JUMPDEST SWAP5 POP PUSH2 0x1259 DUP4 PUSH2 0x1200 JUMP JUMPDEST SWAP3 POP PUSH1 0x20 DUP11 ADD SWAP10 POP POP PUSH1 0x1 DUP2 ADD SWAP1 POP PUSH2 0x1235 JUMP JUMPDEST POP DUP3 SWAP8 POP DUP8 SWAP6 POP POP POP POP POP POP SWAP3 SWAP2 POP POP JUMP JUMPDEST PUSH0 PUSH1 0x20 DUP3 ADD SWAP1 POP DUP2 DUP2 SUB PUSH0 DUP4 ADD MSTORE PUSH2 0x1297 DUP2 DUP5 PUSH2 0x120C JUMP JUMPDEST SWAP1 POP SWAP3 SWAP2 POP POP JUMP JUMPDEST PUSH0 PUSH1 0x20 DUP3 ADD SWAP1 POP PUSH2 0x12B2 PUSH0 DUP4 ADD DUP5 PUSH2 0xFAA JUMP JUMPDEST SWAP3 SWAP2 POP POP JUMP JUMPDEST PUSH2 0x12C1 DUP2 PUSH2 0x10E9 JUMP JUMPDEST DUP3 MSTORE POP POP JUMP JUMPDEST PUSH0 PUSH1 0xC0 DUP3 ADD SWAP1 POP PUSH2 0x12DA PUSH0 DUP4 ADD DUP10 PUSH2 0xFAA JUMP JUMPDEST PUSH2 0x12E7 PUSH1 0x20 DUP4 ADD DUP9 PUSH2 0x12B8 JUMP JUMPDEST DUP2 DUP2 SUB PUSH1 0x40 DUP4 ADD MSTORE PUSH2 0x12F9 DUP2 DUP8 PUSH2 0xFE1 JUMP JUMPDEST SWAP1 POP DUP2 DUP2 SUB PUSH1 0x60 DUP4 ADD MSTORE PUSH2 0x130D DUP2 DUP7 PUSH2 0xFE1 JUMP JUMPDEST SWAP1 POP PUSH2 0x131C PUSH1 0x80 DUP4 ADD DUP6 PUSH2 0xFAA JUMP JUMPDEST PUSH2 0x1329 PUSH1 0xA0 DUP4 ADD DUP5 PUSH2 0x1024 JUMP JUMPDEST SWAP8 SWAP7 POP POP POP POP POP POP POP JUMP JUMPDEST PUSH32 0x5072696365206D7573742062652067726561746572207468616E207A65726F00 PUSH0 DUP3 ADD MSTORE POP JUMP JUMPDEST PUSH0 PUSH2 0x1368 PUSH1 0x1F DUP4 PUSH2 0xFC3 JUMP JUMPDEST SWAP2 POP PUSH2 0x1373 DUP3 PUSH2 0x1334 JUMP JUMPDEST PUSH1 0x20 DUP3 ADD SWAP1 POP SWAP2 SWAP1 POP JUMP JUMPDEST PUSH0 PUSH1 0x20 DUP3 ADD SWAP1 POP DUP2 DUP2 SUB PUSH0 DUP4 ADD MSTORE PUSH2 0x1395 DUP2 PUSH2 0x135C JUMP JUMPDEST SWAP1 POP SWAP2 SWAP1 POP JUMP JUMPDEST PUSH32 0x4E487B7100000000000000000000000000000000000000000000000000000000 PUSH0 MSTORE PUSH1 0x22 PUSH1 0x4 MSTORE PUSH1 0x24 PUSH0 REVERT JUMPDEST PUSH0 PUSH1 0x2 DUP3 DIV SWAP1 POP PUSH1 0x1 DUP3 AND DUP1 PUSH2 0x13E0 JUMPI PUSH1 0x7F DUP3 AND SWAP2 POP JUMPDEST PUSH1 0x20 DUP3 LT DUP2 SUB PUSH2 0x13F3 JUMPI PUSH2 0x13F2 PUSH2 0x139C JUMP JUMPDEST JUMPDEST POP SWAP2 SWAP1 POP JUMP JUMPDEST PUSH0 DUP2 SWAP1 POP DUP2 PUSH0 MSTORE PUSH1 0x20 PUSH0 KECCAK256 SWAP1 POP SWAP2 SWAP1 POP JUMP JUMPDEST PUSH0 PUSH1 0x20 PUSH1 0x1F DUP4 ADD DIV SWAP1 POP SWAP2 SWAP1 POP JUMP JUMPDEST PUSH0 DUP3 DUP3 SHL SWAP1 POP SWAP3 SWAP2 POP POP JUMP JUMPDEST PUSH0 PUSH1 0x8 DUP4 MUL PUSH2 0x1455 PUSH32 0xFFFFFFFFFFFFFFFFFFFFFFFFFFFFFFFFFFFFFFFFFFFFFFFFFFFFFFFFFFFFFFFF DUP3 PUSH2 0x141A JUMP JUMPDEST PUSH2 0x145F DUP7 DUP4 PUSH2 0x141A JUMP JUMPDEST SWAP6 POP DUP1 NOT DUP5 AND SWAP4 POP DUP1 DUP7 AND DUP5 OR SWAP3 POP POP POP SWAP4 SWAP3 POP POP POP JUMP JUMPDEST PUSH0 DUP2 SWAP1 POP SWAP2 SWAP1 POP JUMP JUMPDEST PUSH0 PUSH2 0x149A PUSH2 0x1495 PUSH2 0x1490 DUP5 PUSH2 0xEC4 JUMP JUMPDEST PUSH2 0x1477 JUMP JUMPDEST PUSH2 0xEC4 JUMP JUMPDEST SWAP1 POP SWAP2 SWAP1 POP JUMP JUMPDEST PUSH0 DUP2 SWAP1 POP SWAP2 SWAP1 POP JUMP JUMPDEST PUSH2 0x14B3 DUP4 PUSH2 0x1480 JUMP JUMPDEST PUSH2 0x14C7 PUSH2 0x14BF DUP3 PUSH2 0x14A1 JUMP JUMPDEST DUP5 DUP5 SLOAD PUSH2 0x1426 JUMP JUMPDEST DUP3 SSTORE POP POP POP POP JUMP JUMPDEST PUSH0 SWAP1 JUMP JUMPDEST PUSH2 0x14DB PUSH2 0x14CF JUMP JUMPDEST PUSH2 0x14E6 DUP2 DUP5 DUP5 PUSH2 0x14AA JUMP JUMPDEST POP POP POP JUMP JUMPDEST JUMPDEST DUP2 DUP2 LT ISZERO PUSH2 0x1509 JUMPI PUSH2 0x14FE PUSH0 DUP3 PUSH2 0x14D3 JUMP JUMPDEST PUSH1 0x1 DUP2 ADD SWAP1 POP PUSH2 0x14EC JUMP JUMPDEST POP POP JUMP JUMPDEST PUSH1 0x1F DUP3 GT ISZERO PUSH2 0x154E JUMPI PUSH2 0x151F DUP2 PUSH2 0x13F9 JUMP JUMPDEST PUSH2 0x1528 DUP5 PUSH2 0x140B JUMP JUMPDEST DUP2 ADD PUSH1 0x20 DUP6 LT ISZERO PUSH2 0x1537 JUMPI DUP2 SWAP1 POP JUMPDEST PUSH2 0x154B PUSH2 0x1543 DUP6 PUSH2 0x140B JUMP JUMPDEST DUP4 ADD DUP3 PUSH2 0x14EB JUMP JUMPDEST POP POP JUMPDEST POP POP POP JUMP JUMPDEST PUSH0 DUP3 DUP3 SHR SWAP1 POP SWAP3 SWAP2 POP POP JUMP JUMPDEST PUSH0 PUSH2 0x156E PUSH0 NOT DUP5 PUSH1 0x8 MUL PUSH2 0x1553 JUMP JUMPDEST NOT DUP1 DUP4 AND SWAP2 POP POP SWAP3 SWAP2 POP POP JUMP JUMPDEST PUSH0 PUSH2 0x1586 DUP4 DUP4 PUSH2 0x155F JUMP JUMPDEST SWAP2 POP DUP3 PUSH1 0x2 MUL DUP3 OR SWAP1 POP SWAP3 SWAP2 POP POP JUMP JUMPDEST PUSH2 0x159F DUP3 PUSH2 0xFB9 JUMP JUMPDEST PUSH8 0xFFFFFFFFFFFFFFFF DUP2 GT ISZERO PUSH2 0x15B8 JUMPI PUSH2 0x15B7 PUSH2 0xDA0 JUMP JUMPDEST JUMPDEST PUSH2 0x15C2 DUP3 SLOAD PUSH2 0x13C9 JUMP JUMPDEST PUSH2 0x15CD DUP3 DUP3 DUP6 PUSH2 0x150D JUMP JUMPDEST PUSH0 PUSH1 0x20 SWAP1 POP PUSH1 0x1F DUP4 GT PUSH1 0x1 DUP2 EQ PUSH2 0x15FE JUMPI PUSH0 DUP5 ISZERO PUSH2 0x15EC JUMPI DUP3 DUP8 ADD MLOAD SWAP1 POP JUMPDEST PUSH2 0x15F6 DUP6 DUP3 PUSH2 0x157B JUMP JUMPDEST DUP7 SSTORE POP PUSH2 0x165D JUMP JUMPDEST PUSH1 0x1F NOT DUP5 AND PUSH2 0x160C DUP7 PUSH2 0x13F9 JUMP JUMPDEST PUSH0 JUMPDEST DUP3 DUP2 LT ISZERO PUSH2 0x1633 JUMPI DUP5 DUP10 ADD MLOAD DUP3 SSTORE PUSH1 0x1 DUP3 ADD SWAP2 POP PUSH1 0x20 DUP6 ADD SWAP5 POP PUSH1 0x20 DUP2 ADD SWAP1 POP PUSH2 0x160E JUMP JUMPDEST DUP7 DUP4 LT ISZERO PUSH2 0x1650 JUMPI DUP5 DUP10 ADD MLOAD PUSH2 0x164C PUSH1 0x1F DUP10 AND DUP3 PUSH2 0x155F JUMP JUMPDEST DUP4 SSTORE POP JUMPDEST PUSH1 0x1 PUSH1 0x2 DUP9 MUL ADD DUP9 SSTORE POP POP POP JUMPDEST POP POP POP POP POP POP JUMP JUMPDEST PUSH0 PUSH1 0x80 DUP3 ADD SWAP1 POP PUSH2 0x1678 PUSH0 DUP4 ADD DUP8 PUSH2 0xFAA JUMP JUMPDEST DUP2 DUP2 SUB PUSH1 0x20 DUP4 ADD MSTORE PUSH2 0x168A DUP2 DUP7 PUSH2 0xFE1 JUMP JUMPDEST SWAP1 POP DUP2 DUP2 SUB PUSH1 0x40 DUP4 ADD MSTORE PUSH2 0x169E DUP2 DUP6 PUSH2 0xFE1 JUMP JUMPDEST SWAP1 POP PUSH2 0x16AD PUSH1 0x60 DUP4 ADD DUP5 PUSH2 0xFAA JUMP JUMPDEST SWAP6 SWAP5 POP POP POP POP POP JUMP JUMPDEST PUSH32 0x4E487B7100000000000000000000000000000000000000000000000000000000 PUSH0 MSTORE PUSH1 0x11 PUSH1 0x4 MSTORE PUSH1 0x24 PUSH0 REVERT JUMPDEST PUSH0 PUSH2 0x16ED DUP3 PUSH2 0xEC4 JUMP JUMPDEST SWAP2 POP PUSH32 0xFFFFFFFFFFFFFFFFFFFFFFFFFFFFFFFFFFFFFFFFFFFFFFFFFFFFFFFFFFFFFFFF DUP3 SUB PUSH2 0x171F JUMPI PUSH2 0x171E PUSH2 0x16B6 JUMP JUMPDEST JUMPDEST PUSH1 0x1 DUP3 ADD SWAP1 POP SWAP2 SWAP1 POP JUMP JUMPDEST PUSH32 0x4E487B7100000000000000000000000000000000000000000000000000000000 PUSH0 MSTORE PUSH1 0x32 PUSH1 0x4 MSTORE PUSH1 0x24 PUSH0 REVERT JUMPDEST PUSH32 0x4F6E6C79207468652073656C6C65722063616E20706572666F726D2074686973 PUSH0 DUP3 ADD MSTORE PUSH32 0x20616374696F6E00000000000000000000000000000000000000000000000000 PUSH1 0x20 DUP3 ADD MSTORE POP JUMP JUMPDEST PUSH0 PUSH2 0x17B1 PUSH1 0x27 DUP4 PUSH2 0xFC3 JUMP JUMPDEST SWAP2 POP PUSH2 0x17BC DUP3 PUSH2 0x1757 JUMP JUMPDEST PUSH1 0x40 DUP3 ADD SWAP1 POP SWAP2 SWAP1 POP JUMP JUMPDEST PUSH0 PUSH1 0x20 DUP3 ADD SWAP1 POP DUP2 DUP2 SUB PUSH0 DUP4 ADD MSTORE PUSH2 0x17DE DUP2 PUSH2 0x17A5 JUMP JUMPDEST SWAP1 POP SWAP2 SWAP1 POP JUMP JUMPDEST PUSH32 0x43616E6E6F742063616E63656C2C206974656D20616C726561647920736F6C64 PUSH0 DUP3 ADD MSTORE POP JUMP JUMPDEST PUSH0 PUSH2 0x1819 PUSH1 0x20 DUP4 PUSH2 0xFC3 JUMP JUMPDEST SWAP2 POP PUSH2 0x1824 DUP3 PUSH2 0x17E5 JUMP JUMPDEST PUSH1 0x20 DUP3 ADD SWAP1 POP SWAP2 SWAP1 POP JUMP JUMPDEST PUSH0 PUSH1 0x20 DUP3 ADD SWAP1 POP DUP2 DUP2 SUB PUSH0 DUP4 ADD MSTORE PUSH2 0x1846 DUP2 PUSH2 0x180D JUMP JUMPDEST SWAP1 POP SWAP2 SWAP1 POP JUMP JUMPDEST PUSH32 0x4974656D20646F6573206E6F7420657869737400000000000000000000000000 PUSH0 DUP3 ADD MSTORE POP JUMP JUMPDEST PUSH0 PUSH2 0x1881 PUSH1 0x13 DUP4 PUSH2 0xFC3 JUMP JUMPDEST SWAP2 POP PUSH2 0x188C DUP3 PUSH2 0x184D JUMP JUMPDEST PUSH1 0x20 DUP3 ADD SWAP1 POP SWAP2 SWAP1 POP JUMP JUMPDEST PUSH0 PUSH1 0x20 DUP3 ADD SWAP1 POP DUP2 DUP2 SUB PUSH0 DUP4 ADD MSTORE PUSH2 0x18AE DUP2 PUSH2 0x1875 JUMP JUMPDEST SWAP1 POP SWAP2 SWAP1 POP JUMP JUMPDEST PUSH32 0x4E6F207265656E7472616E637920616C6C6F7765642100000000000000000000 PUSH0 DUP3 ADD MSTORE POP JUMP JUMPDEST PUSH0 PUSH2 0x18E9 PUSH1 0x16 DUP4 PUSH2 0xFC3 JUMP JUMPDEST SWAP2 POP PUSH2 0x18F4 DUP3 PUSH2 0x18B5 JUMP JUMPDEST PUSH1 0x20 DUP3 ADD SWAP1 POP SWAP2 SWAP1 POP JUMP JUMPDEST PUSH0 PUSH1 0x20 DUP3 ADD SWAP1 POP DUP2 DUP2 SUB PUSH0 DUP4 ADD MSTORE PUSH2 0x1916 DUP2 PUSH2 0x18DD JUMP JUMPDEST SWAP1 POP SWAP2 SWAP1 POP JUMP JUMPDEST PUSH32 0x4974656D20616C726561647920736F6C64000000000000000000000000000000 PUSH0 DUP3 ADD MSTORE POP JUMP JUMPDEST PUSH0 PUSH2 0x1951 PUSH1 0x11 DUP4 PUSH2 0xFC3 JUMP JUMPDEST SWAP2 POP PUSH2 0x195C DUP3 PUSH2 0x191D JUMP JUMPDEST PUSH1 0x20 DUP3 ADD SWAP1 POP SWAP2 SWAP1 POP JUMP JUMPDEST PUSH0 PUSH1 0x20 DUP3 ADD SWAP1 POP DUP2 DUP2 SUB PUSH0 DUP4 ADD MSTORE PUSH2 0x197E DUP2 PUSH2 0x1945 JUMP JUMPDEST SWAP1 POP SWAP2 SWAP1 POP JUMP JUMPDEST PUSH32 0x4E6F7420656E6F7567682065746865722073656E740000000000000000000000 PUSH0 DUP3 ADD MSTORE POP JUMP JUMPDEST PUSH0 PUSH2 0x19B9 PUSH1 0x15 DUP4 PUSH2 0xFC3 JUMP JUMPDEST SWAP2 POP PUSH2 0x19C4 DUP3 PUSH2 0x1985 JUMP JUMPDEST PUSH1 0x20 DUP3 ADD SWAP1 POP SWAP2 SWAP1 POP JUMP JUMPDEST PUSH0 PUSH1 0x20 DUP3 ADD SWAP1 POP DUP2 DUP2 SUB PUSH0 DUP4 ADD MSTORE PUSH2 0x19E6 DUP2 PUSH2 0x19AD JUMP JUMPDEST SWAP1 POP SWAP2 SWAP1 POP JUMP JUMPDEST PUSH0 PUSH2 0x19F7 DUP3 PUSH2 0xEC4 JUMP JUMPDEST SWAP2 POP PUSH2 0x1A02 DUP4 PUSH2 0xEC4 JUMP JUMPDEST SWAP3 POP DUP3 DUP3 SUB SWAP1 POP DUP2 DUP2 GT ISZERO PUSH2 0x1A1A JUMPI PUSH2 0x1A19 PUSH2 0x16B6 JUMP JUMPDEST JUMPDEST SWAP3 SWAP2 POP POP JUMP JUMPDEST PUSH0 PUSH1 0x40 DUP3 ADD SWAP1 POP PUSH2 0x1A33 PUSH0 DUP4 ADD DUP6 PUSH2 0xFAA JUMP JUMPDEST PUSH2 0x1A40 PUSH1 0x20 DUP4 ADD DUP5 PUSH2 0xFAA JUMP JUMPDEST SWAP4 SWAP3 POP POP POP JUMP INVALID LOG2 PUSH5 0x6970667358 0x22 SLT KECCAK256 0xD9 PUSH6 0x854AA3D964F6 TSTORE ADD PUSH27 0x67F3264BC14B1674894E1FCAC738D0CAB5F2C46D0864736F6C6343 STOP ADDMOD NOT STOP CALLER "
	},
	"abi": [
		{
			"anonymous": false,
			"inputs": [
				{
					"indexed": false,
					"internalType": "uint256",
					"name": "id",
					"type": "uint256"
				},
				{
					"indexed": true,
					"internalType": "address",
					"name": "seller",
					"type": "address"
				}
			],
			"name": "ItemCancelled",
			"type": "event"
		},
		{
			"anonymous": false,
			"inputs": [
				{
					"indexed": false,
					"internalType": "uint256",
					"name": "id",
					"type": "uint256"
				},
				{
					"indexed": true,
					"internalType": "address",
					"name": "seller",
					"type": "address"
				},
				{
					"indexed": false,
					"internalType": "string",
					"name": "title",
					"type": "string"
				},
				{
					"indexed": false,
					"internalType": "string",
					"name": "description",
					"type": "string"
				},
				{
					"indexed": false,
					"internalType": "uint256",
					"name": "price",
					"type": "uint256"
				}
			],
			"name": "ItemListed",
			"type": "event"
		},
		{
			"anonymous": false,
			"inputs": [
				{
					"indexed": false,
					"internalType": "uint256",
					"name": "id",
					"type": "uint256"
				},
				{
					"indexed": true,
					"internalType": "address",
					"name": "buyer",
					"type": "address"
				},
				{
					"indexed": false,
					"internalType": "uint256",
					"name": "price",
					"type": "uint256"
				}
			],
			"name": "ItemPurchased",
			"type": "event"
		},
		{
			"inputs": [
				{
					"internalType": "uint256",
					"name": "_id",
					"type": "uint256"
				}
			],
			"name": "buyItem",
			"outputs": [],
			"stateMutability": "payable",
			"type": "function"
		},
		{
			"inputs": [
				{
					"internalType": "uint256",
					"name": "_id",
					"type": "uint256"
				}
			],
			"name": "cancelListing",
			"outputs": [],
			"stateMutability": "nonpayable",
			"type": "function"
		},
		{
			"inputs": [],
			"name": "getAllItems",
			"outputs": [
				{
					"components": [
						{
							"internalType": "uint256",
							"name": "id",
							"type": "uint256"
						},
						{
							"internalType": "address payable",
							"name": "seller",
							"type": "address"
						},
						{
							"internalType": "string",
							"name": "title",
							"type": "string"
						},
						{
							"internalType": "string",
							"name": "description",
							"type": "string"
						},
						{
							"internalType": "uint256",
							"name": "price",
							"type": "uint256"
						},
						{
							"internalType": "bool",
							"name": "sold",
							"type": "bool"
						}
					],
					"internalType": "struct Marketplace.Item[]",
					"name": "",
					"type": "tuple[]"
				}
			],
			"stateMutability": "view",
			"type": "function"
		},
		{
			"inputs": [
				{
					"internalType": "uint256",
					"name": "_id",
					"type": "uint256"
				}
			],
			"name": "getItem",
			"outputs": [
				{
					"internalType": "uint256",
					"name": "",
					"type": "uint256"
				},
				{
					"internalType": "string",
					"name": "",
					"type": "string"
				},
				{
					"internalType": "string",
					"name": "",
					"type": "string"
				},
				{
					"internalType": "uint256",
					"name": "",
					"type": "uint256"
				},
				{
					"internalType": "bool",
					"name": "",
					"type": "bool"
				}
			],
			"stateMutability": "view",
			"type": "function"
		},
		{
			"inputs": [
				{
					"internalType": "uint256",
					"name": "",
					"type": "uint256"
				}
			],
			"name": "items",
			"outputs": [
				{
					"internalType": "uint256",
					"name": "id",
					"type": "uint256"
				},
				{
					"internalType": "address payable",
					"name": "seller",
					"type": "address"
				},
				{
					"internalType": "string",
					"name": "title",
					"type": "string"
				},
				{
					"internalType": "string",
					"name": "description",
					"type": "string"
				},
				{
					"internalType": "uint256",
					"name": "price",
					"type": "uint256"
				},
				{
					"internalType": "bool",
					"name": "sold",
					"type": "bool"
				}
			],
			"stateMutability": "view",
			"type": "function"
		},
		{
			"inputs": [
				{
					"internalType": "string",
					"name": "_title",
					"type": "string"
				},
				{
					"internalType": "string",
					"name": "_description",
					"type": "string"
				},
				{
					"internalType": "uint256",
					"name": "_price",
					"type": "uint256"
				}
			],
			"name": "listItem",
			"outputs": [],
			"stateMutability": "nonpayable",
			"type": "function"
		},
		{
			"inputs": [],
			"name": "nextItemId",
			"outputs": [
				{
					"internalType": "uint256",
					"name": "",
					"type": "uint256"
				}
			],
			"stateMutability": "view",
			"type": "function"
		}
	],
	"storageLayout": {
		"storage": [
			{
				"astId": 18,
				"contract": "contracts/test.sol:Marketplace",
				"label": "items",
				"offset": 0,
				"slot": "0",
				"type": "t_array(t_struct(Item)14_storage)dyn_storage"
			},
			{
				"astId": 20,
				"contract": "contracts/test.sol:Marketplace",
				"label": "nextItemId",
				"offset": 0,
				"slot": "1",
				"type": "t_uint256"
			},
			{
				"astId": 83,
				"contract": "contracts/test.sol:Marketplace",
				"label": "locked",
				"offset": 0,
				"slot": "2",
				"type": "t_bool"
			}
		],
		"types": {
			"t_address_payable": {
				"encoding": "inplace",
				"label": "address payable",
				"numberOfBytes": "20"
			},
			"t_array(t_struct(Item)14_storage)dyn_storage": {
				"base": "t_struct(Item)14_storage",
				"encoding": "dynamic_array",
				"label": "struct Marketplace.Item[]",
				"numberOfBytes": "32"
			},
			"t_bool": {
				"encoding": "inplace",
				"label": "bool",
				"numberOfBytes": "1"
			},
			"t_string_storage": {
				"encoding": "bytes",
				"label": "string",
				"numberOfBytes": "32"
			},
			"t_struct(Item)14_storage": {
				"encoding": "inplace",
				"label": "struct Marketplace.Item",
				"members": [
					{
						"astId": 3,
						"contract": "contracts/test.sol:Marketplace",
						"label": "id",
						"offset": 0,
						"slot": "0",
						"type": "t_uint256"
					},
					{
						"astId": 5,
						"contract": "contracts/test.sol:Marketplace",
						"label": "seller",
						"offset": 0,
						"slot": "1",
						"type": "t_address_payable"
					},
					{
						"astId": 7,
						"contract": "contracts/test.sol:Marketplace",
						"label": "title",
						"offset": 0,
						"slot": "2",
						"type": "t_string_storage"
					},
					{
						"astId": 9,
						"contract": "contracts/test.sol:Marketplace",
						"label": "description",
						"offset": 0,
						"slot": "3",
						"type": "t_string_storage"
					},
					{
						"astId": 11,
						"contract": "contracts/test.sol:Marketplace",
						"label": "price",
						"offset": 0,
						"slot": "4",
						"type": "t_uint256"
					},
					{
						"astId": 13,
						"contract": "contracts/test.sol:Marketplace",
						"label": "sold",
						"offset": 0,
						"slot": "5",
						"type": "t_bool"
					}
				],
				"numberOfBytes": "192"
			},
			"t_uint256": {
				"encoding": "inplace",
				"label": "uint256",
				"numberOfBytes": "32"
			}
		}
	},
	"web3Deploy": "var marketplaceContract = new web3.eth.Contract([{\"anonymous\":false,\"inputs\":[{\"indexed\":false,\"internalType\":\"uint256\",\"name\":\"id\",\"type\":\"uint256\"},{\"indexed\":true,\"internalType\":\"address\",\"name\":\"seller\",\"type\":\"address\"}],\"name\":\"ItemCancelled\",\"type\":\"event\"},{\"anonymous\":false,\"inputs\":[{\"indexed\":false,\"internalType\":\"uint256\",\"name\":\"id\",\"type\":\"uint256\"},{\"indexed\":true,\"internalType\":\"address\",\"name\":\"seller\",\"type\":\"address\"},{\"indexed\":false,\"internalType\":\"string\",\"name\":\"title\",\"type\":\"string\"},{\"indexed\":false,\"internalType\":\"string\",\"name\":\"description\",\"type\":\"string\"},{\"indexed\":false,\"internalType\":\"uint256\",\"name\":\"price\",\"type\":\"uint256\"}],\"name\":\"ItemListed\",\"type\":\"event\"},{\"anonymous\":false,\"inputs\":[{\"indexed\":false,\"internalType\":\"uint256\",\"name\":\"id\",\"type\":\"uint256\"},{\"indexed\":true,\"internalType\":\"address\",\"name\":\"buyer\",\"type\":\"address\"},{\"indexed\":false,\"internalType\":\"uint256\",\"name\":\"price\",\"type\":\"uint256\"}],\"name\":\"ItemPurchased\",\"type\":\"event\"},{\"inputs\":[{\"internalType\":\"uint256\",\"name\":\"_id\",\"type\":\"uint256\"}],\"name\":\"buyItem\",\"outputs\":[],\"stateMutability\":\"payable\",\"type\":\"function\"},{\"inputs\":[{\"internalType\":\"uint256\",\"name\":\"_id\",\"type\":\"uint256\"}],\"name\":\"cancelListing\",\"outputs\":[],\"stateMutability\":\"nonpayable\",\"type\":\"function\"},{\"inputs\":[],\"name\":\"getAllItems\",\"outputs\":[{\"components\":[{\"internalType\":\"uint256\",\"name\":\"id\",\"type\":\"uint256\"},{\"internalType\":\"address payable\",\"name\":\"seller\",\"type\":\"address\"},{\"internalType\":\"string\",\"name\":\"title\",\"type\":\"string\"},{\"internalType\":\"string\",\"name\":\"description\",\"type\":\"string\"},{\"internalType\":\"uint256\",\"name\":\"price\",\"type\":\"uint256\"},{\"internalType\":\"bool\",\"name\":\"sold\",\"type\":\"bool\"}],\"internalType\":\"struct Marketplace.Item[]\",\"name\":\"\",\"type\":\"tuple[]\"}],\"stateMutability\":\"view\",\"type\":\"function\"},{\"inputs\":[{\"internalType\":\"uint256\",\"name\":\"_id\",\"type\":\"uint256\"}],\"name\":\"getItem\",\"outputs\":[{\"internalType\":\"uint256\",\"name\":\"\",\"type\":\"uint256\"},{\"internalType\":\"string\",\"name\":\"\",\"type\":\"string\"},{\"internalType\":\"string\",\"name\":\"\",\"type\":\"string\"},{\"internalType\":\"uint256\",\"name\":\"\",\"type\":\"uint256\"},{\"internalType\":\"bool\",\"name\":\"\",\"type\":\"bool\"}],\"stateMutability\":\"view\",\"type\":\"function\"},{\"inputs\":[{\"internalType\":\"uint256\",\"name\":\"\",\"type\":\"uint256\"}],\"name\":\"items\",\"outputs\":[{\"internalType\":\"uint256\",\"name\":\"id\",\"type\":\"uint256\"},{\"internalType\":\"address payable\",\"name\":\"seller\",\"type\":\"address\"},{\"internalType\":\"string\",\"name\":\"title\",\"type\":\"string\"},{\"internalType\":\"string\",\"name\":\"description\",\"type\":\"string\"},{\"internalType\":\"uint256\",\"name\":\"price\",\"type\":\"uint256\"},{\"internalType\":\"bool\",\"name\":\"sold\",\"type\":\"bool\"}],\"stateMutability\":\"view\",\"type\":\"function\"},{\"inputs\":[{\"internalType\":\"string\",\"name\":\"_title\",\"type\":\"string\"},{\"internalType\":\"string\",\"name\":\"_description\",\"type\":\"string\"},{\"internalType\":\"uint256\",\"name\":\"_price\",\"type\":\"uint256\"}],\"name\":\"listItem\",\"outputs\":[],\"stateMutability\":\"nonpayable\",\"type\":\"function\"},{\"inputs\":[],\"name\":\"nextItemId\",\"outputs\":[{\"internalType\":\"uint256\",\"name\":\"\",\"type\":\"uint256\"}],\"stateMutability\":\"view\",\"type\":\"function\"}]);\nvar marketplace = marketplaceContract.deploy({\n     data: '0x6080604052348015600e575f80fd5b50611a7d8061001c5f395ff3fe60806040526004361061006f575f3560e01c80634ba1d6aa1161004d5780634ba1d6aa146101035780636a8689741461012d578063bfb231d214610157578063e7fb74c7146101985761006f565b80630562021c14610073578063305a67a81461009b5780633129e773146100c3575b5f80fd5b34801561007e575f80fd5b5061009960048036038101906100949190610ef7565b6101b4565b005b3480156100a6575f80fd5b506100c160048036038101906100bc9190610f7f565b61037b565b005b3480156100ce575f80fd5b506100e960048036038101906100e49190610f7f565b610526565b6040516100fa959493929190611033565b60405180910390f35b34801561010e575f80fd5b5061011761070a565b604051610124919061127f565b60405180910390f35b348015610138575f80fd5b50610141610907565b60405161014e919061129f565b60405180910390f35b348015610162575f80fd5b5061017d60048036038101906101789190610f7f565b61090d565b60405161018f969594939291906112c7565b60405180910390f35b6101b260048036038101906101ad9190610f7f565b610a8a565b005b5f81116101f6576040517f08c379a00000000000000000000000000000000000000000000000000000000081526004016101ed9061137e565b60405180910390fd5b5f6040518060c0016040528060015481526020013373ffffffffffffffffffffffffffffffffffffffff1681526020018581526020018481526020018381526020015f1515815250908060018154018082558091505060019003905f5260205f2090600602015f909190919091505f820151815f01556020820151816001015f6101000a81548173ffffffffffffffffffffffffffffffffffffffff021916908373ffffffffffffffffffffffffffffffffffffffff16021790555060408201518160020190816102c79190611596565b5060608201518160030190816102dd9190611596565b506080820151816004015560a0820151816005015f6101000a81548160ff02191690831515021790555050503373ffffffffffffffffffffffffffffffffffffffff167fc5036ec8a366a93fde59354bd719ea6e26d1e7a0916e0ef35f50e4ea1244f1a66001548585856040516103579493929190611665565b60405180910390a260015f815480929190610371906116e3565b9190505550505050565b803373ffffffffffffffffffffffffffffffffffffffff165f82815481106103a6576103a561172a565b5b905f5260205f2090600602016001015f9054906101000a900473ffffffffffffffffffffffffffffffffffffffff1673ffffffffffffffffffffffffffffffffffffffff161461042b576040517f08c379a0000000000000000000000000000000000000000000000000000000008152600401610422906117c7565b60405180910390fd5b5f828154811061043e5761043d61172a565b5b905f5260205f2090600602016005015f9054906101000a900460ff161561049a576040517f08c379a00000000000000000000000000000000000000000000000000000000081526004016104919061182f565b60405180910390fd5b60015f83815481106104af576104ae61172a565b5b905f5260205f2090600602016005015f6101000a81548160ff0219169083151502179055503373ffffffffffffffffffffffffffffffffffffffff167ff69c7ea3f71dad86e17ba97a88b7e8f1708c0946bd98c7584e9942f60da8728e8360405161051a919061129f565b60405180910390a25050565b5f6060805f805f805490508610801561055f5750855f878154811061054e5761054d61172a565b5b905f5260205f2090600602015f0154145b61059e576040517f08c379a000000000000000000000000000000000000000000000000000000000815260040161059590611897565b60405180910390fd5b5f8087815481106105b2576105b161172a565b5b905f5260205f2090600602019050805f015481600201826003018360040154846005015f9054906101000a900460ff168380546105ee906113c9565b80601f016020809104026020016040519081016040528092919081815260200182805461061a906113c9565b80156106655780601f1061063c57610100808354040283529160200191610665565b820191905f5260205f20905b81548152906001019060200180831161064857829003601f168201915b50505050509350828054610678906113c9565b80601f01602080910402602001604051908101604052809291908181526020018280546106a4906113c9565b80156106ef5780601f106106c6576101008083540402835291602001916106ef565b820191905f5260205f20905b8154815290600101906020018083116106d257829003601f168201915b50505050509250955095509550955095505091939590929450565b60605f805480602002602001604051908101604052809291908181526020015f905b828210156108fe578382905f5260205f2090600602016040518060c00160405290815f8201548152602001600182015f9054906101000a900473ffffffffffffffffffffffffffffffffffffffff1673ffffffffffffffffffffffffffffffffffffffff1673ffffffffffffffffffffffffffffffffffffffff1681526020016002820180546107bb906113c9565b80601f01602080910402602001604051908101604052809291908181526020018280546107e7906113c9565b80156108325780601f1061080957610100808354040283529160200191610832565b820191905f5260205f20905b81548152906001019060200180831161081557829003601f168201915b5050505050815260200160038201805461084b906113c9565b80601f0160208091040260200160405190810160405280929190818152602001828054610877906113c9565b80156108c25780601f10610899576101008083540402835291602001916108c2565b820191905f5260205f20905b8154815290600101906020018083116108a557829003601f168201915b5050505050815260200160048201548152602001600582015f9054906101000a900460ff1615151515815250508152602001906001019061072c565b50505050905090565b60015481565b5f818154811061091b575f80fd5b905f5260205f2090600602015f91509050805f015490806001015f9054906101000a900473ffffffffffffffffffffffffffffffffffffffff1690806002018054610965906113c9565b80601f0160208091040260200160405190810160405280929190818152602001828054610991906113c9565b80156109dc5780601f106109b3576101008083540402835291602001916109dc565b820191905f5260205f20905b8154815290600101906020018083116109bf57829003601f168201915b5050505050908060030180546109f1906113c9565b80601f0160208091040260200160405190810160405280929190818152602001828054610a1d906113c9565b8015610a685780601f10610a3f57610100808354040283529160200191610a68565b820191905f5260205f20905b815481529060010190602001808311610a4b57829003601f168201915b505050505090806004015490806005015f9054906101000a900460ff16905086565b60025f9054906101000a900460ff1615610ad9576040517f08c379a0000000000000000000000000000000000000000000000000000000008152600401610ad0906118ff565b60405180910390fd5b600160025f6101000a81548160ff0219169083151502179055505f8054905081108015610b265750805f8281548110610b1557610b1461172a565b5b905f5260205f2090600602015f0154145b610b65576040517f08c379a0000000000000000000000000000000000000000000000000000000008152600401610b5c90611897565b60405180910390fd5b5f808281548110610b7957610b7861172a565b5b905f5260205f2090600602019050806005015f9054906101000a900460ff1615610bd8576040517f08c379a0000000000000000000000000000000000000000000000000000000008152600401610bcf90611967565b60405180910390fd5b8060040154341015610c1f576040517f08c379a0000000000000000000000000000000000000000000000000000000008152600401610c16906119cf565b60405180910390fd5b806001015f9054906101000a900473ffffffffffffffffffffffffffffffffffffffff1673ffffffffffffffffffffffffffffffffffffffff166108fc826004015490811502906040515f60405180830381858888f19350505050158015610c89573d5f803e3d5ffd5b506001816005015f6101000a81548160ff0219169083151502179055508060040154341115610d06573373ffffffffffffffffffffffffffffffffffffffff166108fc826004015434610cdc91906119ed565b90811502906040515f60405180830381858888f19350505050158015610d04573d5f803e3d5ffd5b505b3373ffffffffffffffffffffffffffffffffffffffff167f78a0660bbda86d17037943644187f6f1f73f2f20a3240bf4cf4a56c2a96bcf84838360040154604051610d52929190611a20565b60405180910390a2505f60025f6101000a81548160ff02191690831515021790555050565b5f604051905090565b5f80fd5b5f80fd5b5f80fd5b5f80fd5b5f601f19601f8301169050919050565b7f4e487b71000000000000000000000000000000000000000000000000000000005f52604160045260245ffd5b610dd682610d90565b810181811067ffffffffffffffff82111715610df557610df4610da0565b5b80604052505050565b5f610e07610d77565b9050610e138282610dcd565b919050565b5f67ffffffffffffffff821115610e3257610e31610da0565b5b610e3b82610d90565b9050602081019050919050565b828183375f83830152505050565b5f610e68610e6384610e18565b610dfe565b905082815260208101848484011115610e8457610e83610d8c565b5b610e8f848285610e48565b509392505050565b5f82601f830112610eab57610eaa610d88565b5b8135610ebb848260208601610e56565b91505092915050565b5f819050919050565b610ed681610ec4565b8114610ee0575f80fd5b50565b5f81359050610ef181610ecd565b92915050565b5f805f60608486031215610f0e57610f0d610d80565b5b5f84013567ffffffffffffffff811115610f2b57610f2a610d84565b5b610f3786828701610e97565b935050602084013567ffffffffffffffff811115610f5857610f57610d84565b5b610f6486828701610e97565b9250506040610f7586828701610ee3565b9150509250925092565b5f60208284031215610f9457610f93610d80565b5b5f610fa184828501610ee3565b91505092915050565b610fb381610ec4565b82525050565b5f81519050919050565b5f82825260208201905092915050565b8281835e5f83830152505050565b5f610feb82610fb9565b610ff58185610fc3565b9350611005818560208601610fd3565b61100e81610d90565b840191505092915050565b5f8115159050919050565b61102d81611019565b82525050565b5f60a0820190506110465f830188610faa565b81810360208301526110588187610fe1565b9050818103604083015261106c8186610fe1565b905061107b6060830185610faa565b6110886080830184611024565b9695505050505050565b5f81519050919050565b5f82825260208201905092915050565b5f819050602082019050919050565b6110c481610ec4565b82525050565b5f73ffffffffffffffffffffffffffffffffffffffff82169050919050565b5f6110f3826110ca565b9050919050565b611103816110e9565b82525050565b5f82825260208201905092915050565b5f61112382610fb9565b61112d8185611109565b935061113d818560208601610fd3565b61114681610d90565b840191505092915050565b61115a81611019565b82525050565b5f60c083015f8301516111755f8601826110bb565b50602083015161118860208601826110fa565b50604083015184820360408601526111a08282611119565b915050606083015184820360608601526111ba8282611119565b91505060808301516111cf60808601826110bb565b5060a08301516111e260a0860182611151565b508091505092915050565b5f6111f88383611160565b905092915050565b5f602082019050919050565b5f61121682611092565b611220818561109c565b935083602082028501611232856110ac565b805f5b8581101561126d578484038952815161124e85826111ed565b945061125983611200565b925060208a01995050600181019050611235565b50829750879550505050505092915050565b5f6020820190508181035f830152611297818461120c565b905092915050565b5f6020820190506112b25f830184610faa565b92915050565b6112c1816110e9565b82525050565b5f60c0820190506112da5f830189610faa565b6112e760208301886112b8565b81810360408301526112f98187610fe1565b9050818103606083015261130d8186610fe1565b905061131c6080830185610faa565b61132960a0830184611024565b979650505050505050565b7f5072696365206d7573742062652067726561746572207468616e207a65726f005f82015250565b5f611368601f83610fc3565b915061137382611334565b602082019050919050565b5f6020820190508181035f8301526113958161135c565b9050919050565b7f4e487b71000000000000000000000000000000000000000000000000000000005f52602260045260245ffd5b5f60028204905060018216806113e057607f821691505b6020821081036113f3576113f261139c565b5b50919050565b5f819050815f5260205f209050919050565b5f6020601f8301049050919050565b5f82821b905092915050565b5f600883026114557fffffffffffffffffffffffffffffffffffffffffffffffffffffffffffffffff8261141a565b61145f868361141a565b95508019841693508086168417925050509392505050565b5f819050919050565b5f61149a61149561149084610ec4565b611477565b610ec4565b9050919050565b5f819050919050565b6114b383611480565b6114c76114bf826114a1565b848454611426565b825550505050565b5f90565b6114db6114cf565b6114e68184846114aa565b505050565b5b81811015611509576114fe5f826114d3565b6001810190506114ec565b5050565b601f82111561154e5761151f816113f9565b6115288461140b565b81016020851015611537578190505b61154b6115438561140b565b8301826114eb565b50505b505050565b5f82821c905092915050565b5f61156e5f1984600802611553565b1980831691505092915050565b5f611586838361155f565b9150826002028217905092915050565b61159f82610fb9565b67ffffffffffffffff8111156115b8576115b7610da0565b5b6115c282546113c9565b6115cd82828561150d565b5f60209050601f8311600181146115fe575f84156115ec578287015190505b6115f6858261157b565b86555061165d565b601f19841661160c866113f9565b5f5b828110156116335784890151825560018201915060208501945060208101905061160e565b86831015611650578489015161164c601f89168261155f565b8355505b6001600288020188555050505b505050505050565b5f6080820190506116785f830187610faa565b818103602083015261168a8186610fe1565b9050818103604083015261169e8185610fe1565b90506116ad6060830184610faa565b95945050505050565b7f4e487b71000000000000000000000000000000000000000000000000000000005f52601160045260245ffd5b5f6116ed82610ec4565b91507fffffffffffffffffffffffffffffffffffffffffffffffffffffffffffffffff820361171f5761171e6116b6565b5b600182019050919050565b7f4e487b71000000000000000000000000000000000000000000000000000000005f52603260045260245ffd5b7f4f6e6c79207468652073656c6c65722063616e20706572666f726d20746869735f8201527f20616374696f6e00000000000000000000000000000000000000000000000000602082015250565b5f6117b1602783610fc3565b91506117bc82611757565b604082019050919050565b5f6020820190508181035f8301526117de816117a5565b9050919050565b7f43616e6e6f742063616e63656c2c206974656d20616c726561647920736f6c645f82015250565b5f611819602083610fc3565b9150611824826117e5565b602082019050919050565b5f6020820190508181035f8301526118468161180d565b9050919050565b7f4974656d20646f6573206e6f74206578697374000000000000000000000000005f82015250565b5f611881601383610fc3565b915061188c8261184d565b602082019050919050565b5f6020820190508181035f8301526118ae81611875565b9050919050565b7f4e6f207265656e7472616e637920616c6c6f77656421000000000000000000005f82015250565b5f6118e9601683610fc3565b91506118f4826118b5565b602082019050919050565b5f6020820190508181035f830152611916816118dd565b9050919050565b7f4974656d20616c726561647920736f6c640000000000000000000000000000005f82015250565b5f611951601183610fc3565b915061195c8261191d565b602082019050919050565b5f6020820190508181035f83015261197e81611945565b9050919050565b7f4e6f7420656e6f7567682065746865722073656e7400000000000000000000005f82015250565b5f6119b9601583610fc3565b91506119c482611985565b602082019050919050565b5f6020820190508181035f8301526119e6816119ad565b9050919050565b5f6119f782610ec4565b9150611a0283610ec4565b9250828203905081811115611a1a57611a196116b6565b5b92915050565b5f604082019050611a335f830185610faa565b611a406020830184610faa565b939250505056fea2646970667358221220d965854aa3d964f65d017a67f3264bc14b1674894e1fcac738d0cab5f2c46d0864736f6c63430008190033', \n     arguments: [\n     ]\n}).send({\n     from: web3.eth.accounts[0], \n     gas: '4700000'\n   }, function (e, contract){\n    console.log(e, contract);\n    if (typeof contract.address !== 'undefined') {\n         console.log('Contract mined! address: ' + contract.address + ' transactionHash: ' + contract.transactionHash);\n    }\n })",
	"functionHashes": {
		"e7fb74c7": "buyItem(uint256)",
		"305a67a8": "cancelListing(uint256)",
		"4ba1d6aa": "getAllItems()",
		"3129e773": "getItem(uint256)",
		"bfb231d2": "items(uint256)",
		"0562021c": "listItem(string,string,uint256)",
		"6a868974": "nextItemId()"
	},
	"gasEstimates": {
		"Creation": {
			"codeDepositCost": "1356200",
			"executionCost": "1408",
			"totalCost": "1357608"
		},
		"External": {
			"buyItem(uint256)": "infinite",
			"cancelListing(uint256)": "infinite",
			"getAllItems()": "infinite",
			"getItem(uint256)": "infinite",
			"items(uint256)": "infinite",
			"listItem(string,string,uint256)": "infinite",
			"nextItemId()": "2447"
		}
	},
	"devdoc": {
		"kind": "dev",
		"methods": {},
		"version": 1
	},
	"userdoc": {
		"kind": "user",
		"methods": {},
		"version": 1
	},
	"Runtime Bytecode": {
		"immutableReferences": {},
		"linkReferences": {},
		"object": "60806040526004361061006f575f3560e01c80634ba1d6aa1161004d5780634ba1d6aa146101035780636a8689741461012d578063bfb231d214610157578063e7fb74c7146101985761006f565b80630562021c14610073578063305a67a81461009b5780633129e773146100c3575b5f80fd5b34801561007e575f80fd5b5061009960048036038101906100949190610ef7565b6101b4565b005b3480156100a6575f80fd5b506100c160048036038101906100bc9190610f7f565b61037b565b005b3480156100ce575f80fd5b506100e960048036038101906100e49190610f7f565b610526565b6040516100fa959493929190611033565b60405180910390f35b34801561010e575f80fd5b5061011761070a565b604051610124919061127f565b60405180910390f35b348015610138575f80fd5b50610141610907565b60405161014e919061129f565b60405180910390f35b348015610162575f80fd5b5061017d60048036038101906101789190610f7f565b61090d565b60405161018f969594939291906112c7565b60405180910390f35b6101b260048036038101906101ad9190610f7f565b610a8a565b005b5f81116101f6576040517f08c379a00000000000000000000000000000000000000000000000000000000081526004016101ed9061137e565b60405180910390fd5b5f6040518060c0016040528060015481526020013373ffffffffffffffffffffffffffffffffffffffff1681526020018581526020018481526020018381526020015f1515815250908060018154018082558091505060019003905f5260205f2090600602015f909190919091505f820151815f01556020820151816001015f6101000a81548173ffffffffffffffffffffffffffffffffffffffff021916908373ffffffffffffffffffffffffffffffffffffffff16021790555060408201518160020190816102c79190611596565b5060608201518160030190816102dd9190611596565b506080820151816004015560a0820151816005015f6101000a81548160ff02191690831515021790555050503373ffffffffffffffffffffffffffffffffffffffff167fc5036ec8a366a93fde59354bd719ea6e26d1e7a0916e0ef35f50e4ea1244f1a66001548585856040516103579493929190611665565b60405180910390a260015f815480929190610371906116e3565b9190505550505050565b803373ffffffffffffffffffffffffffffffffffffffff165f82815481106103a6576103a561172a565b5b905f5260205f2090600602016001015f9054906101000a900473ffffffffffffffffffffffffffffffffffffffff1673ffffffffffffffffffffffffffffffffffffffff161461042b576040517f08c379a0000000000000000000000000000000000000000000000000000000008152600401610422906117c7565b60405180910390fd5b5f828154811061043e5761043d61172a565b5b905f5260205f2090600602016005015f9054906101000a900460ff161561049a576040517f08c379a00000000000000000000000000000000000000000000000000000000081526004016104919061182f565b60405180910390fd5b60015f83815481106104af576104ae61172a565b5b905f5260205f2090600602016005015f6101000a81548160ff0219169083151502179055503373ffffffffffffffffffffffffffffffffffffffff167ff69c7ea3f71dad86e17ba97a88b7e8f1708c0946bd98c7584e9942f60da8728e8360405161051a919061129f565b60405180910390a25050565b5f6060805f805f805490508610801561055f5750855f878154811061054e5761054d61172a565b5b905f5260205f2090600602015f0154145b61059e576040517f08c379a000000000000000000000000000000000000000000000000000000000815260040161059590611897565b60405180910390fd5b5f8087815481106105b2576105b161172a565b5b905f5260205f2090600602019050805f015481600201826003018360040154846005015f9054906101000a900460ff168380546105ee906113c9565b80601f016020809104026020016040519081016040528092919081815260200182805461061a906113c9565b80156106655780601f1061063c57610100808354040283529160200191610665565b820191905f5260205f20905b81548152906001019060200180831161064857829003601f168201915b50505050509350828054610678906113c9565b80601f01602080910402602001604051908101604052809291908181526020018280546106a4906113c9565b80156106ef5780601f106106c6576101008083540402835291602001916106ef565b820191905f5260205f20905b8154815290600101906020018083116106d257829003601f168201915b50505050509250955095509550955095505091939590929450565b60605f805480602002602001604051908101604052809291908181526020015f905b828210156108fe578382905f5260205f2090600602016040518060c00160405290815f8201548152602001600182015f9054906101000a900473ffffffffffffffffffffffffffffffffffffffff1673ffffffffffffffffffffffffffffffffffffffff1673ffffffffffffffffffffffffffffffffffffffff1681526020016002820180546107bb906113c9565b80601f01602080910402602001604051908101604052809291908181526020018280546107e7906113c9565b80156108325780601f1061080957610100808354040283529160200191610832565b820191905f5260205f20905b81548152906001019060200180831161081557829003601f168201915b5050505050815260200160038201805461084b906113c9565b80601f0160208091040260200160405190810160405280929190818152602001828054610877906113c9565b80156108c25780601f10610899576101008083540402835291602001916108c2565b820191905f5260205f20905b8154815290600101906020018083116108a557829003601f168201915b5050505050815260200160048201548152602001600582015f9054906101000a900460ff1615151515815250508152602001906001019061072c565b50505050905090565b60015481565b5f818154811061091b575f80fd5b905f5260205f2090600602015f91509050805f015490806001015f9054906101000a900473ffffffffffffffffffffffffffffffffffffffff1690806002018054610965906113c9565b80601f0160208091040260200160405190810160405280929190818152602001828054610991906113c9565b80156109dc5780601f106109b3576101008083540402835291602001916109dc565b820191905f5260205f20905b8154815290600101906020018083116109bf57829003601f168201915b5050505050908060030180546109f1906113c9565b80601f0160208091040260200160405190810160405280929190818152602001828054610a1d906113c9565b8015610a685780601f10610a3f57610100808354040283529160200191610a68565b820191905f5260205f20905b815481529060010190602001808311610a4b57829003601f168201915b505050505090806004015490806005015f9054906101000a900460ff16905086565b60025f9054906101000a900460ff1615610ad9576040517f08c379a0000000000000000000000000000000000000000000000000000000008152600401610ad0906118ff565b60405180910390fd5b600160025f6101000a81548160ff0219169083151502179055505f8054905081108015610b265750805f8281548110610b1557610b1461172a565b5b905f5260205f2090600602015f0154145b610b65576040517f08c379a0000000000000000000000000000000000000000000000000000000008152600401610b5c90611897565b60405180910390fd5b5f808281548110610b7957610b7861172a565b5b905f5260205f2090600602019050806005015f9054906101000a900460ff1615610bd8576040517f08c379a0000000000000000000000000000000000000000000000000000000008152600401610bcf90611967565b60405180910390fd5b8060040154341015610c1f576040517f08c379a0000000000000000000000000000000000000000000000000000000008152600401610c16906119cf565b60405180910390fd5b806001015f9054906101000a900473ffffffffffffffffffffffffffffffffffffffff1673ffffffffffffffffffffffffffffffffffffffff166108fc826004015490811502906040515f60405180830381858888f19350505050158015610c89573d5f803e3d5ffd5b506001816005015f6101000a81548160ff0219169083151502179055508060040154341115610d06573373ffffffffffffffffffffffffffffffffffffffff166108fc826004015434610cdc91906119ed565b90811502906040515f60405180830381858888f19350505050158015610d04573d5f803e3d5ffd5b505b3373ffffffffffffffffffffffffffffffffffffffff167f78a0660bbda86d17037943644187f6f1f73f2f20a3240bf4cf4a56c2a96bcf84838360040154604051610d52929190611a20565b60405180910390a2505f60025f6101000a81548160ff02191690831515021790555050565b5f604051905090565b5f80fd5b5f80fd5b5f80fd5b5f80fd5b5f601f19601f8301169050919050565b7f4e487b71000000000000000000000000000000000000000000000000000000005f52604160045260245ffd5b610dd682610d90565b810181811067ffffffffffffffff82111715610df557610df4610da0565b5b80604052505050565b5f610e07610d77565b9050610e138282610dcd565b919050565b5f67ffffffffffffffff821115610e3257610e31610da0565b5b610e3b82610d90565b9050602081019050919050565b828183375f83830152505050565b5f610e68610e6384610e18565b610dfe565b905082815260208101848484011115610e8457610e83610d8c565b5b610e8f848285610e48565b509392505050565b5f82601f830112610eab57610eaa610d88565b5b8135610ebb848260208601610e56565b91505092915050565b5f819050919050565b610ed681610ec4565b8114610ee0575f80fd5b50565b5f81359050610ef181610ecd565b92915050565b5f805f60608486031215610f0e57610f0d610d80565b5b5f84013567ffffffffffffffff811115610f2b57610f2a610d84565b5b610f3786828701610e97565b935050602084013567ffffffffffffffff811115610f5857610f57610d84565b5b610f6486828701610e97565b9250506040610f7586828701610ee3565b9150509250925092565b5f60208284031215610f9457610f93610d80565b5b5f610fa184828501610ee3565b91505092915050565b610fb381610ec4565b82525050565b5f81519050919050565b5f82825260208201905092915050565b8281835e5f83830152505050565b5f610feb82610fb9565b610ff58185610fc3565b9350611005818560208601610fd3565b61100e81610d90565b840191505092915050565b5f8115159050919050565b61102d81611019565b82525050565b5f60a0820190506110465f830188610faa565b81810360208301526110588187610fe1565b9050818103604083015261106c8186610fe1565b905061107b6060830185610faa565b6110886080830184611024565b9695505050505050565b5f81519050919050565b5f82825260208201905092915050565b5f819050602082019050919050565b6110c481610ec4565b82525050565b5f73ffffffffffffffffffffffffffffffffffffffff82169050919050565b5f6110f3826110ca565b9050919050565b611103816110e9565b82525050565b5f82825260208201905092915050565b5f61112382610fb9565b61112d8185611109565b935061113d818560208601610fd3565b61114681610d90565b840191505092915050565b61115a81611019565b82525050565b5f60c083015f8301516111755f8601826110bb565b50602083015161118860208601826110fa565b50604083015184820360408601526111a08282611119565b915050606083015184820360608601526111ba8282611119565b91505060808301516111cf60808601826110bb565b5060a08301516111e260a0860182611151565b508091505092915050565b5f6111f88383611160565b905092915050565b5f602082019050919050565b5f61121682611092565b611220818561109c565b935083602082028501611232856110ac565b805f5b8581101561126d578484038952815161124e85826111ed565b945061125983611200565b925060208a01995050600181019050611235565b50829750879550505050505092915050565b5f6020820190508181035f830152611297818461120c565b905092915050565b5f6020820190506112b25f830184610faa565b92915050565b6112c1816110e9565b82525050565b5f60c0820190506112da5f830189610faa565b6112e760208301886112b8565b81810360408301526112f98187610fe1565b9050818103606083015261130d8186610fe1565b905061131c6080830185610faa565b61132960a0830184611024565b979650505050505050565b7f5072696365206d7573742062652067726561746572207468616e207a65726f005f82015250565b5f611368601f83610fc3565b915061137382611334565b602082019050919050565b5f6020820190508181035f8301526113958161135c565b9050919050565b7f4e487b71000000000000000000000000000000000000000000000000000000005f52602260045260245ffd5b5f60028204905060018216806113e057607f821691505b6020821081036113f3576113f261139c565b5b50919050565b5f819050815f5260205f209050919050565b5f6020601f8301049050919050565b5f82821b905092915050565b5f600883026114557fffffffffffffffffffffffffffffffffffffffffffffffffffffffffffffffff8261141a565b61145f868361141a565b95508019841693508086168417925050509392505050565b5f819050919050565b5f61149a61149561149084610ec4565b611477565b610ec4565b9050919050565b5f819050919050565b6114b383611480565b6114c76114bf826114a1565b848454611426565b825550505050565b5f90565b6114db6114cf565b6114e68184846114aa565b505050565b5b81811015611509576114fe5f826114d3565b6001810190506114ec565b5050565b601f82111561154e5761151f816113f9565b6115288461140b565b81016020851015611537578190505b61154b6115438561140b565b8301826114eb565b50505b505050565b5f82821c905092915050565b5f61156e5f1984600802611553565b1980831691505092915050565b5f611586838361155f565b9150826002028217905092915050565b61159f82610fb9565b67ffffffffffffffff8111156115b8576115b7610da0565b5b6115c282546113c9565b6115cd82828561150d565b5f60209050601f8311600181146115fe575f84156115ec578287015190505b6115f6858261157b565b86555061165d565b601f19841661160c866113f9565b5f5b828110156116335784890151825560018201915060208501945060208101905061160e565b86831015611650578489015161164c601f89168261155f565b8355505b6001600288020188555050505b505050505050565b5f6080820190506116785f830187610faa565b818103602083015261168a8186610fe1565b9050818103604083015261169e8185610fe1565b90506116ad6060830184610faa565b95945050505050565b7f4e487b71000000000000000000000000000000000000000000000000000000005f52601160045260245ffd5b5f6116ed82610ec4565b91507fffffffffffffffffffffffffffffffffffffffffffffffffffffffffffffffff820361171f5761171e6116b6565b5b600182019050919050565b7f4e487b71000000000000000000000000000000000000000000000000000000005f52603260045260245ffd5b7f4f6e6c79207468652073656c6c65722063616e20706572666f726d20746869735f8201527f20616374696f6e00000000000000000000000000000000000000000000000000602082015250565b5f6117b1602783610fc3565b91506117bc82611757565b604082019050919050565b5f6020820190508181035f8301526117de816117a5565b9050919050565b7f43616e6e6f742063616e63656c2c206974656d20616c726561647920736f6c645f82015250565b5f611819602083610fc3565b9150611824826117e5565b602082019050919050565b5f6020820190508181035f8301526118468161180d565b9050919050565b7f4974656d20646f6573206e6f74206578697374000000000000000000000000005f82015250565b5f611881601383610fc3565b915061188c8261184d565b602082019050919050565b5f6020820190508181035f8301526118ae81611875565b9050919050565b7f4e6f207265656e7472616e637920616c6c6f77656421000000000000000000005f82015250565b5f6118e9601683610fc3565b91506118f4826118b5565b602082019050919050565b5f6020820190508181035f830152611916816118dd565b9050919050565b7f4974656d20616c726561647920736f6c640000000000000000000000000000005f82015250565b5f611951601183610fc3565b915061195c8261191d565b602082019050919050565b5f6020820190508181035f83015261197e81611945565b9050919050565b7f4e6f7420656e6f7567682065746865722073656e7400000000000000000000005f82015250565b5f6119b9601583610fc3565b91506119c482611985565b602082019050919050565b5f6020820190508181035f8301526119e6816119ad565b9050919050565b5f6119f782610ec4565b9150611a0283610ec4565b9250828203905081811115611a1a57611a196116b6565b5b92915050565b5f604082019050611a335f830185610faa565b611a406020830184610faa565b939250505056fea2646970667358221220d965854aa3d964f65d017a67f3264bc14b1674894e1fcac738d0cab5f2c46d0864736f6c63430008190033",
		"opcodes": "PUSH1 0x80 PUSH1 0x40 MSTORE PUSH1 0x4 CALLDATASIZE LT PUSH2 0x6F JUMPI PUSH0 CALLDATALOAD PUSH1 0xE0 SHR DUP1 PUSH4 0x4BA1D6AA GT PUSH2 0x4D JUMPI DUP1 PUSH4 0x4BA1D6AA EQ PUSH2 0x103 JUMPI DUP1 PUSH4 0x6A868974 EQ PUSH2 0x12D JUMPI DUP1 PUSH4 0xBFB231D2 EQ PUSH2 0x157 JUMPI DUP1 PUSH4 0xE7FB74C7 EQ PUSH2 0x198 JUMPI PUSH2 0x6F JUMP JUMPDEST DUP1 PUSH4 0x562021C EQ PUSH2 0x73 JUMPI DUP1 PUSH4 0x305A67A8 EQ PUSH2 0x9B JUMPI DUP1 PUSH4 0x3129E773 EQ PUSH2 0xC3 JUMPI JUMPDEST PUSH0 DUP1 REVERT JUMPDEST CALLVALUE DUP1 ISZERO PUSH2 0x7E JUMPI PUSH0 DUP1 REVERT JUMPDEST POP PUSH2 0x99 PUSH1 0x4 DUP1 CALLDATASIZE SUB DUP2 ADD SWAP1 PUSH2 0x94 SWAP2 SWAP1 PUSH2 0xEF7 JUMP JUMPDEST PUSH2 0x1B4 JUMP JUMPDEST STOP JUMPDEST CALLVALUE DUP1 ISZERO PUSH2 0xA6 JUMPI PUSH0 DUP1 REVERT JUMPDEST POP PUSH2 0xC1 PUSH1 0x4 DUP1 CALLDATASIZE SUB DUP2 ADD SWAP1 PUSH2 0xBC SWAP2 SWAP1 PUSH2 0xF7F JUMP JUMPDEST PUSH2 0x37B JUMP JUMPDEST STOP JUMPDEST CALLVALUE DUP1 ISZERO PUSH2 0xCE JUMPI PUSH0 DUP1 REVERT JUMPDEST POP PUSH2 0xE9 PUSH1 0x4 DUP1 CALLDATASIZE SUB DUP2 ADD SWAP1 PUSH2 0xE4 SWAP2 SWAP1 PUSH2 0xF7F JUMP JUMPDEST PUSH2 0x526 JUMP JUMPDEST PUSH1 0x40 MLOAD PUSH2 0xFA SWAP6 SWAP5 SWAP4 SWAP3 SWAP2 SWAP1 PUSH2 0x1033 JUMP JUMPDEST PUSH1 0x40 MLOAD DUP1 SWAP2 SUB SWAP1 RETURN JUMPDEST CALLVALUE DUP1 ISZERO PUSH2 0x10E JUMPI PUSH0 DUP1 REVERT JUMPDEST POP PUSH2 0x117 PUSH2 0x70A JUMP JUMPDEST PUSH1 0x40 MLOAD PUSH2 0x124 SWAP2 SWAP1 PUSH2 0x127F JUMP JUMPDEST PUSH1 0x40 MLOAD DUP1 SWAP2 SUB SWAP1 RETURN JUMPDEST CALLVALUE DUP1 ISZERO PUSH2 0x138 JUMPI PUSH0 DUP1 REVERT JUMPDEST POP PUSH2 0x141 PUSH2 0x907 JUMP JUMPDEST PUSH1 0x40 MLOAD PUSH2 0x14E SWAP2 SWAP1 PUSH2 0x129F JUMP JUMPDEST PUSH1 0x40 MLOAD DUP1 SWAP2 SUB SWAP1 RETURN JUMPDEST CALLVALUE DUP1 ISZERO PUSH2 0x162 JUMPI PUSH0 DUP1 REVERT JUMPDEST POP PUSH2 0x17D PUSH1 0x4 DUP1 CALLDATASIZE SUB DUP2 ADD SWAP1 PUSH2 0x178 SWAP2 SWAP1 PUSH2 0xF7F JUMP JUMPDEST PUSH2 0x90D JUMP JUMPDEST PUSH1 0x40 MLOAD PUSH2 0x18F SWAP7 SWAP6 SWAP5 SWAP4 SWAP3 SWAP2 SWAP1 PUSH2 0x12C7 JUMP JUMPDEST PUSH1 0x40 MLOAD DUP1 SWAP2 SUB SWAP1 RETURN JUMPDEST PUSH2 0x1B2 PUSH1 0x4 DUP1 CALLDATASIZE SUB DUP2 ADD SWAP1 PUSH2 0x1AD SWAP2 SWAP1 PUSH2 0xF7F JUMP JUMPDEST PUSH2 0xA8A JUMP JUMPDEST STOP JUMPDEST PUSH0 DUP2 GT PUSH2 0x1F6 JUMPI PUSH1 0x40 MLOAD PUSH32 0x8C379A000000000000000000000000000000000000000000000000000000000 DUP2 MSTORE PUSH1 0x4 ADD PUSH2 0x1ED SWAP1 PUSH2 0x137E JUMP JUMPDEST PUSH1 0x40 MLOAD DUP1 SWAP2 SUB SWAP1 REVERT JUMPDEST PUSH0 PUSH1 0x40 MLOAD DUP1 PUSH1 0xC0 ADD PUSH1 0x40 MSTORE DUP1 PUSH1 0x1 SLOAD DUP2 MSTORE PUSH1 0x20 ADD CALLER PUSH20 0xFFFFFFFFFFFFFFFFFFFFFFFFFFFFFFFFFFFFFFFF AND DUP2 MSTORE PUSH1 0x20 ADD DUP6 DUP2 MSTORE PUSH1 0x20 ADD DUP5 DUP2 MSTORE PUSH1 0x20 ADD DUP4 DUP2 MSTORE PUSH1 0x20 ADD PUSH0 ISZERO ISZERO DUP2 MSTORE POP SWAP1 DUP1 PUSH1 0x1 DUP2 SLOAD ADD DUP1 DUP3 SSTORE DUP1 SWAP2 POP POP PUSH1 0x1 SWAP1 SUB SWAP1 PUSH0 MSTORE PUSH1 0x20 PUSH0 KECCAK256 SWAP1 PUSH1 0x6 MUL ADD PUSH0 SWAP1 SWAP2 SWAP1 SWAP2 SWAP1 SWAP2 POP PUSH0 DUP3 ADD MLOAD DUP2 PUSH0 ADD SSTORE PUSH1 0x20 DUP3 ADD MLOAD DUP2 PUSH1 0x1 ADD PUSH0 PUSH2 0x100 EXP DUP2 SLOAD DUP2 PUSH20 0xFFFFFFFFFFFFFFFFFFFFFFFFFFFFFFFFFFFFFFFF MUL NOT AND SWAP1 DUP4 PUSH20 0xFFFFFFFFFFFFFFFFFFFFFFFFFFFFFFFFFFFFFFFF AND MUL OR SWAP1 SSTORE POP PUSH1 0x40 DUP3 ADD MLOAD DUP2 PUSH1 0x2 ADD SWAP1 DUP2 PUSH2 0x2C7 SWAP2 SWAP1 PUSH2 0x1596 JUMP JUMPDEST POP PUSH1 0x60 DUP3 ADD MLOAD DUP2 PUSH1 0x3 ADD SWAP1 DUP2 PUSH2 0x2DD SWAP2 SWAP1 PUSH2 0x1596 JUMP JUMPDEST POP PUSH1 0x80 DUP3 ADD MLOAD DUP2 PUSH1 0x4 ADD SSTORE PUSH1 0xA0 DUP3 ADD MLOAD DUP2 PUSH1 0x5 ADD PUSH0 PUSH2 0x100 EXP DUP2 SLOAD DUP2 PUSH1 0xFF MUL NOT AND SWAP1 DUP4 ISZERO ISZERO MUL OR SWAP1 SSTORE POP POP POP CALLER PUSH20 0xFFFFFFFFFFFFFFFFFFFFFFFFFFFFFFFFFFFFFFFF AND PUSH32 0xC5036EC8A366A93FDE59354BD719EA6E26D1E7A0916E0EF35F50E4EA1244F1A6 PUSH1 0x1 SLOAD DUP6 DUP6 DUP6 PUSH1 0x40 MLOAD PUSH2 0x357 SWAP5 SWAP4 SWAP3 SWAP2 SWAP1 PUSH2 0x1665 JUMP JUMPDEST PUSH1 0x40 MLOAD DUP1 SWAP2 SUB SWAP1 LOG2 PUSH1 0x1 PUSH0 DUP2 SLOAD DUP1 SWAP3 SWAP2 SWAP1 PUSH2 0x371 SWAP1 PUSH2 0x16E3 JUMP JUMPDEST SWAP2 SWAP1 POP SSTORE POP POP POP POP JUMP JUMPDEST DUP1 CALLER PUSH20 0xFFFFFFFFFFFFFFFFFFFFFFFFFFFFFFFFFFFFFFFF AND PUSH0 DUP3 DUP2 SLOAD DUP2 LT PUSH2 0x3A6 JUMPI PUSH2 0x3A5 PUSH2 0x172A JUMP JUMPDEST JUMPDEST SWAP1 PUSH0 MSTORE PUSH1 0x20 PUSH0 KECCAK256 SWAP1 PUSH1 0x6 MUL ADD PUSH1 0x1 ADD PUSH0 SWAP1 SLOAD SWAP1 PUSH2 0x100 EXP SWAP1 DIV PUSH20 0xFFFFFFFFFFFFFFFFFFFFFFFFFFFFFFFFFFFFFFFF AND PUSH20 0xFFFFFFFFFFFFFFFFFFFFFFFFFFFFFFFFFFFFFFFF AND EQ PUSH2 0x42B JUMPI PUSH1 0x40 MLOAD PUSH32 0x8C379A000000000000000000000000000000000000000000000000000000000 DUP2 MSTORE PUSH1 0x4 ADD PUSH2 0x422 SWAP1 PUSH2 0x17C7 JUMP JUMPDEST PUSH1 0x40 MLOAD DUP1 SWAP2 SUB SWAP1 REVERT JUMPDEST PUSH0 DUP3 DUP2 SLOAD DUP2 LT PUSH2 0x43E JUMPI PUSH2 0x43D PUSH2 0x172A JUMP JUMPDEST JUMPDEST SWAP1 PUSH0 MSTORE PUSH1 0x20 PUSH0 KECCAK256 SWAP1 PUSH1 0x6 MUL ADD PUSH1 0x5 ADD PUSH0 SWAP1 SLOAD SWAP1 PUSH2 0x100 EXP SWAP1 DIV PUSH1 0xFF AND ISZERO PUSH2 0x49A JUMPI PUSH1 0x40 MLOAD PUSH32 0x8C379A000000000000000000000000000000000000000000000000000000000 DUP2 MSTORE PUSH1 0x4 ADD PUSH2 0x491 SWAP1 PUSH2 0x182F JUMP JUMPDEST PUSH1 0x40 MLOAD DUP1 SWAP2 SUB SWAP1 REVERT JUMPDEST PUSH1 0x1 PUSH0 DUP4 DUP2 SLOAD DUP2 LT PUSH2 0x4AF JUMPI PUSH2 0x4AE PUSH2 0x172A JUMP JUMPDEST JUMPDEST SWAP1 PUSH0 MSTORE PUSH1 0x20 PUSH0 KECCAK256 SWAP1 PUSH1 0x6 MUL ADD PUSH1 0x5 ADD PUSH0 PUSH2 0x100 EXP DUP2 SLOAD DUP2 PUSH1 0xFF MUL NOT AND SWAP1 DUP4 ISZERO ISZERO MUL OR SWAP1 SSTORE POP CALLER PUSH20 0xFFFFFFFFFFFFFFFFFFFFFFFFFFFFFFFFFFFFFFFF AND PUSH32 0xF69C7EA3F71DAD86E17BA97A88B7E8F1708C0946BD98C7584E9942F60DA8728E DUP4 PUSH1 0x40 MLOAD PUSH2 0x51A SWAP2 SWAP1 PUSH2 0x129F JUMP JUMPDEST PUSH1 0x40 MLOAD DUP1 SWAP2 SUB SWAP1 LOG2 POP POP JUMP JUMPDEST PUSH0 PUSH1 0x60 DUP1 PUSH0 DUP1 PUSH0 DUP1 SLOAD SWAP1 POP DUP7 LT DUP1 ISZERO PUSH2 0x55F JUMPI POP DUP6 PUSH0 DUP8 DUP2 SLOAD DUP2 LT PUSH2 0x54E JUMPI PUSH2 0x54D PUSH2 0x172A JUMP JUMPDEST JUMPDEST SWAP1 PUSH0 MSTORE PUSH1 0x20 PUSH0 KECCAK256 SWAP1 PUSH1 0x6 MUL ADD PUSH0 ADD SLOAD EQ JUMPDEST PUSH2 0x59E JUMPI PUSH1 0x40 MLOAD PUSH32 0x8C379A000000000000000000000000000000000000000000000000000000000 DUP2 MSTORE PUSH1 0x4 ADD PUSH2 0x595 SWAP1 PUSH2 0x1897 JUMP JUMPDEST PUSH1 0x40 MLOAD DUP1 SWAP2 SUB SWAP1 REVERT JUMPDEST PUSH0 DUP1 DUP8 DUP2 SLOAD DUP2 LT PUSH2 0x5B2 JUMPI PUSH2 0x5B1 PUSH2 0x172A JUMP JUMPDEST JUMPDEST SWAP1 PUSH0 MSTORE PUSH1 0x20 PUSH0 KECCAK256 SWAP1 PUSH1 0x6 MUL ADD SWAP1 POP DUP1 PUSH0 ADD SLOAD DUP2 PUSH1 0x2 ADD DUP3 PUSH1 0x3 ADD DUP4 PUSH1 0x4 ADD SLOAD DUP5 PUSH1 0x5 ADD PUSH0 SWAP1 SLOAD SWAP1 PUSH2 0x100 EXP SWAP1 DIV PUSH1 0xFF AND DUP4 DUP1 SLOAD PUSH2 0x5EE SWAP1 PUSH2 0x13C9 JUMP JUMPDEST DUP1 PUSH1 0x1F ADD PUSH1 0x20 DUP1 SWAP2 DIV MUL PUSH1 0x20 ADD PUSH1 0x40 MLOAD SWAP1 DUP2 ADD PUSH1 0x40 MSTORE DUP1 SWAP3 SWAP2 SWAP1 DUP2 DUP2 MSTORE PUSH1 0x20 ADD DUP3 DUP1 SLOAD PUSH2 0x61A SWAP1 PUSH2 0x13C9 JUMP JUMPDEST DUP1 ISZERO PUSH2 0x665 JUMPI DUP1 PUSH1 0x1F LT PUSH2 0x63C JUMPI PUSH2 0x100 DUP1 DUP4 SLOAD DIV MUL DUP4 MSTORE SWAP2 PUSH1 0x20 ADD SWAP2 PUSH2 0x665 JUMP JUMPDEST DUP3 ADD SWAP2 SWAP1 PUSH0 MSTORE PUSH1 0x20 PUSH0 KECCAK256 SWAP1 JUMPDEST DUP2 SLOAD DUP2 MSTORE SWAP1 PUSH1 0x1 ADD SWAP1 PUSH1 0x20 ADD DUP1 DUP4 GT PUSH2 0x648 JUMPI DUP3 SWAP1 SUB PUSH1 0x1F AND DUP3 ADD SWAP2 JUMPDEST POP POP POP POP POP SWAP4 POP DUP3 DUP1 SLOAD PUSH2 0x678 SWAP1 PUSH2 0x13C9 JUMP JUMPDEST DUP1 PUSH1 0x1F ADD PUSH1 0x20 DUP1 SWAP2 DIV MUL PUSH1 0x20 ADD PUSH1 0x40 MLOAD SWAP1 DUP2 ADD PUSH1 0x40 MSTORE DUP1 SWAP3 SWAP2 SWAP1 DUP2 DUP2 MSTORE PUSH1 0x20 ADD DUP3 DUP1 SLOAD PUSH2 0x6A4 SWAP1 PUSH2 0x13C9 JUMP JUMPDEST DUP1 ISZERO PUSH2 0x6EF JUMPI DUP1 PUSH1 0x1F LT PUSH2 0x6C6 JUMPI PUSH2 0x100 DUP1 DUP4 SLOAD DIV MUL DUP4 MSTORE SWAP2 PUSH1 0x20 ADD SWAP2 PUSH2 0x6EF JUMP JUMPDEST DUP3 ADD SWAP2 SWAP1 PUSH0 MSTORE PUSH1 0x20 PUSH0 KECCAK256 SWAP1 JUMPDEST DUP2 SLOAD DUP2 MSTORE SWAP1 PUSH1 0x1 ADD SWAP1 PUSH1 0x20 ADD DUP1 DUP4 GT PUSH2 0x6D2 JUMPI DUP3 SWAP1 SUB PUSH1 0x1F AND DUP3 ADD SWAP2 JUMPDEST POP POP POP POP POP SWAP3 POP SWAP6 POP SWAP6 POP SWAP6 POP SWAP6 POP SWAP6 POP POP SWAP2 SWAP4 SWAP6 SWAP1 SWAP3 SWAP5 POP JUMP JUMPDEST PUSH1 0x60 PUSH0 DUP1 SLOAD DUP1 PUSH1 0x20 MUL PUSH1 0x20 ADD PUSH1 0x40 MLOAD SWAP1 DUP2 ADD PUSH1 0x40 MSTORE DUP1 SWAP3 SWAP2 SWAP1 DUP2 DUP2 MSTORE PUSH1 0x20 ADD PUSH0 SWAP1 JUMPDEST DUP3 DUP3 LT ISZERO PUSH2 0x8FE JUMPI DUP4 DUP3 SWAP1 PUSH0 MSTORE PUSH1 0x20 PUSH0 KECCAK256 SWAP1 PUSH1 0x6 MUL ADD PUSH1 0x40 MLOAD DUP1 PUSH1 0xC0 ADD PUSH1 0x40 MSTORE SWAP1 DUP2 PUSH0 DUP3 ADD SLOAD DUP2 MSTORE PUSH1 0x20 ADD PUSH1 0x1 DUP3 ADD PUSH0 SWAP1 SLOAD SWAP1 PUSH2 0x100 EXP SWAP1 DIV PUSH20 0xFFFFFFFFFFFFFFFFFFFFFFFFFFFFFFFFFFFFFFFF AND PUSH20 0xFFFFFFFFFFFFFFFFFFFFFFFFFFFFFFFFFFFFFFFF AND PUSH20 0xFFFFFFFFFFFFFFFFFFFFFFFFFFFFFFFFFFFFFFFF AND DUP2 MSTORE PUSH1 0x20 ADD PUSH1 0x2 DUP3 ADD DUP1 SLOAD PUSH2 0x7BB SWAP1 PUSH2 0x13C9 JUMP JUMPDEST DUP1 PUSH1 0x1F ADD PUSH1 0x20 DUP1 SWAP2 DIV MUL PUSH1 0x20 ADD PUSH1 0x40 MLOAD SWAP1 DUP2 ADD PUSH1 0x40 MSTORE DUP1 SWAP3 SWAP2 SWAP1 DUP2 DUP2 MSTORE PUSH1 0x20 ADD DUP3 DUP1 SLOAD PUSH2 0x7E7 SWAP1 PUSH2 0x13C9 JUMP JUMPDEST DUP1 ISZERO PUSH2 0x832 JUMPI DUP1 PUSH1 0x1F LT PUSH2 0x809 JUMPI PUSH2 0x100 DUP1 DUP4 SLOAD DIV MUL DUP4 MSTORE SWAP2 PUSH1 0x20 ADD SWAP2 PUSH2 0x832 JUMP JUMPDEST DUP3 ADD SWAP2 SWAP1 PUSH0 MSTORE PUSH1 0x20 PUSH0 KECCAK256 SWAP1 JUMPDEST DUP2 SLOAD DUP2 MSTORE SWAP1 PUSH1 0x1 ADD SWAP1 PUSH1 0x20 ADD DUP1 DUP4 GT PUSH2 0x815 JUMPI DUP3 SWAP1 SUB PUSH1 0x1F AND DUP3 ADD SWAP2 JUMPDEST POP POP POP POP POP DUP2 MSTORE PUSH1 0x20 ADD PUSH1 0x3 DUP3 ADD DUP1 SLOAD PUSH2 0x84B SWAP1 PUSH2 0x13C9 JUMP JUMPDEST DUP1 PUSH1 0x1F ADD PUSH1 0x20 DUP1 SWAP2 DIV MUL PUSH1 0x20 ADD PUSH1 0x40 MLOAD SWAP1 DUP2 ADD PUSH1 0x40 MSTORE DUP1 SWAP3 SWAP2 SWAP1 DUP2 DUP2 MSTORE PUSH1 0x20 ADD DUP3 DUP1 SLOAD PUSH2 0x877 SWAP1 PUSH2 0x13C9 JUMP JUMPDEST DUP1 ISZERO PUSH2 0x8C2 JUMPI DUP1 PUSH1 0x1F LT PUSH2 0x899 JUMPI PUSH2 0x100 DUP1 DUP4 SLOAD DIV MUL DUP4 MSTORE SWAP2 PUSH1 0x20 ADD SWAP2 PUSH2 0x8C2 JUMP JUMPDEST DUP3 ADD SWAP2 SWAP1 PUSH0 MSTORE PUSH1 0x20 PUSH0 KECCAK256 SWAP1 JUMPDEST DUP2 SLOAD DUP2 MSTORE SWAP1 PUSH1 0x1 ADD SWAP1 PUSH1 0x20 ADD DUP1 DUP4 GT PUSH2 0x8A5 JUMPI DUP3 SWAP1 SUB PUSH1 0x1F AND DUP3 ADD SWAP2 JUMPDEST POP POP POP POP POP DUP2 MSTORE PUSH1 0x20 ADD PUSH1 0x4 DUP3 ADD SLOAD DUP2 MSTORE PUSH1 0x20 ADD PUSH1 0x5 DUP3 ADD PUSH0 SWAP1 SLOAD SWAP1 PUSH2 0x100 EXP SWAP1 DIV PUSH1 0xFF AND ISZERO ISZERO ISZERO ISZERO DUP2 MSTORE POP POP DUP2 MSTORE PUSH1 0x20 ADD SWAP1 PUSH1 0x1 ADD SWAP1 PUSH2 0x72C JUMP JUMPDEST POP POP POP POP SWAP1 POP SWAP1 JUMP JUMPDEST PUSH1 0x1 SLOAD DUP2 JUMP JUMPDEST PUSH0 DUP2 DUP2 SLOAD DUP2 LT PUSH2 0x91B JUMPI PUSH0 DUP1 REVERT JUMPDEST SWAP1 PUSH0 MSTORE PUSH1 0x20 PUSH0 KECCAK256 SWAP1 PUSH1 0x6 MUL ADD PUSH0 SWAP2 POP SWAP1 POP DUP1 PUSH0 ADD SLOAD SWAP1 DUP1 PUSH1 0x1 ADD PUSH0 SWAP1 SLOAD SWAP1 PUSH2 0x100 EXP SWAP1 DIV PUSH20 0xFFFFFFFFFFFFFFFFFFFFFFFFFFFFFFFFFFFFFFFF AND SWAP1 DUP1 PUSH1 0x2 ADD DUP1 SLOAD PUSH2 0x965 SWAP1 PUSH2 0x13C9 JUMP JUMPDEST DUP1 PUSH1 0x1F ADD PUSH1 0x20 DUP1 SWAP2 DIV MUL PUSH1 0x20 ADD PUSH1 0x40 MLOAD SWAP1 DUP2 ADD PUSH1 0x40 MSTORE DUP1 SWAP3 SWAP2 SWAP1 DUP2 DUP2 MSTORE PUSH1 0x20 ADD DUP3 DUP1 SLOAD PUSH2 0x991 SWAP1 PUSH2 0x13C9 JUMP JUMPDEST DUP1 ISZERO PUSH2 0x9DC JUMPI DUP1 PUSH1 0x1F LT PUSH2 0x9B3 JUMPI PUSH2 0x100 DUP1 DUP4 SLOAD DIV MUL DUP4 MSTORE SWAP2 PUSH1 0x20 ADD SWAP2 PUSH2 0x9DC JUMP JUMPDEST DUP3 ADD SWAP2 SWAP1 PUSH0 MSTORE PUSH1 0x20 PUSH0 KECCAK256 SWAP1 JUMPDEST DUP2 SLOAD DUP2 MSTORE SWAP1 PUSH1 0x1 ADD SWAP1 PUSH1 0x20 ADD DUP1 DUP4 GT PUSH2 0x9BF JUMPI DUP3 SWAP1 SUB PUSH1 0x1F AND DUP3 ADD SWAP2 JUMPDEST POP POP POP POP POP SWAP1 DUP1 PUSH1 0x3 ADD DUP1 SLOAD PUSH2 0x9F1 SWAP1 PUSH2 0x13C9 JUMP JUMPDEST DUP1 PUSH1 0x1F ADD PUSH1 0x20 DUP1 SWAP2 DIV MUL PUSH1 0x20 ADD PUSH1 0x40 MLOAD SWAP1 DUP2 ADD PUSH1 0x40 MSTORE DUP1 SWAP3 SWAP2 SWAP1 DUP2 DUP2 MSTORE PUSH1 0x20 ADD DUP3 DUP1 SLOAD PUSH2 0xA1D SWAP1 PUSH2 0x13C9 JUMP JUMPDEST DUP1 ISZERO PUSH2 0xA68 JUMPI DUP1 PUSH1 0x1F LT PUSH2 0xA3F JUMPI PUSH2 0x100 DUP1 DUP4 SLOAD DIV MUL DUP4 MSTORE SWAP2 PUSH1 0x20 ADD SWAP2 PUSH2 0xA68 JUMP JUMPDEST DUP3 ADD SWAP2 SWAP1 PUSH0 MSTORE PUSH1 0x20 PUSH0 KECCAK256 SWAP1 JUMPDEST DUP2 SLOAD DUP2 MSTORE SWAP1 PUSH1 0x1 ADD SWAP1 PUSH1 0x20 ADD DUP1 DUP4 GT PUSH2 0xA4B JUMPI DUP3 SWAP1 SUB PUSH1 0x1F AND DUP3 ADD SWAP2 JUMPDEST POP POP POP POP POP SWAP1 DUP1 PUSH1 0x4 ADD SLOAD SWAP1 DUP1 PUSH1 0x5 ADD PUSH0 SWAP1 SLOAD SWAP1 PUSH2 0x100 EXP SWAP1 DIV PUSH1 0xFF AND SWAP1 POP DUP7 JUMP JUMPDEST PUSH1 0x2 PUSH0 SWAP1 SLOAD SWAP1 PUSH2 0x100 EXP SWAP1 DIV PUSH1 0xFF AND ISZERO PUSH2 0xAD9 JUMPI PUSH1 0x40 MLOAD PUSH32 0x8C379A000000000000000000000000000000000000000000000000000000000 DUP2 MSTORE PUSH1 0x4 ADD PUSH2 0xAD0 SWAP1 PUSH2 0x18FF JUMP JUMPDEST PUSH1 0x40 MLOAD DUP1 SWAP2 SUB SWAP1 REVERT JUMPDEST PUSH1 0x1 PUSH1 0x2 PUSH0 PUSH2 0x100 EXP DUP2 SLOAD DUP2 PUSH1 0xFF MUL NOT AND SWAP1 DUP4 ISZERO ISZERO MUL OR SWAP1 SSTORE POP PUSH0 DUP1 SLOAD SWAP1 POP DUP2 LT DUP1 ISZERO PUSH2 0xB26 JUMPI POP DUP1 PUSH0 DUP3 DUP2 SLOAD DUP2 LT PUSH2 0xB15 JUMPI PUSH2 0xB14 PUSH2 0x172A JUMP JUMPDEST JUMPDEST SWAP1 PUSH0 MSTORE PUSH1 0x20 PUSH0 KECCAK256 SWAP1 PUSH1 0x6 MUL ADD PUSH0 ADD SLOAD EQ JUMPDEST PUSH2 0xB65 JUMPI PUSH1 0x40 MLOAD PUSH32 0x8C379A000000000000000000000000000000000000000000000000000000000 DUP2 MSTORE PUSH1 0x4 ADD PUSH2 0xB5C SWAP1 PUSH2 0x1897 JUMP JUMPDEST PUSH1 0x40 MLOAD DUP1 SWAP2 SUB SWAP1 REVERT JUMPDEST PUSH0 DUP1 DUP3 DUP2 SLOAD DUP2 LT PUSH2 0xB79 JUMPI PUSH2 0xB78 PUSH2 0x172A JUMP JUMPDEST JUMPDEST SWAP1 PUSH0 MSTORE PUSH1 0x20 PUSH0 KECCAK256 SWAP1 PUSH1 0x6 MUL ADD SWAP1 POP DUP1 PUSH1 0x5 ADD PUSH0 SWAP1 SLOAD SWAP1 PUSH2 0x100 EXP SWAP1 DIV PUSH1 0xFF AND ISZERO PUSH2 0xBD8 JUMPI PUSH1 0x40 MLOAD PUSH32 0x8C379A000000000000000000000000000000000000000000000000000000000 DUP2 MSTORE PUSH1 0x4 ADD PUSH2 0xBCF SWAP1 PUSH2 0x1967 JUMP JUMPDEST PUSH1 0x40 MLOAD DUP1 SWAP2 SUB SWAP1 REVERT JUMPDEST DUP1 PUSH1 0x4 ADD SLOAD CALLVALUE LT ISZERO PUSH2 0xC1F JUMPI PUSH1 0x40 MLOAD PUSH32 0x8C379A000000000000000000000000000000000000000000000000000000000 DUP2 MSTORE PUSH1 0x4 ADD PUSH2 0xC16 SWAP1 PUSH2 0x19CF JUMP JUMPDEST PUSH1 0x40 MLOAD DUP1 SWAP2 SUB SWAP1 REVERT JUMPDEST DUP1 PUSH1 0x1 ADD PUSH0 SWAP1 SLOAD SWAP1 PUSH2 0x100 EXP SWAP1 DIV PUSH20 0xFFFFFFFFFFFFFFFFFFFFFFFFFFFFFFFFFFFFFFFF AND PUSH20 0xFFFFFFFFFFFFFFFFFFFFFFFFFFFFFFFFFFFFFFFF AND PUSH2 0x8FC DUP3 PUSH1 0x4 ADD SLOAD SWAP1 DUP2 ISZERO MUL SWAP1 PUSH1 0x40 MLOAD PUSH0 PUSH1 0x40 MLOAD DUP1 DUP4 SUB DUP2 DUP6 DUP9 DUP9 CALL SWAP4 POP POP POP POP ISZERO DUP1 ISZERO PUSH2 0xC89 JUMPI RETURNDATASIZE PUSH0 DUP1 RETURNDATACOPY RETURNDATASIZE PUSH0 REVERT JUMPDEST POP PUSH1 0x1 DUP2 PUSH1 0x5 ADD PUSH0 PUSH2 0x100 EXP DUP2 SLOAD DUP2 PUSH1 0xFF MUL NOT AND SWAP1 DUP4 ISZERO ISZERO MUL OR SWAP1 SSTORE POP DUP1 PUSH1 0x4 ADD SLOAD CALLVALUE GT ISZERO PUSH2 0xD06 JUMPI CALLER PUSH20 0xFFFFFFFFFFFFFFFFFFFFFFFFFFFFFFFFFFFFFFFF AND PUSH2 0x8FC DUP3 PUSH1 0x4 ADD SLOAD CALLVALUE PUSH2 0xCDC SWAP2 SWAP1 PUSH2 0x19ED JUMP JUMPDEST SWAP1 DUP2 ISZERO MUL SWAP1 PUSH1 0x40 MLOAD PUSH0 PUSH1 0x40 MLOAD DUP1 DUP4 SUB DUP2 DUP6 DUP9 DUP9 CALL SWAP4 POP POP POP POP ISZERO DUP1 ISZERO PUSH2 0xD04 JUMPI RETURNDATASIZE PUSH0 DUP1 RETURNDATACOPY RETURNDATASIZE PUSH0 REVERT JUMPDEST POP JUMPDEST CALLER PUSH20 0xFFFFFFFFFFFFFFFFFFFFFFFFFFFFFFFFFFFFFFFF AND PUSH32 0x78A0660BBDA86D17037943644187F6F1F73F2F20A3240BF4CF4A56C2A96BCF84 DUP4 DUP4 PUSH1 0x4 ADD SLOAD PUSH1 0x40 MLOAD PUSH2 0xD52 SWAP3 SWAP2 SWAP1 PUSH2 0x1A20 JUMP JUMPDEST PUSH1 0x40 MLOAD DUP1 SWAP2 SUB SWAP1 LOG2 POP PUSH0 PUSH1 0x2 PUSH0 PUSH2 0x100 EXP DUP2 SLOAD DUP2 PUSH1 0xFF MUL NOT AND SWAP1 DUP4 ISZERO ISZERO MUL OR SWAP1 SSTORE POP POP JUMP JUMPDEST PUSH0 PUSH1 0x40 MLOAD SWAP1 POP SWAP1 JUMP JUMPDEST PUSH0 DUP1 REVERT JUMPDEST PUSH0 DUP1 REVERT JUMPDEST PUSH0 DUP1 REVERT JUMPDEST PUSH0 DUP1 REVERT JUMPDEST PUSH0 PUSH1 0x1F NOT PUSH1 0x1F DUP4 ADD AND SWAP1 POP SWAP2 SWAP1 POP JUMP JUMPDEST PUSH32 0x4E487B7100000000000000000000000000000000000000000000000000000000 PUSH0 MSTORE PUSH1 0x41 PUSH1 0x4 MSTORE PUSH1 0x24 PUSH0 REVERT JUMPDEST PUSH2 0xDD6 DUP3 PUSH2 0xD90 JUMP JUMPDEST DUP2 ADD DUP2 DUP2 LT PUSH8 0xFFFFFFFFFFFFFFFF DUP3 GT OR ISZERO PUSH2 0xDF5 JUMPI PUSH2 0xDF4 PUSH2 0xDA0 JUMP JUMPDEST JUMPDEST DUP1 PUSH1 0x40 MSTORE POP POP POP JUMP JUMPDEST PUSH0 PUSH2 0xE07 PUSH2 0xD77 JUMP JUMPDEST SWAP1 POP PUSH2 0xE13 DUP3 DUP3 PUSH2 0xDCD JUMP JUMPDEST SWAP2 SWAP1 POP JUMP JUMPDEST PUSH0 PUSH8 0xFFFFFFFFFFFFFFFF DUP3 GT ISZERO PUSH2 0xE32 JUMPI PUSH2 0xE31 PUSH2 0xDA0 JUMP JUMPDEST JUMPDEST PUSH2 0xE3B DUP3 PUSH2 0xD90 JUMP JUMPDEST SWAP1 POP PUSH1 0x20 DUP2 ADD SWAP1 POP SWAP2 SWAP1 POP JUMP JUMPDEST DUP3 DUP2 DUP4 CALLDATACOPY PUSH0 DUP4 DUP4 ADD MSTORE POP POP POP JUMP JUMPDEST PUSH0 PUSH2 0xE68 PUSH2 0xE63 DUP5 PUSH2 0xE18 JUMP JUMPDEST PUSH2 0xDFE JUMP JUMPDEST SWAP1 POP DUP3 DUP2 MSTORE PUSH1 0x20 DUP2 ADD DUP5 DUP5 DUP5 ADD GT ISZERO PUSH2 0xE84 JUMPI PUSH2 0xE83 PUSH2 0xD8C JUMP JUMPDEST JUMPDEST PUSH2 0xE8F DUP5 DUP3 DUP6 PUSH2 0xE48 JUMP JUMPDEST POP SWAP4 SWAP3 POP POP POP JUMP JUMPDEST PUSH0 DUP3 PUSH1 0x1F DUP4 ADD SLT PUSH2 0xEAB JUMPI PUSH2 0xEAA PUSH2 0xD88 JUMP JUMPDEST JUMPDEST DUP2 CALLDATALOAD PUSH2 0xEBB DUP5 DUP3 PUSH1 0x20 DUP7 ADD PUSH2 0xE56 JUMP JUMPDEST SWAP2 POP POP SWAP3 SWAP2 POP POP JUMP JUMPDEST PUSH0 DUP2 SWAP1 POP SWAP2 SWAP1 POP JUMP JUMPDEST PUSH2 0xED6 DUP2 PUSH2 0xEC4 JUMP JUMPDEST DUP2 EQ PUSH2 0xEE0 JUMPI PUSH0 DUP1 REVERT JUMPDEST POP JUMP JUMPDEST PUSH0 DUP2 CALLDATALOAD SWAP1 POP PUSH2 0xEF1 DUP2 PUSH2 0xECD JUMP JUMPDEST SWAP3 SWAP2 POP POP JUMP JUMPDEST PUSH0 DUP1 PUSH0 PUSH1 0x60 DUP5 DUP7 SUB SLT ISZERO PUSH2 0xF0E JUMPI PUSH2 0xF0D PUSH2 0xD80 JUMP JUMPDEST JUMPDEST PUSH0 DUP5 ADD CALLDATALOAD PUSH8 0xFFFFFFFFFFFFFFFF DUP2 GT ISZERO PUSH2 0xF2B JUMPI PUSH2 0xF2A PUSH2 0xD84 JUMP JUMPDEST JUMPDEST PUSH2 0xF37 DUP7 DUP3 DUP8 ADD PUSH2 0xE97 JUMP JUMPDEST SWAP4 POP POP PUSH1 0x20 DUP5 ADD CALLDATALOAD PUSH8 0xFFFFFFFFFFFFFFFF DUP2 GT ISZERO PUSH2 0xF58 JUMPI PUSH2 0xF57 PUSH2 0xD84 JUMP JUMPDEST JUMPDEST PUSH2 0xF64 DUP7 DUP3 DUP8 ADD PUSH2 0xE97 JUMP JUMPDEST SWAP3 POP POP PUSH1 0x40 PUSH2 0xF75 DUP7 DUP3 DUP8 ADD PUSH2 0xEE3 JUMP JUMPDEST SWAP2 POP POP SWAP3 POP SWAP3 POP SWAP3 JUMP JUMPDEST PUSH0 PUSH1 0x20 DUP3 DUP5 SUB SLT ISZERO PUSH2 0xF94 JUMPI PUSH2 0xF93 PUSH2 0xD80 JUMP JUMPDEST JUMPDEST PUSH0 PUSH2 0xFA1 DUP5 DUP3 DUP6 ADD PUSH2 0xEE3 JUMP JUMPDEST SWAP2 POP POP SWAP3 SWAP2 POP POP JUMP JUMPDEST PUSH2 0xFB3 DUP2 PUSH2 0xEC4 JUMP JUMPDEST DUP3 MSTORE POP POP JUMP JUMPDEST PUSH0 DUP2 MLOAD SWAP1 POP SWAP2 SWAP1 POP JUMP JUMPDEST PUSH0 DUP3 DUP3 MSTORE PUSH1 0x20 DUP3 ADD SWAP1 POP SWAP3 SWAP2 POP POP JUMP JUMPDEST DUP3 DUP2 DUP4 MCOPY PUSH0 DUP4 DUP4 ADD MSTORE POP POP POP JUMP JUMPDEST PUSH0 PUSH2 0xFEB DUP3 PUSH2 0xFB9 JUMP JUMPDEST PUSH2 0xFF5 DUP2 DUP6 PUSH2 0xFC3 JUMP JUMPDEST SWAP4 POP PUSH2 0x1005 DUP2 DUP6 PUSH1 0x20 DUP7 ADD PUSH2 0xFD3 JUMP JUMPDEST PUSH2 0x100E DUP2 PUSH2 0xD90 JUMP JUMPDEST DUP5 ADD SWAP2 POP POP SWAP3 SWAP2 POP POP JUMP JUMPDEST PUSH0 DUP2 ISZERO ISZERO SWAP1 POP SWAP2 SWAP1 POP JUMP JUMPDEST PUSH2 0x102D DUP2 PUSH2 0x1019 JUMP JUMPDEST DUP3 MSTORE POP POP JUMP JUMPDEST PUSH0 PUSH1 0xA0 DUP3 ADD SWAP1 POP PUSH2 0x1046 PUSH0 DUP4 ADD DUP9 PUSH2 0xFAA JUMP JUMPDEST DUP2 DUP2 SUB PUSH1 0x20 DUP4 ADD MSTORE PUSH2 0x1058 DUP2 DUP8 PUSH2 0xFE1 JUMP JUMPDEST SWAP1 POP DUP2 DUP2 SUB PUSH1 0x40 DUP4 ADD MSTORE PUSH2 0x106C DUP2 DUP7 PUSH2 0xFE1 JUMP JUMPDEST SWAP1 POP PUSH2 0x107B PUSH1 0x60 DUP4 ADD DUP6 PUSH2 0xFAA JUMP JUMPDEST PUSH2 0x1088 PUSH1 0x80 DUP4 ADD DUP5 PUSH2 0x1024 JUMP JUMPDEST SWAP7 SWAP6 POP POP POP POP POP POP JUMP JUMPDEST PUSH0 DUP2 MLOAD SWAP1 POP SWAP2 SWAP1 POP JUMP JUMPDEST PUSH0 DUP3 DUP3 MSTORE PUSH1 0x20 DUP3 ADD SWAP1 POP SWAP3 SWAP2 POP POP JUMP JUMPDEST PUSH0 DUP2 SWAP1 POP PUSH1 0x20 DUP3 ADD SWAP1 POP SWAP2 SWAP1 POP JUMP JUMPDEST PUSH2 0x10C4 DUP2 PUSH2 0xEC4 JUMP JUMPDEST DUP3 MSTORE POP POP JUMP JUMPDEST PUSH0 PUSH20 0xFFFFFFFFFFFFFFFFFFFFFFFFFFFFFFFFFFFFFFFF DUP3 AND SWAP1 POP SWAP2 SWAP1 POP JUMP JUMPDEST PUSH0 PUSH2 0x10F3 DUP3 PUSH2 0x10CA JUMP JUMPDEST SWAP1 POP SWAP2 SWAP1 POP JUMP JUMPDEST PUSH2 0x1103 DUP2 PUSH2 0x10E9 JUMP JUMPDEST DUP3 MSTORE POP POP JUMP JUMPDEST PUSH0 DUP3 DUP3 MSTORE PUSH1 0x20 DUP3 ADD SWAP1 POP SWAP3 SWAP2 POP POP JUMP JUMPDEST PUSH0 PUSH2 0x1123 DUP3 PUSH2 0xFB9 JUMP JUMPDEST PUSH2 0x112D DUP2 DUP6 PUSH2 0x1109 JUMP JUMPDEST SWAP4 POP PUSH2 0x113D DUP2 DUP6 PUSH1 0x20 DUP7 ADD PUSH2 0xFD3 JUMP JUMPDEST PUSH2 0x1146 DUP2 PUSH2 0xD90 JUMP JUMPDEST DUP5 ADD SWAP2 POP POP SWAP3 SWAP2 POP POP JUMP JUMPDEST PUSH2 0x115A DUP2 PUSH2 0x1019 JUMP JUMPDEST DUP3 MSTORE POP POP JUMP JUMPDEST PUSH0 PUSH1 0xC0 DUP4 ADD PUSH0 DUP4 ADD MLOAD PUSH2 0x1175 PUSH0 DUP7 ADD DUP3 PUSH2 0x10BB JUMP JUMPDEST POP PUSH1 0x20 DUP4 ADD MLOAD PUSH2 0x1188 PUSH1 0x20 DUP7 ADD DUP3 PUSH2 0x10FA JUMP JUMPDEST POP PUSH1 0x40 DUP4 ADD MLOAD DUP5 DUP3 SUB PUSH1 0x40 DUP7 ADD MSTORE PUSH2 0x11A0 DUP3 DUP3 PUSH2 0x1119 JUMP JUMPDEST SWAP2 POP POP PUSH1 0x60 DUP4 ADD MLOAD DUP5 DUP3 SUB PUSH1 0x60 DUP7 ADD MSTORE PUSH2 0x11BA DUP3 DUP3 PUSH2 0x1119 JUMP JUMPDEST SWAP2 POP POP PUSH1 0x80 DUP4 ADD MLOAD PUSH2 0x11CF PUSH1 0x80 DUP7 ADD DUP3 PUSH2 0x10BB JUMP JUMPDEST POP PUSH1 0xA0 DUP4 ADD MLOAD PUSH2 0x11E2 PUSH1 0xA0 DUP7 ADD DUP3 PUSH2 0x1151 JUMP JUMPDEST POP DUP1 SWAP2 POP POP SWAP3 SWAP2 POP POP JUMP JUMPDEST PUSH0 PUSH2 0x11F8 DUP4 DUP4 PUSH2 0x1160 JUMP JUMPDEST SWAP1 POP SWAP3 SWAP2 POP POP JUMP JUMPDEST PUSH0 PUSH1 0x20 DUP3 ADD SWAP1 POP SWAP2 SWAP1 POP JUMP JUMPDEST PUSH0 PUSH2 0x1216 DUP3 PUSH2 0x1092 JUMP JUMPDEST PUSH2 0x1220 DUP2 DUP6 PUSH2 0x109C JUMP JUMPDEST SWAP4 POP DUP4 PUSH1 0x20 DUP3 MUL DUP6 ADD PUSH2 0x1232 DUP6 PUSH2 0x10AC JUMP JUMPDEST DUP1 PUSH0 JUMPDEST DUP6 DUP2 LT ISZERO PUSH2 0x126D JUMPI DUP5 DUP5 SUB DUP10 MSTORE DUP2 MLOAD PUSH2 0x124E DUP6 DUP3 PUSH2 0x11ED JUMP JUMPDEST SWAP5 POP PUSH2 0x1259 DUP4 PUSH2 0x1200 JUMP JUMPDEST SWAP3 POP PUSH1 0x20 DUP11 ADD SWAP10 POP POP PUSH1 0x1 DUP2 ADD SWAP1 POP PUSH2 0x1235 JUMP JUMPDEST POP DUP3 SWAP8 POP DUP8 SWAP6 POP POP POP POP POP POP SWAP3 SWAP2 POP POP JUMP JUMPDEST PUSH0 PUSH1 0x20 DUP3 ADD SWAP1 POP DUP2 DUP2 SUB PUSH0 DUP4 ADD MSTORE PUSH2 0x1297 DUP2 DUP5 PUSH2 0x120C JUMP JUMPDEST SWAP1 POP SWAP3 SWAP2 POP POP JUMP JUMPDEST PUSH0 PUSH1 0x20 DUP3 ADD SWAP1 POP PUSH2 0x12B2 PUSH0 DUP4 ADD DUP5 PUSH2 0xFAA JUMP JUMPDEST SWAP3 SWAP2 POP POP JUMP JUMPDEST PUSH2 0x12C1 DUP2 PUSH2 0x10E9 JUMP JUMPDEST DUP3 MSTORE POP POP JUMP JUMPDEST PUSH0 PUSH1 0xC0 DUP3 ADD SWAP1 POP PUSH2 0x12DA PUSH0 DUP4 ADD DUP10 PUSH2 0xFAA JUMP JUMPDEST PUSH2 0x12E7 PUSH1 0x20 DUP4 ADD DUP9 PUSH2 0x12B8 JUMP JUMPDEST DUP2 DUP2 SUB PUSH1 0x40 DUP4 ADD MSTORE PUSH2 0x12F9 DUP2 DUP8 PUSH2 0xFE1 JUMP JUMPDEST SWAP1 POP DUP2 DUP2 SUB PUSH1 0x60 DUP4 ADD MSTORE PUSH2 0x130D DUP2 DUP7 PUSH2 0xFE1 JUMP JUMPDEST SWAP1 POP PUSH2 0x131C PUSH1 0x80 DUP4 ADD DUP6 PUSH2 0xFAA JUMP JUMPDEST PUSH2 0x1329 PUSH1 0xA0 DUP4 ADD DUP5 PUSH2 0x1024 JUMP JUMPDEST SWAP8 SWAP7 POP POP POP POP POP POP POP JUMP JUMPDEST PUSH32 0x5072696365206D7573742062652067726561746572207468616E207A65726F00 PUSH0 DUP3 ADD MSTORE POP JUMP JUMPDEST PUSH0 PUSH2 0x1368 PUSH1 0x1F DUP4 PUSH2 0xFC3 JUMP JUMPDEST SWAP2 POP PUSH2 0x1373 DUP3 PUSH2 0x1334 JUMP JUMPDEST PUSH1 0x20 DUP3 ADD SWAP1 POP SWAP2 SWAP1 POP JUMP JUMPDEST PUSH0 PUSH1 0x20 DUP3 ADD SWAP1 POP DUP2 DUP2 SUB PUSH0 DUP4 ADD MSTORE PUSH2 0x1395 DUP2 PUSH2 0x135C JUMP JUMPDEST SWAP1 POP SWAP2 SWAP1 POP JUMP JUMPDEST PUSH32 0x4E487B7100000000000000000000000000000000000000000000000000000000 PUSH0 MSTORE PUSH1 0x22 PUSH1 0x4 MSTORE PUSH1 0x24 PUSH0 REVERT JUMPDEST PUSH0 PUSH1 0x2 DUP3 DIV SWAP1 POP PUSH1 0x1 DUP3 AND DUP1 PUSH2 0x13E0 JUMPI PUSH1 0x7F DUP3 AND SWAP2 POP JUMPDEST PUSH1 0x20 DUP3 LT DUP2 SUB PUSH2 0x13F3 JUMPI PUSH2 0x13F2 PUSH2 0x139C JUMP JUMPDEST JUMPDEST POP SWAP2 SWAP1 POP JUMP JUMPDEST PUSH0 DUP2 SWAP1 POP DUP2 PUSH0 MSTORE PUSH1 0x20 PUSH0 KECCAK256 SWAP1 POP SWAP2 SWAP1 POP JUMP JUMPDEST PUSH0 PUSH1 0x20 PUSH1 0x1F DUP4 ADD DIV SWAP1 POP SWAP2 SWAP1 POP JUMP JUMPDEST PUSH0 DUP3 DUP3 SHL SWAP1 POP SWAP3 SWAP2 POP POP JUMP JUMPDEST PUSH0 PUSH1 0x8 DUP4 MUL PUSH2 0x1455 PUSH32 0xFFFFFFFFFFFFFFFFFFFFFFFFFFFFFFFFFFFFFFFFFFFFFFFFFFFFFFFFFFFFFFFF DUP3 PUSH2 0x141A JUMP JUMPDEST PUSH2 0x145F DUP7 DUP4 PUSH2 0x141A JUMP JUMPDEST SWAP6 POP DUP1 NOT DUP5 AND SWAP4 POP DUP1 DUP7 AND DUP5 OR SWAP3 POP POP POP SWAP4 SWAP3 POP POP POP JUMP JUMPDEST PUSH0 DUP2 SWAP1 POP SWAP2 SWAP1 POP JUMP JUMPDEST PUSH0 PUSH2 0x149A PUSH2 0x1495 PUSH2 0x1490 DUP5 PUSH2 0xEC4 JUMP JUMPDEST PUSH2 0x1477 JUMP JUMPDEST PUSH2 0xEC4 JUMP JUMPDEST SWAP1 POP SWAP2 SWAP1 POP JUMP JUMPDEST PUSH0 DUP2 SWAP1 POP SWAP2 SWAP1 POP JUMP JUMPDEST PUSH2 0x14B3 DUP4 PUSH2 0x1480 JUMP JUMPDEST PUSH2 0x14C7 PUSH2 0x14BF DUP3 PUSH2 0x14A1 JUMP JUMPDEST DUP5 DUP5 SLOAD PUSH2 0x1426 JUMP JUMPDEST DUP3 SSTORE POP POP POP POP JUMP JUMPDEST PUSH0 SWAP1 JUMP JUMPDEST PUSH2 0x14DB PUSH2 0x14CF JUMP JUMPDEST PUSH2 0x14E6 DUP2 DUP5 DUP5 PUSH2 0x14AA JUMP JUMPDEST POP POP POP JUMP JUMPDEST JUMPDEST DUP2 DUP2 LT ISZERO PUSH2 0x1509 JUMPI PUSH2 0x14FE PUSH0 DUP3 PUSH2 0x14D3 JUMP JUMPDEST PUSH1 0x1 DUP2 ADD SWAP1 POP PUSH2 0x14EC JUMP JUMPDEST POP POP JUMP JUMPDEST PUSH1 0x1F DUP3 GT ISZERO PUSH2 0x154E JUMPI PUSH2 0x151F DUP2 PUSH2 0x13F9 JUMP JUMPDEST PUSH2 0x1528 DUP5 PUSH2 0x140B JUMP JUMPDEST DUP2 ADD PUSH1 0x20 DUP6 LT ISZERO PUSH2 0x1537 JUMPI DUP2 SWAP1 POP JUMPDEST PUSH2 0x154B PUSH2 0x1543 DUP6 PUSH2 0x140B JUMP JUMPDEST DUP4 ADD DUP3 PUSH2 0x14EB JUMP JUMPDEST POP POP JUMPDEST POP POP POP JUMP JUMPDEST PUSH0 DUP3 DUP3 SHR SWAP1 POP SWAP3 SWAP2 POP POP JUMP JUMPDEST PUSH0 PUSH2 0x156E PUSH0 NOT DUP5 PUSH1 0x8 MUL PUSH2 0x1553 JUMP JUMPDEST NOT DUP1 DUP4 AND SWAP2 POP POP SWAP3 SWAP2 POP POP JUMP JUMPDEST PUSH0 PUSH2 0x1586 DUP4 DUP4 PUSH2 0x155F JUMP JUMPDEST SWAP2 POP DUP3 PUSH1 0x2 MUL DUP3 OR SWAP1 POP SWAP3 SWAP2 POP POP JUMP JUMPDEST PUSH2 0x159F DUP3 PUSH2 0xFB9 JUMP JUMPDEST PUSH8 0xFFFFFFFFFFFFFFFF DUP2 GT ISZERO PUSH2 0x15B8 JUMPI PUSH2 0x15B7 PUSH2 0xDA0 JUMP JUMPDEST JUMPDEST PUSH2 0x15C2 DUP3 SLOAD PUSH2 0x13C9 JUMP JUMPDEST PUSH2 0x15CD DUP3 DUP3 DUP6 PUSH2 0x150D JUMP JUMPDEST PUSH0 PUSH1 0x20 SWAP1 POP PUSH1 0x1F DUP4 GT PUSH1 0x1 DUP2 EQ PUSH2 0x15FE JUMPI PUSH0 DUP5 ISZERO PUSH2 0x15EC JUMPI DUP3 DUP8 ADD MLOAD SWAP1 POP JUMPDEST PUSH2 0x15F6 DUP6 DUP3 PUSH2 0x157B JUMP JUMPDEST DUP7 SSTORE POP PUSH2 0x165D JUMP JUMPDEST PUSH1 0x1F NOT DUP5 AND PUSH2 0x160C DUP7 PUSH2 0x13F9 JUMP JUMPDEST PUSH0 JUMPDEST DUP3 DUP2 LT ISZERO PUSH2 0x1633 JUMPI DUP5 DUP10 ADD MLOAD DUP3 SSTORE PUSH1 0x1 DUP3 ADD SWAP2 POP PUSH1 0x20 DUP6 ADD SWAP5 POP PUSH1 0x20 DUP2 ADD SWAP1 POP PUSH2 0x160E JUMP JUMPDEST DUP7 DUP4 LT ISZERO PUSH2 0x1650 JUMPI DUP5 DUP10 ADD MLOAD PUSH2 0x164C PUSH1 0x1F DUP10 AND DUP3 PUSH2 0x155F JUMP JUMPDEST DUP4 SSTORE POP JUMPDEST PUSH1 0x1 PUSH1 0x2 DUP9 MUL ADD DUP9 SSTORE POP POP POP JUMPDEST POP POP POP POP POP POP JUMP JUMPDEST PUSH0 PUSH1 0x80 DUP3 ADD SWAP1 POP PUSH2 0x1678 PUSH0 DUP4 ADD DUP8 PUSH2 0xFAA JUMP JUMPDEST DUP2 DUP2 SUB PUSH1 0x20 DUP4 ADD MSTORE PUSH2 0x168A DUP2 DUP7 PUSH2 0xFE1 JUMP JUMPDEST SWAP1 POP DUP2 DUP2 SUB PUSH1 0x40 DUP4 ADD MSTORE PUSH2 0x169E DUP2 DUP6 PUSH2 0xFE1 JUMP JUMPDEST SWAP1 POP PUSH2 0x16AD PUSH1 0x60 DUP4 ADD DUP5 PUSH2 0xFAA JUMP JUMPDEST SWAP6 SWAP5 POP POP POP POP POP JUMP JUMPDEST PUSH32 0x4E487B7100000000000000000000000000000000000000000000000000000000 PUSH0 MSTORE PUSH1 0x11 PUSH1 0x4 MSTORE PUSH1 0x24 PUSH0 REVERT JUMPDEST PUSH0 PUSH2 0x16ED DUP3 PUSH2 0xEC4 JUMP JUMPDEST SWAP2 POP PUSH32 0xFFFFFFFFFFFFFFFFFFFFFFFFFFFFFFFFFFFFFFFFFFFFFFFFFFFFFFFFFFFFFFFF DUP3 SUB PUSH2 0x171F JUMPI PUSH2 0x171E PUSH2 0x16B6 JUMP JUMPDEST JUMPDEST PUSH1 0x1 DUP3 ADD SWAP1 POP SWAP2 SWAP1 POP JUMP JUMPDEST PUSH32 0x4E487B7100000000000000000000000000000000000000000000000000000000 PUSH0 MSTORE PUSH1 0x32 PUSH1 0x4 MSTORE PUSH1 0x24 PUSH0 REVERT JUMPDEST PUSH32 0x4F6E6C79207468652073656C6C65722063616E20706572666F726D2074686973 PUSH0 DUP3 ADD MSTORE PUSH32 0x20616374696F6E00000000000000000000000000000000000000000000000000 PUSH1 0x20 DUP3 ADD MSTORE POP JUMP JUMPDEST PUSH0 PUSH2 0x17B1 PUSH1 0x27 DUP4 PUSH2 0xFC3 JUMP JUMPDEST SWAP2 POP PUSH2 0x17BC DUP3 PUSH2 0x1757 JUMP JUMPDEST PUSH1 0x40 DUP3 ADD SWAP1 POP SWAP2 SWAP1 POP JUMP JUMPDEST PUSH0 PUSH1 0x20 DUP3 ADD SWAP1 POP DUP2 DUP2 SUB PUSH0 DUP4 ADD MSTORE PUSH2 0x17DE DUP2 PUSH2 0x17A5 JUMP JUMPDEST SWAP1 POP SWAP2 SWAP1 POP JUMP JUMPDEST PUSH32 0x43616E6E6F742063616E63656C2C206974656D20616C726561647920736F6C64 PUSH0 DUP3 ADD MSTORE POP JUMP JUMPDEST PUSH0 PUSH2 0x1819 PUSH1 0x20 DUP4 PUSH2 0xFC3 JUMP JUMPDEST SWAP2 POP PUSH2 0x1824 DUP3 PUSH2 0x17E5 JUMP JUMPDEST PUSH1 0x20 DUP3 ADD SWAP1 POP SWAP2 SWAP1 POP JUMP JUMPDEST PUSH0 PUSH1 0x20 DUP3 ADD SWAP1 POP DUP2 DUP2 SUB PUSH0 DUP4 ADD MSTORE PUSH2 0x1846 DUP2 PUSH2 0x180D JUMP JUMPDEST SWAP1 POP SWAP2 SWAP1 POP JUMP JUMPDEST PUSH32 0x4974656D20646F6573206E6F7420657869737400000000000000000000000000 PUSH0 DUP3 ADD MSTORE POP JUMP JUMPDEST PUSH0 PUSH2 0x1881 PUSH1 0x13 DUP4 PUSH2 0xFC3 JUMP JUMPDEST SWAP2 POP PUSH2 0x188C DUP3 PUSH2 0x184D JUMP JUMPDEST PUSH1 0x20 DUP3 ADD SWAP1 POP SWAP2 SWAP1 POP JUMP JUMPDEST PUSH0 PUSH1 0x20 DUP3 ADD SWAP1 POP DUP2 DUP2 SUB PUSH0 DUP4 ADD MSTORE PUSH2 0x18AE DUP2 PUSH2 0x1875 JUMP JUMPDEST SWAP1 POP SWAP2 SWAP1 POP JUMP JUMPDEST PUSH32 0x4E6F207265656E7472616E637920616C6C6F7765642100000000000000000000 PUSH0 DUP3 ADD MSTORE POP JUMP JUMPDEST PUSH0 PUSH2 0x18E9 PUSH1 0x16 DUP4 PUSH2 0xFC3 JUMP JUMPDEST SWAP2 POP PUSH2 0x18F4 DUP3 PUSH2 0x18B5 JUMP JUMPDEST PUSH1 0x20 DUP3 ADD SWAP1 POP SWAP2 SWAP1 POP JUMP JUMPDEST PUSH0 PUSH1 0x20 DUP3 ADD SWAP1 POP DUP2 DUP2 SUB PUSH0 DUP4 ADD MSTORE PUSH2 0x1916 DUP2 PUSH2 0x18DD JUMP JUMPDEST SWAP1 POP SWAP2 SWAP1 POP JUMP JUMPDEST PUSH32 0x4974656D20616C726561647920736F6C64000000000000000000000000000000 PUSH0 DUP3 ADD MSTORE POP JUMP JUMPDEST PUSH0 PUSH2 0x1951 PUSH1 0x11 DUP4 PUSH2 0xFC3 JUMP JUMPDEST SWAP2 POP PUSH2 0x195C DUP3 PUSH2 0x191D JUMP JUMPDEST PUSH1 0x20 DUP3 ADD SWAP1 POP SWAP2 SWAP1 POP JUMP JUMPDEST PUSH0 PUSH1 0x20 DUP3 ADD SWAP1 POP DUP2 DUP2 SUB PUSH0 DUP4 ADD MSTORE PUSH2 0x197E DUP2 PUSH2 0x1945 JUMP JUMPDEST SWAP1 POP SWAP2 SWAP1 POP JUMP JUMPDEST PUSH32 0x4E6F7420656E6F7567682065746865722073656E740000000000000000000000 PUSH0 DUP3 ADD MSTORE POP JUMP JUMPDEST PUSH0 PUSH2 0x19B9 PUSH1 0x15 DUP4 PUSH2 0xFC3 JUMP JUMPDEST SWAP2 POP PUSH2 0x19C4 DUP3 PUSH2 0x1985 JUMP JUMPDEST PUSH1 0x20 DUP3 ADD SWAP1 POP SWAP2 SWAP1 POP JUMP JUMPDEST PUSH0 PUSH1 0x20 DUP3 ADD SWAP1 POP DUP2 DUP2 SUB PUSH0 DUP4 ADD MSTORE PUSH2 0x19E6 DUP2 PUSH2 0x19AD JUMP JUMPDEST SWAP1 POP SWAP2 SWAP1 POP JUMP JUMPDEST PUSH0 PUSH2 0x19F7 DUP3 PUSH2 0xEC4 JUMP JUMPDEST SWAP2 POP PUSH2 0x1A02 DUP4 PUSH2 0xEC4 JUMP JUMPDEST SWAP3 POP DUP3 DUP3 SUB SWAP1 POP DUP2 DUP2 GT ISZERO PUSH2 0x1A1A JUMPI PUSH2 0x1A19 PUSH2 0x16B6 JUMP JUMPDEST JUMPDEST SWAP3 SWAP2 POP POP JUMP JUMPDEST PUSH0 PUSH1 0x40 DUP3 ADD SWAP1 POP PUSH2 0x1A33 PUSH0 DUP4 ADD DUP6 PUSH2 0xFAA JUMP JUMPDEST PUSH2 0x1A40 PUSH1 0x20 DUP4 ADD DUP5 PUSH2 0xFAA JUMP JUMPDEST SWAP4 SWAP3 POP POP POP JUMP INVALID LOG2 PUSH5 0x6970667358 0x22 SLT KECCAK256 0xD9 PUSH6 0x854AA3D964F6 TSTORE ADD PUSH27 0x67F3264BC14B1674894E1FCAC738D0CAB5F2C46D0864736F6C6343 STOP ADDMOD NOT STOP CALLER "
	},
	"Assembly": ".code\n  PUSH 80\t\t\tcontract Marketplace {\\n    //...\n  PUSH 40\t\t\tcontract Marketplace {\\n    //...\n  MSTORE \t\t\tcontract Marketplace {\\n    //...\n  CALLVALUE \t\t\tcontract Marketplace {\\n    //...\n  DUP1 \t\t\tcontract Marketplace {\\n    //...\n  ISZERO \t\t\tcontract Marketplace {\\n    //...\n  PUSH [tag] 1\t\t\tcontract Marketplace {\\n    //...\n  JUMPI \t\t\tcontract Marketplace {\\n    //...\n  PUSH 0\t\t\tcontract Marketplace {\\n    //...\n  DUP1 \t\t\tcontract Marketplace {\\n    //...\n  REVERT \t\t\tcontract Marketplace {\\n    //...\ntag 1\t\t\tcontract Marketplace {\\n    //...\n  JUMPDEST \t\t\tcontract Marketplace {\\n    //...\n  POP \t\t\tcontract Marketplace {\\n    //...\n  PUSH #[$] 0000000000000000000000000000000000000000000000000000000000000000\t\t\tcontract Marketplace {\\n    //...\n  DUP1 \t\t\tcontract Marketplace {\\n    //...\n  PUSH [$] 0000000000000000000000000000000000000000000000000000000000000000\t\t\tcontract Marketplace {\\n    //...\n  PUSH 0\t\t\tcontract Marketplace {\\n    //...\n  CODECOPY \t\t\tcontract Marketplace {\\n    //...\n  PUSH 0\t\t\tcontract Marketplace {\\n    //...\n  RETURN \t\t\tcontract Marketplace {\\n    //...\n.data\n  0:\n    .code\n      PUSH 80\t\t\tcontract Marketplace {\\n    //...\n      PUSH 40\t\t\tcontract Marketplace {\\n    //...\n      MSTORE \t\t\tcontract Marketplace {\\n    //...\n      PUSH 4\t\t\tcontract Marketplace {\\n    //...\n      CALLDATASIZE \t\t\tcontract Marketplace {\\n    //...\n      LT \t\t\tcontract Marketplace {\\n    //...\n      PUSH [tag] 1\t\t\tcontract Marketplace {\\n    //...\n      JUMPI \t\t\tcontract Marketplace {\\n    //...\n      PUSH 0\t\t\tcontract Marketplace {\\n    //...\n      CALLDATALOAD \t\t\tcontract Marketplace {\\n    //...\n      PUSH E0\t\t\tcontract Marketplace {\\n    //...\n      SHR \t\t\tcontract Marketplace {\\n    //...\n      DUP1 \t\t\tcontract Marketplace {\\n    //...\n      PUSH 4BA1D6AA\t\t\tcontract Marketplace {\\n    //...\n      GT \t\t\tcontract Marketplace {\\n    //...\n      PUSH [tag] 9\t\t\tcontract Marketplace {\\n    //...\n      JUMPI \t\t\tcontract Marketplace {\\n    //...\n      DUP1 \t\t\tcontract Marketplace {\\n    //...\n      PUSH 4BA1D6AA\t\t\tcontract Marketplace {\\n    //...\n      EQ \t\t\tcontract Marketplace {\\n    //...\n      PUSH [tag] 5\t\t\tcontract Marketplace {\\n    //...\n      JUMPI \t\t\tcontract Marketplace {\\n    //...\n      DUP1 \t\t\tcontract Marketplace {\\n    //...\n      PUSH 6A868974\t\t\tcontract Marketplace {\\n    //...\n      EQ \t\t\tcontract Marketplace {\\n    //...\n      PUSH [tag] 6\t\t\tcontract Marketplace {\\n    //...\n      JUMPI \t\t\tcontract Marketplace {\\n    //...\n      DUP1 \t\t\tcontract Marketplace {\\n    //...\n      PUSH BFB231D2\t\t\tcontract Marketplace {\\n    //...\n      EQ \t\t\tcontract Marketplace {\\n    //...\n      PUSH [tag] 7\t\t\tcontract Marketplace {\\n    //...\n      JUMPI \t\t\tcontract Marketplace {\\n    //...\n      DUP1 \t\t\tcontract Marketplace {\\n    //...\n      PUSH E7FB74C7\t\t\tcontract Marketplace {\\n    //...\n      EQ \t\t\tcontract Marketplace {\\n    //...\n      PUSH [tag] 8\t\t\tcontract Marketplace {\\n    //...\n      JUMPI \t\t\tcontract Marketplace {\\n    //...\n      PUSH [tag] 1\t\t\tcontract Marketplace {\\n    //...\n      JUMP \t\t\tcontract Marketplace {\\n    //...\n    tag 9\t\t\tcontract Marketplace {\\n    //...\n      JUMPDEST \t\t\tcontract Marketplace {\\n    //...\n      DUP1 \t\t\tcontract Marketplace {\\n    //...\n      PUSH 562021C\t\t\tcontract Marketplace {\\n    //...\n      EQ \t\t\tcontract Marketplace {\\n    //...\n      PUSH [tag] 2\t\t\tcontract Marketplace {\\n    //...\n      JUMPI \t\t\tcontract Marketplace {\\n    //...\n      DUP1 \t\t\tcontract Marketplace {\\n    //...\n      PUSH 305A67A8\t\t\tcontract Marketplace {\\n    //...\n      EQ \t\t\tcontract Marketplace {\\n    //...\n      PUSH [tag] 3\t\t\tcontract Marketplace {\\n    //...\n      JUMPI \t\t\tcontract Marketplace {\\n    //...\n      DUP1 \t\t\tcontract Marketplace {\\n    //...\n      PUSH 3129E773\t\t\tcontract Marketplace {\\n    //...\n      EQ \t\t\tcontract Marketplace {\\n    //...\n      PUSH [tag] 4\t\t\tcontract Marketplace {\\n    //...\n      JUMPI \t\t\tcontract Marketplace {\\n    //...\n    tag 1\t\t\tcontract Marketplace {\\n    //...\n      JUMPDEST \t\t\tcontract Marketplace {\\n    //...\n      PUSH 0\t\t\tcontract Marketplace {\\n    //...\n      DUP1 \t\t\tcontract Marketplace {\\n    //...\n      REVERT \t\t\tcontract Marketplace {\\n    //...\n    tag 2\t\t\tfunction listItem(string memor...\n      JUMPDEST \t\t\tfunction listItem(string memor...\n      CALLVALUE \t\t\tfunction listItem(string memor...\n      DUP1 \t\t\tfunction listItem(string memor...\n      ISZERO \t\t\tfunction listItem(string memor...\n      PUSH [tag] 10\t\t\tfunction listItem(string memor...\n      JUMPI \t\t\tfunction listItem(string memor...\n      PUSH 0\t\t\tfunction listItem(string memor...\n      DUP1 \t\t\tfunction listItem(string memor...\n      REVERT \t\t\tfunction listItem(string memor...\n    tag 10\t\t\tfunction listItem(string memor...\n      JUMPDEST \t\t\tfunction listItem(string memor...\n      POP \t\t\tfunction listItem(string memor...\n      PUSH [tag] 11\t\t\tfunction listItem(string memor...\n      PUSH 4\t\t\tfunction listItem(string memor...\n      DUP1 \t\t\tfunction listItem(string memor...\n      CALLDATASIZE \t\t\tfunction listItem(string memor...\n      SUB \t\t\tfunction listItem(string memor...\n      DUP2 \t\t\tfunction listItem(string memor...\n      ADD \t\t\tfunction listItem(string memor...\n      SWAP1 \t\t\tfunction listItem(string memor...\n      PUSH [tag] 12\t\t\tfunction listItem(string memor...\n      SWAP2 \t\t\tfunction listItem(string memor...\n      SWAP1 \t\t\tfunction listItem(string memor...\n      PUSH [tag] 13\t\t\tfunction listItem(string memor...\n      JUMP \t\t\tfunction listItem(string memor...\n    tag 12\t\t\tfunction listItem(string memor...\n      JUMPDEST \t\t\tfunction listItem(string memor...\n      PUSH [tag] 14\t\t\tfunction listItem(string memor...\n      JUMP \t\t\tfunction listItem(string memor...\n    tag 11\t\t\tfunction listItem(string memor...\n      JUMPDEST \t\t\tfunction listItem(string memor...\n      STOP \t\t\tfunction listItem(string memor...\n    tag 3\t\t\tfunction cancelListing(uint _i...\n      JUMPDEST \t\t\tfunction cancelListing(uint _i...\n      CALLVALUE \t\t\tfunction cancelListing(uint _i...\n      DUP1 \t\t\tfunction cancelListing(uint _i...\n      ISZERO \t\t\tfunction cancelListing(uint _i...\n      PUSH [tag] 15\t\t\tfunction cancelListing(uint _i...\n      JUMPI \t\t\tfunction cancelListing(uint _i...\n      PUSH 0\t\t\tfunction cancelListing(uint _i...\n      DUP1 \t\t\tfunction cancelListing(uint _i...\n      REVERT \t\t\tfunction cancelListing(uint _i...\n    tag 15\t\t\tfunction cancelListing(uint _i...\n      JUMPDEST \t\t\tfunction cancelListing(uint _i...\n      POP \t\t\tfunction cancelListing(uint _i...\n      PUSH [tag] 16\t\t\tfunction cancelListing(uint _i...\n      PUSH 4\t\t\tfunction cancelListing(uint _i...\n      DUP1 \t\t\tfunction cancelListing(uint _i...\n      CALLDATASIZE \t\t\tfunction cancelListing(uint _i...\n      SUB \t\t\tfunction cancelListing(uint _i...\n      DUP2 \t\t\tfunction cancelListing(uint _i...\n      ADD \t\t\tfunction cancelListing(uint _i...\n      SWAP1 \t\t\tfunction cancelListing(uint _i...\n      PUSH [tag] 17\t\t\tfunction cancelListing(uint _i...\n      SWAP2 \t\t\tfunction cancelListing(uint _i...\n      SWAP1 \t\t\tfunction cancelListing(uint _i...\n      PUSH [tag] 18\t\t\tfunction cancelListing(uint _i...\n      JUMP \t\t\tfunction cancelListing(uint _i...\n    tag 17\t\t\tfunction cancelListing(uint _i...\n      JUMPDEST \t\t\tfunction cancelListing(uint _i...\n      PUSH [tag] 19\t\t\tfunction cancelListing(uint _i...\n      JUMP \t\t\tfunction cancelListing(uint _i...\n    tag 16\t\t\tfunction cancelListing(uint _i...\n      JUMPDEST \t\t\tfunction cancelListing(uint _i...\n      STOP \t\t\tfunction cancelListing(uint _i...\n    tag 4\t\t\tfunction getItem(uint _id) pub...\n      JUMPDEST \t\t\tfunction getItem(uint _id) pub...\n      CALLVALUE \t\t\tfunction getItem(uint _id) pub...\n      DUP1 \t\t\tfunction getItem(uint _id) pub...\n      ISZERO \t\t\tfunction getItem(uint _id) pub...\n      PUSH [tag] 20\t\t\tfunction getItem(uint _id) pub...\n      JUMPI \t\t\tfunction getItem(uint _id) pub...\n      PUSH 0\t\t\tfunction getItem(uint _id) pub...\n      DUP1 \t\t\tfunction getItem(uint _id) pub...\n      REVERT \t\t\tfunction getItem(uint _id) pub...\n    tag 20\t\t\tfunction getItem(uint _id) pub...\n      JUMPDEST \t\t\tfunction getItem(uint _id) pub...\n      POP \t\t\tfunction getItem(uint _id) pub...\n      PUSH [tag] 21\t\t\tfunction getItem(uint _id) pub...\n      PUSH 4\t\t\tfunction getItem(uint _id) pub...\n      DUP1 \t\t\tfunction getItem(uint _id) pub...\n      CALLDATASIZE \t\t\tfunction getItem(uint _id) pub...\n      SUB \t\t\tfunction getItem(uint _id) pub...\n      DUP2 \t\t\tfunction getItem(uint _id) pub...\n      ADD \t\t\tfunction getItem(uint _id) pub...\n      SWAP1 \t\t\tfunction getItem(uint _id) pub...\n      PUSH [tag] 22\t\t\tfunction getItem(uint _id) pub...\n      SWAP2 \t\t\tfunction getItem(uint _id) pub...\n      SWAP1 \t\t\tfunction getItem(uint _id) pub...\n      PUSH [tag] 18\t\t\tfunction getItem(uint _id) pub...\n      JUMP \t\t\tfunction getItem(uint _id) pub...\n    tag 22\t\t\tfunction getItem(uint _id) pub...\n      JUMPDEST \t\t\tfunction getItem(uint _id) pub...\n      PUSH [tag] 23\t\t\tfunction getItem(uint _id) pub...\n      JUMP \t\t\tfunction getItem(uint _id) pub...\n    tag 21\t\t\tfunction getItem(uint _id) pub...\n      JUMPDEST \t\t\tfunction getItem(uint _id) pub...\n      PUSH 40\t\t\tfunction getItem(uint _id) pub...\n      MLOAD \t\t\tfunction getItem(uint _id) pub...\n      PUSH [tag] 24\t\t\tfunction getItem(uint _id) pub...\n      SWAP6 \t\t\tfunction getItem(uint _id) pub...\n      SWAP5 \t\t\tfunction getItem(uint _id) pub...\n      SWAP4 \t\t\tfunction getItem(uint _id) pub...\n      SWAP3 \t\t\tfunction getItem(uint _id) pub...\n      SWAP2 \t\t\tfunction getItem(uint _id) pub...\n      SWAP1 \t\t\tfunction getItem(uint _id) pub...\n      PUSH [tag] 25\t\t\tfunction getItem(uint _id) pub...\n      JUMP \t\t\tfunction getItem(uint _id) pub...\n    tag 24\t\t\tfunction getItem(uint _id) pub...\n      JUMPDEST \t\t\tfunction getItem(uint _id) pub...\n      PUSH 40\t\t\tfunction getItem(uint _id) pub...\n      MLOAD \t\t\tfunction getItem(uint _id) pub...\n      DUP1 \t\t\tfunction getItem(uint _id) pub...\n      SWAP2 \t\t\tfunction getItem(uint _id) pub...\n      SUB \t\t\tfunction getItem(uint _id) pub...\n      SWAP1 \t\t\tfunction getItem(uint _id) pub...\n      RETURN \t\t\tfunction getItem(uint _id) pub...\n    tag 5\t\t\tfunction getAllItems() public ...\n      JUMPDEST \t\t\tfunction getAllItems() public ...\n      CALLVALUE \t\t\tfunction getAllItems() public ...\n      DUP1 \t\t\tfunction getAllItems() public ...\n      ISZERO \t\t\tfunction getAllItems() public ...\n      PUSH [tag] 26\t\t\tfunction getAllItems() public ...\n      JUMPI \t\t\tfunction getAllItems() public ...\n      PUSH 0\t\t\tfunction getAllItems() public ...\n      DUP1 \t\t\tfunction getAllItems() public ...\n      REVERT \t\t\tfunction getAllItems() public ...\n    tag 26\t\t\tfunction getAllItems() public ...\n      JUMPDEST \t\t\tfunction getAllItems() public ...\n      POP \t\t\tfunction getAllItems() public ...\n      PUSH [tag] 27\t\t\tfunction getAllItems() public ...\n      PUSH [tag] 28\t\t\tfunction getAllItems() public ...\n      JUMP \t\t\tfunction getAllItems() public ...\n    tag 27\t\t\tfunction getAllItems() public ...\n      JUMPDEST \t\t\tfunction getAllItems() public ...\n      PUSH 40\t\t\tfunction getAllItems() public ...\n      MLOAD \t\t\tfunction getAllItems() public ...\n      PUSH [tag] 29\t\t\tfunction getAllItems() public ...\n      SWAP2 \t\t\tfunction getAllItems() public ...\n      SWAP1 \t\t\tfunction getAllItems() public ...\n      PUSH [tag] 30\t\t\tfunction getAllItems() public ...\n      JUMP \t\t\tfunction getAllItems() public ...\n    tag 29\t\t\tfunction getAllItems() public ...\n      JUMPDEST \t\t\tfunction getAllItems() public ...\n      PUSH 40\t\t\tfunction getAllItems() public ...\n      MLOAD \t\t\tfunction getAllItems() public ...\n      DUP1 \t\t\tfunction getAllItems() public ...\n      SWAP2 \t\t\tfunction getAllItems() public ...\n      SUB \t\t\tfunction getAllItems() public ...\n      SWAP1 \t\t\tfunction getAllItems() public ...\n      RETURN \t\t\tfunction getAllItems() public ...\n    tag 6\t\t\tuint public nextItemId\n      JUMPDEST \t\t\tuint public nextItemId\n      CALLVALUE \t\t\tuint public nextItemId\n      DUP1 \t\t\tuint public nextItemId\n      ISZERO \t\t\tuint public nextItemId\n      PUSH [tag] 31\t\t\tuint public nextItemId\n      JUMPI \t\t\tuint public nextItemId\n      PUSH 0\t\t\tuint public nextItemId\n      DUP1 \t\t\tuint public nextItemId\n      REVERT \t\t\tuint public nextItemId\n    tag 31\t\t\tuint public nextItemId\n      JUMPDEST \t\t\tuint public nextItemId\n      POP \t\t\tuint public nextItemId\n      PUSH [tag] 32\t\t\tuint public nextItemId\n      PUSH [tag] 33\t\t\tuint public nextItemId\n      JUMP \t\t\tuint public nextItemId\n    tag 32\t\t\tuint public nextItemId\n      JUMPDEST \t\t\tuint public nextItemId\n      PUSH 40\t\t\tuint public nextItemId\n      MLOAD \t\t\tuint public nextItemId\n      PUSH [tag] 34\t\t\tuint public nextItemId\n      SWAP2 \t\t\tuint public nextItemId\n      SWAP1 \t\t\tuint public nextItemId\n      PUSH [tag] 35\t\t\tuint public nextItemId\n      JUMP \t\t\tuint public nextItemId\n    tag 34\t\t\tuint public nextItemId\n      JUMPDEST \t\t\tuint public nextItemId\n      PUSH 40\t\t\tuint public nextItemId\n      MLOAD \t\t\tuint public nextItemId\n      DUP1 \t\t\tuint public nextItemId\n      SWAP2 \t\t\tuint public nextItemId\n      SUB \t\t\tuint public nextItemId\n      SWAP1 \t\t\tuint public nextItemId\n      RETURN \t\t\tuint public nextItemId\n    tag 7\t\t\tItem[] public items\n      JUMPDEST \t\t\tItem[] public items\n      CALLVALUE \t\t\tItem[] public items\n      DUP1 \t\t\tItem[] public items\n      ISZERO \t\t\tItem[] public items\n      PUSH [tag] 36\t\t\tItem[] public items\n      JUMPI \t\t\tItem[] public items\n      PUSH 0\t\t\tItem[] public items\n      DUP1 \t\t\tItem[] public items\n      REVERT \t\t\tItem[] public items\n    tag 36\t\t\tItem[] public items\n      JUMPDEST \t\t\tItem[] public items\n      POP \t\t\tItem[] public items\n      PUSH [tag] 37\t\t\tItem[] public items\n      PUSH 4\t\t\tItem[] public items\n      DUP1 \t\t\tItem[] public items\n      CALLDATASIZE \t\t\tItem[] public items\n      SUB \t\t\tItem[] public items\n      DUP2 \t\t\tItem[] public items\n      ADD \t\t\tItem[] public items\n      SWAP1 \t\t\tItem[] public items\n      PUSH [tag] 38\t\t\tItem[] public items\n      SWAP2 \t\t\tItem[] public items\n      SWAP1 \t\t\tItem[] public items\n      PUSH [tag] 18\t\t\tItem[] public items\n      JUMP \t\t\tItem[] public items\n    tag 38\t\t\tItem[] public items\n      JUMPDEST \t\t\tItem[] public items\n      PUSH [tag] 39\t\t\tItem[] public items\n      JUMP \t\t\tItem[] public items\n    tag 37\t\t\tItem[] public items\n      JUMPDEST \t\t\tItem[] public items\n      PUSH 40\t\t\tItem[] public items\n      MLOAD \t\t\tItem[] public items\n      PUSH [tag] 40\t\t\tItem[] public items\n      SWAP7 \t\t\tItem[] public items\n      SWAP6 \t\t\tItem[] public items\n      SWAP5 \t\t\tItem[] public items\n      SWAP4 \t\t\tItem[] public items\n      SWAP3 \t\t\tItem[] public items\n      SWAP2 \t\t\tItem[] public items\n      SWAP1 \t\t\tItem[] public items\n      PUSH [tag] 41\t\t\tItem[] public items\n      JUMP \t\t\tItem[] public items\n    tag 40\t\t\tItem[] public items\n      JUMPDEST \t\t\tItem[] public items\n      PUSH 40\t\t\tItem[] public items\n      MLOAD \t\t\tItem[] public items\n      DUP1 \t\t\tItem[] public items\n      SWAP2 \t\t\tItem[] public items\n      SUB \t\t\tItem[] public items\n      SWAP1 \t\t\tItem[] public items\n      RETURN \t\t\tItem[] public items\n    tag 8\t\t\tfunction buyItem(uint _id) pub...\n      JUMPDEST \t\t\tfunction buyItem(uint _id) pub...\n      PUSH [tag] 42\t\t\tfunction buyItem(uint _id) pub...\n      PUSH 4\t\t\tfunction buyItem(uint _id) pub...\n      DUP1 \t\t\tfunction buyItem(uint _id) pub...\n      CALLDATASIZE \t\t\tfunction buyItem(uint _id) pub...\n      SUB \t\t\tfunction buyItem(uint _id) pub...\n      DUP2 \t\t\tfunction buyItem(uint _id) pub...\n      ADD \t\t\tfunction buyItem(uint _id) pub...\n      SWAP1 \t\t\tfunction buyItem(uint _id) pub...\n      PUSH [tag] 43\t\t\tfunction buyItem(uint _id) pub...\n      SWAP2 \t\t\tfunction buyItem(uint _id) pub...\n      SWAP1 \t\t\tfunction buyItem(uint _id) pub...\n      PUSH [tag] 18\t\t\tfunction buyItem(uint _id) pub...\n      JUMP \t\t\tfunction buyItem(uint _id) pub...\n    tag 43\t\t\tfunction buyItem(uint _id) pub...\n      JUMPDEST \t\t\tfunction buyItem(uint _id) pub...\n      PUSH [tag] 44\t\t\tfunction buyItem(uint _id) pub...\n      JUMP \t\t\tfunction buyItem(uint _id) pub...\n    tag 42\t\t\tfunction buyItem(uint _id) pub...\n      JUMPDEST \t\t\tfunction buyItem(uint _id) pub...\n      STOP \t\t\tfunction buyItem(uint _id) pub...\n    tag 14\t\t\tfunction listItem(string memor...\n      JUMPDEST \t\t\tfunction listItem(string memor...\n      PUSH 0\t\t\t0\n      DUP2 \t\t\t_price\n      GT \t\t\t_price > 0\n      PUSH [tag] 46\t\t\trequire(_price > 0, \"Price mus...\n      JUMPI \t\t\trequire(_price > 0, \"Price mus...\n      PUSH 40\t\t\trequire(_price > 0, \"Price mus...\n      MLOAD \t\t\trequire(_price > 0, \"Price mus...\n      PUSH 8C379A000000000000000000000000000000000000000000000000000000000\t\t\trequire(_price > 0, \"Price mus...\n      DUP2 \t\t\trequire(_price > 0, \"Price mus...\n      MSTORE \t\t\trequire(_price > 0, \"Price mus...\n      PUSH 4\t\t\trequire(_price > 0, \"Price mus...\n      ADD \t\t\trequire(_price > 0, \"Price mus...\n      PUSH [tag] 47\t\t\trequire(_price > 0, \"Price mus...\n      SWAP1 \t\t\trequire(_price > 0, \"Price mus...\n      PUSH [tag] 48\t\t\trequire(_price > 0, \"Price mus...\n      JUMP \t\t\trequire(_price > 0, \"Price mus...\n    tag 47\t\t\trequire(_price > 0, \"Price mus...\n      JUMPDEST \t\t\trequire(_price > 0, \"Price mus...\n      PUSH 40\t\t\trequire(_price > 0, \"Price mus...\n      MLOAD \t\t\trequire(_price > 0, \"Price mus...\n      DUP1 \t\t\trequire(_price > 0, \"Price mus...\n      SWAP2 \t\t\trequire(_price > 0, \"Price mus...\n      SUB \t\t\trequire(_price > 0, \"Price mus...\n      SWAP1 \t\t\trequire(_price > 0, \"Price mus...\n      REVERT \t\t\trequire(_price > 0, \"Price mus...\n    tag 46\t\t\trequire(_price > 0, \"Price mus...\n      JUMPDEST \t\t\trequire(_price > 0, \"Price mus...\n      PUSH 0\t\t\titems\n      PUSH 40\t\t\tItem({\\n            id: nextIt...\n      MLOAD \t\t\tItem({\\n            id: nextIt...\n      DUP1 \t\t\tItem({\\n            id: nextIt...\n      PUSH C0\t\t\tItem({\\n            id: nextIt...\n      ADD \t\t\tItem({\\n            id: nextIt...\n      PUSH 40\t\t\tItem({\\n            id: nextIt...\n      MSTORE \t\t\tItem({\\n            id: nextIt...\n      DUP1 \t\t\tItem({\\n            id: nextIt...\n      PUSH 1\t\t\tnextItemId\n      SLOAD \t\t\tnextItemId\n      DUP2 \t\t\tItem({\\n            id: nextIt...\n      MSTORE \t\t\tItem({\\n            id: nextIt...\n      PUSH 20\t\t\tItem({\\n            id: nextIt...\n      ADD \t\t\tItem({\\n            id: nextIt...\n      CALLER \t\t\tmsg.sender\n      PUSH FFFFFFFFFFFFFFFFFFFFFFFFFFFFFFFFFFFFFFFF\t\t\tItem({\\n            id: nextIt...\n      AND \t\t\tItem({\\n            id: nextIt...\n      DUP2 \t\t\tItem({\\n            id: nextIt...\n      MSTORE \t\t\tItem({\\n            id: nextIt...\n      PUSH 20\t\t\tItem({\\n            id: nextIt...\n      ADD \t\t\tItem({\\n            id: nextIt...\n      DUP6 \t\t\t_title\n      DUP2 \t\t\tItem({\\n            id: nextIt...\n      MSTORE \t\t\tItem({\\n            id: nextIt...\n      PUSH 20\t\t\tItem({\\n            id: nextIt...\n      ADD \t\t\tItem({\\n            id: nextIt...\n      DUP5 \t\t\t_description\n      DUP2 \t\t\tItem({\\n            id: nextIt...\n      MSTORE \t\t\tItem({\\n            id: nextIt...\n      PUSH 20\t\t\tItem({\\n            id: nextIt...\n      ADD \t\t\tItem({\\n            id: nextIt...\n      DUP4 \t\t\t_price\n      DUP2 \t\t\tItem({\\n            id: nextIt...\n      MSTORE \t\t\tItem({\\n            id: nextIt...\n      PUSH 20\t\t\tItem({\\n            id: nextIt...\n      ADD \t\t\tItem({\\n            id: nextIt...\n      PUSH 0\t\t\tfalse\n      ISZERO \t\t\tItem({\\n            id: nextIt...\n      ISZERO \t\t\tItem({\\n            id: nextIt...\n      DUP2 \t\t\tItem({\\n            id: nextIt...\n      MSTORE \t\t\tItem({\\n            id: nextIt...\n      POP \t\t\tItem({\\n            id: nextIt...\n      SWAP1 \t\t\titems.push(Item({\\n           ...\n      DUP1 \t\t\titems.push(Item({\\n           ...\n      PUSH 1\t\t\titems.push(Item({\\n           ...\n      DUP2 \t\t\titems.push(Item({\\n           ...\n      SLOAD \t\t\titems.push(Item({\\n           ...\n      ADD \t\t\titems.push(Item({\\n           ...\n      DUP1 \t\t\titems.push(Item({\\n           ...\n      DUP3 \t\t\titems.push(Item({\\n           ...\n      SSTORE \t\t\titems.push(Item({\\n           ...\n      DUP1 \t\t\titems.push(Item({\\n           ...\n      SWAP2 \t\t\titems.push(Item({\\n           ...\n      POP \t\t\titems.push(Item({\\n           ...\n      POP \t\t\titems.push(Item({\\n           ...\n      PUSH 1\t\t\titems.push(Item({\\n           ...\n      SWAP1 \t\t\titems.push(Item({\\n           ...\n      SUB \t\t\titems.push(Item({\\n           ...\n      SWAP1 \t\t\titems.push(Item({\\n           ...\n      PUSH 0\t\t\titems.push(Item({\\n           ...\n      MSTORE \t\t\titems.push(Item({\\n           ...\n      PUSH 20\t\t\titems.push(Item({\\n           ...\n      PUSH 0\t\t\titems.push(Item({\\n           ...\n      KECCAK256 \t\t\titems.push(Item({\\n           ...\n      SWAP1 \t\t\titems.push(Item({\\n           ...\n      PUSH 6\t\t\titems.push(Item({\\n           ...\n      MUL \t\t\titems.push(Item({\\n           ...\n      ADD \t\t\titems.push(Item({\\n           ...\n      PUSH 0\t\t\titems.push(Item({\\n           ...\n      SWAP1 \t\t\titems.push(Item({\\n           ...\n      SWAP2 \t\t\titems.push(Item({\\n           ...\n      SWAP1 \t\t\titems.push(Item({\\n           ...\n      SWAP2 \t\t\titems.push(Item({\\n           ...\n      SWAP1 \t\t\titems.push(Item({\\n           ...\n      SWAP2 \t\t\titems.push(Item({\\n           ...\n      POP \t\t\titems.push(Item({\\n           ...\n      PUSH 0\t\t\titems.push(Item({\\n           ...\n      DUP3 \t\t\titems.push(Item({\\n           ...\n      ADD \t\t\titems.push(Item({\\n           ...\n      MLOAD \t\t\titems.push(Item({\\n           ...\n      DUP2 \t\t\titems.push(Item({\\n           ...\n      PUSH 0\t\t\titems.push(Item({\\n           ...\n      ADD \t\t\titems.push(Item({\\n           ...\n      SSTORE \t\t\titems.push(Item({\\n           ...\n      PUSH 20\t\t\titems.push(Item({\\n           ...\n      DUP3 \t\t\titems.push(Item({\\n           ...\n      ADD \t\t\titems.push(Item({\\n           ...\n      MLOAD \t\t\titems.push(Item({\\n           ...\n      DUP2 \t\t\titems.push(Item({\\n           ...\n      PUSH 1\t\t\titems.push(Item({\\n           ...\n      ADD \t\t\titems.push(Item({\\n           ...\n      PUSH 0\t\t\titems.push(Item({\\n           ...\n      PUSH 100\t\t\titems.push(Item({\\n           ...\n      EXP \t\t\titems.push(Item({\\n           ...\n      DUP2 \t\t\titems.push(Item({\\n           ...\n      SLOAD \t\t\titems.push(Item({\\n           ...\n      DUP2 \t\t\titems.push(Item({\\n           ...\n      PUSH FFFFFFFFFFFFFFFFFFFFFFFFFFFFFFFFFFFFFFFF\t\t\titems.push(Item({\\n           ...\n      MUL \t\t\titems.push(Item({\\n           ...\n      NOT \t\t\titems.push(Item({\\n           ...\n      AND \t\t\titems.push(Item({\\n           ...\n      SWAP1 \t\t\titems.push(Item({\\n           ...\n      DUP4 \t\t\titems.push(Item({\\n           ...\n      PUSH FFFFFFFFFFFFFFFFFFFFFFFFFFFFFFFFFFFFFFFF\t\t\titems.push(Item({\\n           ...\n      AND \t\t\titems.push(Item({\\n           ...\n      MUL \t\t\titems.push(Item({\\n           ...\n      OR \t\t\titems.push(Item({\\n           ...\n      SWAP1 \t\t\titems.push(Item({\\n           ...\n      SSTORE \t\t\titems.push(Item({\\n           ...\n      POP \t\t\titems.push(Item({\\n           ...\n      PUSH 40\t\t\titems.push(Item({\\n           ...\n      DUP3 \t\t\titems.push(Item({\\n           ...\n      ADD \t\t\titems.push(Item({\\n           ...\n      MLOAD \t\t\titems.push(Item({\\n           ...\n      DUP2 \t\t\titems.push(Item({\\n           ...\n      PUSH 2\t\t\titems.push(Item({\\n           ...\n      ADD \t\t\titems.push(Item({\\n           ...\n      SWAP1 \t\t\titems.push(Item({\\n           ...\n      DUP2 \t\t\titems.push(Item({\\n           ...\n      PUSH [tag] 50\t\t\titems.push(Item({\\n           ...\n      SWAP2 \t\t\titems.push(Item({\\n           ...\n      SWAP1 \t\t\titems.push(Item({\\n           ...\n      PUSH [tag] 51\t\t\titems.push(Item({\\n           ...\n      JUMP \t\t\titems.push(Item({\\n           ...\n    tag 50\t\t\titems.push(Item({\\n           ...\n      JUMPDEST \t\t\titems.push(Item({\\n           ...\n      POP \t\t\titems.push(Item({\\n           ...\n      PUSH 60\t\t\titems.push(Item({\\n           ...\n      DUP3 \t\t\titems.push(Item({\\n           ...\n      ADD \t\t\titems.push(Item({\\n           ...\n      MLOAD \t\t\titems.push(Item({\\n           ...\n      DUP2 \t\t\titems.push(Item({\\n           ...\n      PUSH 3\t\t\titems.push(Item({\\n           ...\n      ADD \t\t\titems.push(Item({\\n           ...\n      SWAP1 \t\t\titems.push(Item({\\n           ...\n      DUP2 \t\t\titems.push(Item({\\n           ...\n      PUSH [tag] 52\t\t\titems.push(Item({\\n           ...\n      SWAP2 \t\t\titems.push(Item({\\n           ...\n      SWAP1 \t\t\titems.push(Item({\\n           ...\n      PUSH [tag] 51\t\t\titems.push(Item({\\n           ...\n      JUMP \t\t\titems.push(Item({\\n           ...\n    tag 52\t\t\titems.push(Item({\\n           ...\n      JUMPDEST \t\t\titems.push(Item({\\n           ...\n      POP \t\t\titems.push(Item({\\n           ...\n      PUSH 80\t\t\titems.push(Item({\\n           ...\n      DUP3 \t\t\titems.push(Item({\\n           ...\n      ADD \t\t\titems.push(Item({\\n           ...\n      MLOAD \t\t\titems.push(Item({\\n           ...\n      DUP2 \t\t\titems.push(Item({\\n           ...\n      PUSH 4\t\t\titems.push(Item({\\n           ...\n      ADD \t\t\titems.push(Item({\\n           ...\n      SSTORE \t\t\titems.push(Item({\\n           ...\n      PUSH A0\t\t\titems.push(Item({\\n           ...\n      DUP3 \t\t\titems.push(Item({\\n           ...\n      ADD \t\t\titems.push(Item({\\n           ...\n      MLOAD \t\t\titems.push(Item({\\n           ...\n      DUP2 \t\t\titems.push(Item({\\n           ...\n      PUSH 5\t\t\titems.push(Item({\\n           ...\n      ADD \t\t\titems.push(Item({\\n           ...\n      PUSH 0\t\t\titems.push(Item({\\n           ...\n      PUSH 100\t\t\titems.push(Item({\\n           ...\n      EXP \t\t\titems.push(Item({\\n           ...\n      DUP2 \t\t\titems.push(Item({\\n           ...\n      SLOAD \t\t\titems.push(Item({\\n           ...\n      DUP2 \t\t\titems.push(Item({\\n           ...\n      PUSH FF\t\t\titems.push(Item({\\n           ...\n      MUL \t\t\titems.push(Item({\\n           ...\n      NOT \t\t\titems.push(Item({\\n           ...\n      AND \t\t\titems.push(Item({\\n           ...\n      SWAP1 \t\t\titems.push(Item({\\n           ...\n      DUP4 \t\t\titems.push(Item({\\n           ...\n      ISZERO \t\t\titems.push(Item({\\n           ...\n      ISZERO \t\t\titems.push(Item({\\n           ...\n      MUL \t\t\titems.push(Item({\\n           ...\n      OR \t\t\titems.push(Item({\\n           ...\n      SWAP1 \t\t\titems.push(Item({\\n           ...\n      SSTORE \t\t\titems.push(Item({\\n           ...\n      POP \t\t\titems.push(Item({\\n           ...\n      POP \t\t\titems.push(Item({\\n           ...\n      POP \t\t\titems.push(Item({\\n           ...\n      CALLER \t\t\tmsg.sender\n      PUSH FFFFFFFFFFFFFFFFFFFFFFFFFFFFFFFFFFFFFFFF\t\t\tItemListed(nextItemId, msg.sen...\n      AND \t\t\tItemListed(nextItemId, msg.sen...\n      PUSH C5036EC8A366A93FDE59354BD719EA6E26D1E7A0916E0EF35F50E4EA1244F1A6\t\t\tItemListed(nextItemId, msg.sen...\n      PUSH 1\t\t\tnextItemId\n      SLOAD \t\t\tnextItemId\n      DUP6 \t\t\t_title\n      DUP6 \t\t\t_description\n      DUP6 \t\t\t_price\n      PUSH 40\t\t\tItemListed(nextItemId, msg.sen...\n      MLOAD \t\t\tItemListed(nextItemId, msg.sen...\n      PUSH [tag] 53\t\t\tItemListed(nextItemId, msg.sen...\n      SWAP5 \t\t\tItemListed(nextItemId, msg.sen...\n      SWAP4 \t\t\tItemListed(nextItemId, msg.sen...\n      SWAP3 \t\t\tItemListed(nextItemId, msg.sen...\n      SWAP2 \t\t\tItemListed(nextItemId, msg.sen...\n      SWAP1 \t\t\tItemListed(nextItemId, msg.sen...\n      PUSH [tag] 54\t\t\tItemListed(nextItemId, msg.sen...\n      JUMP \t\t\tItemListed(nextItemId, msg.sen...\n    tag 53\t\t\tItemListed(nextItemId, msg.sen...\n      JUMPDEST \t\t\tItemListed(nextItemId, msg.sen...\n      PUSH 40\t\t\tItemListed(nextItemId, msg.sen...\n      MLOAD \t\t\tItemListed(nextItemId, msg.sen...\n      DUP1 \t\t\tItemListed(nextItemId, msg.sen...\n      SWAP2 \t\t\tItemListed(nextItemId, msg.sen...\n      SUB \t\t\tItemListed(nextItemId, msg.sen...\n      SWAP1 \t\t\tItemListed(nextItemId, msg.sen...\n      LOG2 \t\t\tItemListed(nextItemId, msg.sen...\n      PUSH 1\t\t\tnextItemId\n      PUSH 0\t\t\tnextItemId\n      DUP2 \t\t\tnextItemId++\n      SLOAD \t\t\tnextItemId++\n      DUP1 \t\t\tnextItemId++\n      SWAP3 \t\t\tnextItemId++\n      SWAP2 \t\t\tnextItemId++\n      SWAP1 \t\t\tnextItemId++\n      PUSH [tag] 55\t\t\tnextItemId++\n      SWAP1 \t\t\tnextItemId++\n      PUSH [tag] 56\t\t\tnextItemId++\n      JUMP \t\t\tnextItemId++\n    tag 55\t\t\tnextItemId++\n      JUMPDEST \t\t\tnextItemId++\n      SWAP2 \t\t\tnextItemId++\n      SWAP1 \t\t\tnextItemId++\n      POP \t\t\tnextItemId++\n      SSTORE \t\t\tnextItemId++\n      POP \t\t\tnextItemId++\n      POP \t\t\tfunction listItem(string memor...\n      POP \t\t\tfunction listItem(string memor...\n      POP \t\t\tfunction listItem(string memor...\n      JUMP \t\t\tfunction listItem(string memor...\n    tag 19\t\t\tfunction cancelListing(uint _i...\n      JUMPDEST \t\t\tfunction cancelListing(uint _i...\n      DUP1 \t\t\t_id\n      CALLER \t\t\tmsg.sender\n      PUSH FFFFFFFFFFFFFFFFFFFFFFFFFFFFFFFFFFFFFFFF\t\t\titems[_itemId].seller == msg.s...\n      AND \t\t\titems[_itemId].seller == msg.s...\n      PUSH 0\t\t\titems\n      DUP3 \t\t\t_itemId\n      DUP2 \t\t\titems[_itemId]\n      SLOAD \t\t\titems[_itemId]\n      DUP2 \t\t\titems[_itemId]\n      LT \t\t\titems[_itemId]\n      PUSH [tag] 58\t\t\titems[_itemId]\n      JUMPI \t\t\titems[_itemId]\n      PUSH [tag] 59\t\t\titems[_itemId]\n      PUSH [tag] 60\t\t\titems[_itemId]\n      JUMP \t\t\titems[_itemId]\n    tag 59\t\t\titems[_itemId]\n      JUMPDEST \t\t\titems[_itemId]\n    tag 58\t\t\titems[_itemId]\n      JUMPDEST \t\t\titems[_itemId]\n      SWAP1 \t\t\titems[_itemId]\n      PUSH 0\t\t\titems[_itemId]\n      MSTORE \t\t\titems[_itemId]\n      PUSH 20\t\t\titems[_itemId]\n      PUSH 0\t\t\titems[_itemId]\n      KECCAK256 \t\t\titems[_itemId]\n      SWAP1 \t\t\titems[_itemId]\n      PUSH 6\t\t\titems[_itemId]\n      MUL \t\t\titems[_itemId]\n      ADD \t\t\titems[_itemId]\n      PUSH 1\t\t\titems[_itemId].seller\n      ADD \t\t\titems[_itemId].seller\n      PUSH 0\t\t\titems[_itemId].seller\n      SWAP1 \t\t\titems[_itemId].seller\n      SLOAD \t\t\titems[_itemId].seller\n      SWAP1 \t\t\titems[_itemId].seller\n      PUSH 100\t\t\titems[_itemId].seller\n      EXP \t\t\titems[_itemId].seller\n      SWAP1 \t\t\titems[_itemId].seller\n      DIV \t\t\titems[_itemId].seller\n      PUSH FFFFFFFFFFFFFFFFFFFFFFFFFFFFFFFFFFFFFFFF\t\t\titems[_itemId].seller\n      AND \t\t\titems[_itemId].seller\n      PUSH FFFFFFFFFFFFFFFFFFFFFFFFFFFFFFFFFFFFFFFF\t\t\titems[_itemId].seller == msg.s...\n      AND \t\t\titems[_itemId].seller == msg.s...\n      EQ \t\t\titems[_itemId].seller == msg.s...\n      PUSH [tag] 62\t\t\trequire(items[_itemId].seller ...\n      JUMPI \t\t\trequire(items[_itemId].seller ...\n      PUSH 40\t\t\trequire(items[_itemId].seller ...\n      MLOAD \t\t\trequire(items[_itemId].seller ...\n      PUSH 8C379A000000000000000000000000000000000000000000000000000000000\t\t\trequire(items[_itemId].seller ...\n      DUP2 \t\t\trequire(items[_itemId].seller ...\n      MSTORE \t\t\trequire(items[_itemId].seller ...\n      PUSH 4\t\t\trequire(items[_itemId].seller ...\n      ADD \t\t\trequire(items[_itemId].seller ...\n      PUSH [tag] 63\t\t\trequire(items[_itemId].seller ...\n      SWAP1 \t\t\trequire(items[_itemId].seller ...\n      PUSH [tag] 64\t\t\trequire(items[_itemId].seller ...\n      JUMP \t\t\trequire(items[_itemId].seller ...\n    tag 63\t\t\trequire(items[_itemId].seller ...\n      JUMPDEST \t\t\trequire(items[_itemId].seller ...\n      PUSH 40\t\t\trequire(items[_itemId].seller ...\n      MLOAD \t\t\trequire(items[_itemId].seller ...\n      DUP1 \t\t\trequire(items[_itemId].seller ...\n      SWAP2 \t\t\trequire(items[_itemId].seller ...\n      SUB \t\t\trequire(items[_itemId].seller ...\n      SWAP1 \t\t\trequire(items[_itemId].seller ...\n      REVERT \t\t\trequire(items[_itemId].seller ...\n    tag 62\t\t\trequire(items[_itemId].seller ...\n      JUMPDEST \t\t\trequire(items[_itemId].seller ...\n      PUSH 0\t\t\titems\n      DUP3 \t\t\t_id\n      DUP2 \t\t\titems[_id]\n      SLOAD \t\t\titems[_id]\n      DUP2 \t\t\titems[_id]\n      LT \t\t\titems[_id]\n      PUSH [tag] 66\t\t\titems[_id]\n      JUMPI \t\t\titems[_id]\n      PUSH [tag] 67\t\t\titems[_id]\n      PUSH [tag] 60\t\t\titems[_id]\n      JUMP \t\t\titems[_id]\n    tag 67\t\t\titems[_id]\n      JUMPDEST \t\t\titems[_id]\n    tag 66\t\t\titems[_id]\n      JUMPDEST \t\t\titems[_id]\n      SWAP1 \t\t\titems[_id]\n      PUSH 0\t\t\titems[_id]\n      MSTORE \t\t\titems[_id]\n      PUSH 20\t\t\titems[_id]\n      PUSH 0\t\t\titems[_id]\n      KECCAK256 \t\t\titems[_id]\n      SWAP1 \t\t\titems[_id]\n      PUSH 6\t\t\titems[_id]\n      MUL \t\t\titems[_id]\n      ADD \t\t\titems[_id]\n      PUSH 5\t\t\titems[_id].sold\n      ADD \t\t\titems[_id].sold\n      PUSH 0\t\t\titems[_id].sold\n      SWAP1 \t\t\titems[_id].sold\n      SLOAD \t\t\titems[_id].sold\n      SWAP1 \t\t\titems[_id].sold\n      PUSH 100\t\t\titems[_id].sold\n      EXP \t\t\titems[_id].sold\n      SWAP1 \t\t\titems[_id].sold\n      DIV \t\t\titems[_id].sold\n      PUSH FF\t\t\titems[_id].sold\n      AND \t\t\titems[_id].sold\n      ISZERO \t\t\t!items[_id].sold\n      PUSH [tag] 69\t\t\trequire(!items[_id].sold, \"Can...\n      JUMPI \t\t\trequire(!items[_id].sold, \"Can...\n      PUSH 40\t\t\trequire(!items[_id].sold, \"Can...\n      MLOAD \t\t\trequire(!items[_id].sold, \"Can...\n      PUSH 8C379A000000000000000000000000000000000000000000000000000000000\t\t\trequire(!items[_id].sold, \"Can...\n      DUP2 \t\t\trequire(!items[_id].sold, \"Can...\n      MSTORE \t\t\trequire(!items[_id].sold, \"Can...\n      PUSH 4\t\t\trequire(!items[_id].sold, \"Can...\n      ADD \t\t\trequire(!items[_id].sold, \"Can...\n      PUSH [tag] 70\t\t\trequire(!items[_id].sold, \"Can...\n      SWAP1 \t\t\trequire(!items[_id].sold, \"Can...\n      PUSH [tag] 71\t\t\trequire(!items[_id].sold, \"Can...\n      JUMP \t\t\trequire(!items[_id].sold, \"Can...\n    tag 70\t\t\trequire(!items[_id].sold, \"Can...\n      JUMPDEST \t\t\trequire(!items[_id].sold, \"Can...\n      PUSH 40\t\t\trequire(!items[_id].sold, \"Can...\n      MLOAD \t\t\trequire(!items[_id].sold, \"Can...\n      DUP1 \t\t\trequire(!items[_id].sold, \"Can...\n      SWAP2 \t\t\trequire(!items[_id].sold, \"Can...\n      SUB \t\t\trequire(!items[_id].sold, \"Can...\n      SWAP1 \t\t\trequire(!items[_id].sold, \"Can...\n      REVERT \t\t\trequire(!items[_id].sold, \"Can...\n    tag 69\t\t\trequire(!items[_id].sold, \"Can...\n      JUMPDEST \t\t\trequire(!items[_id].sold, \"Can...\n      PUSH 1\t\t\ttrue\n      PUSH 0\t\t\titems\n      DUP4 \t\t\t_id\n      DUP2 \t\t\titems[_id]\n      SLOAD \t\t\titems[_id]\n      DUP2 \t\t\titems[_id]\n      LT \t\t\titems[_id]\n      PUSH [tag] 72\t\t\titems[_id]\n      JUMPI \t\t\titems[_id]\n      PUSH [tag] 73\t\t\titems[_id]\n      PUSH [tag] 60\t\t\titems[_id]\n      JUMP \t\t\titems[_id]\n    tag 73\t\t\titems[_id]\n      JUMPDEST \t\t\titems[_id]\n    tag 72\t\t\titems[_id]\n      JUMPDEST \t\t\titems[_id]\n      SWAP1 \t\t\titems[_id]\n      PUSH 0\t\t\titems[_id]\n      MSTORE \t\t\titems[_id]\n      PUSH 20\t\t\titems[_id]\n      PUSH 0\t\t\titems[_id]\n      KECCAK256 \t\t\titems[_id]\n      SWAP1 \t\t\titems[_id]\n      PUSH 6\t\t\titems[_id]\n      MUL \t\t\titems[_id]\n      ADD \t\t\titems[_id]\n      PUSH 5\t\t\titems[_id].sold\n      ADD \t\t\titems[_id].sold\n      PUSH 0\t\t\titems[_id].sold\n      PUSH 100\t\t\titems[_id].sold = true\n      EXP \t\t\titems[_id].sold = true\n      DUP2 \t\t\titems[_id].sold = true\n      SLOAD \t\t\titems[_id].sold = true\n      DUP2 \t\t\titems[_id].sold = true\n      PUSH FF\t\t\titems[_id].sold = true\n      MUL \t\t\titems[_id].sold = true\n      NOT \t\t\titems[_id].sold = true\n      AND \t\t\titems[_id].sold = true\n      SWAP1 \t\t\titems[_id].sold = true\n      DUP4 \t\t\titems[_id].sold = true\n      ISZERO \t\t\titems[_id].sold = true\n      ISZERO \t\t\titems[_id].sold = true\n      MUL \t\t\titems[_id].sold = true\n      OR \t\t\titems[_id].sold = true\n      SWAP1 \t\t\titems[_id].sold = true\n      SSTORE \t\t\titems[_id].sold = true\n      POP \t\t\titems[_id].sold = true\n      CALLER \t\t\tmsg.sender\n      PUSH FFFFFFFFFFFFFFFFFFFFFFFFFFFFFFFFFFFFFFFF\t\t\tItemCancelled(_id, msg.sender)\n      AND \t\t\tItemCancelled(_id, msg.sender)\n      PUSH F69C7EA3F71DAD86E17BA97A88B7E8F1708C0946BD98C7584E9942F60DA8728E\t\t\tItemCancelled(_id, msg.sender)\n      DUP4 \t\t\t_id\n      PUSH 40\t\t\tItemCancelled(_id, msg.sender)\n      MLOAD \t\t\tItemCancelled(_id, msg.sender)\n      PUSH [tag] 75\t\t\tItemCancelled(_id, msg.sender)\n      SWAP2 \t\t\tItemCancelled(_id, msg.sender)\n      SWAP1 \t\t\tItemCancelled(_id, msg.sender)\n      PUSH [tag] 35\t\t\tItemCancelled(_id, msg.sender)\n      JUMP \t\t\tItemCancelled(_id, msg.sender)\n    tag 75\t\t\tItemCancelled(_id, msg.sender)\n      JUMPDEST \t\t\tItemCancelled(_id, msg.sender)\n      PUSH 40\t\t\tItemCancelled(_id, msg.sender)\n      MLOAD \t\t\tItemCancelled(_id, msg.sender)\n      DUP1 \t\t\tItemCancelled(_id, msg.sender)\n      SWAP2 \t\t\tItemCancelled(_id, msg.sender)\n      SUB \t\t\tItemCancelled(_id, msg.sender)\n      SWAP1 \t\t\tItemCancelled(_id, msg.sender)\n      LOG2 \t\t\tItemCancelled(_id, msg.sender)\n      POP \t\t\tfunction cancelListing(uint _i...\n      POP \t\t\tfunction cancelListing(uint _i...\n      JUMP \t\t\tfunction cancelListing(uint _i...\n    tag 23\t\t\tfunction getItem(uint _id) pub...\n      JUMPDEST \t\t\tfunction getItem(uint _id) pub...\n      PUSH 0\t\t\tuint\n      PUSH 60\t\t\tstring memory\n      DUP1 \t\t\tstring memory\n      PUSH 0\t\t\tuint\n      DUP1 \t\t\tbool\n      PUSH 0\t\t\titems\n      DUP1 \t\t\titems.length\n      SLOAD \t\t\titems.length\n      SWAP1 \t\t\titems.length\n      POP \t\t\titems.length\n      DUP7 \t\t\t_id\n      LT \t\t\t_id < items.length\n      DUP1 \t\t\t_id < items.length && items[_i...\n      ISZERO \t\t\t_id < items.length && items[_i...\n      PUSH [tag] 77\t\t\t_id < items.length && items[_i...\n      JUMPI \t\t\t_id < items.length && items[_i...\n      POP \t\t\t_id < items.length && items[_i...\n      DUP6 \t\t\t_id\n      PUSH 0\t\t\titems\n      DUP8 \t\t\t_id\n      DUP2 \t\t\titems[_id]\n      SLOAD \t\t\titems[_id]\n      DUP2 \t\t\titems[_id]\n      LT \t\t\titems[_id]\n      PUSH [tag] 78\t\t\titems[_id]\n      JUMPI \t\t\titems[_id]\n      PUSH [tag] 79\t\t\titems[_id]\n      PUSH [tag] 60\t\t\titems[_id]\n      JUMP \t\t\titems[_id]\n    tag 79\t\t\titems[_id]\n      JUMPDEST \t\t\titems[_id]\n    tag 78\t\t\titems[_id]\n      JUMPDEST \t\t\titems[_id]\n      SWAP1 \t\t\titems[_id]\n      PUSH 0\t\t\titems[_id]\n      MSTORE \t\t\titems[_id]\n      PUSH 20\t\t\titems[_id]\n      PUSH 0\t\t\titems[_id]\n      KECCAK256 \t\t\titems[_id]\n      SWAP1 \t\t\titems[_id]\n      PUSH 6\t\t\titems[_id]\n      MUL \t\t\titems[_id]\n      ADD \t\t\titems[_id]\n      PUSH 0\t\t\titems[_id].id\n      ADD \t\t\titems[_id].id\n      SLOAD \t\t\titems[_id].id\n      EQ \t\t\titems[_id].id == _id\n    tag 77\t\t\t_id < items.length && items[_i...\n      JUMPDEST \t\t\t_id < items.length && items[_i...\n      PUSH [tag] 81\t\t\trequire(_id < items.length && ...\n      JUMPI \t\t\trequire(_id < items.length && ...\n      PUSH 40\t\t\trequire(_id < items.length && ...\n      MLOAD \t\t\trequire(_id < items.length && ...\n      PUSH 8C379A000000000000000000000000000000000000000000000000000000000\t\t\trequire(_id < items.length && ...\n      DUP2 \t\t\trequire(_id < items.length && ...\n      MSTORE \t\t\trequire(_id < items.length && ...\n      PUSH 4\t\t\trequire(_id < items.length && ...\n      ADD \t\t\trequire(_id < items.length && ...\n      PUSH [tag] 82\t\t\trequire(_id < items.length && ...\n      SWAP1 \t\t\trequire(_id < items.length && ...\n      PUSH [tag] 83\t\t\trequire(_id < items.length && ...\n      JUMP \t\t\trequire(_id < items.length && ...\n    tag 82\t\t\trequire(_id < items.length && ...\n      JUMPDEST \t\t\trequire(_id < items.length && ...\n      PUSH 40\t\t\trequire(_id < items.length && ...\n      MLOAD \t\t\trequire(_id < items.length && ...\n      DUP1 \t\t\trequire(_id < items.length && ...\n      SWAP2 \t\t\trequire(_id < items.length && ...\n      SUB \t\t\trequire(_id < items.length && ...\n      SWAP1 \t\t\trequire(_id < items.length && ...\n      REVERT \t\t\trequire(_id < items.length && ...\n    tag 81\t\t\trequire(_id < items.length && ...\n      JUMPDEST \t\t\trequire(_id < items.length && ...\n      PUSH 0\t\t\tItem storage item\n      DUP1 \t\t\titems\n      DUP8 \t\t\t_id\n      DUP2 \t\t\titems[_id]\n      SLOAD \t\t\titems[_id]\n      DUP2 \t\t\titems[_id]\n      LT \t\t\titems[_id]\n      PUSH [tag] 84\t\t\titems[_id]\n      JUMPI \t\t\titems[_id]\n      PUSH [tag] 85\t\t\titems[_id]\n      PUSH [tag] 60\t\t\titems[_id]\n      JUMP \t\t\titems[_id]\n    tag 85\t\t\titems[_id]\n      JUMPDEST \t\t\titems[_id]\n    tag 84\t\t\titems[_id]\n      JUMPDEST \t\t\titems[_id]\n      SWAP1 \t\t\titems[_id]\n      PUSH 0\t\t\titems[_id]\n      MSTORE \t\t\titems[_id]\n      PUSH 20\t\t\titems[_id]\n      PUSH 0\t\t\titems[_id]\n      KECCAK256 \t\t\titems[_id]\n      SWAP1 \t\t\titems[_id]\n      PUSH 6\t\t\titems[_id]\n      MUL \t\t\titems[_id]\n      ADD \t\t\titems[_id]\n      SWAP1 \t\t\tItem storage item = items[_id]\n      POP \t\t\tItem storage item = items[_id]\n      DUP1 \t\t\titem\n      PUSH 0\t\t\titem.id\n      ADD \t\t\titem.id\n      SLOAD \t\t\titem.id\n      DUP2 \t\t\titem\n      PUSH 2\t\t\titem.title\n      ADD \t\t\titem.title\n      DUP3 \t\t\titem\n      PUSH 3\t\t\titem.description\n      ADD \t\t\titem.description\n      DUP4 \t\t\titem\n      PUSH 4\t\t\titem.price\n      ADD \t\t\titem.price\n      SLOAD \t\t\titem.price\n      DUP5 \t\t\titem\n      PUSH 5\t\t\titem.sold\n      ADD \t\t\titem.sold\n      PUSH 0\t\t\titem.sold\n      SWAP1 \t\t\titem.sold\n      SLOAD \t\t\titem.sold\n      SWAP1 \t\t\titem.sold\n      PUSH 100\t\t\titem.sold\n      EXP \t\t\titem.sold\n      SWAP1 \t\t\titem.sold\n      DIV \t\t\titem.sold\n      PUSH FF\t\t\titem.sold\n      AND \t\t\titem.sold\n      DUP4 \t\t\treturn (item.id, item.title, i...\n      DUP1 \t\t\treturn (item.id, item.title, i...\n      SLOAD \t\t\treturn (item.id, item.title, i...\n      PUSH [tag] 87\t\t\treturn (item.id, item.title, i...\n      SWAP1 \t\t\treturn (item.id, item.title, i...\n      PUSH [tag] 88\t\t\treturn (item.id, item.title, i...\n      JUMP \t\t\treturn (item.id, item.title, i...\n    tag 87\t\t\treturn (item.id, item.title, i...\n      JUMPDEST \t\t\treturn (item.id, item.title, i...\n      DUP1 \t\t\treturn (item.id, item.title, i...\n      PUSH 1F\t\t\treturn (item.id, item.title, i...\n      ADD \t\t\treturn (item.id, item.title, i...\n      PUSH 20\t\t\treturn (item.id, item.title, i...\n      DUP1 \t\t\treturn (item.id, item.title, i...\n      SWAP2 \t\t\treturn (item.id, item.title, i...\n      DIV \t\t\treturn (item.id, item.title, i...\n      MUL \t\t\treturn (item.id, item.title, i...\n      PUSH 20\t\t\treturn (item.id, item.title, i...\n      ADD \t\t\treturn (item.id, item.title, i...\n      PUSH 40\t\t\treturn (item.id, item.title, i...\n      MLOAD \t\t\treturn (item.id, item.title, i...\n      SWAP1 \t\t\treturn (item.id, item.title, i...\n      DUP2 \t\t\treturn (item.id, item.title, i...\n      ADD \t\t\treturn (item.id, item.title, i...\n      PUSH 40\t\t\treturn (item.id, item.title, i...\n      MSTORE \t\t\treturn (item.id, item.title, i...\n      DUP1 \t\t\treturn (item.id, item.title, i...\n      SWAP3 \t\t\treturn (item.id, item.title, i...\n      SWAP2 \t\t\treturn (item.id, item.title, i...\n      SWAP1 \t\t\treturn (item.id, item.title, i...\n      DUP2 \t\t\treturn (item.id, item.title, i...\n      DUP2 \t\t\treturn (item.id, item.title, i...\n      MSTORE \t\t\treturn (item.id, item.title, i...\n      PUSH 20\t\t\treturn (item.id, item.title, i...\n      ADD \t\t\treturn (item.id, item.title, i...\n      DUP3 \t\t\treturn (item.id, item.title, i...\n      DUP1 \t\t\treturn (item.id, item.title, i...\n      SLOAD \t\t\treturn (item.id, item.title, i...\n      PUSH [tag] 89\t\t\treturn (item.id, item.title, i...\n      SWAP1 \t\t\treturn (item.id, item.title, i...\n      PUSH [tag] 88\t\t\treturn (item.id, item.title, i...\n      JUMP \t\t\treturn (item.id, item.title, i...\n    tag 89\t\t\treturn (item.id, item.title, i...\n      JUMPDEST \t\t\treturn (item.id, item.title, i...\n      DUP1 \t\t\treturn (item.id, item.title, i...\n      ISZERO \t\t\treturn (item.id, item.title, i...\n      PUSH [tag] 90\t\t\treturn (item.id, item.title, i...\n      JUMPI \t\t\treturn (item.id, item.title, i...\n      DUP1 \t\t\treturn (item.id, item.title, i...\n      PUSH 1F\t\t\treturn (item.id, item.title, i...\n      LT \t\t\treturn (item.id, item.title, i...\n      PUSH [tag] 91\t\t\treturn (item.id, item.title, i...\n      JUMPI \t\t\treturn (item.id, item.title, i...\n      PUSH 100\t\t\treturn (item.id, item.title, i...\n      DUP1 \t\t\treturn (item.id, item.title, i...\n      DUP4 \t\t\treturn (item.id, item.title, i...\n      SLOAD \t\t\treturn (item.id, item.title, i...\n      DIV \t\t\treturn (item.id, item.title, i...\n      MUL \t\t\treturn (item.id, item.title, i...\n      DUP4 \t\t\treturn (item.id, item.title, i...\n      MSTORE \t\t\treturn (item.id, item.title, i...\n      SWAP2 \t\t\treturn (item.id, item.title, i...\n      PUSH 20\t\t\treturn (item.id, item.title, i...\n      ADD \t\t\treturn (item.id, item.title, i...\n      SWAP2 \t\t\treturn (item.id, item.title, i...\n      PUSH [tag] 90\t\t\treturn (item.id, item.title, i...\n      JUMP \t\t\treturn (item.id, item.title, i...\n    tag 91\t\t\treturn (item.id, item.title, i...\n      JUMPDEST \t\t\treturn (item.id, item.title, i...\n      DUP3 \t\t\treturn (item.id, item.title, i...\n      ADD \t\t\treturn (item.id, item.title, i...\n      SWAP2 \t\t\treturn (item.id, item.title, i...\n      SWAP1 \t\t\treturn (item.id, item.title, i...\n      PUSH 0\t\t\treturn (item.id, item.title, i...\n      MSTORE \t\t\treturn (item.id, item.title, i...\n      PUSH 20\t\t\treturn (item.id, item.title, i...\n      PUSH 0\t\t\treturn (item.id, item.title, i...\n      KECCAK256 \t\t\treturn (item.id, item.title, i...\n      SWAP1 \t\t\treturn (item.id, item.title, i...\n    tag 92\t\t\treturn (item.id, item.title, i...\n      JUMPDEST \t\t\treturn (item.id, item.title, i...\n      DUP2 \t\t\treturn (item.id, item.title, i...\n      SLOAD \t\t\treturn (item.id, item.title, i...\n      DUP2 \t\t\treturn (item.id, item.title, i...\n      MSTORE \t\t\treturn (item.id, item.title, i...\n      SWAP1 \t\t\treturn (item.id, item.title, i...\n      PUSH 1\t\t\treturn (item.id, item.title, i...\n      ADD \t\t\treturn (item.id, item.title, i...\n      SWAP1 \t\t\treturn (item.id, item.title, i...\n      PUSH 20\t\t\treturn (item.id, item.title, i...\n      ADD \t\t\treturn (item.id, item.title, i...\n      DUP1 \t\t\treturn (item.id, item.title, i...\n      DUP4 \t\t\treturn (item.id, item.title, i...\n      GT \t\t\treturn (item.id, item.title, i...\n      PUSH [tag] 92\t\t\treturn (item.id, item.title, i...\n      JUMPI \t\t\treturn (item.id, item.title, i...\n      DUP3 \t\t\treturn (item.id, item.title, i...\n      SWAP1 \t\t\treturn (item.id, item.title, i...\n      SUB \t\t\treturn (item.id, item.title, i...\n      PUSH 1F\t\t\treturn (item.id, item.title, i...\n      AND \t\t\treturn (item.id, item.title, i...\n      DUP3 \t\t\treturn (item.id, item.title, i...\n      ADD \t\t\treturn (item.id, item.title, i...\n      SWAP2 \t\t\treturn (item.id, item.title, i...\n    tag 90\t\t\treturn (item.id, item.title, i...\n      JUMPDEST \t\t\treturn (item.id, item.title, i...\n      POP \t\t\treturn (item.id, item.title, i...\n      POP \t\t\treturn (item.id, item.title, i...\n      POP \t\t\treturn (item.id, item.title, i...\n      POP \t\t\treturn (item.id, item.title, i...\n      POP \t\t\treturn (item.id, item.title, i...\n      SWAP4 \t\t\treturn (item.id, item.title, i...\n      POP \t\t\treturn (item.id, item.title, i...\n      DUP3 \t\t\treturn (item.id, item.title, i...\n      DUP1 \t\t\treturn (item.id, item.title, i...\n      SLOAD \t\t\treturn (item.id, item.title, i...\n      PUSH [tag] 93\t\t\treturn (item.id, item.title, i...\n      SWAP1 \t\t\treturn (item.id, item.title, i...\n      PUSH [tag] 88\t\t\treturn (item.id, item.title, i...\n      JUMP \t\t\treturn (item.id, item.title, i...\n    tag 93\t\t\treturn (item.id, item.title, i...\n      JUMPDEST \t\t\treturn (item.id, item.title, i...\n      DUP1 \t\t\treturn (item.id, item.title, i...\n      PUSH 1F\t\t\treturn (item.id, item.title, i...\n      ADD \t\t\treturn (item.id, item.title, i...\n      PUSH 20\t\t\treturn (item.id, item.title, i...\n      DUP1 \t\t\treturn (item.id, item.title, i...\n      SWAP2 \t\t\treturn (item.id, item.title, i...\n      DIV \t\t\treturn (item.id, item.title, i...\n      MUL \t\t\treturn (item.id, item.title, i...\n      PUSH 20\t\t\treturn (item.id, item.title, i...\n      ADD \t\t\treturn (item.id, item.title, i...\n      PUSH 40\t\t\treturn (item.id, item.title, i...\n      MLOAD \t\t\treturn (item.id, item.title, i...\n      SWAP1 \t\t\treturn (item.id, item.title, i...\n      DUP2 \t\t\treturn (item.id, item.title, i...\n      ADD \t\t\treturn (item.id, item.title, i...\n      PUSH 40\t\t\treturn (item.id, item.title, i...\n      MSTORE \t\t\treturn (item.id, item.title, i...\n      DUP1 \t\t\treturn (item.id, item.title, i...\n      SWAP3 \t\t\treturn (item.id, item.title, i...\n      SWAP2 \t\t\treturn (item.id, item.title, i...\n      SWAP1 \t\t\treturn (item.id, item.title, i...\n      DUP2 \t\t\treturn (item.id, item.title, i...\n      DUP2 \t\t\treturn (item.id, item.title, i...\n      MSTORE \t\t\treturn (item.id, item.title, i...\n      PUSH 20\t\t\treturn (item.id, item.title, i...\n      ADD \t\t\treturn (item.id, item.title, i...\n      DUP3 \t\t\treturn (item.id, item.title, i...\n      DUP1 \t\t\treturn (item.id, item.title, i...\n      SLOAD \t\t\treturn (item.id, item.title, i...\n      PUSH [tag] 94\t\t\treturn (item.id, item.title, i...\n      SWAP1 \t\t\treturn (item.id, item.title, i...\n      PUSH [tag] 88\t\t\treturn (item.id, item.title, i...\n      JUMP \t\t\treturn (item.id, item.title, i...\n    tag 94\t\t\treturn (item.id, item.title, i...\n      JUMPDEST \t\t\treturn (item.id, item.title, i...\n      DUP1 \t\t\treturn (item.id, item.title, i...\n      ISZERO \t\t\treturn (item.id, item.title, i...\n      PUSH [tag] 95\t\t\treturn (item.id, item.title, i...\n      JUMPI \t\t\treturn (item.id, item.title, i...\n      DUP1 \t\t\treturn (item.id, item.title, i...\n      PUSH 1F\t\t\treturn (item.id, item.title, i...\n      LT \t\t\treturn (item.id, item.title, i...\n      PUSH [tag] 96\t\t\treturn (item.id, item.title, i...\n      JUMPI \t\t\treturn (item.id, item.title, i...\n      PUSH 100\t\t\treturn (item.id, item.title, i...\n      DUP1 \t\t\treturn (item.id, item.title, i...\n      DUP4 \t\t\treturn (item.id, item.title, i...\n      SLOAD \t\t\treturn (item.id, item.title, i...\n      DIV \t\t\treturn (item.id, item.title, i...\n      MUL \t\t\treturn (item.id, item.title, i...\n      DUP4 \t\t\treturn (item.id, item.title, i...\n      MSTORE \t\t\treturn (item.id, item.title, i...\n      SWAP2 \t\t\treturn (item.id, item.title, i...\n      PUSH 20\t\t\treturn (item.id, item.title, i...\n      ADD \t\t\treturn (item.id, item.title, i...\n      SWAP2 \t\t\treturn (item.id, item.title, i...\n      PUSH [tag] 95\t\t\treturn (item.id, item.title, i...\n      JUMP \t\t\treturn (item.id, item.title, i...\n    tag 96\t\t\treturn (item.id, item.title, i...\n      JUMPDEST \t\t\treturn (item.id, item.title, i...\n      DUP3 \t\t\treturn (item.id, item.title, i...\n      ADD \t\t\treturn (item.id, item.title, i...\n      SWAP2 \t\t\treturn (item.id, item.title, i...\n      SWAP1 \t\t\treturn (item.id, item.title, i...\n      PUSH 0\t\t\treturn (item.id, item.title, i...\n      MSTORE \t\t\treturn (item.id, item.title, i...\n      PUSH 20\t\t\treturn (item.id, item.title, i...\n      PUSH 0\t\t\treturn (item.id, item.title, i...\n      KECCAK256 \t\t\treturn (item.id, item.title, i...\n      SWAP1 \t\t\treturn (item.id, item.title, i...\n    tag 97\t\t\treturn (item.id, item.title, i...\n      JUMPDEST \t\t\treturn (item.id, item.title, i...\n      DUP2 \t\t\treturn (item.id, item.title, i...\n      SLOAD \t\t\treturn (item.id, item.title, i...\n      DUP2 \t\t\treturn (item.id, item.title, i...\n      MSTORE \t\t\treturn (item.id, item.title, i...\n      SWAP1 \t\t\treturn (item.id, item.title, i...\n      PUSH 1\t\t\treturn (item.id, item.title, i...\n      ADD \t\t\treturn (item.id, item.title, i...\n      SWAP1 \t\t\treturn (item.id, item.title, i...\n      PUSH 20\t\t\treturn (item.id, item.title, i...\n      ADD \t\t\treturn (item.id, item.title, i...\n      DUP1 \t\t\treturn (item.id, item.title, i...\n      DUP4 \t\t\treturn (item.id, item.title, i...\n      GT \t\t\treturn (item.id, item.title, i...\n      PUSH [tag] 97\t\t\treturn (item.id, item.title, i...\n      JUMPI \t\t\treturn (item.id, item.title, i...\n      DUP3 \t\t\treturn (item.id, item.title, i...\n      SWAP1 \t\t\treturn (item.id, item.title, i...\n      SUB \t\t\treturn (item.id, item.title, i...\n      PUSH 1F\t\t\treturn (item.id, item.title, i...\n      AND \t\t\treturn (item.id, item.title, i...\n      DUP3 \t\t\treturn (item.id, item.title, i...\n      ADD \t\t\treturn (item.id, item.title, i...\n      SWAP2 \t\t\treturn (item.id, item.title, i...\n    tag 95\t\t\treturn (item.id, item.title, i...\n      JUMPDEST \t\t\treturn (item.id, item.title, i...\n      POP \t\t\treturn (item.id, item.title, i...\n      POP \t\t\treturn (item.id, item.title, i...\n      POP \t\t\treturn (item.id, item.title, i...\n      POP \t\t\treturn (item.id, item.title, i...\n      POP \t\t\treturn (item.id, item.title, i...\n      SWAP3 \t\t\treturn (item.id, item.title, i...\n      POP \t\t\treturn (item.id, item.title, i...\n      SWAP6 \t\t\treturn (item.id, item.title, i...\n      POP \t\t\treturn (item.id, item.title, i...\n      SWAP6 \t\t\treturn (item.id, item.title, i...\n      POP \t\t\treturn (item.id, item.title, i...\n      SWAP6 \t\t\treturn (item.id, item.title, i...\n      POP \t\t\treturn (item.id, item.title, i...\n      SWAP6 \t\t\treturn (item.id, item.title, i...\n      POP \t\t\treturn (item.id, item.title, i...\n      SWAP6 \t\t\treturn (item.id, item.title, i...\n      POP \t\t\treturn (item.id, item.title, i...\n      POP \t\t\treturn (item.id, item.title, i...\n      SWAP2 \t\t\tfunction getItem(uint _id) pub...\n      SWAP4 \t\t\tfunction getItem(uint _id) pub...\n      SWAP6 \t\t\tfunction getItem(uint _id) pub...\n      SWAP1 \t\t\tfunction getItem(uint _id) pub...\n      SWAP3 \t\t\tfunction getItem(uint _id) pub...\n      SWAP5 \t\t\tfunction getItem(uint _id) pub...\n      POP \t\t\tfunction getItem(uint _id) pub...\n      JUMP \t\t\tfunction getItem(uint _id) pub...\n    tag 28\t\t\tfunction getAllItems() public ...\n      JUMPDEST \t\t\tfunction getAllItems() public ...\n      PUSH 60\t\t\tItem[] memory\n      PUSH 0\t\t\titems\n      DUP1 \t\t\treturn items\n      SLOAD \t\t\treturn items\n      DUP1 \t\t\treturn items\n      PUSH 20\t\t\treturn items\n      MUL \t\t\treturn items\n      PUSH 20\t\t\treturn items\n      ADD \t\t\treturn items\n      PUSH 40\t\t\treturn items\n      MLOAD \t\t\treturn items\n      SWAP1 \t\t\treturn items\n      DUP2 \t\t\treturn items\n      ADD \t\t\treturn items\n      PUSH 40\t\t\treturn items\n      MSTORE \t\t\treturn items\n      DUP1 \t\t\treturn items\n      SWAP3 \t\t\treturn items\n      SWAP2 \t\t\treturn items\n      SWAP1 \t\t\treturn items\n      DUP2 \t\t\treturn items\n      DUP2 \t\t\treturn items\n      MSTORE \t\t\treturn items\n      PUSH 20\t\t\treturn items\n      ADD \t\t\treturn items\n      PUSH 0\t\t\treturn items\n      SWAP1 \t\t\treturn items\n    tag 99\t\t\treturn items\n      JUMPDEST \t\t\treturn items\n      DUP3 \t\t\treturn items\n      DUP3 \t\t\treturn items\n      LT \t\t\treturn items\n      ISZERO \t\t\treturn items\n      PUSH [tag] 100\t\t\treturn items\n      JUMPI \t\t\treturn items\n      DUP4 \t\t\treturn items\n      DUP3 \t\t\treturn items\n      SWAP1 \t\t\treturn items\n      PUSH 0\t\t\treturn items\n      MSTORE \t\t\treturn items\n      PUSH 20\t\t\treturn items\n      PUSH 0\t\t\treturn items\n      KECCAK256 \t\t\treturn items\n      SWAP1 \t\t\treturn items\n      PUSH 6\t\t\treturn items\n      MUL \t\t\treturn items\n      ADD \t\t\treturn items\n      PUSH 40\t\t\treturn items\n      MLOAD \t\t\treturn items\n      DUP1 \t\t\treturn items\n      PUSH C0\t\t\treturn items\n      ADD \t\t\treturn items\n      PUSH 40\t\t\treturn items\n      MSTORE \t\t\treturn items\n      SWAP1 \t\t\treturn items\n      DUP2 \t\t\treturn items\n      PUSH 0\t\t\treturn items\n      DUP3 \t\t\treturn items\n      ADD \t\t\treturn items\n      SLOAD \t\t\treturn items\n      DUP2 \t\t\treturn items\n      MSTORE \t\t\treturn items\n      PUSH 20\t\t\treturn items\n      ADD \t\t\treturn items\n      PUSH 1\t\t\treturn items\n      DUP3 \t\t\treturn items\n      ADD \t\t\treturn items\n      PUSH 0\t\t\treturn items\n      SWAP1 \t\t\treturn items\n      SLOAD \t\t\treturn items\n      SWAP1 \t\t\treturn items\n      PUSH 100\t\t\treturn items\n      EXP \t\t\treturn items\n      SWAP1 \t\t\treturn items\n      DIV \t\t\treturn items\n      PUSH FFFFFFFFFFFFFFFFFFFFFFFFFFFFFFFFFFFFFFFF\t\t\treturn items\n      AND \t\t\treturn items\n      PUSH FFFFFFFFFFFFFFFFFFFFFFFFFFFFFFFFFFFFFFFF\t\t\treturn items\n      AND \t\t\treturn items\n      PUSH FFFFFFFFFFFFFFFFFFFFFFFFFFFFFFFFFFFFFFFF\t\t\treturn items\n      AND \t\t\treturn items\n      DUP2 \t\t\treturn items\n      MSTORE \t\t\treturn items\n      PUSH 20\t\t\treturn items\n      ADD \t\t\treturn items\n      PUSH 2\t\t\treturn items\n      DUP3 \t\t\treturn items\n      ADD \t\t\treturn items\n      DUP1 \t\t\treturn items\n      SLOAD \t\t\treturn items\n      PUSH [tag] 102\t\t\treturn items\n      SWAP1 \t\t\treturn items\n      PUSH [tag] 88\t\t\treturn items\n      JUMP \t\t\treturn items\n    tag 102\t\t\treturn items\n      JUMPDEST \t\t\treturn items\n      DUP1 \t\t\treturn items\n      PUSH 1F\t\t\treturn items\n      ADD \t\t\treturn items\n      PUSH 20\t\t\treturn items\n      DUP1 \t\t\treturn items\n      SWAP2 \t\t\treturn items\n      DIV \t\t\treturn items\n      MUL \t\t\treturn items\n      PUSH 20\t\t\treturn items\n      ADD \t\t\treturn items\n      PUSH 40\t\t\treturn items\n      MLOAD \t\t\treturn items\n      SWAP1 \t\t\treturn items\n      DUP2 \t\t\treturn items\n      ADD \t\t\treturn items\n      PUSH 40\t\t\treturn items\n      MSTORE \t\t\treturn items\n      DUP1 \t\t\treturn items\n      SWAP3 \t\t\treturn items\n      SWAP2 \t\t\treturn items\n      SWAP1 \t\t\treturn items\n      DUP2 \t\t\treturn items\n      DUP2 \t\t\treturn items\n      MSTORE \t\t\treturn items\n      PUSH 20\t\t\treturn items\n      ADD \t\t\treturn items\n      DUP3 \t\t\treturn items\n      DUP1 \t\t\treturn items\n      SLOAD \t\t\treturn items\n      PUSH [tag] 103\t\t\treturn items\n      SWAP1 \t\t\treturn items\n      PUSH [tag] 88\t\t\treturn items\n      JUMP \t\t\treturn items\n    tag 103\t\t\treturn items\n      JUMPDEST \t\t\treturn items\n      DUP1 \t\t\treturn items\n      ISZERO \t\t\treturn items\n      PUSH [tag] 104\t\t\treturn items\n      JUMPI \t\t\treturn items\n      DUP1 \t\t\treturn items\n      PUSH 1F\t\t\treturn items\n      LT \t\t\treturn items\n      PUSH [tag] 105\t\t\treturn items\n      JUMPI \t\t\treturn items\n      PUSH 100\t\t\treturn items\n      DUP1 \t\t\treturn items\n      DUP4 \t\t\treturn items\n      SLOAD \t\t\treturn items\n      DIV \t\t\treturn items\n      MUL \t\t\treturn items\n      DUP4 \t\t\treturn items\n      MSTORE \t\t\treturn items\n      SWAP2 \t\t\treturn items\n      PUSH 20\t\t\treturn items\n      ADD \t\t\treturn items\n      SWAP2 \t\t\treturn items\n      PUSH [tag] 104\t\t\treturn items\n      JUMP \t\t\treturn items\n    tag 105\t\t\treturn items\n      JUMPDEST \t\t\treturn items\n      DUP3 \t\t\treturn items\n      ADD \t\t\treturn items\n      SWAP2 \t\t\treturn items\n      SWAP1 \t\t\treturn items\n      PUSH 0\t\t\treturn items\n      MSTORE \t\t\treturn items\n      PUSH 20\t\t\treturn items\n      PUSH 0\t\t\treturn items\n      KECCAK256 \t\t\treturn items\n      SWAP1 \t\t\treturn items\n    tag 106\t\t\treturn items\n      JUMPDEST \t\t\treturn items\n      DUP2 \t\t\treturn items\n      SLOAD \t\t\treturn items\n      DUP2 \t\t\treturn items\n      MSTORE \t\t\treturn items\n      SWAP1 \t\t\treturn items\n      PUSH 1\t\t\treturn items\n      ADD \t\t\treturn items\n      SWAP1 \t\t\treturn items\n      PUSH 20\t\t\treturn items\n      ADD \t\t\treturn items\n      DUP1 \t\t\treturn items\n      DUP4 \t\t\treturn items\n      GT \t\t\treturn items\n      PUSH [tag] 106\t\t\treturn items\n      JUMPI \t\t\treturn items\n      DUP3 \t\t\treturn items\n      SWAP1 \t\t\treturn items\n      SUB \t\t\treturn items\n      PUSH 1F\t\t\treturn items\n      AND \t\t\treturn items\n      DUP3 \t\t\treturn items\n      ADD \t\t\treturn items\n      SWAP2 \t\t\treturn items\n    tag 104\t\t\treturn items\n      JUMPDEST \t\t\treturn items\n      POP \t\t\treturn items\n      POP \t\t\treturn items\n      POP \t\t\treturn items\n      POP \t\t\treturn items\n      POP \t\t\treturn items\n      DUP2 \t\t\treturn items\n      MSTORE \t\t\treturn items\n      PUSH 20\t\t\treturn items\n      ADD \t\t\treturn items\n      PUSH 3\t\t\treturn items\n      DUP3 \t\t\treturn items\n      ADD \t\t\treturn items\n      DUP1 \t\t\treturn items\n      SLOAD \t\t\treturn items\n      PUSH [tag] 107\t\t\treturn items\n      SWAP1 \t\t\treturn items\n      PUSH [tag] 88\t\t\treturn items\n      JUMP \t\t\treturn items\n    tag 107\t\t\treturn items\n      JUMPDEST \t\t\treturn items\n      DUP1 \t\t\treturn items\n      PUSH 1F\t\t\treturn items\n      ADD \t\t\treturn items\n      PUSH 20\t\t\treturn items\n      DUP1 \t\t\treturn items\n      SWAP2 \t\t\treturn items\n      DIV \t\t\treturn items\n      MUL \t\t\treturn items\n      PUSH 20\t\t\treturn items\n      ADD \t\t\treturn items\n      PUSH 40\t\t\treturn items\n      MLOAD \t\t\treturn items\n      SWAP1 \t\t\treturn items\n      DUP2 \t\t\treturn items\n      ADD \t\t\treturn items\n      PUSH 40\t\t\treturn items\n      MSTORE \t\t\treturn items\n      DUP1 \t\t\treturn items\n      SWAP3 \t\t\treturn items\n      SWAP2 \t\t\treturn items\n      SWAP1 \t\t\treturn items\n      DUP2 \t\t\treturn items\n      DUP2 \t\t\treturn items\n      MSTORE \t\t\treturn items\n      PUSH 20\t\t\treturn items\n      ADD \t\t\treturn items\n      DUP3 \t\t\treturn items\n      DUP1 \t\t\treturn items\n      SLOAD \t\t\treturn items\n      PUSH [tag] 108\t\t\treturn items\n      SWAP1 \t\t\treturn items\n      PUSH [tag] 88\t\t\treturn items\n      JUMP \t\t\treturn items\n    tag 108\t\t\treturn items\n      JUMPDEST \t\t\treturn items\n      DUP1 \t\t\treturn items\n      ISZERO \t\t\treturn items\n      PUSH [tag] 109\t\t\treturn items\n      JUMPI \t\t\treturn items\n      DUP1 \t\t\treturn items\n      PUSH 1F\t\t\treturn items\n      LT \t\t\treturn items\n      PUSH [tag] 110\t\t\treturn items\n      JUMPI \t\t\treturn items\n      PUSH 100\t\t\treturn items\n      DUP1 \t\t\treturn items\n      DUP4 \t\t\treturn items\n      SLOAD \t\t\treturn items\n      DIV \t\t\treturn items\n      MUL \t\t\treturn items\n      DUP4 \t\t\treturn items\n      MSTORE \t\t\treturn items\n      SWAP2 \t\t\treturn items\n      PUSH 20\t\t\treturn items\n      ADD \t\t\treturn items\n      SWAP2 \t\t\treturn items\n      PUSH [tag] 109\t\t\treturn items\n      JUMP \t\t\treturn items\n    tag 110\t\t\treturn items\n      JUMPDEST \t\t\treturn items\n      DUP3 \t\t\treturn items\n      ADD \t\t\treturn items\n      SWAP2 \t\t\treturn items\n      SWAP1 \t\t\treturn items\n      PUSH 0\t\t\treturn items\n      MSTORE \t\t\treturn items\n      PUSH 20\t\t\treturn items\n      PUSH 0\t\t\treturn items\n      KECCAK256 \t\t\treturn items\n      SWAP1 \t\t\treturn items\n    tag 111\t\t\treturn items\n      JUMPDEST \t\t\treturn items\n      DUP2 \t\t\treturn items\n      SLOAD \t\t\treturn items\n      DUP2 \t\t\treturn items\n      MSTORE \t\t\treturn items\n      SWAP1 \t\t\treturn items\n      PUSH 1\t\t\treturn items\n      ADD \t\t\treturn items\n      SWAP1 \t\t\treturn items\n      PUSH 20\t\t\treturn items\n      ADD \t\t\treturn items\n      DUP1 \t\t\treturn items\n      DUP4 \t\t\treturn items\n      GT \t\t\treturn items\n      PUSH [tag] 111\t\t\treturn items\n      JUMPI \t\t\treturn items\n      DUP3 \t\t\treturn items\n      SWAP1 \t\t\treturn items\n      SUB \t\t\treturn items\n      PUSH 1F\t\t\treturn items\n      AND \t\t\treturn items\n      DUP3 \t\t\treturn items\n      ADD \t\t\treturn items\n      SWAP2 \t\t\treturn items\n    tag 109\t\t\treturn items\n      JUMPDEST \t\t\treturn items\n      POP \t\t\treturn items\n      POP \t\t\treturn items\n      POP \t\t\treturn items\n      POP \t\t\treturn items\n      POP \t\t\treturn items\n      DUP2 \t\t\treturn items\n      MSTORE \t\t\treturn items\n      PUSH 20\t\t\treturn items\n      ADD \t\t\treturn items\n      PUSH 4\t\t\treturn items\n      DUP3 \t\t\treturn items\n      ADD \t\t\treturn items\n      SLOAD \t\t\treturn items\n      DUP2 \t\t\treturn items\n      MSTORE \t\t\treturn items\n      PUSH 20\t\t\treturn items\n      ADD \t\t\treturn items\n      PUSH 5\t\t\treturn items\n      DUP3 \t\t\treturn items\n      ADD \t\t\treturn items\n      PUSH 0\t\t\treturn items\n      SWAP1 \t\t\treturn items\n      SLOAD \t\t\treturn items\n      SWAP1 \t\t\treturn items\n      PUSH 100\t\t\treturn items\n      EXP \t\t\treturn items\n      SWAP1 \t\t\treturn items\n      DIV \t\t\treturn items\n      PUSH FF\t\t\treturn items\n      AND \t\t\treturn items\n      ISZERO \t\t\treturn items\n      ISZERO \t\t\treturn items\n      ISZERO \t\t\treturn items\n      ISZERO \t\t\treturn items\n      DUP2 \t\t\treturn items\n      MSTORE \t\t\treturn items\n      POP \t\t\treturn items\n      POP \t\t\treturn items\n      DUP2 \t\t\treturn items\n      MSTORE \t\t\treturn items\n      PUSH 20\t\t\treturn items\n      ADD \t\t\treturn items\n      SWAP1 \t\t\treturn items\n      PUSH 1\t\t\treturn items\n      ADD \t\t\treturn items\n      SWAP1 \t\t\treturn items\n      PUSH [tag] 99\t\t\treturn items\n      JUMP \t\t\treturn items\n    tag 100\t\t\treturn items\n      JUMPDEST \t\t\treturn items\n      POP \t\t\treturn items\n      POP \t\t\treturn items\n      POP \t\t\treturn items\n      POP \t\t\treturn items\n      SWAP1 \t\t\treturn items\n      POP \t\t\treturn items\n      SWAP1 \t\t\tfunction getAllItems() public ...\n      JUMP \t\t\tfunction getAllItems() public ...\n    tag 33\t\t\tuint public nextItemId\n      JUMPDEST \t\t\tuint public nextItemId\n      PUSH 1\t\t\tuint public nextItemId\n      SLOAD \t\t\tuint public nextItemId\n      DUP2 \t\t\tuint public nextItemId\n      JUMP \t\t\tuint public nextItemId\n    tag 39\t\t\tItem[] public items\n      JUMPDEST \t\t\tItem[] public items\n      PUSH 0\t\t\tItem[] public items\n      DUP2 \t\t\tItem[] public items\n      DUP2 \t\t\tItem[] public items\n      SLOAD \t\t\tItem[] public items\n      DUP2 \t\t\tItem[] public items\n      LT \t\t\tItem[] public items\n      PUSH [tag] 112\t\t\tItem[] public items\n      JUMPI \t\t\tItem[] public items\n      PUSH 0\t\t\tItem[] public items\n      DUP1 \t\t\tItem[] public items\n      REVERT \t\t\tItem[] public items\n    tag 112\t\t\tItem[] public items\n      JUMPDEST \t\t\tItem[] public items\n      SWAP1 \t\t\tItem[] public items\n      PUSH 0\t\t\tItem[] public items\n      MSTORE \t\t\tItem[] public items\n      PUSH 20\t\t\tItem[] public items\n      PUSH 0\t\t\tItem[] public items\n      KECCAK256 \t\t\tItem[] public items\n      SWAP1 \t\t\tItem[] public items\n      PUSH 6\t\t\tItem[] public items\n      MUL \t\t\tItem[] public items\n      ADD \t\t\tItem[] public items\n      PUSH 0\t\t\tItem[] public items\n      SWAP2 \t\t\tItem[] public items\n      POP \t\t\tItem[] public items\n      SWAP1 \t\t\tItem[] public items\n      POP \t\t\tItem[] public items\n      DUP1 \t\t\tItem[] public items\n      PUSH 0\t\t\tItem[] public items\n      ADD \t\t\tItem[] public items\n      SLOAD \t\t\tItem[] public items\n      SWAP1 \t\t\tItem[] public items\n      DUP1 \t\t\tItem[] public items\n      PUSH 1\t\t\tItem[] public items\n      ADD \t\t\tItem[] public items\n      PUSH 0\t\t\tItem[] public items\n      SWAP1 \t\t\tItem[] public items\n      SLOAD \t\t\tItem[] public items\n      SWAP1 \t\t\tItem[] public items\n      PUSH 100\t\t\tItem[] public items\n      EXP \t\t\tItem[] public items\n      SWAP1 \t\t\tItem[] public items\n      DIV \t\t\tItem[] public items\n      PUSH FFFFFFFFFFFFFFFFFFFFFFFFFFFFFFFFFFFFFFFF\t\t\tItem[] public items\n      AND \t\t\tItem[] public items\n      SWAP1 \t\t\tItem[] public items\n      DUP1 \t\t\tItem[] public items\n      PUSH 2\t\t\tItem[] public items\n      ADD \t\t\tItem[] public items\n      DUP1 \t\t\tItem[] public items\n      SLOAD \t\t\tItem[] public items\n      PUSH [tag] 114\t\t\tItem[] public items\n      SWAP1 \t\t\tItem[] public items\n      PUSH [tag] 88\t\t\tItem[] public items\n      JUMP \t\t\tItem[] public items\n    tag 114\t\t\tItem[] public items\n      JUMPDEST \t\t\tItem[] public items\n      DUP1 \t\t\tItem[] public items\n      PUSH 1F\t\t\tItem[] public items\n      ADD \t\t\tItem[] public items\n      PUSH 20\t\t\tItem[] public items\n      DUP1 \t\t\tItem[] public items\n      SWAP2 \t\t\tItem[] public items\n      DIV \t\t\tItem[] public items\n      MUL \t\t\tItem[] public items\n      PUSH 20\t\t\tItem[] public items\n      ADD \t\t\tItem[] public items\n      PUSH 40\t\t\tItem[] public items\n      MLOAD \t\t\tItem[] public items\n      SWAP1 \t\t\tItem[] public items\n      DUP2 \t\t\tItem[] public items\n      ADD \t\t\tItem[] public items\n      PUSH 40\t\t\tItem[] public items\n      MSTORE \t\t\tItem[] public items\n      DUP1 \t\t\tItem[] public items\n      SWAP3 \t\t\tItem[] public items\n      SWAP2 \t\t\tItem[] public items\n      SWAP1 \t\t\tItem[] public items\n      DUP2 \t\t\tItem[] public items\n      DUP2 \t\t\tItem[] public items\n      MSTORE \t\t\tItem[] public items\n      PUSH 20\t\t\tItem[] public items\n      ADD \t\t\tItem[] public items\n      DUP3 \t\t\tItem[] public items\n      DUP1 \t\t\tItem[] public items\n      SLOAD \t\t\tItem[] public items\n      PUSH [tag] 115\t\t\tItem[] public items\n      SWAP1 \t\t\tItem[] public items\n      PUSH [tag] 88\t\t\tItem[] public items\n      JUMP \t\t\tItem[] public items\n    tag 115\t\t\tItem[] public items\n      JUMPDEST \t\t\tItem[] public items\n      DUP1 \t\t\tItem[] public items\n      ISZERO \t\t\tItem[] public items\n      PUSH [tag] 116\t\t\tItem[] public items\n      JUMPI \t\t\tItem[] public items\n      DUP1 \t\t\tItem[] public items\n      PUSH 1F\t\t\tItem[] public items\n      LT \t\t\tItem[] public items\n      PUSH [tag] 117\t\t\tItem[] public items\n      JUMPI \t\t\tItem[] public items\n      PUSH 100\t\t\tItem[] public items\n      DUP1 \t\t\tItem[] public items\n      DUP4 \t\t\tItem[] public items\n      SLOAD \t\t\tItem[] public items\n      DIV \t\t\tItem[] public items\n      MUL \t\t\tItem[] public items\n      DUP4 \t\t\tItem[] public items\n      MSTORE \t\t\tItem[] public items\n      SWAP2 \t\t\tItem[] public items\n      PUSH 20\t\t\tItem[] public items\n      ADD \t\t\tItem[] public items\n      SWAP2 \t\t\tItem[] public items\n      PUSH [tag] 116\t\t\tItem[] public items\n      JUMP \t\t\tItem[] public items\n    tag 117\t\t\tItem[] public items\n      JUMPDEST \t\t\tItem[] public items\n      DUP3 \t\t\tItem[] public items\n      ADD \t\t\tItem[] public items\n      SWAP2 \t\t\tItem[] public items\n      SWAP1 \t\t\tItem[] public items\n      PUSH 0\t\t\tItem[] public items\n      MSTORE \t\t\tItem[] public items\n      PUSH 20\t\t\tItem[] public items\n      PUSH 0\t\t\tItem[] public items\n      KECCAK256 \t\t\tItem[] public items\n      SWAP1 \t\t\tItem[] public items\n    tag 118\t\t\tItem[] public items\n      JUMPDEST \t\t\tItem[] public items\n      DUP2 \t\t\tItem[] public items\n      SLOAD \t\t\tItem[] public items\n      DUP2 \t\t\tItem[] public items\n      MSTORE \t\t\tItem[] public items\n      SWAP1 \t\t\tItem[] public items\n      PUSH 1\t\t\tItem[] public items\n      ADD \t\t\tItem[] public items\n      SWAP1 \t\t\tItem[] public items\n      PUSH 20\t\t\tItem[] public items\n      ADD \t\t\tItem[] public items\n      DUP1 \t\t\tItem[] public items\n      DUP4 \t\t\tItem[] public items\n      GT \t\t\tItem[] public items\n      PUSH [tag] 118\t\t\tItem[] public items\n      JUMPI \t\t\tItem[] public items\n      DUP3 \t\t\tItem[] public items\n      SWAP1 \t\t\tItem[] public items\n      SUB \t\t\tItem[] public items\n      PUSH 1F\t\t\tItem[] public items\n      AND \t\t\tItem[] public items\n      DUP3 \t\t\tItem[] public items\n      ADD \t\t\tItem[] public items\n      SWAP2 \t\t\tItem[] public items\n    tag 116\t\t\tItem[] public items\n      JUMPDEST \t\t\tItem[] public items\n      POP \t\t\tItem[] public items\n      POP \t\t\tItem[] public items\n      POP \t\t\tItem[] public items\n      POP \t\t\tItem[] public items\n      POP \t\t\tItem[] public items\n      SWAP1 \t\t\tItem[] public items\n      DUP1 \t\t\tItem[] public items\n      PUSH 3\t\t\tItem[] public items\n      ADD \t\t\tItem[] public items\n      DUP1 \t\t\tItem[] public items\n      SLOAD \t\t\tItem[] public items\n      PUSH [tag] 119\t\t\tItem[] public items\n      SWAP1 \t\t\tItem[] public items\n      PUSH [tag] 88\t\t\tItem[] public items\n      JUMP \t\t\tItem[] public items\n    tag 119\t\t\tItem[] public items\n      JUMPDEST \t\t\tItem[] public items\n      DUP1 \t\t\tItem[] public items\n      PUSH 1F\t\t\tItem[] public items\n      ADD \t\t\tItem[] public items\n      PUSH 20\t\t\tItem[] public items\n      DUP1 \t\t\tItem[] public items\n      SWAP2 \t\t\tItem[] public items\n      DIV \t\t\tItem[] public items\n      MUL \t\t\tItem[] public items\n      PUSH 20\t\t\tItem[] public items\n      ADD \t\t\tItem[] public items\n      PUSH 40\t\t\tItem[] public items\n      MLOAD \t\t\tItem[] public items\n      SWAP1 \t\t\tItem[] public items\n      DUP2 \t\t\tItem[] public items\n      ADD \t\t\tItem[] public items\n      PUSH 40\t\t\tItem[] public items\n      MSTORE \t\t\tItem[] public items\n      DUP1 \t\t\tItem[] public items\n      SWAP3 \t\t\tItem[] public items\n      SWAP2 \t\t\tItem[] public items\n      SWAP1 \t\t\tItem[] public items\n      DUP2 \t\t\tItem[] public items\n      DUP2 \t\t\tItem[] public items\n      MSTORE \t\t\tItem[] public items\n      PUSH 20\t\t\tItem[] public items\n      ADD \t\t\tItem[] public items\n      DUP3 \t\t\tItem[] public items\n      DUP1 \t\t\tItem[] public items\n      SLOAD \t\t\tItem[] public items\n      PUSH [tag] 120\t\t\tItem[] public items\n      SWAP1 \t\t\tItem[] public items\n      PUSH [tag] 88\t\t\tItem[] public items\n      JUMP \t\t\tItem[] public items\n    tag 120\t\t\tItem[] public items\n      JUMPDEST \t\t\tItem[] public items\n      DUP1 \t\t\tItem[] public items\n      ISZERO \t\t\tItem[] public items\n      PUSH [tag] 121\t\t\tItem[] public items\n      JUMPI \t\t\tItem[] public items\n      DUP1 \t\t\tItem[] public items\n      PUSH 1F\t\t\tItem[] public items\n      LT \t\t\tItem[] public items\n      PUSH [tag] 122\t\t\tItem[] public items\n      JUMPI \t\t\tItem[] public items\n      PUSH 100\t\t\tItem[] public items\n      DUP1 \t\t\tItem[] public items\n      DUP4 \t\t\tItem[] public items\n      SLOAD \t\t\tItem[] public items\n      DIV \t\t\tItem[] public items\n      MUL \t\t\tItem[] public items\n      DUP4 \t\t\tItem[] public items\n      MSTORE \t\t\tItem[] public items\n      SWAP2 \t\t\tItem[] public items\n      PUSH 20\t\t\tItem[] public items\n      ADD \t\t\tItem[] public items\n      SWAP2 \t\t\tItem[] public items\n      PUSH [tag] 121\t\t\tItem[] public items\n      JUMP \t\t\tItem[] public items\n    tag 122\t\t\tItem[] public items\n      JUMPDEST \t\t\tItem[] public items\n      DUP3 \t\t\tItem[] public items\n      ADD \t\t\tItem[] public items\n      SWAP2 \t\t\tItem[] public items\n      SWAP1 \t\t\tItem[] public items\n      PUSH 0\t\t\tItem[] public items\n      MSTORE \t\t\tItem[] public items\n      PUSH 20\t\t\tItem[] public items\n      PUSH 0\t\t\tItem[] public items\n      KECCAK256 \t\t\tItem[] public items\n      SWAP1 \t\t\tItem[] public items\n    tag 123\t\t\tItem[] public items\n      JUMPDEST \t\t\tItem[] public items\n      DUP2 \t\t\tItem[] public items\n      SLOAD \t\t\tItem[] public items\n      DUP2 \t\t\tItem[] public items\n      MSTORE \t\t\tItem[] public items\n      SWAP1 \t\t\tItem[] public items\n      PUSH 1\t\t\tItem[] public items\n      ADD \t\t\tItem[] public items\n      SWAP1 \t\t\tItem[] public items\n      PUSH 20\t\t\tItem[] public items\n      ADD \t\t\tItem[] public items\n      DUP1 \t\t\tItem[] public items\n      DUP4 \t\t\tItem[] public items\n      GT \t\t\tItem[] public items\n      PUSH [tag] 123\t\t\tItem[] public items\n      JUMPI \t\t\tItem[] public items\n      DUP3 \t\t\tItem[] public items\n      SWAP1 \t\t\tItem[] public items\n      SUB \t\t\tItem[] public items\n      PUSH 1F\t\t\tItem[] public items\n      AND \t\t\tItem[] public items\n      DUP3 \t\t\tItem[] public items\n      ADD \t\t\tItem[] public items\n      SWAP2 \t\t\tItem[] public items\n    tag 121\t\t\tItem[] public items\n      JUMPDEST \t\t\tItem[] public items\n      POP \t\t\tItem[] public items\n      POP \t\t\tItem[] public items\n      POP \t\t\tItem[] public items\n      POP \t\t\tItem[] public items\n      POP \t\t\tItem[] public items\n      SWAP1 \t\t\tItem[] public items\n      DUP1 \t\t\tItem[] public items\n      PUSH 4\t\t\tItem[] public items\n      ADD \t\t\tItem[] public items\n      SLOAD \t\t\tItem[] public items\n      SWAP1 \t\t\tItem[] public items\n      DUP1 \t\t\tItem[] public items\n      PUSH 5\t\t\tItem[] public items\n      ADD \t\t\tItem[] public items\n      PUSH 0\t\t\tItem[] public items\n      SWAP1 \t\t\tItem[] public items\n      SLOAD \t\t\tItem[] public items\n      SWAP1 \t\t\tItem[] public items\n      PUSH 100\t\t\tItem[] public items\n      EXP \t\t\tItem[] public items\n      SWAP1 \t\t\tItem[] public items\n      DIV \t\t\tItem[] public items\n      PUSH FF\t\t\tItem[] public items\n      AND \t\t\tItem[] public items\n      SWAP1 \t\t\tItem[] public items\n      POP \t\t\tItem[] public items\n      DUP7 \t\t\tItem[] public items\n      JUMP \t\t\tItem[] public items\n    tag 44\t\t\tfunction buyItem(uint _id) pub...\n      JUMPDEST \t\t\tfunction buyItem(uint _id) pub...\n      PUSH 2\t\t\tlocked\n      PUSH 0\t\t\tlocked\n      SWAP1 \t\t\tlocked\n      SLOAD \t\t\tlocked\n      SWAP1 \t\t\tlocked\n      PUSH 100\t\t\tlocked\n      EXP \t\t\tlocked\n      SWAP1 \t\t\tlocked\n      DIV \t\t\tlocked\n      PUSH FF\t\t\tlocked\n      AND \t\t\tlocked\n      ISZERO \t\t\t!locked\n      PUSH [tag] 125\t\t\trequire(!locked, \"No reentranc...\n      JUMPI \t\t\trequire(!locked, \"No reentranc...\n      PUSH 40\t\t\trequire(!locked, \"No reentranc...\n      MLOAD \t\t\trequire(!locked, \"No reentranc...\n      PUSH 8C379A000000000000000000000000000000000000000000000000000000000\t\t\trequire(!locked, \"No reentranc...\n      DUP2 \t\t\trequire(!locked, \"No reentranc...\n      MSTORE \t\t\trequire(!locked, \"No reentranc...\n      PUSH 4\t\t\trequire(!locked, \"No reentranc...\n      ADD \t\t\trequire(!locked, \"No reentranc...\n      PUSH [tag] 126\t\t\trequire(!locked, \"No reentranc...\n      SWAP1 \t\t\trequire(!locked, \"No reentranc...\n      PUSH [tag] 127\t\t\trequire(!locked, \"No reentranc...\n      JUMP \t\t\trequire(!locked, \"No reentranc...\n    tag 126\t\t\trequire(!locked, \"No reentranc...\n      JUMPDEST \t\t\trequire(!locked, \"No reentranc...\n      PUSH 40\t\t\trequire(!locked, \"No reentranc...\n      MLOAD \t\t\trequire(!locked, \"No reentranc...\n      DUP1 \t\t\trequire(!locked, \"No reentranc...\n      SWAP2 \t\t\trequire(!locked, \"No reentranc...\n      SUB \t\t\trequire(!locked, \"No reentranc...\n      SWAP1 \t\t\trequire(!locked, \"No reentranc...\n      REVERT \t\t\trequire(!locked, \"No reentranc...\n    tag 125\t\t\trequire(!locked, \"No reentranc...\n      JUMPDEST \t\t\trequire(!locked, \"No reentranc...\n      PUSH 1\t\t\ttrue\n      PUSH 2\t\t\tlocked\n      PUSH 0\t\t\tlocked\n      PUSH 100\t\t\tlocked = true\n      EXP \t\t\tlocked = true\n      DUP2 \t\t\tlocked = true\n      SLOAD \t\t\tlocked = true\n      DUP2 \t\t\tlocked = true\n      PUSH FF\t\t\tlocked = true\n      MUL \t\t\tlocked = true\n      NOT \t\t\tlocked = true\n      AND \t\t\tlocked = true\n      SWAP1 \t\t\tlocked = true\n      DUP4 \t\t\tlocked = true\n      ISZERO \t\t\tlocked = true\n      ISZERO \t\t\tlocked = true\n      MUL \t\t\tlocked = true\n      OR \t\t\tlocked = true\n      SWAP1 \t\t\tlocked = true\n      SSTORE \t\t\tlocked = true\n      POP \t\t\tlocked = true\n      PUSH 0\t\t\titems\n      DUP1 \t\t\titems.length\n      SLOAD \t\t\titems.length\n      SWAP1 \t\t\titems.length\n      POP \t\t\titems.length\n      DUP2 \t\t\t_id\n      LT \t\t\t_id < items.length\n      DUP1 \t\t\t_id < items.length && items[_i...\n      ISZERO \t\t\t_id < items.length && items[_i...\n      PUSH [tag] 129\t\t\t_id < items.length && items[_i...\n      JUMPI \t\t\t_id < items.length && items[_i...\n      POP \t\t\t_id < items.length && items[_i...\n      DUP1 \t\t\t_id\n      PUSH 0\t\t\titems\n      DUP3 \t\t\t_id\n      DUP2 \t\t\titems[_id]\n      SLOAD \t\t\titems[_id]\n      DUP2 \t\t\titems[_id]\n      LT \t\t\titems[_id]\n      PUSH [tag] 130\t\t\titems[_id]\n      JUMPI \t\t\titems[_id]\n      PUSH [tag] 131\t\t\titems[_id]\n      PUSH [tag] 60\t\t\titems[_id]\n      JUMP \t\t\titems[_id]\n    tag 131\t\t\titems[_id]\n      JUMPDEST \t\t\titems[_id]\n    tag 130\t\t\titems[_id]\n      JUMPDEST \t\t\titems[_id]\n      SWAP1 \t\t\titems[_id]\n      PUSH 0\t\t\titems[_id]\n      MSTORE \t\t\titems[_id]\n      PUSH 20\t\t\titems[_id]\n      PUSH 0\t\t\titems[_id]\n      KECCAK256 \t\t\titems[_id]\n      SWAP1 \t\t\titems[_id]\n      PUSH 6\t\t\titems[_id]\n      MUL \t\t\titems[_id]\n      ADD \t\t\titems[_id]\n      PUSH 0\t\t\titems[_id].id\n      ADD \t\t\titems[_id].id\n      SLOAD \t\t\titems[_id].id\n      EQ \t\t\titems[_id].id == _id\n    tag 129\t\t\t_id < items.length && items[_i...\n      JUMPDEST \t\t\t_id < items.length && items[_i...\n      PUSH [tag] 133\t\t\trequire(_id < items.length && ...\n      JUMPI \t\t\trequire(_id < items.length && ...\n      PUSH 40\t\t\trequire(_id < items.length && ...\n      MLOAD \t\t\trequire(_id < items.length && ...\n      PUSH 8C379A000000000000000000000000000000000000000000000000000000000\t\t\trequire(_id < items.length && ...\n      DUP2 \t\t\trequire(_id < items.length && ...\n      MSTORE \t\t\trequire(_id < items.length && ...\n      PUSH 4\t\t\trequire(_id < items.length && ...\n      ADD \t\t\trequire(_id < items.length && ...\n      PUSH [tag] 134\t\t\trequire(_id < items.length && ...\n      SWAP1 \t\t\trequire(_id < items.length && ...\n      PUSH [tag] 83\t\t\trequire(_id < items.length && ...\n      JUMP \t\t\trequire(_id < items.length && ...\n    tag 134\t\t\trequire(_id < items.length && ...\n      JUMPDEST \t\t\trequire(_id < items.length && ...\n      PUSH 40\t\t\trequire(_id < items.length && ...\n      MLOAD \t\t\trequire(_id < items.length && ...\n      DUP1 \t\t\trequire(_id < items.length && ...\n      SWAP2 \t\t\trequire(_id < items.length && ...\n      SUB \t\t\trequire(_id < items.length && ...\n      SWAP1 \t\t\trequire(_id < items.length && ...\n      REVERT \t\t\trequire(_id < items.length && ...\n    tag 133\t\t\trequire(_id < items.length && ...\n      JUMPDEST \t\t\trequire(_id < items.length && ...\n      PUSH 0\t\t\tItem storage item\n      DUP1 \t\t\titems\n      DUP3 \t\t\t_id\n      DUP2 \t\t\titems[_id]\n      SLOAD \t\t\titems[_id]\n      DUP2 \t\t\titems[_id]\n      LT \t\t\titems[_id]\n      PUSH [tag] 135\t\t\titems[_id]\n      JUMPI \t\t\titems[_id]\n      PUSH [tag] 136\t\t\titems[_id]\n      PUSH [tag] 60\t\t\titems[_id]\n      JUMP \t\t\titems[_id]\n    tag 136\t\t\titems[_id]\n      JUMPDEST \t\t\titems[_id]\n    tag 135\t\t\titems[_id]\n      JUMPDEST \t\t\titems[_id]\n      SWAP1 \t\t\titems[_id]\n      PUSH 0\t\t\titems[_id]\n      MSTORE \t\t\titems[_id]\n      PUSH 20\t\t\titems[_id]\n      PUSH 0\t\t\titems[_id]\n      KECCAK256 \t\t\titems[_id]\n      SWAP1 \t\t\titems[_id]\n      PUSH 6\t\t\titems[_id]\n      MUL \t\t\titems[_id]\n      ADD \t\t\titems[_id]\n      SWAP1 \t\t\tItem storage item = items[_id]\n      POP \t\t\tItem storage item = items[_id]\n      DUP1 \t\t\titem\n      PUSH 5\t\t\titem.sold\n      ADD \t\t\titem.sold\n      PUSH 0\t\t\titem.sold\n      SWAP1 \t\t\titem.sold\n      SLOAD \t\t\titem.sold\n      SWAP1 \t\t\titem.sold\n      PUSH 100\t\t\titem.sold\n      EXP \t\t\titem.sold\n      SWAP1 \t\t\titem.sold\n      DIV \t\t\titem.sold\n      PUSH FF\t\t\titem.sold\n      AND \t\t\titem.sold\n      ISZERO \t\t\t!item.sold\n      PUSH [tag] 138\t\t\trequire(!item.sold, \"Item alre...\n      JUMPI \t\t\trequire(!item.sold, \"Item alre...\n      PUSH 40\t\t\trequire(!item.sold, \"Item alre...\n      MLOAD \t\t\trequire(!item.sold, \"Item alre...\n      PUSH 8C379A000000000000000000000000000000000000000000000000000000000\t\t\trequire(!item.sold, \"Item alre...\n      DUP2 \t\t\trequire(!item.sold, \"Item alre...\n      MSTORE \t\t\trequire(!item.sold, \"Item alre...\n      PUSH 4\t\t\trequire(!item.sold, \"Item alre...\n      ADD \t\t\trequire(!item.sold, \"Item alre...\n      PUSH [tag] 139\t\t\trequire(!item.sold, \"Item alre...\n      SWAP1 \t\t\trequire(!item.sold, \"Item alre...\n      PUSH [tag] 140\t\t\trequire(!item.sold, \"Item alre...\n      JUMP \t\t\trequire(!item.sold, \"Item alre...\n    tag 139\t\t\trequire(!item.sold, \"Item alre...\n      JUMPDEST \t\t\trequire(!item.sold, \"Item alre...\n      PUSH 40\t\t\trequire(!item.sold, \"Item alre...\n      MLOAD \t\t\trequire(!item.sold, \"Item alre...\n      DUP1 \t\t\trequire(!item.sold, \"Item alre...\n      SWAP2 \t\t\trequire(!item.sold, \"Item alre...\n      SUB \t\t\trequire(!item.sold, \"Item alre...\n      SWAP1 \t\t\trequire(!item.sold, \"Item alre...\n      REVERT \t\t\trequire(!item.sold, \"Item alre...\n    tag 138\t\t\trequire(!item.sold, \"Item alre...\n      JUMPDEST \t\t\trequire(!item.sold, \"Item alre...\n      DUP1 \t\t\titem\n      PUSH 4\t\t\titem.price\n      ADD \t\t\titem.price\n      SLOAD \t\t\titem.price\n      CALLVALUE \t\t\tmsg.value\n      LT \t\t\tmsg.value >= item.price\n      ISZERO \t\t\tmsg.value >= item.price\n      PUSH [tag] 141\t\t\trequire(msg.value >= item.pric...\n      JUMPI \t\t\trequire(msg.value >= item.pric...\n      PUSH 40\t\t\trequire(msg.value >= item.pric...\n      MLOAD \t\t\trequire(msg.value >= item.pric...\n      PUSH 8C379A000000000000000000000000000000000000000000000000000000000\t\t\trequire(msg.value >= item.pric...\n      DUP2 \t\t\trequire(msg.value >= item.pric...\n      MSTORE \t\t\trequire(msg.value >= item.pric...\n      PUSH 4\t\t\trequire(msg.value >= item.pric...\n      ADD \t\t\trequire(msg.value >= item.pric...\n      PUSH [tag] 142\t\t\trequire(msg.value >= item.pric...\n      SWAP1 \t\t\trequire(msg.value >= item.pric...\n      PUSH [tag] 143\t\t\trequire(msg.value >= item.pric...\n      JUMP \t\t\trequire(msg.value >= item.pric...\n    tag 142\t\t\trequire(msg.value >= item.pric...\n      JUMPDEST \t\t\trequire(msg.value >= item.pric...\n      PUSH 40\t\t\trequire(msg.value >= item.pric...\n      MLOAD \t\t\trequire(msg.value >= item.pric...\n      DUP1 \t\t\trequire(msg.value >= item.pric...\n      SWAP2 \t\t\trequire(msg.value >= item.pric...\n      SUB \t\t\trequire(msg.value >= item.pric...\n      SWAP1 \t\t\trequire(msg.value >= item.pric...\n      REVERT \t\t\trequire(msg.value >= item.pric...\n    tag 141\t\t\trequire(msg.value >= item.pric...\n      JUMPDEST \t\t\trequire(msg.value >= item.pric...\n      DUP1 \t\t\titem\n      PUSH 1\t\t\titem.seller\n      ADD \t\t\titem.seller\n      PUSH 0\t\t\titem.seller\n      SWAP1 \t\t\titem.seller\n      SLOAD \t\t\titem.seller\n      SWAP1 \t\t\titem.seller\n      PUSH 100\t\t\titem.seller\n      EXP \t\t\titem.seller\n      SWAP1 \t\t\titem.seller\n      DIV \t\t\titem.seller\n      PUSH FFFFFFFFFFFFFFFFFFFFFFFFFFFFFFFFFFFFFFFF\t\t\titem.seller\n      AND \t\t\titem.seller\n      PUSH FFFFFFFFFFFFFFFFFFFFFFFFFFFFFFFFFFFFFFFF\t\t\titem.seller.transfer\n      AND \t\t\titem.seller.transfer\n      PUSH 8FC\t\t\titem.seller.transfer(item.pric...\n      DUP3 \t\t\titem\n      PUSH 4\t\t\titem.price\n      ADD \t\t\titem.price\n      SLOAD \t\t\titem.price\n      SWAP1 \t\t\titem.seller.transfer(item.pric...\n      DUP2 \t\t\titem.seller.transfer(item.pric...\n      ISZERO \t\t\titem.seller.transfer(item.pric...\n      MUL \t\t\titem.seller.transfer(item.pric...\n      SWAP1 \t\t\titem.seller.transfer(item.pric...\n      PUSH 40\t\t\titem.seller.transfer(item.pric...\n      MLOAD \t\t\titem.seller.transfer(item.pric...\n      PUSH 0\t\t\titem.seller.transfer(item.pric...\n      PUSH 40\t\t\titem.seller.transfer(item.pric...\n      MLOAD \t\t\titem.seller.transfer(item.pric...\n      DUP1 \t\t\titem.seller.transfer(item.pric...\n      DUP4 \t\t\titem.seller.transfer(item.pric...\n      SUB \t\t\titem.seller.transfer(item.pric...\n      DUP2 \t\t\titem.seller.transfer(item.pric...\n      DUP6 \t\t\titem.seller.transfer(item.pric...\n      DUP9 \t\t\titem.seller.transfer(item.pric...\n      DUP9 \t\t\titem.seller.transfer(item.pric...\n      CALL \t\t\titem.seller.transfer(item.pric...\n      SWAP4 \t\t\titem.seller.transfer(item.pric...\n      POP \t\t\titem.seller.transfer(item.pric...\n      POP \t\t\titem.seller.transfer(item.pric...\n      POP \t\t\titem.seller.transfer(item.pric...\n      POP \t\t\titem.seller.transfer(item.pric...\n      ISZERO \t\t\titem.seller.transfer(item.pric...\n      DUP1 \t\t\titem.seller.transfer(item.pric...\n      ISZERO \t\t\titem.seller.transfer(item.pric...\n      PUSH [tag] 145\t\t\titem.seller.transfer(item.pric...\n      JUMPI \t\t\titem.seller.transfer(item.pric...\n      RETURNDATASIZE \t\t\titem.seller.transfer(item.pric...\n      PUSH 0\t\t\titem.seller.transfer(item.pric...\n      DUP1 \t\t\titem.seller.transfer(item.pric...\n      RETURNDATACOPY \t\t\titem.seller.transfer(item.pric...\n      RETURNDATASIZE \t\t\titem.seller.transfer(item.pric...\n      PUSH 0\t\t\titem.seller.transfer(item.pric...\n      REVERT \t\t\titem.seller.transfer(item.pric...\n    tag 145\t\t\titem.seller.transfer(item.pric...\n      JUMPDEST \t\t\titem.seller.transfer(item.pric...\n      POP \t\t\titem.seller.transfer(item.pric...\n      PUSH 1\t\t\ttrue\n      DUP2 \t\t\titem\n      PUSH 5\t\t\titem.sold\n      ADD \t\t\titem.sold\n      PUSH 0\t\t\titem.sold\n      PUSH 100\t\t\titem.sold = true\n      EXP \t\t\titem.sold = true\n      DUP2 \t\t\titem.sold = true\n      SLOAD \t\t\titem.sold = true\n      DUP2 \t\t\titem.sold = true\n      PUSH FF\t\t\titem.sold = true\n      MUL \t\t\titem.sold = true\n      NOT \t\t\titem.sold = true\n      AND \t\t\titem.sold = true\n      SWAP1 \t\t\titem.sold = true\n      DUP4 \t\t\titem.sold = true\n      ISZERO \t\t\titem.sold = true\n      ISZERO \t\t\titem.sold = true\n      MUL \t\t\titem.sold = true\n      OR \t\t\titem.sold = true\n      SWAP1 \t\t\titem.sold = true\n      SSTORE \t\t\titem.sold = true\n      POP \t\t\titem.sold = true\n      DUP1 \t\t\titem\n      PUSH 4\t\t\titem.price\n      ADD \t\t\titem.price\n      SLOAD \t\t\titem.price\n      CALLVALUE \t\t\tmsg.value\n      GT \t\t\tmsg.value > item.price\n      ISZERO \t\t\tif (msg.value > item.price) {\\...\n      PUSH [tag] 146\t\t\tif (msg.value > item.price) {\\...\n      JUMPI \t\t\tif (msg.value > item.price) {\\...\n      CALLER \t\t\tmsg.sender\n      PUSH FFFFFFFFFFFFFFFFFFFFFFFFFFFFFFFFFFFFFFFF\t\t\tpayable(msg.sender).transfer\n      AND \t\t\tpayable(msg.sender).transfer\n      PUSH 8FC\t\t\tpayable(msg.sender).transfer(m...\n      DUP3 \t\t\titem\n      PUSH 4\t\t\titem.price\n      ADD \t\t\titem.price\n      SLOAD \t\t\titem.price\n      CALLVALUE \t\t\tmsg.value\n      PUSH [tag] 147\t\t\tmsg.value - item.price\n      SWAP2 \t\t\tmsg.value - item.price\n      SWAP1 \t\t\tmsg.value - item.price\n      PUSH [tag] 148\t\t\tmsg.value - item.price\n      JUMP \t\t\tmsg.value - item.price\n    tag 147\t\t\tmsg.value - item.price\n      JUMPDEST \t\t\tmsg.value - item.price\n      SWAP1 \t\t\tpayable(msg.sender).transfer(m...\n      DUP2 \t\t\tpayable(msg.sender).transfer(m...\n      ISZERO \t\t\tpayable(msg.sender).transfer(m...\n      MUL \t\t\tpayable(msg.sender).transfer(m...\n      SWAP1 \t\t\tpayable(msg.sender).transfer(m...\n      PUSH 40\t\t\tpayable(msg.sender).transfer(m...\n      MLOAD \t\t\tpayable(msg.sender).transfer(m...\n      PUSH 0\t\t\tpayable(msg.sender).transfer(m...\n      PUSH 40\t\t\tpayable(msg.sender).transfer(m...\n      MLOAD \t\t\tpayable(msg.sender).transfer(m...\n      DUP1 \t\t\tpayable(msg.sender).transfer(m...\n      DUP4 \t\t\tpayable(msg.sender).transfer(m...\n      SUB \t\t\tpayable(msg.sender).transfer(m...\n      DUP2 \t\t\tpayable(msg.sender).transfer(m...\n      DUP6 \t\t\tpayable(msg.sender).transfer(m...\n      DUP9 \t\t\tpayable(msg.sender).transfer(m...\n      DUP9 \t\t\tpayable(msg.sender).transfer(m...\n      CALL \t\t\tpayable(msg.sender).transfer(m...\n      SWAP4 \t\t\tpayable(msg.sender).transfer(m...\n      POP \t\t\tpayable(msg.sender).transfer(m...\n      POP \t\t\tpayable(msg.sender).transfer(m...\n      POP \t\t\tpayable(msg.sender).transfer(m...\n      POP \t\t\tpayable(msg.sender).transfer(m...\n      ISZERO \t\t\tpayable(msg.sender).transfer(m...\n      DUP1 \t\t\tpayable(msg.sender).transfer(m...\n      ISZERO \t\t\tpayable(msg.sender).transfer(m...\n      PUSH [tag] 150\t\t\tpayable(msg.sender).transfer(m...\n      JUMPI \t\t\tpayable(msg.sender).transfer(m...\n      RETURNDATASIZE \t\t\tpayable(msg.sender).transfer(m...\n      PUSH 0\t\t\tpayable(msg.sender).transfer(m...\n      DUP1 \t\t\tpayable(msg.sender).transfer(m...\n      RETURNDATACOPY \t\t\tpayable(msg.sender).transfer(m...\n      RETURNDATASIZE \t\t\tpayable(msg.sender).transfer(m...\n      PUSH 0\t\t\tpayable(msg.sender).transfer(m...\n      REVERT \t\t\tpayable(msg.sender).transfer(m...\n    tag 150\t\t\tpayable(msg.sender).transfer(m...\n      JUMPDEST \t\t\tpayable(msg.sender).transfer(m...\n      POP \t\t\tpayable(msg.sender).transfer(m...\n    tag 146\t\t\tif (msg.value > item.price) {\\...\n      JUMPDEST \t\t\tif (msg.value > item.price) {\\...\n      CALLER \t\t\tmsg.sender\n      PUSH FFFFFFFFFFFFFFFFFFFFFFFFFFFFFFFFFFFFFFFF\t\t\tItemPurchased(_id, msg.sender,...\n      AND \t\t\tItemPurchased(_id, msg.sender,...\n      PUSH 78A0660BBDA86D17037943644187F6F1F73F2F20A3240BF4CF4A56C2A96BCF84\t\t\tItemPurchased(_id, msg.sender,...\n      DUP4 \t\t\t_id\n      DUP4 \t\t\titem\n      PUSH 4\t\t\titem.price\n      ADD \t\t\titem.price\n      SLOAD \t\t\titem.price\n      PUSH 40\t\t\tItemPurchased(_id, msg.sender,...\n      MLOAD \t\t\tItemPurchased(_id, msg.sender,...\n      PUSH [tag] 151\t\t\tItemPurchased(_id, msg.sender,...\n      SWAP3 \t\t\tItemPurchased(_id, msg.sender,...\n      SWAP2 \t\t\tItemPurchased(_id, msg.sender,...\n      SWAP1 \t\t\tItemPurchased(_id, msg.sender,...\n      PUSH [tag] 152\t\t\tItemPurchased(_id, msg.sender,...\n      JUMP \t\t\tItemPurchased(_id, msg.sender,...\n    tag 151\t\t\tItemPurchased(_id, msg.sender,...\n      JUMPDEST \t\t\tItemPurchased(_id, msg.sender,...\n      PUSH 40\t\t\tItemPurchased(_id, msg.sender,...\n      MLOAD \t\t\tItemPurchased(_id, msg.sender,...\n      DUP1 \t\t\tItemPurchased(_id, msg.sender,...\n      SWAP2 \t\t\tItemPurchased(_id, msg.sender,...\n      SUB \t\t\tItemPurchased(_id, msg.sender,...\n      SWAP1 \t\t\tItemPurchased(_id, msg.sender,...\n      LOG2 \t\t\tItemPurchased(_id, msg.sender,...\n      POP \t\t\t{\\n        require(_id < items...\n      PUSH 0\t\t\tfalse\n      PUSH 2\t\t\tlocked\n      PUSH 0\t\t\tlocked\n      PUSH 100\t\t\tlocked = false\n      EXP \t\t\tlocked = false\n      DUP2 \t\t\tlocked = false\n      SLOAD \t\t\tlocked = false\n      DUP2 \t\t\tlocked = false\n      PUSH FF\t\t\tlocked = false\n      MUL \t\t\tlocked = false\n      NOT \t\t\tlocked = false\n      AND \t\t\tlocked = false\n      SWAP1 \t\t\tlocked = false\n      DUP4 \t\t\tlocked = false\n      ISZERO \t\t\tlocked = false\n      ISZERO \t\t\tlocked = false\n      MUL \t\t\tlocked = false\n      OR \t\t\tlocked = false\n      SWAP1 \t\t\tlocked = false\n      SSTORE \t\t\tlocked = false\n      POP \t\t\tlocked = false\n      POP \t\t\tfunction buyItem(uint _id) pub...\n      JUMP \t\t\tfunction buyItem(uint _id) pub...\n    tag 153\t\t\t-License-Identifier: MIT\\nprag...\n      JUMPDEST \t\t\t-License-Identifier: MIT\\nprag...\n      PUSH 0\t\t\tolidit\n      PUSH 40\t\t\tra\n      MLOAD \t\t\ta contrac\n      SWAP1 \t\t\t// Define a contrac\n      POP \t\t\t// Define a contrac\n      SWAP1 \t\t\t-License-Identifier: MIT\\nprag...\n      JUMP \t\t\t-License-Identifier: MIT\\nprag...\n    tag 154\t\t\tetplace\\ncontract Marketplace ...\n      JUMPDEST \t\t\tetplace\\ncontract Marketplace ...\n      PUSH 0\t\t\t \n      DUP1 \t\t\t \n      REVERT \t\t\tItem {\\n     \n    tag 155\t\t\t        address payable seller...\n      JUMPDEST \t\t\t        address payable seller...\n      PUSH 0\t\t\t \n      DUP1 \t\t\t \n      REVERT \t\t\te;\\n        b\n    tag 156\t\t\t  }\\n\\n    // Array to store a...\n      JUMPDEST \t\t\t  }\\n\\n    // Array to store a...\n      PUSH 0\t\t\tk\n      DUP1 \t\t\tr\n      REVERT \t\t\t keep track \n    tag 157\t\t\titem ID\\n    uint public nextI...\n      JUMPDEST \t\t\titem ID\\n    uint public nextI...\n      PUSH 0\t\t\t \n      DUP1 \t\t\t \n      REVERT \t\t\tisted(\\n     \n    tag 158\t\t\t        address indexed seller...\n      JUMPDEST \t\t\t        address indexed seller...\n      PUSH 0\t\t\ttring \n      PUSH 1F\t\t\tnt\n      NOT \t\t\t  uint \n      PUSH 1F\t\t\t  \n      DUP4 \t\t\ttion,\n      ADD \t\t\tcription,\\n    \n      AND \t\t\t description,\\n        uint p\n      SWAP1 \t\t\t    string description,\\n     ...\n      POP \t\t\t    string description,\\n     ...\n      SWAP2 \t\t\t        address indexed seller...\n      SWAP1 \t\t\t        address indexed seller...\n      POP \t\t\t        address indexed seller...\n      JUMP \t\t\t        address indexed seller...\n    tag 159\t\t\t\\n    event ItemPurchased(\\n  ...\n      JUMPDEST \t\t\t\\n    event ItemPurchased(\\n  ...\n      PUSH 4E487B7100000000000000000000000000000000000000000000000000000000\t\t\t   address indexed buyer,\\n   ...\n      PUSH 0\t\t\t \n      MSTORE \t\t\t id,\\n        address indexed ...\n      PUSH 41\t\t\t    \n      PUSH 4\t\t\t\\n\n      MSTORE \t\t\tint id,\\n       \n      PUSH 24\t\t\tller\n      PUSH 0\t\t\t \n      REVERT \t\t\tindexed seller\\n\n    tag 160\t\t\t// Modifier to check that the ...\n      JUMPDEST \t\t\t// Modifier to check that the ...\n      PUSH [tag] 231\t\t\t onlySeller(uint _itemId) {\n      DUP3 \t\t\tId) \n      PUSH [tag] 158\t\t\t onlySeller(uint _itemId) {\n      JUMP \t\t\t onlySeller(uint _itemId) {\n    tag 231\t\t\t onlySeller(uint _itemId) {\n      JUMPDEST \t\t\t onlySeller(uint _itemId) {\n      DUP2 \t\t\tmodifi\n      ADD \t\t\t    modifier onlySeller(uint _...\n      DUP2 \t\t\t   _;\\n\n      DUP2 \t\t\tion\");\\n   \n      LT \t\t\taction\");\\n        _;\\n \n      PUSH FFFFFFFFFFFFFFFF\t\t\tler can perform th\n      DUP3 \t\t\tOnly the s\n      GT \t\t\t, \"Only the seller can perform...\n      OR \t\t\tder, \"Only the seller can perf...\n      ISZERO \t\t\tsender, \"Only the seller can p...\n      PUSH [tag] 232\t\t\tsender, \"Only the seller can p...\n      JUMPI \t\t\tsender, \"Only the seller can p...\n      PUSH [tag] 233\t\t\t\\n\\n    // Modifier \n      PUSH [tag] 159\t\t\t\\n\\n    // Modifier \n      JUMP \t\t\t\\n\\n    // Modifier \n    tag 233\t\t\t\\n\\n    // Modifier \n      JUMPDEST \t\t\t\\n\\n    // Modifier \n    tag 232\t\t\tsender, \"Only the seller can p...\n      JUMPDEST \t\t\tsender, \"Only the seller can p...\n      DUP1 \t\t\tattacks\\n  \n      PUSH 40\t\t\tnc\n      MSTORE \t\t\treentrancy attacks\\n   \n      POP \t\t\tr is the seller of the item\\n ...\n      POP \t\t\t// Modifier to check that the ...\n      POP \t\t\t// Modifier to check that the ...\n      JUMP \t\t\t// Modifier to check that the ...\n    tag 161\t\t\tReentrancy() {\\n        requir...\n      JUMPDEST \t\t\tReentrancy() {\\n        requir...\n      PUSH 0\t\t\tcked, \n      PUSH [tag] 235\t\t\td!\");\\n        locked\n      PUSH [tag] 153\t\t\td!\");\\n        locked\n      JUMP \t\t\td!\");\\n        locked\n    tag 235\t\t\td!\");\\n        locked\n      JUMPDEST \t\t\td!\");\\n        locked\n      SWAP1 \t\t\tncy allowed!\");\\n        locke...\n      POP \t\t\tncy allowed!\");\\n        locke...\n      PUSH [tag] 236\t\t\t        _;\\n        locked = f...\n      DUP3 \t\t\tfals\n      DUP3 \t\t\tocked \n      PUSH [tag] 160\t\t\t        _;\\n        locked = f...\n      JUMP \t\t\t        _;\\n        locked = f...\n    tag 236\t\t\t        _;\\n        locked = f...\n      JUMPDEST \t\t\t        _;\\n        locked = f...\n      SWAP2 \t\t\tReentrancy() {\\n        requir...\n      SWAP1 \t\t\tReentrancy() {\\n        requir...\n      POP \t\t\tReentrancy() {\\n        requir...\n      JUMP \t\t\tReentrancy() {\\n        requir...\n    tag 162\t\t\t // Boolean variable to lock s...\n      JUMPDEST \t\t\t // Boolean variable to lock s...\n      PUSH 0\t\t\ttran\n      PUSH FFFFFFFFFFFFFFFF\t\t\tlistItem(string me\n      DUP3 \t\t\tunctio\n      GT \t\t\t  function listItem(string mem\n      ISZERO \t\t\t\\n    function listItem(string...\n      PUSH [tag] 238\t\t\t\\n    function listItem(string...\n      JUMPI \t\t\t\\n    function listItem(string...\n      PUSH [tag] 239\t\t\t _title, string me\n      PUSH [tag] 159\t\t\t _title, string me\n      JUMP \t\t\t _title, string me\n    tag 239\t\t\t _title, string me\n      JUMPDEST \t\t\t _title, string me\n    tag 238\t\t\t\\n    function listItem(string...\n      JUMPDEST \t\t\t\\n    function listItem(string...\n      PUSH [tag] 240\t\t\tint _price) public {\\n        \n      DUP3 \t\t\t      \n      PUSH [tag] 158\t\t\tint _price) public {\\n        \n      JUMP \t\t\tint _price) public {\\n        \n    tag 240\t\t\tint _price) public {\\n        \n      JUMPDEST \t\t\tint _price) public {\\n        \n      SWAP1 \t\t\tption, uint _price) public {\\n...\n      POP \t\t\tption, uint _price) public {\\n...\n      PUSH 20\t\t\t // \n      DUP2 \t\t\tero\"\n      ADD \t\t\tan zero\"); // E\n      SWAP1 \t\t\teater than zero\"); // E\n      POP \t\t\teater than zero\"); // E\n      SWAP2 \t\t\t // Boolean variable to lock s...\n      SWAP1 \t\t\t // Boolean variable to lock s...\n      POP \t\t\t // Boolean variable to lock s...\n      JUMP \t\t\t // Boolean variable to lock s...\n    tag 163\t\t\tce is greater than zero\\n\\n   ...\n      JUMPDEST \t\t\tce is greater than zero\\n\\n   ...\n      DUP3 \t\t\t      \n      DUP2 \t\t\tem(\n      DUP4 \t\t\tsh(\n      CALLDATACOPY \t\t\t     items.push(Item({\\n      ...\n      PUSH 0\t\t\te\n      DUP4 \t\t\t      \n      DUP4 \t\t\t\\n  \n      ADD \t\t\tmId,\\n           \n      MSTORE \t\t\tnextItemId,\\n            sel\n      POP \t\t\tce is greater than zero\\n\\n   ...\n      POP \t\t\tce is greater than zero\\n\\n   ...\n      POP \t\t\tce is greater than zero\\n\\n   ...\n      JUMP \t\t\tce is greater than zero\\n\\n   ...\n    tag 164\t\t\tmsg.sender),\\n            titl...\n      JUMPDEST \t\t\tmsg.sender),\\n            titl...\n      PUSH 0\t\t\t\\n    \n      PUSH [tag] 243\t\t\te,\\n            sold: false\\n ...\n      PUSH [tag] 244\t\t\told: false\\n        }));\\n\\n  ...\n      DUP5 \t\t\tn even\n      PUSH [tag] 162\t\t\told: false\\n        }));\\n\\n  ...\n      JUMP \t\t\told: false\\n        }));\\n\\n  ...\n    tag 244\t\t\told: false\\n        }));\\n\\n  ...\n      JUMPDEST \t\t\told: false\\n        }));\\n\\n  ...\n      PUSH [tag] 161\t\t\te,\\n            sold: false\\n ...\n      JUMP \t\t\te,\\n            sold: false\\n ...\n    tag 243\t\t\te,\\n            sold: false\\n ...\n      JUMPDEST \t\t\te,\\n            sold: false\\n ...\n      SWAP1 \t\t\tce: _price,\\n            sold:...\n      POP \t\t\tce: _price,\\n            sold:...\n      DUP3 \t\t\t     e\n      DUP2 \t\t\ttem\\n \n      MSTORE \t\t\tisted item\\n        em\n      PUSH 20\t\t\tende\n      DUP2 \t\t\t, msg\n      ADD \t\t\temId, msg.sender\n      DUP5 \t\t\t   \n      DUP5 \t\t\t_price\n      DUP5 \t\t\tion\n      ADD \t\t\tription, _price)\n      GT \t\t\tescription, _price);\\n    \n      ISZERO \t\t\t _description, _price);\\n     ...\n      PUSH [tag] 245\t\t\t _description, _price);\\n     ...\n      JUMPI \t\t\t _description, _price);\\n     ...\n      PUSH [tag] 246\t\t\t nextItemId++; // Increment th...\n      PUSH [tag] 157\t\t\t nextItemId++; // Increment th...\n      JUMP \t\t\t nextItemId++; // Increment th...\n    tag 246\t\t\t nextItemId++; // Increment th...\n      JUMPDEST \t\t\t nextItemId++; // Increment th...\n    tag 245\t\t\t _description, _price);\\n     ...\n      JUMPDEST \t\t\t _description, _price);\\n     ...\n      PUSH [tag] 247\t\t\t item\\n    function buyItem(ui...\n      DUP5 \t\t\table n\n      DUP3 \t\t\tc p\n      DUP6 \t\t\tpub\n      PUSH [tag] 163\t\t\t item\\n    function buyItem(ui...\n      JUMP \t\t\t item\\n    function buyItem(ui...\n    tag 247\t\t\t item\\n    function buyItem(ui...\n      JUMPDEST \t\t\t item\\n    function buyItem(ui...\n      POP \t\t\t       price: _price,\\n       ...\n      SWAP4 \t\t\tmsg.sender),\\n            titl...\n      SWAP3 \t\t\tmsg.sender),\\n            titl...\n      POP \t\t\tmsg.sender),\\n            titl...\n      POP \t\t\tmsg.sender),\\n            titl...\n      POP \t\t\tmsg.sender),\\n            titl...\n      JUMP \t\t\tmsg.sender),\\n            titl...\n    tag 165\t\t\tre(_id < items.length && items...\n      JUMPDEST \t\t\tre(_id < items.length && items...\n      PUSH 0\t\t\ts not\n      DUP3 \t\t\t  I\n      PUSH 1F\t\t\t\\n   \n      DUP4 \t\t\tm exis\n      ADD \t\t\t item exists\\n    \n      SLT \t\t\t the item exists\\n        It\n      PUSH [tag] 249\t\t\t/ Check if the item exists\\n  ...\n      JUMPI \t\t\t/ Check if the item exists\\n  ...\n      PUSH [tag] 250\t\t\ttorage item = items[_id];\\n   ...\n      PUSH [tag] 156\t\t\ttorage item = items[_id];\\n   ...\n      JUMP \t\t\ttorage item = items[_id];\\n   ...\n    tag 250\t\t\ttorage item = items[_id];\\n   ...\n      JUMPDEST \t\t\ttorage item = items[_id];\\n   ...\n    tag 249\t\t\t/ Check if the item exists\\n  ...\n      JUMPDEST \t\t\t/ Check if the item exists\\n  ...\n      DUP2 \t\t\t      \n      CALLDATALOAD \t\t\talready sold\\n       \n      PUSH [tag] 251\t\t\t >= item.price, \"Not enough et...\n      DUP5 \t\t\t\\n\\n \n      DUP3 \t\t\twas se\n      PUSH 20\t\t\t Eth\n      DUP7 \t\t\tf enou\n      ADD \t\t\tck if enough Ethe\n      PUSH [tag] 164\t\t\t >= item.price, \"Not enough et...\n      JUMP \t\t\t >= item.price, \"Not enough et...\n    tag 251\t\t\t >= item.price, \"Not enough et...\n      JUMPDEST \t\t\t >= item.price, \"Not enough et...\n      SWAP2 \t\t\tmsg.value >= item.price, \"Not ...\n      POP \t\t\tmsg.value >= item.price, \"Not ...\n      POP \t\t\texist\"); // Check if the item ...\n      SWAP3 \t\t\tre(_id < items.length && items...\n      SWAP2 \t\t\tre(_id < items.length && items...\n      POP \t\t\tre(_id < items.length && items...\n      POP \t\t\tre(_id < items.length && items...\n      JUMP \t\t\tre(_id < items.length && items...\n    tag 166\t\t\teller.transfer(item.price); //...\n      JUMPDEST \t\t\teller.transfer(item.price); //...\n      PUSH 0\t\t\ter the \n      DUP2 \t\t\ter\\n  \n      SWAP1 \t\t\tto the seller\\n  \n      POP \t\t\tto the seller\\n  \n      SWAP2 \t\t\teller.transfer(item.price); //...\n      SWAP1 \t\t\teller.transfer(item.price); //...\n      POP \t\t\teller.transfer(item.price); //...\n      JUMP \t\t\teller.transfer(item.price); //...\n    tag 167\t\t\told = true; // Mark the item a...\n      JUMPDEST \t\t\told = true; // Mark the item a...\n      PUSH [tag] 254\t\t\t {\\n            payable(m\n      DUP2 \t\t\table(\n      PUSH [tag] 166\t\t\t {\\n            payable(m\n      JUMP \t\t\t {\\n            payable(m\n    tag 254\t\t\t {\\n            payable(m\n      JUMPDEST \t\t\t {\\n            payable(m\n      DUP2 \t\t\t.pric\n      EQ \t\t\ttem.price) {\\n            paya...\n      PUSH [tag] 255\t\t\t.value > item.price) {\\n      ...\n      JUMPI \t\t\t.value > item.price) {\\n      ...\n      PUSH 0\t\t\ts\n      DUP1 \t\t\tr\n      REVERT \t\t\tnder).transf\n    tag 255\t\t\t.value > item.price) {\\n      ...\n      JUMPDEST \t\t\t.value > item.price) {\\n      ...\n      POP \t\t\told = true; // Mark the item a...\n      JUMP \t\t\told = true; // Mark the item a...\n    tag 168\t\t\t item.price); // Refund any ex...\n      JUMPDEST \t\t\t item.price); // Refund any ex...\n      PUSH 0\t\t\t   }\\n\n      DUP2 \t\t\tmsg.se\n      CALLDATALOAD \t\t\trchased(_id, msg.sen\n      SWAP1 \t\t\tit ItemPurchased(_id, msg.sen\n      POP \t\t\tit ItemPurchased(_id, msg.sen\n      PUSH [tag] 257\t\t\t.price); // Emit an event for ...\n      DUP2 \t\t\tor th\n      PUSH [tag] 167\t\t\t.price); // Emit an event for ...\n      JUMP \t\t\t.price); // Emit an event for ...\n    tag 257\t\t\t.price); // Emit an event for ...\n      JUMPDEST \t\t\t.price); // Emit an event for ...\n      SWAP3 \t\t\t item.price); // Refund any ex...\n      SWAP2 \t\t\t item.price); // Refund any ex...\n      POP \t\t\t item.price); // Refund any ex...\n      POP \t\t\t item.price); // Refund any ex...\n      JUMP \t\t\t item.price); // Refund any ex...\n    tag 13\t\t\t  }\\n\\n    // Function to canc...\n      JUMPDEST \t\t\t  }\\n\\n    // Function to canc...\n      PUSH 0\t\t\tller(_\n      DUP1 \t\t\t) {\\n  \n      PUSH 0\t\t\t    re\n      PUSH 60\t\t\tm \n      DUP5 \t\t\t cancel, \n      DUP7 \t\t\t, \"Cann\n      SUB \t\t\tsold, \"Cannot cancel, i\n      SLT \t\t\tid].sold, \"Cannot cancel, item...\n      ISZERO \t\t\ts[_id].sold, \"Cannot cancel, i...\n      PUSH [tag] 259\t\t\ts[_id].sold, \"Cannot cancel, i...\n      JUMPI \t\t\ts[_id].sold, \"Cannot cancel, i...\n      PUSH [tag] 260\t\t\tady sold\"); // Check if the it...\n      PUSH [tag] 154\t\t\tady sold\"); // Check if the it...\n      JUMP \t\t\tady sold\"); // Check if the it...\n    tag 260\t\t\tady sold\"); // Check if the it...\n      JUMPDEST \t\t\tady sold\"); // Check if the it...\n    tag 259\t\t\ts[_id].sold, \"Cannot cancel, i...\n      JUMPDEST \t\t\ts[_id].sold, \"Cannot cancel, i...\n      PUSH 0\t\t\t/\n      DUP5 \t\t\t.sender);\n      ADD \t\t\t msg.sender); // \n      CALLDATALOAD \t\t\tancelled(_id, msg.sender); // ...\n      PUSH FFFFFFFFFFFFFFFF\t\t\tlation\\n    }\\n\\n    \n      DUP2 \t\t\te canc\n      GT \t\t\t the cancellation\\n    }\\n\\n  ...\n      ISZERO \t\t\tfor the cancellation\\n    }\\n\\...\n      PUSH [tag] 261\t\t\tfor the cancellation\\n    }\\n\\...\n      JUMPI \t\t\tfor the cancellation\\n    }\\n\\...\n      PUSH [tag] 262\t\t\tunction to retrieve details ab...\n      PUSH [tag] 155\t\t\tunction to retrieve details ab...\n      JUMP \t\t\tunction to retrieve details ab...\n    tag 262\t\t\tunction to retrieve details ab...\n      JUMPDEST \t\t\tunction to retrieve details ab...\n    tag 261\t\t\tfor the cancellation\\n    }\\n\\...\n      JUMPDEST \t\t\tfor the cancellation\\n    }\\n\\...\n      PUSH [tag] 263\t\t\tt, string memory, string memor...\n      DUP7 \t\t\trequire\n      DUP3 \t\t\t\\n     \n      DUP8 \t\t\tnt, bool)\n      ADD \t\t\t, uint, bool) {\\n      \n      PUSH [tag] 165\t\t\tt, string memory, string memor...\n      JUMP \t\t\tt, string memory, string memor...\n    tag 263\t\t\tt, string memory, string memor...\n      JUMPDEST \t\t\tt, string memory, string memor...\n      SWAP4 \t\t\tturns (uint, string memory, st...\n      POP \t\t\tturns (uint, string memory, st...\n      POP \t\t\tem as sold\\n        emit ItemC...\n      PUSH 20\t\t\tif\n      DUP5 \t\t\t; // Chec\n      ADD \t\t\tst\"); // Check if \n      CALLDATALOAD \t\t\t does not exist\"); // Check if...\n      PUSH FFFFFFFFFFFFFFFF\t\t\t storage item = it\n      DUP2 \t\t\t    It\n      GT \t\t\t       Item storage item = ite\n      ISZERO \t\t\ts\\n        Item storage item =...\n      PUSH [tag] 264\t\t\ts\\n        Item storage item =...\n      JUMPI \t\t\ts\\n        Item storage item =...\n      PUSH [tag] 265\t\t\t_id];\\n        return (item.id...\n      PUSH [tag] 155\t\t\t_id];\\n        return (item.id...\n      JUMP \t\t\t_id];\\n        return (item.id...\n    tag 265\t\t\t_id];\\n        return (item.id...\n      JUMPDEST \t\t\t_id];\\n        return (item.id...\n    tag 264\t\t\ts\\n        Item storage item =...\n      JUMPDEST \t\t\ts\\n        Item storage item =...\n      PUSH [tag] 266\t\t\tls\\n    }\\n\\n    // Function t...\n      DUP7 \t\t\tction g\n      DUP3 \t\t\ts\\n    \n      DUP8 \t\t\tve all it\n      ADD \t\t\ttrieve all items\\n    f\n      PUSH [tag] 165\t\t\tls\\n    }\\n\\n    // Function t...\n      JUMP \t\t\tls\\n    }\\n\\n    // Function t...\n    tag 266\t\t\tls\\n    }\\n\\n    // Function t...\n      JUMPDEST \t\t\tls\\n    }\\n\\n    // Function t...\n      SWAP3 \t\t\titem details\\n    }\\n\\n    // ...\n      POP \t\t\titem details\\n    }\\n\\n    // ...\n      POP \t\t\t& items[_id].id == _id, \"Item ...\n      PUSH 40\t\t\t\\n \n      PUSH [tag] 267\t\t\tReturn the array of all items\\...\n      DUP7 \t\t\t\n      DUP3 \t\t\t}\\n\n      DUP8 \t\t\ttems\\n    \n      ADD \t\t\tll items\\n    }\\n}\\n\n      PUSH [tag] 168\t\t\tReturn the array of all items\\...\n      JUMP \t\t\tReturn the array of all items\\...\n    tag 267\t\t\tReturn the array of all items\\...\n      JUMPDEST \t\t\tReturn the array of all items\\...\n      SWAP2 \t\t\titems; // Return the array of ...\n      POP \t\t\titems; // Return the array of ...\n      POP \t\t\tiew returns (Item[] memory) {\\...\n      SWAP3 \t\t\t  }\\n\\n    // Function to canc...\n      POP \t\t\t  }\\n\\n    // Function to canc...\n      SWAP3 \t\t\t  }\\n\\n    // Function to canc...\n      POP \t\t\t  }\\n\\n    // Function to canc...\n      SWAP3 \t\t\t  }\\n\\n    // Function to canc...\n      JUMP \t\t\t  }\\n\\n    // Function to canc...\n    tag 18\t\t\t\n      JUMPDEST \t\t\t\n      PUSH 0\t\t\t\n      PUSH 20\t\t\t\n      DUP3 \t\t\t\n      DUP5 \t\t\t\n      SUB \t\t\t\n      SLT \t\t\t\n      ISZERO \t\t\t\n      PUSH [tag] 269\t\t\t\n      JUMPI \t\t\t\n      PUSH [tag] 270\t\t\t\n      PUSH [tag] 154\t\t\t\n      JUMP \t\t\t\n    tag 270\t\t\t\n      JUMPDEST \t\t\t\n    tag 269\t\t\t\n      JUMPDEST \t\t\t\n      PUSH 0\t\t\t\n      PUSH [tag] 271\t\t\t\n      DUP5 \t\t\t\n      DUP3 \t\t\t\n      DUP6 \t\t\t\n      ADD \t\t\t\n      PUSH [tag] 168\t\t\t\n      JUMP \t\t\t\n    tag 271\t\t\t\n      JUMPDEST \t\t\t\n      SWAP2 \t\t\t\n      POP \t\t\t\n      POP \t\t\t\n      SWAP3 \t\t\t\n      SWAP2 \t\t\t\n      POP \t\t\t\n      POP \t\t\t\n      JUMP \t\t\t\n    tag 169\t\t\t\n      JUMPDEST \t\t\t\n      PUSH [tag] 273\t\t\t\n      DUP2 \t\t\t\n      PUSH [tag] 166\t\t\t\n      JUMP \t\t\t\n    tag 273\t\t\t\n      JUMPDEST \t\t\t\n      DUP3 \t\t\t\n      MSTORE \t\t\t\n      POP \t\t\t\n      POP \t\t\t\n      JUMP \t\t\t\n    tag 170\t\t\t\n      JUMPDEST \t\t\t\n      PUSH 0\t\t\t\n      DUP2 \t\t\t\n      MLOAD \t\t\t\n      SWAP1 \t\t\t\n      POP \t\t\t\n      SWAP2 \t\t\t\n      SWAP1 \t\t\t\n      POP \t\t\t\n      JUMP \t\t\t\n    tag 171\t\t\t\n      JUMPDEST \t\t\t\n      PUSH 0\t\t\t\n      DUP3 \t\t\t\n      DUP3 \t\t\t\n      MSTORE \t\t\t\n      PUSH 20\t\t\t\n      DUP3 \t\t\t\n      ADD \t\t\t\n      SWAP1 \t\t\t\n      POP \t\t\t\n      SWAP3 \t\t\t\n      SWAP2 \t\t\t\n      POP \t\t\t\n      POP \t\t\t\n      JUMP \t\t\t\n    tag 172\t\t\t\n      JUMPDEST \t\t\t\n      DUP3 \t\t\t\n      DUP2 \t\t\t\n      DUP4 \t\t\t\n      MCOPY \t\t\t\n      PUSH 0\t\t\t\n      DUP4 \t\t\t\n      DUP4 \t\t\t\n      ADD \t\t\t\n      MSTORE \t\t\t\n      POP \t\t\t\n      POP \t\t\t\n      POP \t\t\t\n      JUMP \t\t\t\n    tag 173\t\t\t\n      JUMPDEST \t\t\t\n      PUSH 0\t\t\t\n      PUSH [tag] 278\t\t\t\n      DUP3 \t\t\t\n      PUSH [tag] 170\t\t\t\n      JUMP \t\t\t\n    tag 278\t\t\t\n      JUMPDEST \t\t\t\n      PUSH [tag] 279\t\t\t\n      DUP2 \t\t\t\n      DUP6 \t\t\t\n      PUSH [tag] 171\t\t\t\n      JUMP \t\t\t\n    tag 279\t\t\t\n      JUMPDEST \t\t\t\n      SWAP4 \t\t\t\n      POP \t\t\t\n      PUSH [tag] 280\t\t\t\n      DUP2 \t\t\t\n      DUP6 \t\t\t\n      PUSH 20\t\t\t\n      DUP7 \t\t\t\n      ADD \t\t\t\n      PUSH [tag] 172\t\t\t\n      JUMP \t\t\t\n    tag 280\t\t\t\n      JUMPDEST \t\t\t\n      PUSH [tag] 281\t\t\t\n      DUP2 \t\t\t\n      PUSH [tag] 158\t\t\t\n      JUMP \t\t\t\n    tag 281\t\t\t\n      JUMPDEST \t\t\t\n      DUP5 \t\t\t\n      ADD \t\t\t\n      SWAP2 \t\t\t\n      POP \t\t\t\n      POP \t\t\t\n      SWAP3 \t\t\t\n      SWAP2 \t\t\t\n      POP \t\t\t\n      POP \t\t\t\n      JUMP \t\t\t\n    tag 174\t\t\t\n      JUMPDEST \t\t\t\n      PUSH 0\t\t\t\n      DUP2 \t\t\t\n      ISZERO \t\t\t\n      ISZERO \t\t\t\n      SWAP1 \t\t\t\n      POP \t\t\t\n      SWAP2 \t\t\t\n      SWAP1 \t\t\t\n      POP \t\t\t\n      JUMP \t\t\t\n    tag 175\t\t\t\n      JUMPDEST \t\t\t\n      PUSH [tag] 284\t\t\t\n      DUP2 \t\t\t\n      PUSH [tag] 174\t\t\t\n      JUMP \t\t\t\n    tag 284\t\t\t\n      JUMPDEST \t\t\t\n      DUP3 \t\t\t\n      MSTORE \t\t\t\n      POP \t\t\t\n      POP \t\t\t\n      JUMP \t\t\t\n    tag 25\t\t\t\n      JUMPDEST \t\t\t\n      PUSH 0\t\t\t\n      PUSH A0\t\t\t\n      DUP3 \t\t\t\n      ADD \t\t\t\n      SWAP1 \t\t\t\n      POP \t\t\t\n      PUSH [tag] 286\t\t\t\n      PUSH 0\t\t\t\n      DUP4 \t\t\t\n      ADD \t\t\t\n      DUP9 \t\t\t\n      PUSH [tag] 169\t\t\t\n      JUMP \t\t\t\n    tag 286\t\t\t\n      JUMPDEST \t\t\t\n      DUP2 \t\t\t\n      DUP2 \t\t\t\n      SUB \t\t\t\n      PUSH 20\t\t\t\n      DUP4 \t\t\t\n      ADD \t\t\t\n      MSTORE \t\t\t\n      PUSH [tag] 287\t\t\t\n      DUP2 \t\t\t\n      DUP8 \t\t\t\n      PUSH [tag] 173\t\t\t\n      JUMP \t\t\t\n    tag 287\t\t\t\n      JUMPDEST \t\t\t\n      SWAP1 \t\t\t\n      POP \t\t\t\n      DUP2 \t\t\t\n      DUP2 \t\t\t\n      SUB \t\t\t\n      PUSH 40\t\t\t\n      DUP4 \t\t\t\n      ADD \t\t\t\n      MSTORE \t\t\t\n      PUSH [tag] 288\t\t\t\n      DUP2 \t\t\t\n      DUP7 \t\t\t\n      PUSH [tag] 173\t\t\t\n      JUMP \t\t\t\n    tag 288\t\t\t\n      JUMPDEST \t\t\t\n      SWAP1 \t\t\t\n      POP \t\t\t\n      PUSH [tag] 289\t\t\t\n      PUSH 60\t\t\t\n      DUP4 \t\t\t\n      ADD \t\t\t\n      DUP6 \t\t\t\n      PUSH [tag] 169\t\t\t\n      JUMP \t\t\t\n    tag 289\t\t\t\n      JUMPDEST \t\t\t\n      PUSH [tag] 290\t\t\t\n      PUSH 80\t\t\t\n      DUP4 \t\t\t\n      ADD \t\t\t\n      DUP5 \t\t\t\n      PUSH [tag] 175\t\t\t\n      JUMP \t\t\t\n    tag 290\t\t\t\n      JUMPDEST \t\t\t\n      SWAP7 \t\t\t\n      SWAP6 \t\t\t\n      POP \t\t\t\n      POP \t\t\t\n      POP \t\t\t\n      POP \t\t\t\n      POP \t\t\t\n      POP \t\t\t\n      JUMP \t\t\t\n    tag 176\t\t\t\n      JUMPDEST \t\t\t\n      PUSH 0\t\t\t\n      DUP2 \t\t\t\n      MLOAD \t\t\t\n      SWAP1 \t\t\t\n      POP \t\t\t\n      SWAP2 \t\t\t\n      SWAP1 \t\t\t\n      POP \t\t\t\n      JUMP \t\t\t\n    tag 177\t\t\t\n      JUMPDEST \t\t\t\n      PUSH 0\t\t\t\n      DUP3 \t\t\t\n      DUP3 \t\t\t\n      MSTORE \t\t\t\n      PUSH 20\t\t\t\n      DUP3 \t\t\t\n      ADD \t\t\t\n      SWAP1 \t\t\t\n      POP \t\t\t\n      SWAP3 \t\t\t\n      SWAP2 \t\t\t\n      POP \t\t\t\n      POP \t\t\t\n      JUMP \t\t\t\n    tag 178\t\t\t\n      JUMPDEST \t\t\t\n      PUSH 0\t\t\t\n      DUP2 \t\t\t\n      SWAP1 \t\t\t\n      POP \t\t\t\n      PUSH 20\t\t\t\n      DUP3 \t\t\t\n      ADD \t\t\t\n      SWAP1 \t\t\t\n      POP \t\t\t\n      SWAP2 \t\t\t\n      SWAP1 \t\t\t\n      POP \t\t\t\n      JUMP \t\t\t\n    tag 179\t\t\t\n      JUMPDEST \t\t\t\n      PUSH [tag] 295\t\t\t\n      DUP2 \t\t\t\n      PUSH [tag] 166\t\t\t\n      JUMP \t\t\t\n    tag 295\t\t\t\n      JUMPDEST \t\t\t\n      DUP3 \t\t\t\n      MSTORE \t\t\t\n      POP \t\t\t\n      POP \t\t\t\n      JUMP \t\t\t\n    tag 180\t\t\t\n      JUMPDEST \t\t\t\n      PUSH 0\t\t\t\n      PUSH FFFFFFFFFFFFFFFFFFFFFFFFFFFFFFFFFFFFFFFF\t\t\t\n      DUP3 \t\t\t\n      AND \t\t\t\n      SWAP1 \t\t\t\n      POP \t\t\t\n      SWAP2 \t\t\t\n      SWAP1 \t\t\t\n      POP \t\t\t\n      JUMP \t\t\t\n    tag 181\t\t\t\n      JUMPDEST \t\t\t\n      PUSH 0\t\t\t\n      PUSH [tag] 298\t\t\t\n      DUP3 \t\t\t\n      PUSH [tag] 180\t\t\t\n      JUMP \t\t\t\n    tag 298\t\t\t\n      JUMPDEST \t\t\t\n      SWAP1 \t\t\t\n      POP \t\t\t\n      SWAP2 \t\t\t\n      SWAP1 \t\t\t\n      POP \t\t\t\n      JUMP \t\t\t\n    tag 182\t\t\t\n      JUMPDEST \t\t\t\n      PUSH [tag] 300\t\t\t\n      DUP2 \t\t\t\n      PUSH [tag] 181\t\t\t\n      JUMP \t\t\t\n    tag 300\t\t\t\n      JUMPDEST \t\t\t\n      DUP3 \t\t\t\n      MSTORE \t\t\t\n      POP \t\t\t\n      POP \t\t\t\n      JUMP \t\t\t\n    tag 183\t\t\t\n      JUMPDEST \t\t\t\n      PUSH 0\t\t\t\n      DUP3 \t\t\t\n      DUP3 \t\t\t\n      MSTORE \t\t\t\n      PUSH 20\t\t\t\n      DUP3 \t\t\t\n      ADD \t\t\t\n      SWAP1 \t\t\t\n      POP \t\t\t\n      SWAP3 \t\t\t\n      SWAP2 \t\t\t\n      POP \t\t\t\n      POP \t\t\t\n      JUMP \t\t\t\n    tag 184\t\t\t\n      JUMPDEST \t\t\t\n      PUSH 0\t\t\t\n      PUSH [tag] 303\t\t\t\n      DUP3 \t\t\t\n      PUSH [tag] 170\t\t\t\n      JUMP \t\t\t\n    tag 303\t\t\t\n      JUMPDEST \t\t\t\n      PUSH [tag] 304\t\t\t\n      DUP2 \t\t\t\n      DUP6 \t\t\t\n      PUSH [tag] 183\t\t\t\n      JUMP \t\t\t\n    tag 304\t\t\t\n      JUMPDEST \t\t\t\n      SWAP4 \t\t\t\n      POP \t\t\t\n      PUSH [tag] 305\t\t\t\n      DUP2 \t\t\t\n      DUP6 \t\t\t\n      PUSH 20\t\t\t\n      DUP7 \t\t\t\n      ADD \t\t\t\n      PUSH [tag] 172\t\t\t\n      JUMP \t\t\t\n    tag 305\t\t\t\n      JUMPDEST \t\t\t\n      PUSH [tag] 306\t\t\t\n      DUP2 \t\t\t\n      PUSH [tag] 158\t\t\t\n      JUMP \t\t\t\n    tag 306\t\t\t\n      JUMPDEST \t\t\t\n      DUP5 \t\t\t\n      ADD \t\t\t\n      SWAP2 \t\t\t\n      POP \t\t\t\n      POP \t\t\t\n      SWAP3 \t\t\t\n      SWAP2 \t\t\t\n      POP \t\t\t\n      POP \t\t\t\n      JUMP \t\t\t\n    tag 185\t\t\t\n      JUMPDEST \t\t\t\n      PUSH [tag] 308\t\t\t\n      DUP2 \t\t\t\n      PUSH [tag] 174\t\t\t\n      JUMP \t\t\t\n    tag 308\t\t\t\n      JUMPDEST \t\t\t\n      DUP3 \t\t\t\n      MSTORE \t\t\t\n      POP \t\t\t\n      POP \t\t\t\n      JUMP \t\t\t\n    tag 186\t\t\t\n      JUMPDEST \t\t\t\n      PUSH 0\t\t\t\n      PUSH C0\t\t\t\n      DUP4 \t\t\t\n      ADD \t\t\t\n      PUSH 0\t\t\t\n      DUP4 \t\t\t\n      ADD \t\t\t\n      MLOAD \t\t\t\n      PUSH [tag] 310\t\t\t\n      PUSH 0\t\t\t\n      DUP7 \t\t\t\n      ADD \t\t\t\n      DUP3 \t\t\t\n      PUSH [tag] 179\t\t\t\n      JUMP \t\t\t\n    tag 310\t\t\t\n      JUMPDEST \t\t\t\n      POP \t\t\t\n      PUSH 20\t\t\t\n      DUP4 \t\t\t\n      ADD \t\t\t\n      MLOAD \t\t\t\n      PUSH [tag] 311\t\t\t\n      PUSH 20\t\t\t\n      DUP7 \t\t\t\n      ADD \t\t\t\n      DUP3 \t\t\t\n      PUSH [tag] 182\t\t\t\n      JUMP \t\t\t\n    tag 311\t\t\t\n      JUMPDEST \t\t\t\n      POP \t\t\t\n      PUSH 40\t\t\t\n      DUP4 \t\t\t\n      ADD \t\t\t\n      MLOAD \t\t\t\n      DUP5 \t\t\t\n      DUP3 \t\t\t\n      SUB \t\t\t\n      PUSH 40\t\t\t\n      DUP7 \t\t\t\n      ADD \t\t\t\n      MSTORE \t\t\t\n      PUSH [tag] 312\t\t\t\n      DUP3 \t\t\t\n      DUP3 \t\t\t\n      PUSH [tag] 184\t\t\t\n      JUMP \t\t\t\n    tag 312\t\t\t\n      JUMPDEST \t\t\t\n      SWAP2 \t\t\t\n      POP \t\t\t\n      POP \t\t\t\n      PUSH 60\t\t\t\n      DUP4 \t\t\t\n      ADD \t\t\t\n      MLOAD \t\t\t\n      DUP5 \t\t\t\n      DUP3 \t\t\t\n      SUB \t\t\t\n      PUSH 60\t\t\t\n      DUP7 \t\t\t\n      ADD \t\t\t\n      MSTORE \t\t\t\n      PUSH [tag] 313\t\t\t\n      DUP3 \t\t\t\n      DUP3 \t\t\t\n      PUSH [tag] 184\t\t\t\n      JUMP \t\t\t\n    tag 313\t\t\t\n      JUMPDEST \t\t\t\n      SWAP2 \t\t\t\n      POP \t\t\t\n      POP \t\t\t\n      PUSH 80\t\t\t\n      DUP4 \t\t\t\n      ADD \t\t\t\n      MLOAD \t\t\t\n      PUSH [tag] 314\t\t\t\n      PUSH 80\t\t\t\n      DUP7 \t\t\t\n      ADD \t\t\t\n      DUP3 \t\t\t\n      PUSH [tag] 179\t\t\t\n      JUMP \t\t\t\n    tag 314\t\t\t\n      JUMPDEST \t\t\t\n      POP \t\t\t\n      PUSH A0\t\t\t\n      DUP4 \t\t\t\n      ADD \t\t\t\n      MLOAD \t\t\t\n      PUSH [tag] 315\t\t\t\n      PUSH A0\t\t\t\n      DUP7 \t\t\t\n      ADD \t\t\t\n      DUP3 \t\t\t\n      PUSH [tag] 185\t\t\t\n      JUMP \t\t\t\n    tag 315\t\t\t\n      JUMPDEST \t\t\t\n      POP \t\t\t\n      DUP1 \t\t\t\n      SWAP2 \t\t\t\n      POP \t\t\t\n      POP \t\t\t\n      SWAP3 \t\t\t\n      SWAP2 \t\t\t\n      POP \t\t\t\n      POP \t\t\t\n      JUMP \t\t\t\n    tag 187\t\t\t\n      JUMPDEST \t\t\t\n      PUSH 0\t\t\t\n      PUSH [tag] 317\t\t\t\n      DUP4 \t\t\t\n      DUP4 \t\t\t\n      PUSH [tag] 186\t\t\t\n      JUMP \t\t\t\n    tag 317\t\t\t\n      JUMPDEST \t\t\t\n      SWAP1 \t\t\t\n      POP \t\t\t\n      SWAP3 \t\t\t\n      SWAP2 \t\t\t\n      POP \t\t\t\n      POP \t\t\t\n      JUMP \t\t\t\n    tag 188\t\t\t\n      JUMPDEST \t\t\t\n      PUSH 0\t\t\t\n      PUSH 20\t\t\t\n      DUP3 \t\t\t\n      ADD \t\t\t\n      SWAP1 \t\t\t\n      POP \t\t\t\n      SWAP2 \t\t\t\n      SWAP1 \t\t\t\n      POP \t\t\t\n      JUMP \t\t\t\n    tag 189\t\t\t\n      JUMPDEST \t\t\t\n      PUSH 0\t\t\t\n      PUSH [tag] 320\t\t\t\n      DUP3 \t\t\t\n      PUSH [tag] 176\t\t\t\n      JUMP \t\t\t\n    tag 320\t\t\t\n      JUMPDEST \t\t\t\n      PUSH [tag] 321\t\t\t\n      DUP2 \t\t\t\n      DUP6 \t\t\t\n      PUSH [tag] 177\t\t\t\n      JUMP \t\t\t\n    tag 321\t\t\t\n      JUMPDEST \t\t\t\n      SWAP4 \t\t\t\n      POP \t\t\t\n      DUP4 \t\t\t\n      PUSH 20\t\t\t\n      DUP3 \t\t\t\n      MUL \t\t\t\n      DUP6 \t\t\t\n      ADD \t\t\t\n      PUSH [tag] 322\t\t\t\n      DUP6 \t\t\t\n      PUSH [tag] 178\t\t\t\n      JUMP \t\t\t\n    tag 322\t\t\t\n      JUMPDEST \t\t\t\n      DUP1 \t\t\t\n      PUSH 0\t\t\t\n    tag 323\t\t\t\n      JUMPDEST \t\t\t\n      DUP6 \t\t\t\n      DUP2 \t\t\t\n      LT \t\t\t\n      ISZERO \t\t\t\n      PUSH [tag] 325\t\t\t\n      JUMPI \t\t\t\n      DUP5 \t\t\t\n      DUP5 \t\t\t\n      SUB \t\t\t\n      DUP10 \t\t\t\n      MSTORE \t\t\t\n      DUP2 \t\t\t\n      MLOAD \t\t\t\n      PUSH [tag] 326\t\t\t\n      DUP6 \t\t\t\n      DUP3 \t\t\t\n      PUSH [tag] 187\t\t\t\n      JUMP \t\t\t\n    tag 326\t\t\t\n      JUMPDEST \t\t\t\n      SWAP5 \t\t\t\n      POP \t\t\t\n      PUSH [tag] 327\t\t\t\n      DUP4 \t\t\t\n      PUSH [tag] 188\t\t\t\n      JUMP \t\t\t\n    tag 327\t\t\t\n      JUMPDEST \t\t\t\n      SWAP3 \t\t\t\n      POP \t\t\t\n      PUSH 20\t\t\t\n      DUP11 \t\t\t\n      ADD \t\t\t\n      SWAP10 \t\t\t\n      POP \t\t\t\n      POP \t\t\t\n      PUSH 1\t\t\t\n      DUP2 \t\t\t\n      ADD \t\t\t\n      SWAP1 \t\t\t\n      POP \t\t\t\n      PUSH [tag] 323\t\t\t\n      JUMP \t\t\t\n    tag 325\t\t\t\n      JUMPDEST \t\t\t\n      POP \t\t\t\n      DUP3 \t\t\t\n      SWAP8 \t\t\t\n      POP \t\t\t\n      DUP8 \t\t\t\n      SWAP6 \t\t\t\n      POP \t\t\t\n      POP \t\t\t\n      POP \t\t\t\n      POP \t\t\t\n      POP \t\t\t\n      POP \t\t\t\n      SWAP3 \t\t\t\n      SWAP2 \t\t\t\n      POP \t\t\t\n      POP \t\t\t\n      JUMP \t\t\t\n    tag 30\t\t\t\n      JUMPDEST \t\t\t\n      PUSH 0\t\t\t\n      PUSH 20\t\t\t\n      DUP3 \t\t\t\n      ADD \t\t\t\n      SWAP1 \t\t\t\n      POP \t\t\t\n      DUP2 \t\t\t\n      DUP2 \t\t\t\n      SUB \t\t\t\n      PUSH 0\t\t\t\n      DUP4 \t\t\t\n      ADD \t\t\t\n      MSTORE \t\t\t\n      PUSH [tag] 329\t\t\t\n      DUP2 \t\t\t\n      DUP5 \t\t\t\n      PUSH [tag] 189\t\t\t\n      JUMP \t\t\t\n    tag 329\t\t\t\n      JUMPDEST \t\t\t\n      SWAP1 \t\t\t\n      POP \t\t\t\n      SWAP3 \t\t\t\n      SWAP2 \t\t\t\n      POP \t\t\t\n      POP \t\t\t\n      JUMP \t\t\t\n    tag 35\t\t\t\n      JUMPDEST \t\t\t\n      PUSH 0\t\t\t\n      PUSH 20\t\t\t\n      DUP3 \t\t\t\n      ADD \t\t\t\n      SWAP1 \t\t\t\n      POP \t\t\t\n      PUSH [tag] 331\t\t\t\n      PUSH 0\t\t\t\n      DUP4 \t\t\t\n      ADD \t\t\t\n      DUP5 \t\t\t\n      PUSH [tag] 169\t\t\t\n      JUMP \t\t\t\n    tag 331\t\t\t\n      JUMPDEST \t\t\t\n      SWAP3 \t\t\t\n      SWAP2 \t\t\t\n      POP \t\t\t\n      POP \t\t\t\n      JUMP \t\t\t\n    tag 190\t\t\t\n      JUMPDEST \t\t\t\n      PUSH [tag] 333\t\t\t\n      DUP2 \t\t\t\n      PUSH [tag] 181\t\t\t\n      JUMP \t\t\t\n    tag 333\t\t\t\n      JUMPDEST \t\t\t\n      DUP3 \t\t\t\n      MSTORE \t\t\t\n      POP \t\t\t\n      POP \t\t\t\n      JUMP \t\t\t\n    tag 41\t\t\t\n      JUMPDEST \t\t\t\n      PUSH 0\t\t\t\n      PUSH C0\t\t\t\n      DUP3 \t\t\t\n      ADD \t\t\t\n      SWAP1 \t\t\t\n      POP \t\t\t\n      PUSH [tag] 335\t\t\t\n      PUSH 0\t\t\t\n      DUP4 \t\t\t\n      ADD \t\t\t\n      DUP10 \t\t\t\n      PUSH [tag] 169\t\t\t\n      JUMP \t\t\t\n    tag 335\t\t\t\n      JUMPDEST \t\t\t\n      PUSH [tag] 336\t\t\t\n      PUSH 20\t\t\t\n      DUP4 \t\t\t\n      ADD \t\t\t\n      DUP9 \t\t\t\n      PUSH [tag] 190\t\t\t\n      JUMP \t\t\t\n    tag 336\t\t\t\n      JUMPDEST \t\t\t\n      DUP2 \t\t\t\n      DUP2 \t\t\t\n      SUB \t\t\t\n      PUSH 40\t\t\t\n      DUP4 \t\t\t\n      ADD \t\t\t\n      MSTORE \t\t\t\n      PUSH [tag] 337\t\t\t\n      DUP2 \t\t\t\n      DUP8 \t\t\t\n      PUSH [tag] 173\t\t\t\n      JUMP \t\t\t\n    tag 337\t\t\t\n      JUMPDEST \t\t\t\n      SWAP1 \t\t\t\n      POP \t\t\t\n      DUP2 \t\t\t\n      DUP2 \t\t\t\n      SUB \t\t\t\n      PUSH 60\t\t\t\n      DUP4 \t\t\t\n      ADD \t\t\t\n      MSTORE \t\t\t\n      PUSH [tag] 338\t\t\t\n      DUP2 \t\t\t\n      DUP7 \t\t\t\n      PUSH [tag] 173\t\t\t\n      JUMP \t\t\t\n    tag 338\t\t\t\n      JUMPDEST \t\t\t\n      SWAP1 \t\t\t\n      POP \t\t\t\n      PUSH [tag] 339\t\t\t\n      PUSH 80\t\t\t\n      DUP4 \t\t\t\n      ADD \t\t\t\n      DUP6 \t\t\t\n      PUSH [tag] 169\t\t\t\n      JUMP \t\t\t\n    tag 339\t\t\t\n      JUMPDEST \t\t\t\n      PUSH [tag] 340\t\t\t\n      PUSH A0\t\t\t\n      DUP4 \t\t\t\n      ADD \t\t\t\n      DUP5 \t\t\t\n      PUSH [tag] 175\t\t\t\n      JUMP \t\t\t\n    tag 340\t\t\t\n      JUMPDEST \t\t\t\n      SWAP8 \t\t\t\n      SWAP7 \t\t\t\n      POP \t\t\t\n      POP \t\t\t\n      POP \t\t\t\n      POP \t\t\t\n      POP \t\t\t\n      POP \t\t\t\n      POP \t\t\t\n      JUMP \t\t\t\n    tag 191\t\t\t\n      JUMPDEST \t\t\t\n      PUSH 5072696365206D7573742062652067726561746572207468616E207A65726F00\t\t\t\n      PUSH 0\t\t\t\n      DUP3 \t\t\t\n      ADD \t\t\t\n      MSTORE \t\t\t\n      POP \t\t\t\n      JUMP \t\t\t\n    tag 192\t\t\t\n      JUMPDEST \t\t\t\n      PUSH 0\t\t\t\n      PUSH [tag] 343\t\t\t\n      PUSH 1F\t\t\t\n      DUP4 \t\t\t\n      PUSH [tag] 171\t\t\t\n      JUMP \t\t\t\n    tag 343\t\t\t\n      JUMPDEST \t\t\t\n      SWAP2 \t\t\t\n      POP \t\t\t\n      PUSH [tag] 344\t\t\t\n      DUP3 \t\t\t\n      PUSH [tag] 191\t\t\t\n      JUMP \t\t\t\n    tag 344\t\t\t\n      JUMPDEST \t\t\t\n      PUSH 20\t\t\t\n      DUP3 \t\t\t\n      ADD \t\t\t\n      SWAP1 \t\t\t\n      POP \t\t\t\n      SWAP2 \t\t\t\n      SWAP1 \t\t\t\n      POP \t\t\t\n      JUMP \t\t\t\n    tag 48\t\t\t\n      JUMPDEST \t\t\t\n      PUSH 0\t\t\t\n      PUSH 20\t\t\t\n      DUP3 \t\t\t\n      ADD \t\t\t\n      SWAP1 \t\t\t\n      POP \t\t\t\n      DUP2 \t\t\t\n      DUP2 \t\t\t\n      SUB \t\t\t\n      PUSH 0\t\t\t\n      DUP4 \t\t\t\n      ADD \t\t\t\n      MSTORE \t\t\t\n      PUSH [tag] 346\t\t\t\n      DUP2 \t\t\t\n      PUSH [tag] 192\t\t\t\n      JUMP \t\t\t\n    tag 346\t\t\t\n      JUMPDEST \t\t\t\n      SWAP1 \t\t\t\n      POP \t\t\t\n      SWAP2 \t\t\t\n      SWAP1 \t\t\t\n      POP \t\t\t\n      JUMP \t\t\t\n    tag 193\t\t\t\n      JUMPDEST \t\t\t\n      PUSH 4E487B7100000000000000000000000000000000000000000000000000000000\t\t\t\n      PUSH 0\t\t\t\n      MSTORE \t\t\t\n      PUSH 22\t\t\t\n      PUSH 4\t\t\t\n      MSTORE \t\t\t\n      PUSH 24\t\t\t\n      PUSH 0\t\t\t\n      REVERT \t\t\t\n    tag 88\t\t\t\n      JUMPDEST \t\t\t\n      PUSH 0\t\t\t\n      PUSH 2\t\t\t\n      DUP3 \t\t\t\n      DIV \t\t\t\n      SWAP1 \t\t\t\n      POP \t\t\t\n      PUSH 1\t\t\t\n      DUP3 \t\t\t\n      AND \t\t\t\n      DUP1 \t\t\t\n      PUSH [tag] 349\t\t\t\n      JUMPI \t\t\t\n      PUSH 7F\t\t\t\n      DUP3 \t\t\t\n      AND \t\t\t\n      SWAP2 \t\t\t\n      POP \t\t\t\n    tag 349\t\t\t\n      JUMPDEST \t\t\t\n      PUSH 20\t\t\t\n      DUP3 \t\t\t\n      LT \t\t\t\n      DUP2 \t\t\t\n      SUB \t\t\t\n      PUSH [tag] 350\t\t\t\n      JUMPI \t\t\t\n      PUSH [tag] 351\t\t\t\n      PUSH [tag] 193\t\t\t\n      JUMP \t\t\t\n    tag 351\t\t\t\n      JUMPDEST \t\t\t\n    tag 350\t\t\t\n      JUMPDEST \t\t\t\n      POP \t\t\t\n      SWAP2 \t\t\t\n      SWAP1 \t\t\t\n      POP \t\t\t\n      JUMP \t\t\t\n    tag 194\t\t\t\n      JUMPDEST \t\t\t\n      PUSH 0\t\t\t\n      DUP2 \t\t\t\n      SWAP1 \t\t\t\n      POP \t\t\t\n      DUP2 \t\t\t\n      PUSH 0\t\t\t\n      MSTORE \t\t\t\n      PUSH 20\t\t\t\n      PUSH 0\t\t\t\n      KECCAK256 \t\t\t\n      SWAP1 \t\t\t\n      POP \t\t\t\n      SWAP2 \t\t\t\n      SWAP1 \t\t\t\n      POP \t\t\t\n      JUMP \t\t\t\n    tag 195\t\t\t\n      JUMPDEST \t\t\t\n      PUSH 0\t\t\t\n      PUSH 20\t\t\t\n      PUSH 1F\t\t\t\n      DUP4 \t\t\t\n      ADD \t\t\t\n      DIV \t\t\t\n      SWAP1 \t\t\t\n      POP \t\t\t\n      SWAP2 \t\t\t\n      SWAP1 \t\t\t\n      POP \t\t\t\n      JUMP \t\t\t\n    tag 196\t\t\t\n      JUMPDEST \t\t\t\n      PUSH 0\t\t\t\n      DUP3 \t\t\t\n      DUP3 \t\t\t\n      SHL \t\t\t\n      SWAP1 \t\t\t\n      POP \t\t\t\n      SWAP3 \t\t\t\n      SWAP2 \t\t\t\n      POP \t\t\t\n      POP \t\t\t\n      JUMP \t\t\t\n    tag 197\t\t\t\n      JUMPDEST \t\t\t\n      PUSH 0\t\t\t\n      PUSH 8\t\t\t\n      DUP4 \t\t\t\n      MUL \t\t\t\n      PUSH [tag] 356\t\t\t\n      PUSH FFFFFFFFFFFFFFFFFFFFFFFFFFFFFFFFFFFFFFFFFFFFFFFFFFFFFFFFFFFFFFFF\t\t\t\n      DUP3 \t\t\t\n      PUSH [tag] 196\t\t\t\n      JUMP \t\t\t\n    tag 356\t\t\t\n      JUMPDEST \t\t\t\n      PUSH [tag] 357\t\t\t\n      DUP7 \t\t\t\n      DUP4 \t\t\t\n      PUSH [tag] 196\t\t\t\n      JUMP \t\t\t\n    tag 357\t\t\t\n      JUMPDEST \t\t\t\n      SWAP6 \t\t\t\n      POP \t\t\t\n      DUP1 \t\t\t\n      NOT \t\t\t\n      DUP5 \t\t\t\n      AND \t\t\t\n      SWAP4 \t\t\t\n      POP \t\t\t\n      DUP1 \t\t\t\n      DUP7 \t\t\t\n      AND \t\t\t\n      DUP5 \t\t\t\n      OR \t\t\t\n      SWAP3 \t\t\t\n      POP \t\t\t\n      POP \t\t\t\n      POP \t\t\t\n      SWAP4 \t\t\t\n      SWAP3 \t\t\t\n      POP \t\t\t\n      POP \t\t\t\n      POP \t\t\t\n      JUMP \t\t\t\n    tag 198\t\t\t\n      JUMPDEST \t\t\t\n      PUSH 0\t\t\t\n      DUP2 \t\t\t\n      SWAP1 \t\t\t\n      POP \t\t\t\n      SWAP2 \t\t\t\n      SWAP1 \t\t\t\n      POP \t\t\t\n      JUMP \t\t\t\n    tag 199\t\t\t\n      JUMPDEST \t\t\t\n      PUSH 0\t\t\t\n      PUSH [tag] 360\t\t\t\n      PUSH [tag] 361\t\t\t\n      PUSH [tag] 362\t\t\t\n      DUP5 \t\t\t\n      PUSH [tag] 166\t\t\t\n      JUMP \t\t\t\n    tag 362\t\t\t\n      JUMPDEST \t\t\t\n      PUSH [tag] 198\t\t\t\n      JUMP \t\t\t\n    tag 361\t\t\t\n      JUMPDEST \t\t\t\n      PUSH [tag] 166\t\t\t\n      JUMP \t\t\t\n    tag 360\t\t\t\n      JUMPDEST \t\t\t\n      SWAP1 \t\t\t\n      POP \t\t\t\n      SWAP2 \t\t\t\n      SWAP1 \t\t\t\n      POP \t\t\t\n      JUMP \t\t\t\n    tag 200\t\t\t\n      JUMPDEST \t\t\t\n      PUSH 0\t\t\t\n      DUP2 \t\t\t\n      SWAP1 \t\t\t\n      POP \t\t\t\n      SWAP2 \t\t\t\n      SWAP1 \t\t\t\n      POP \t\t\t\n      JUMP \t\t\t\n    tag 201\t\t\t\n      JUMPDEST \t\t\t\n      PUSH [tag] 365\t\t\t\n      DUP4 \t\t\t\n      PUSH [tag] 199\t\t\t\n      JUMP \t\t\t\n    tag 365\t\t\t\n      JUMPDEST \t\t\t\n      PUSH [tag] 366\t\t\t\n      PUSH [tag] 367\t\t\t\n      DUP3 \t\t\t\n      PUSH [tag] 200\t\t\t\n      JUMP \t\t\t\n    tag 367\t\t\t\n      JUMPDEST \t\t\t\n      DUP5 \t\t\t\n      DUP5 \t\t\t\n      SLOAD \t\t\t\n      PUSH [tag] 197\t\t\t\n      JUMP \t\t\t\n    tag 366\t\t\t\n      JUMPDEST \t\t\t\n      DUP3 \t\t\t\n      SSTORE \t\t\t\n      POP \t\t\t\n      POP \t\t\t\n      POP \t\t\t\n      POP \t\t\t\n      JUMP \t\t\t\n    tag 202\t\t\t\n      JUMPDEST \t\t\t\n      PUSH 0\t\t\t\n      SWAP1 \t\t\t\n      JUMP \t\t\t\n    tag 203\t\t\t\n      JUMPDEST \t\t\t\n      PUSH [tag] 370\t\t\t\n      PUSH [tag] 202\t\t\t\n      JUMP \t\t\t\n    tag 370\t\t\t\n      JUMPDEST \t\t\t\n      PUSH [tag] 371\t\t\t\n      DUP2 \t\t\t\n      DUP5 \t\t\t\n      DUP5 \t\t\t\n      PUSH [tag] 201\t\t\t\n      JUMP \t\t\t\n    tag 371\t\t\t\n      JUMPDEST \t\t\t\n      POP \t\t\t\n      POP \t\t\t\n      POP \t\t\t\n      JUMP \t\t\t\n    tag 204\t\t\t\n      JUMPDEST \t\t\t\n    tag 373\t\t\t\n      JUMPDEST \t\t\t\n      DUP2 \t\t\t\n      DUP2 \t\t\t\n      LT \t\t\t\n      ISZERO \t\t\t\n      PUSH [tag] 375\t\t\t\n      JUMPI \t\t\t\n      PUSH [tag] 376\t\t\t\n      PUSH 0\t\t\t\n      DUP3 \t\t\t\n      PUSH [tag] 203\t\t\t\n      JUMP \t\t\t\n    tag 376\t\t\t\n      JUMPDEST \t\t\t\n      PUSH 1\t\t\t\n      DUP2 \t\t\t\n      ADD \t\t\t\n      SWAP1 \t\t\t\n      POP \t\t\t\n      PUSH [tag] 373\t\t\t\n      JUMP \t\t\t\n    tag 375\t\t\t\n      JUMPDEST \t\t\t\n      POP \t\t\t\n      POP \t\t\t\n      JUMP \t\t\t\n    tag 205\t\t\t\n      JUMPDEST \t\t\t\n      PUSH 1F\t\t\t\n      DUP3 \t\t\t\n      GT \t\t\t\n      ISZERO \t\t\t\n      PUSH [tag] 378\t\t\t\n      JUMPI \t\t\t\n      PUSH [tag] 379\t\t\t\n      DUP2 \t\t\t\n      PUSH [tag] 194\t\t\t\n      JUMP \t\t\t\n    tag 379\t\t\t\n      JUMPDEST \t\t\t\n      PUSH [tag] 380\t\t\t\n      DUP5 \t\t\t\n      PUSH [tag] 195\t\t\t\n      JUMP \t\t\t\n    tag 380\t\t\t\n      JUMPDEST \t\t\t\n      DUP2 \t\t\t\n      ADD \t\t\t\n      PUSH 20\t\t\t\n      DUP6 \t\t\t\n      LT \t\t\t\n      ISZERO \t\t\t\n      PUSH [tag] 381\t\t\t\n      JUMPI \t\t\t\n      DUP2 \t\t\t\n      SWAP1 \t\t\t\n      POP \t\t\t\n    tag 381\t\t\t\n      JUMPDEST \t\t\t\n      PUSH [tag] 382\t\t\t\n      PUSH [tag] 383\t\t\t\n      DUP6 \t\t\t\n      PUSH [tag] 195\t\t\t\n      JUMP \t\t\t\n    tag 383\t\t\t\n      JUMPDEST \t\t\t\n      DUP4 \t\t\t\n      ADD \t\t\t\n      DUP3 \t\t\t\n      PUSH [tag] 204\t\t\t\n      JUMP \t\t\t\n    tag 382\t\t\t\n      JUMPDEST \t\t\t\n      POP \t\t\t\n      POP \t\t\t\n    tag 378\t\t\t\n      JUMPDEST \t\t\t\n      POP \t\t\t\n      POP \t\t\t\n      POP \t\t\t\n      JUMP \t\t\t\n    tag 206\t\t\t\n      JUMPDEST \t\t\t\n      PUSH 0\t\t\t\n      DUP3 \t\t\t\n      DUP3 \t\t\t\n      SHR \t\t\t\n      SWAP1 \t\t\t\n      POP \t\t\t\n      SWAP3 \t\t\t\n      SWAP2 \t\t\t\n      POP \t\t\t\n      POP \t\t\t\n      JUMP \t\t\t\n    tag 207\t\t\t\n      JUMPDEST \t\t\t\n      PUSH 0\t\t\t\n      PUSH [tag] 386\t\t\t\n      PUSH 0\t\t\t\n      NOT \t\t\t\n      DUP5 \t\t\t\n      PUSH 8\t\t\t\n      MUL \t\t\t\n      PUSH [tag] 206\t\t\t\n      JUMP \t\t\t\n    tag 386\t\t\t\n      JUMPDEST \t\t\t\n      NOT \t\t\t\n      DUP1 \t\t\t\n      DUP4 \t\t\t\n      AND \t\t\t\n      SWAP2 \t\t\t\n      POP \t\t\t\n      POP \t\t\t\n      SWAP3 \t\t\t\n      SWAP2 \t\t\t\n      POP \t\t\t\n      POP \t\t\t\n      JUMP \t\t\t\n    tag 208\t\t\t\n      JUMPDEST \t\t\t\n      PUSH 0\t\t\t\n      PUSH [tag] 388\t\t\t\n      DUP4 \t\t\t\n      DUP4 \t\t\t\n      PUSH [tag] 207\t\t\t\n      JUMP \t\t\t\n    tag 388\t\t\t\n      JUMPDEST \t\t\t\n      SWAP2 \t\t\t\n      POP \t\t\t\n      DUP3 \t\t\t\n      PUSH 2\t\t\t\n      MUL \t\t\t\n      DUP3 \t\t\t\n      OR \t\t\t\n      SWAP1 \t\t\t\n      POP \t\t\t\n      SWAP3 \t\t\t\n      SWAP2 \t\t\t\n      POP \t\t\t\n      POP \t\t\t\n      JUMP \t\t\t\n    tag 51\t\t\t\n      JUMPDEST \t\t\t\n      PUSH [tag] 390\t\t\t\n      DUP3 \t\t\t\n      PUSH [tag] 170\t\t\t\n      JUMP \t\t\t\n    tag 390\t\t\t\n      JUMPDEST \t\t\t\n      PUSH FFFFFFFFFFFFFFFF\t\t\t\n      DUP2 \t\t\t\n      GT \t\t\t\n      ISZERO \t\t\t\n      PUSH [tag] 391\t\t\t\n      JUMPI \t\t\t\n      PUSH [tag] 392\t\t\t\n      PUSH [tag] 159\t\t\t\n      JUMP \t\t\t\n    tag 392\t\t\t\n      JUMPDEST \t\t\t\n    tag 391\t\t\t\n      JUMPDEST \t\t\t\n      PUSH [tag] 393\t\t\t\n      DUP3 \t\t\t\n      SLOAD \t\t\t\n      PUSH [tag] 88\t\t\t\n      JUMP \t\t\t\n    tag 393\t\t\t\n      JUMPDEST \t\t\t\n      PUSH [tag] 394\t\t\t\n      DUP3 \t\t\t\n      DUP3 \t\t\t\n      DUP6 \t\t\t\n      PUSH [tag] 205\t\t\t\n      JUMP \t\t\t\n    tag 394\t\t\t\n      JUMPDEST \t\t\t\n      PUSH 0\t\t\t\n      PUSH 20\t\t\t\n      SWAP1 \t\t\t\n      POP \t\t\t\n      PUSH 1F\t\t\t\n      DUP4 \t\t\t\n      GT \t\t\t\n      PUSH 1\t\t\t\n      DUP2 \t\t\t\n      EQ \t\t\t\n      PUSH [tag] 396\t\t\t\n      JUMPI \t\t\t\n      PUSH 0\t\t\t\n      DUP5 \t\t\t\n      ISZERO \t\t\t\n      PUSH [tag] 397\t\t\t\n      JUMPI \t\t\t\n      DUP3 \t\t\t\n      DUP8 \t\t\t\n      ADD \t\t\t\n      MLOAD \t\t\t\n      SWAP1 \t\t\t\n      POP \t\t\t\n    tag 397\t\t\t\n      JUMPDEST \t\t\t\n      PUSH [tag] 398\t\t\t\n      DUP6 \t\t\t\n      DUP3 \t\t\t\n      PUSH [tag] 208\t\t\t\n      JUMP \t\t\t\n    tag 398\t\t\t\n      JUMPDEST \t\t\t\n      DUP7 \t\t\t\n      SSTORE \t\t\t\n      POP \t\t\t\n      PUSH [tag] 395\t\t\t\n      JUMP \t\t\t\n    tag 396\t\t\t\n      JUMPDEST \t\t\t\n      PUSH 1F\t\t\t\n      NOT \t\t\t\n      DUP5 \t\t\t\n      AND \t\t\t\n      PUSH [tag] 399\t\t\t\n      DUP7 \t\t\t\n      PUSH [tag] 194\t\t\t\n      JUMP \t\t\t\n    tag 399\t\t\t\n      JUMPDEST \t\t\t\n      PUSH 0\t\t\t\n    tag 400\t\t\t\n      JUMPDEST \t\t\t\n      DUP3 \t\t\t\n      DUP2 \t\t\t\n      LT \t\t\t\n      ISZERO \t\t\t\n      PUSH [tag] 402\t\t\t\n      JUMPI \t\t\t\n      DUP5 \t\t\t\n      DUP10 \t\t\t\n      ADD \t\t\t\n      MLOAD \t\t\t\n      DUP3 \t\t\t\n      SSTORE \t\t\t\n      PUSH 1\t\t\t\n      DUP3 \t\t\t\n      ADD \t\t\t\n      SWAP2 \t\t\t\n      POP \t\t\t\n      PUSH 20\t\t\t\n      DUP6 \t\t\t\n      ADD \t\t\t\n      SWAP5 \t\t\t\n      POP \t\t\t\n      PUSH 20\t\t\t\n      DUP2 \t\t\t\n      ADD \t\t\t\n      SWAP1 \t\t\t\n      POP \t\t\t\n      PUSH [tag] 400\t\t\t\n      JUMP \t\t\t\n    tag 402\t\t\t\n      JUMPDEST \t\t\t\n      DUP7 \t\t\t\n      DUP4 \t\t\t\n      LT \t\t\t\n      ISZERO \t\t\t\n      PUSH [tag] 403\t\t\t\n      JUMPI \t\t\t\n      DUP5 \t\t\t\n      DUP10 \t\t\t\n      ADD \t\t\t\n      MLOAD \t\t\t\n      PUSH [tag] 404\t\t\t\n      PUSH 1F\t\t\t\n      DUP10 \t\t\t\n      AND \t\t\t\n      DUP3 \t\t\t\n      PUSH [tag] 207\t\t\t\n      JUMP \t\t\t\n    tag 404\t\t\t\n      JUMPDEST \t\t\t\n      DUP4 \t\t\t\n      SSTORE \t\t\t\n      POP \t\t\t\n    tag 403\t\t\t\n      JUMPDEST \t\t\t\n      PUSH 1\t\t\t\n      PUSH 2\t\t\t\n      DUP9 \t\t\t\n      MUL \t\t\t\n      ADD \t\t\t\n      DUP9 \t\t\t\n      SSTORE \t\t\t\n      POP \t\t\t\n      POP \t\t\t\n      POP \t\t\t\n    tag 395\t\t\t\n      JUMPDEST \t\t\t\n      POP \t\t\t\n      POP \t\t\t\n      POP \t\t\t\n      POP \t\t\t\n      POP \t\t\t\n      POP \t\t\t\n      JUMP \t\t\t\n    tag 54\t\t\t\n      JUMPDEST \t\t\t\n      PUSH 0\t\t\t\n      PUSH 80\t\t\t\n      DUP3 \t\t\t\n      ADD \t\t\t\n      SWAP1 \t\t\t\n      POP \t\t\t\n      PUSH [tag] 406\t\t\t\n      PUSH 0\t\t\t\n      DUP4 \t\t\t\n      ADD \t\t\t\n      DUP8 \t\t\t\n      PUSH [tag] 169\t\t\t\n      JUMP \t\t\t\n    tag 406\t\t\t\n      JUMPDEST \t\t\t\n      DUP2 \t\t\t\n      DUP2 \t\t\t\n      SUB \t\t\t\n      PUSH 20\t\t\t\n      DUP4 \t\t\t\n      ADD \t\t\t\n      MSTORE \t\t\t\n      PUSH [tag] 407\t\t\t\n      DUP2 \t\t\t\n      DUP7 \t\t\t\n      PUSH [tag] 173\t\t\t\n      JUMP \t\t\t\n    tag 407\t\t\t\n      JUMPDEST \t\t\t\n      SWAP1 \t\t\t\n      POP \t\t\t\n      DUP2 \t\t\t\n      DUP2 \t\t\t\n      SUB \t\t\t\n      PUSH 40\t\t\t\n      DUP4 \t\t\t\n      ADD \t\t\t\n      MSTORE \t\t\t\n      PUSH [tag] 408\t\t\t\n      DUP2 \t\t\t\n      DUP6 \t\t\t\n      PUSH [tag] 173\t\t\t\n      JUMP \t\t\t\n    tag 408\t\t\t\n      JUMPDEST \t\t\t\n      SWAP1 \t\t\t\n      POP \t\t\t\n      PUSH [tag] 409\t\t\t\n      PUSH 60\t\t\t\n      DUP4 \t\t\t\n      ADD \t\t\t\n      DUP5 \t\t\t\n      PUSH [tag] 169\t\t\t\n      JUMP \t\t\t\n    tag 409\t\t\t\n      JUMPDEST \t\t\t\n      SWAP6 \t\t\t\n      SWAP5 \t\t\t\n      POP \t\t\t\n      POP \t\t\t\n      POP \t\t\t\n      POP \t\t\t\n      POP \t\t\t\n      JUMP \t\t\t\n    tag 209\t\t\t\n      JUMPDEST \t\t\t\n      PUSH 4E487B7100000000000000000000000000000000000000000000000000000000\t\t\t\n      PUSH 0\t\t\t\n      MSTORE \t\t\t\n      PUSH 11\t\t\t\n      PUSH 4\t\t\t\n      MSTORE \t\t\t\n      PUSH 24\t\t\t\n      PUSH 0\t\t\t\n      REVERT \t\t\t\n    tag 56\t\t\t\n      JUMPDEST \t\t\t\n      PUSH 0\t\t\t\n      PUSH [tag] 412\t\t\t\n      DUP3 \t\t\t\n      PUSH [tag] 166\t\t\t\n      JUMP \t\t\t\n    tag 412\t\t\t\n      JUMPDEST \t\t\t\n      SWAP2 \t\t\t\n      POP \t\t\t\n      PUSH FFFFFFFFFFFFFFFFFFFFFFFFFFFFFFFFFFFFFFFFFFFFFFFFFFFFFFFFFFFFFFFF\t\t\t\n      DUP3 \t\t\t\n      SUB \t\t\t\n      PUSH [tag] 413\t\t\t\n      JUMPI \t\t\t\n      PUSH [tag] 414\t\t\t\n      PUSH [tag] 209\t\t\t\n      JUMP \t\t\t\n    tag 414\t\t\t\n      JUMPDEST \t\t\t\n    tag 413\t\t\t\n      JUMPDEST \t\t\t\n      PUSH 1\t\t\t\n      DUP3 \t\t\t\n      ADD \t\t\t\n      SWAP1 \t\t\t\n      POP \t\t\t\n      SWAP2 \t\t\t\n      SWAP1 \t\t\t\n      POP \t\t\t\n      JUMP \t\t\t\n    tag 60\t\t\t\n      JUMPDEST \t\t\t\n      PUSH 4E487B7100000000000000000000000000000000000000000000000000000000\t\t\t\n      PUSH 0\t\t\t\n      MSTORE \t\t\t\n      PUSH 32\t\t\t\n      PUSH 4\t\t\t\n      MSTORE \t\t\t\n      PUSH 24\t\t\t\n      PUSH 0\t\t\t\n      REVERT \t\t\t\n    tag 210\t\t\t\n      JUMPDEST \t\t\t\n      PUSH 4F6E6C79207468652073656C6C65722063616E20706572666F726D2074686973\t\t\t\n      PUSH 0\t\t\t\n      DUP3 \t\t\t\n      ADD \t\t\t\n      MSTORE \t\t\t\n      PUSH 20616374696F6E00000000000000000000000000000000000000000000000000\t\t\t\n      PUSH 20\t\t\t\n      DUP3 \t\t\t\n      ADD \t\t\t\n      MSTORE \t\t\t\n      POP \t\t\t\n      JUMP \t\t\t\n    tag 211\t\t\t\n      JUMPDEST \t\t\t\n      PUSH 0\t\t\t\n      PUSH [tag] 418\t\t\t\n      PUSH 27\t\t\t\n      DUP4 \t\t\t\n      PUSH [tag] 171\t\t\t\n      JUMP \t\t\t\n    tag 418\t\t\t\n      JUMPDEST \t\t\t\n      SWAP2 \t\t\t\n      POP \t\t\t\n      PUSH [tag] 419\t\t\t\n      DUP3 \t\t\t\n      PUSH [tag] 210\t\t\t\n      JUMP \t\t\t\n    tag 419\t\t\t\n      JUMPDEST \t\t\t\n      PUSH 40\t\t\t\n      DUP3 \t\t\t\n      ADD \t\t\t\n      SWAP1 \t\t\t\n      POP \t\t\t\n      SWAP2 \t\t\t\n      SWAP1 \t\t\t\n      POP \t\t\t\n      JUMP \t\t\t\n    tag 64\t\t\t\n      JUMPDEST \t\t\t\n      PUSH 0\t\t\t\n      PUSH 20\t\t\t\n      DUP3 \t\t\t\n      ADD \t\t\t\n      SWAP1 \t\t\t\n      POP \t\t\t\n      DUP2 \t\t\t\n      DUP2 \t\t\t\n      SUB \t\t\t\n      PUSH 0\t\t\t\n      DUP4 \t\t\t\n      ADD \t\t\t\n      MSTORE \t\t\t\n      PUSH [tag] 421\t\t\t\n      DUP2 \t\t\t\n      PUSH [tag] 211\t\t\t\n      JUMP \t\t\t\n    tag 421\t\t\t\n      JUMPDEST \t\t\t\n      SWAP1 \t\t\t\n      POP \t\t\t\n      SWAP2 \t\t\t\n      SWAP1 \t\t\t\n      POP \t\t\t\n      JUMP \t\t\t\n    tag 212\t\t\t\n      JUMPDEST \t\t\t\n      PUSH 43616E6E6F742063616E63656C2C206974656D20616C726561647920736F6C64\t\t\t\n      PUSH 0\t\t\t\n      DUP3 \t\t\t\n      ADD \t\t\t\n      MSTORE \t\t\t\n      POP \t\t\t\n      JUMP \t\t\t\n    tag 213\t\t\t\n      JUMPDEST \t\t\t\n      PUSH 0\t\t\t\n      PUSH [tag] 424\t\t\t\n      PUSH 20\t\t\t\n      DUP4 \t\t\t\n      PUSH [tag] 171\t\t\t\n      JUMP \t\t\t\n    tag 424\t\t\t\n      JUMPDEST \t\t\t\n      SWAP2 \t\t\t\n      POP \t\t\t\n      PUSH [tag] 425\t\t\t\n      DUP3 \t\t\t\n      PUSH [tag] 212\t\t\t\n      JUMP \t\t\t\n    tag 425\t\t\t\n      JUMPDEST \t\t\t\n      PUSH 20\t\t\t\n      DUP3 \t\t\t\n      ADD \t\t\t\n      SWAP1 \t\t\t\n      POP \t\t\t\n      SWAP2 \t\t\t\n      SWAP1 \t\t\t\n      POP \t\t\t\n      JUMP \t\t\t\n    tag 71\t\t\t\n      JUMPDEST \t\t\t\n      PUSH 0\t\t\t\n      PUSH 20\t\t\t\n      DUP3 \t\t\t\n      ADD \t\t\t\n      SWAP1 \t\t\t\n      POP \t\t\t\n      DUP2 \t\t\t\n      DUP2 \t\t\t\n      SUB \t\t\t\n      PUSH 0\t\t\t\n      DUP4 \t\t\t\n      ADD \t\t\t\n      MSTORE \t\t\t\n      PUSH [tag] 427\t\t\t\n      DUP2 \t\t\t\n      PUSH [tag] 213\t\t\t\n      JUMP \t\t\t\n    tag 427\t\t\t\n      JUMPDEST \t\t\t\n      SWAP1 \t\t\t\n      POP \t\t\t\n      SWAP2 \t\t\t\n      SWAP1 \t\t\t\n      POP \t\t\t\n      JUMP \t\t\t\n    tag 214\t\t\t\n      JUMPDEST \t\t\t\n      PUSH 4974656D20646F6573206E6F7420657869737400000000000000000000000000\t\t\t\n      PUSH 0\t\t\t\n      DUP3 \t\t\t\n      ADD \t\t\t\n      MSTORE \t\t\t\n      POP \t\t\t\n      JUMP \t\t\t\n    tag 215\t\t\t\n      JUMPDEST \t\t\t\n      PUSH 0\t\t\t\n      PUSH [tag] 430\t\t\t\n      PUSH 13\t\t\t\n      DUP4 \t\t\t\n      PUSH [tag] 171\t\t\t\n      JUMP \t\t\t\n    tag 430\t\t\t\n      JUMPDEST \t\t\t\n      SWAP2 \t\t\t\n      POP \t\t\t\n      PUSH [tag] 431\t\t\t\n      DUP3 \t\t\t\n      PUSH [tag] 214\t\t\t\n      JUMP \t\t\t\n    tag 431\t\t\t\n      JUMPDEST \t\t\t\n      PUSH 20\t\t\t\n      DUP3 \t\t\t\n      ADD \t\t\t\n      SWAP1 \t\t\t\n      POP \t\t\t\n      SWAP2 \t\t\t\n      SWAP1 \t\t\t\n      POP \t\t\t\n      JUMP \t\t\t\n    tag 83\t\t\t\n      JUMPDEST \t\t\t\n      PUSH 0\t\t\t\n      PUSH 20\t\t\t\n      DUP3 \t\t\t\n      ADD \t\t\t\n      SWAP1 \t\t\t\n      POP \t\t\t\n      DUP2 \t\t\t\n      DUP2 \t\t\t\n      SUB \t\t\t\n      PUSH 0\t\t\t\n      DUP4 \t\t\t\n      ADD \t\t\t\n      MSTORE \t\t\t\n      PUSH [tag] 433\t\t\t\n      DUP2 \t\t\t\n      PUSH [tag] 215\t\t\t\n      JUMP \t\t\t\n    tag 433\t\t\t\n      JUMPDEST \t\t\t\n      SWAP1 \t\t\t\n      POP \t\t\t\n      SWAP2 \t\t\t\n      SWAP1 \t\t\t\n      POP \t\t\t\n      JUMP \t\t\t\n    tag 216\t\t\t\n      JUMPDEST \t\t\t\n      PUSH 4E6F207265656E7472616E637920616C6C6F7765642100000000000000000000\t\t\t\n      PUSH 0\t\t\t\n      DUP3 \t\t\t\n      ADD \t\t\t\n      MSTORE \t\t\t\n      POP \t\t\t\n      JUMP \t\t\t\n    tag 217\t\t\t\n      JUMPDEST \t\t\t\n      PUSH 0\t\t\t\n      PUSH [tag] 436\t\t\t\n      PUSH 16\t\t\t\n      DUP4 \t\t\t\n      PUSH [tag] 171\t\t\t\n      JUMP \t\t\t\n    tag 436\t\t\t\n      JUMPDEST \t\t\t\n      SWAP2 \t\t\t\n      POP \t\t\t\n      PUSH [tag] 437\t\t\t\n      DUP3 \t\t\t\n      PUSH [tag] 216\t\t\t\n      JUMP \t\t\t\n    tag 437\t\t\t\n      JUMPDEST \t\t\t\n      PUSH 20\t\t\t\n      DUP3 \t\t\t\n      ADD \t\t\t\n      SWAP1 \t\t\t\n      POP \t\t\t\n      SWAP2 \t\t\t\n      SWAP1 \t\t\t\n      POP \t\t\t\n      JUMP \t\t\t\n    tag 127\t\t\t\n      JUMPDEST \t\t\t\n      PUSH 0\t\t\t\n      PUSH 20\t\t\t\n      DUP3 \t\t\t\n      ADD \t\t\t\n      SWAP1 \t\t\t\n      POP \t\t\t\n      DUP2 \t\t\t\n      DUP2 \t\t\t\n      SUB \t\t\t\n      PUSH 0\t\t\t\n      DUP4 \t\t\t\n      ADD \t\t\t\n      MSTORE \t\t\t\n      PUSH [tag] 439\t\t\t\n      DUP2 \t\t\t\n      PUSH [tag] 217\t\t\t\n      JUMP \t\t\t\n    tag 439\t\t\t\n      JUMPDEST \t\t\t\n      SWAP1 \t\t\t\n      POP \t\t\t\n      SWAP2 \t\t\t\n      SWAP1 \t\t\t\n      POP \t\t\t\n      JUMP \t\t\t\n    tag 218\t\t\t\n      JUMPDEST \t\t\t\n      PUSH 4974656D20616C726561647920736F6C64000000000000000000000000000000\t\t\t\n      PUSH 0\t\t\t\n      DUP3 \t\t\t\n      ADD \t\t\t\n      MSTORE \t\t\t\n      POP \t\t\t\n      JUMP \t\t\t\n    tag 219\t\t\t\n      JUMPDEST \t\t\t\n      PUSH 0\t\t\t\n      PUSH [tag] 442\t\t\t\n      PUSH 11\t\t\t\n      DUP4 \t\t\t\n      PUSH [tag] 171\t\t\t\n      JUMP \t\t\t\n    tag 442\t\t\t\n      JUMPDEST \t\t\t\n      SWAP2 \t\t\t\n      POP \t\t\t\n      PUSH [tag] 443\t\t\t\n      DUP3 \t\t\t\n      PUSH [tag] 218\t\t\t\n      JUMP \t\t\t\n    tag 443\t\t\t\n      JUMPDEST \t\t\t\n      PUSH 20\t\t\t\n      DUP3 \t\t\t\n      ADD \t\t\t\n      SWAP1 \t\t\t\n      POP \t\t\t\n      SWAP2 \t\t\t\n      SWAP1 \t\t\t\n      POP \t\t\t\n      JUMP \t\t\t\n    tag 140\t\t\t\n      JUMPDEST \t\t\t\n      PUSH 0\t\t\t\n      PUSH 20\t\t\t\n      DUP3 \t\t\t\n      ADD \t\t\t\n      SWAP1 \t\t\t\n      POP \t\t\t\n      DUP2 \t\t\t\n      DUP2 \t\t\t\n      SUB \t\t\t\n      PUSH 0\t\t\t\n      DUP4 \t\t\t\n      ADD \t\t\t\n      MSTORE \t\t\t\n      PUSH [tag] 445\t\t\t\n      DUP2 \t\t\t\n      PUSH [tag] 219\t\t\t\n      JUMP \t\t\t\n    tag 445\t\t\t\n      JUMPDEST \t\t\t\n      SWAP1 \t\t\t\n      POP \t\t\t\n      SWAP2 \t\t\t\n      SWAP1 \t\t\t\n      POP \t\t\t\n      JUMP \t\t\t\n    tag 220\t\t\t\n      JUMPDEST \t\t\t\n      PUSH 4E6F7420656E6F7567682065746865722073656E740000000000000000000000\t\t\t\n      PUSH 0\t\t\t\n      DUP3 \t\t\t\n      ADD \t\t\t\n      MSTORE \t\t\t\n      POP \t\t\t\n      JUMP \t\t\t\n    tag 221\t\t\t\n      JUMPDEST \t\t\t\n      PUSH 0\t\t\t\n      PUSH [tag] 448\t\t\t\n      PUSH 15\t\t\t\n      DUP4 \t\t\t\n      PUSH [tag] 171\t\t\t\n      JUMP \t\t\t\n    tag 448\t\t\t\n      JUMPDEST \t\t\t\n      SWAP2 \t\t\t\n      POP \t\t\t\n      PUSH [tag] 449\t\t\t\n      DUP3 \t\t\t\n      PUSH [tag] 220\t\t\t\n      JUMP \t\t\t\n    tag 449\t\t\t\n      JUMPDEST \t\t\t\n      PUSH 20\t\t\t\n      DUP3 \t\t\t\n      ADD \t\t\t\n      SWAP1 \t\t\t\n      POP \t\t\t\n      SWAP2 \t\t\t\n      SWAP1 \t\t\t\n      POP \t\t\t\n      JUMP \t\t\t\n    tag 143\t\t\t\n      JUMPDEST \t\t\t\n      PUSH 0\t\t\t\n      PUSH 20\t\t\t\n      DUP3 \t\t\t\n      ADD \t\t\t\n      SWAP1 \t\t\t\n      POP \t\t\t\n      DUP2 \t\t\t\n      DUP2 \t\t\t\n      SUB \t\t\t\n      PUSH 0\t\t\t\n      DUP4 \t\t\t\n      ADD \t\t\t\n      MSTORE \t\t\t\n      PUSH [tag] 451\t\t\t\n      DUP2 \t\t\t\n      PUSH [tag] 221\t\t\t\n      JUMP \t\t\t\n    tag 451\t\t\t\n      JUMPDEST \t\t\t\n      SWAP1 \t\t\t\n      POP \t\t\t\n      SWAP2 \t\t\t\n      SWAP1 \t\t\t\n      POP \t\t\t\n      JUMP \t\t\t\n    tag 148\t\t\t\n      JUMPDEST \t\t\t\n      PUSH 0\t\t\t\n      PUSH [tag] 453\t\t\t\n      DUP3 \t\t\t\n      PUSH [tag] 166\t\t\t\n      JUMP \t\t\t\n    tag 453\t\t\t\n      JUMPDEST \t\t\t\n      SWAP2 \t\t\t\n      POP \t\t\t\n      PUSH [tag] 454\t\t\t\n      DUP4 \t\t\t\n      PUSH [tag] 166\t\t\t\n      JUMP \t\t\t\n    tag 454\t\t\t\n      JUMPDEST \t\t\t\n      SWAP3 \t\t\t\n      POP \t\t\t\n      DUP3 \t\t\t\n      DUP3 \t\t\t\n      SUB \t\t\t\n      SWAP1 \t\t\t\n      POP \t\t\t\n      DUP2 \t\t\t\n      DUP2 \t\t\t\n      GT \t\t\t\n      ISZERO \t\t\t\n      PUSH [tag] 455\t\t\t\n      JUMPI \t\t\t\n      PUSH [tag] 456\t\t\t\n      PUSH [tag] 209\t\t\t\n      JUMP \t\t\t\n    tag 456\t\t\t\n      JUMPDEST \t\t\t\n    tag 455\t\t\t\n      JUMPDEST \t\t\t\n      SWAP3 \t\t\t\n      SWAP2 \t\t\t\n      POP \t\t\t\n      POP \t\t\t\n      JUMP \t\t\t\n    tag 152\t\t\t\n      JUMPDEST \t\t\t\n      PUSH 0\t\t\t\n      PUSH 40\t\t\t\n      DUP3 \t\t\t\n      ADD \t\t\t\n      SWAP1 \t\t\t\n      POP \t\t\t\n      PUSH [tag] 458\t\t\t\n      PUSH 0\t\t\t\n      DUP4 \t\t\t\n      ADD \t\t\t\n      DUP6 \t\t\t\n      PUSH [tag] 169\t\t\t\n      JUMP \t\t\t\n    tag 458\t\t\t\n      JUMPDEST \t\t\t\n      PUSH [tag] 459\t\t\t\n      PUSH 20\t\t\t\n      DUP4 \t\t\t\n      ADD \t\t\t\n      DUP5 \t\t\t\n      PUSH [tag] 169\t\t\t\n      JUMP \t\t\t\n    tag 459\t\t\t\n      JUMPDEST \t\t\t\n      SWAP4 \t\t\t\n      SWAP3 \t\t\t\n      POP \t\t\t\n      POP \t\t\t\n      POP \t\t\t\n      JUMP \t\t\t\n    .data\n"
}